{
	"supplychain.sol": {
		"SupplyChain": {
			"abi": [
				{
					"anonymous": false,
					"inputs": [
						{
							"indexed": false,
							"internalType": "address",
							"name": "farmerAddress",
							"type": "address"
						},
						{
							"indexed": false,
							"internalType": "string",
							"name": "farmerKey",
							"type": "string"
						}
					],
					"name": "farmerAddition",
					"type": "event"
				},
				{
					"anonymous": false,
					"inputs": [
						{
							"indexed": false,
							"internalType": "address",
							"name": "inspectoAddress",
							"type": "address"
						},
						{
							"indexed": false,
							"internalType": "string",
							"name": "inspectoKey",
							"type": "string"
						}
					],
					"name": "inspectorAddition",
					"type": "event"
				},
				{
					"anonymous": false,
					"inputs": [
						{
							"indexed": false,
							"internalType": "address",
							"name": "processorAddress",
							"type": "address"
						},
						{
							"indexed": false,
							"internalType": "string",
							"name": "processorKey",
							"type": "string"
						}
					],
					"name": "processorAddition",
					"type": "event"
				},
				{
					"anonymous": false,
					"inputs": [
						{
							"indexed": false,
							"internalType": "address",
							"name": "retailerAddress",
							"type": "address"
						},
						{
							"indexed": false,
							"internalType": "string",
							"name": "retailerKey",
							"type": "string"
						}
					],
					"name": "retailerAddition",
					"type": "event"
				},
				{
					"inputs": [
						{
							"internalType": "string",
							"name": "_batchNumber",
							"type": "string"
						},
						{
							"internalType": "string",
							"name": "_lotNumber",
							"type": "string"
						}
					],
					"name": "BatchtoLot",
					"outputs": [],
					"stateMutability": "nonpayable",
					"type": "function"
				},
				{
					"inputs": [
						{
							"internalType": "address",
							"name": "_farmer",
							"type": "address"
						},
						{
							"internalType": "string",
							"name": "_farmerKey",
							"type": "string"
						}
					],
					"name": "addFarmer",
					"outputs": [],
					"stateMutability": "nonpayable",
					"type": "function"
				},
				{
					"inputs": [
						{
							"internalType": "address",
							"name": "_inspector",
							"type": "address"
						},
						{
							"internalType": "string",
							"name": "_inspectorKey",
							"type": "string"
						}
					],
					"name": "addInspector",
					"outputs": [],
					"stateMutability": "nonpayable",
					"type": "function"
				},
				{
					"inputs": [
						{
							"internalType": "address",
							"name": "_processor",
							"type": "address"
						},
						{
							"internalType": "string",
							"name": "_processorKey",
							"type": "string"
						}
					],
					"name": "addProcessor",
					"outputs": [],
					"stateMutability": "nonpayable",
					"type": "function"
				},
				{
					"inputs": [
						{
							"internalType": "address",
							"name": "_processor",
							"type": "address"
						},
						{
							"internalType": "address",
							"name": "_farmer",
							"type": "address"
						},
						{
							"internalType": "string",
							"name": "_lotNumber",
							"type": "string"
						},
						{
							"internalType": "string",
							"name": "_remarks",
							"type": "string"
						},
						{
							"internalType": "string",
							"name": "_receivedShipment",
							"type": "string"
						}
					],
					"name": "addProcessorReport",
					"outputs": [],
					"stateMutability": "nonpayable",
					"type": "function"
				},
				{
					"inputs": [
						{
							"internalType": "address",
							"name": "_farmer",
							"type": "address"
						},
						{
							"internalType": "address",
							"name": "_inspector",
							"type": "address"
						},
						{
							"internalType": "string",
							"name": "_lotNumber",
							"type": "string"
						},
						{
							"internalType": "string",
							"name": "_remarks",
							"type": "string"
						},
						{
							"internalType": "int256",
							"name": "_sampleSize",
							"type": "int256"
						},
						{
							"internalType": "int256",
							"name": "_quantity",
							"type": "int256"
						},
						{
							"internalType": "int256",
							"name": "_defective",
							"type": "int256"
						}
					],
					"name": "addQualityReport",
					"outputs": [],
					"stateMutability": "nonpayable",
					"type": "function"
				},
				{
					"inputs": [
						{
							"internalType": "address",
							"name": "_retailer",
							"type": "address"
						},
						{
							"internalType": "string",
							"name": "_retailerKey",
							"type": "string"
						}
					],
					"name": "addRetailer",
					"outputs": [],
					"stateMutability": "nonpayable",
					"type": "function"
				},
				{
					"inputs": [
						{
							"internalType": "address",
							"name": "_retailer",
							"type": "address"
						},
						{
							"internalType": "address",
							"name": "_processor",
							"type": "address"
						},
						{
							"internalType": "address",
							"name": "_farmer",
							"type": "address"
						},
						{
							"internalType": "string",
							"name": "_remarks",
							"type": "string"
						},
						{
							"internalType": "string",
							"name": "_rawMaterial",
							"type": "string"
						},
						{
							"internalType": "string",
							"name": "_productName",
							"type": "string"
						},
						{
							"internalType": "string",
							"name": "_manufacturedDate",
							"type": "string"
						},
						{
							"internalType": "int256",
							"name": "_quantity",
							"type": "int256"
						},
						{
							"internalType": "string",
							"name": "_batchNumber",
							"type": "string"
						}
					],
					"name": "addRetailerReport",
					"outputs": [],
					"stateMutability": "nonpayable",
					"type": "function"
				},
				{
					"inputs": [
						{
							"internalType": "address",
							"name": "_processor",
							"type": "address"
						},
						{
							"internalType": "address",
							"name": "_farmer",
							"type": "address"
						},
						{
							"internalType": "string",
							"name": "_lotNumber",
							"type": "string"
						}
					],
					"name": "getProcessorReport",
					"outputs": [
						{
							"internalType": "string",
							"name": "_remarks",
							"type": "string"
						},
						{
							"internalType": "string",
							"name": "_receivedShipment",
							"type": "string"
						}
					],
					"stateMutability": "view",
					"type": "function"
				},
				{
					"inputs": [
						{
							"internalType": "address",
							"name": "_farmer",
							"type": "address"
						},
						{
							"internalType": "string",
							"name": "_lotNumber",
							"type": "string"
						}
					],
					"name": "getQualityReport",
					"outputs": [
						{
							"internalType": "string",
							"name": "_remarks",
							"type": "string"
						},
						{
							"internalType": "address",
							"name": "_inspector",
							"type": "address"
						},
						{
							"internalType": "int256",
							"name": "_sampleSize",
							"type": "int256"
						},
						{
							"internalType": "int256",
							"name": "_defective",
							"type": "int256"
						},
						{
							"internalType": "int256",
							"name": "_quantity",
							"type": "int256"
						}
					],
					"stateMutability": "view",
					"type": "function"
				},
				{
					"inputs": [
						{
							"internalType": "address",
							"name": "_retailer",
							"type": "address"
						},
						{
							"internalType": "string",
							"name": "_batchNumber",
							"type": "string"
						}
					],
					"name": "getRetailerReport",
					"outputs": [
						{
							"internalType": "string",
							"name": "_productName",
							"type": "string"
						},
						{
							"internalType": "string",
							"name": "_remarks",
							"type": "string"
						},
						{
							"internalType": "string",
							"name": "_rawMaterial",
							"type": "string"
						},
						{
							"internalType": "string",
							"name": "_manufacturedDate",
							"type": "string"
						},
						{
							"internalType": "int256",
							"name": "_quantity",
							"type": "int256"
						}
					],
					"stateMutability": "view",
					"type": "function"
				}
			],
			"devdoc": {
				"kind": "dev",
				"methods": {},
				"version": 1
			},
			"evm": {
				"assembly": "    /* \"supplychain.sol\":59:7204  contract SupplyChain{... */\n  mstore(0x40, 0x80)\n  callvalue\n  dup1\n  iszero\n  tag_1\n  jumpi\n  0x00\n  dup1\n  revert\ntag_1:\n  pop\n  dataSize(sub_0)\n  dup1\n  dataOffset(sub_0)\n  0x00\n  codecopy\n  0x00\n  return\nstop\n\nsub_0: assembly {\n        /* \"supplychain.sol\":59:7204  contract SupplyChain{... */\n      mstore(0x40, 0x80)\n      callvalue\n      dup1\n      iszero\n      tag_1\n      jumpi\n      0x00\n      dup1\n      revert\n    tag_1:\n      pop\n      jumpi(tag_2, lt(calldatasize, 0x04))\n      calldataload(0x00)\n      0x0100000000000000000000000000000000000000000000000000000000\n      swap1\n      div\n      dup1\n      0x78e5099b\n      gt\n      tag_14\n      jumpi\n      dup1\n      0x78e5099b\n      eq\n      tag_8\n      jumpi\n      dup1\n      0x84730f7a\n      eq\n      tag_9\n      jumpi\n      dup1\n      0x864a80b4\n      eq\n      tag_10\n      jumpi\n      dup1\n      0x89671bf0\n      eq\n      tag_11\n      jumpi\n      dup1\n      0xa64ad3ff\n      eq\n      tag_12\n      jumpi\n      dup1\n      0xe1277058\n      eq\n      tag_13\n      jumpi\n      jump(tag_2)\n    tag_14:\n      dup1\n      0x10bdc518\n      eq\n      tag_3\n      jumpi\n      dup1\n      0x296c3ad1\n      eq\n      tag_4\n      jumpi\n      dup1\n      0x37225024\n      eq\n      tag_5\n      jumpi\n      dup1\n      0x5b5100ff\n      eq\n      tag_6\n      jumpi\n      dup1\n      0x75c6da23\n      eq\n      tag_7\n      jumpi\n    tag_2:\n      0x00\n      dup1\n      revert\n        /* \"supplychain.sol\":5500:5635  function BatchtoLot(string memory _batchNumber,string memory _lotNumber) public{... */\n    tag_3:\n      tag_15\n      0x04\n      dup1\n      calldatasize\n      sub\n      dup2\n      add\n      swap1\n      tag_16\n      swap2\n      swap1\n      tag_17\n      jump\t// in\n    tag_16:\n      tag_18\n      jump\t// in\n    tag_15:\n      stop\n        /* \"supplychain.sol\":4531:5110  function addProcessorReport(address _processor,address _farmer,... */\n    tag_4:\n      tag_19\n      0x04\n      dup1\n      calldatasize\n      sub\n      dup2\n      add\n      swap1\n      tag_20\n      swap2\n      swap1\n      tag_21\n      jump\t// in\n    tag_20:\n      tag_22\n      jump\t// in\n    tag_19:\n      stop\n        /* \"supplychain.sol\":6491:7196  function getRetailerReport(address _retailer,string memory _batchNumber) public view returns(... */\n    tag_5:\n      tag_23\n      0x04\n      dup1\n      calldatasize\n      sub\n      dup2\n      add\n      swap1\n      tag_24\n      swap2\n      swap1\n      tag_25\n      jump\t// in\n    tag_24:\n      tag_26\n      jump\t// in\n    tag_23:\n      mload(0x40)\n      tag_27\n      swap6\n      swap5\n      swap4\n      swap3\n      swap2\n      swap1\n      tag_28\n      jump\t// in\n    tag_27:\n      mload(0x40)\n      dup1\n      swap2\n      sub\n      swap1\n      return\n        /* \"supplychain.sol\":5116:5494  function getProcessorReport(address _processor,address _farmer,string memory _lotNumber) public view returns(... */\n    tag_6:\n      tag_29\n      0x04\n      dup1\n      calldatasize\n      sub\n      dup2\n      add\n      swap1\n      tag_30\n      swap2\n      swap1\n      tag_31\n      jump\t// in\n    tag_30:\n      tag_32\n      jump\t// in\n    tag_29:\n      mload(0x40)\n      tag_33\n      swap3\n      swap2\n      swap1\n      tag_34\n      jump\t// in\n    tag_33:\n      mload(0x40)\n      dup1\n      swap2\n      sub\n      swap1\n      return\n        /* \"supplychain.sol\":3170:3399  function addRetailer(address _retailer,string memory _retailerKey) public {... */\n    tag_7:\n      tag_35\n      0x04\n      dup1\n      calldatasize\n      sub\n      dup2\n      add\n      swap1\n      tag_36\n      swap2\n      swap1\n      tag_25\n      jump\t// in\n    tag_36:\n      tag_37\n      jump\t// in\n    tag_35:\n      stop\n        /* \"supplychain.sol\":2678:2918  function addProcessor(address _processor,string memory _processorKey) public {... */\n    tag_8:\n      tag_38\n      0x04\n      dup1\n      calldatasize\n      sub\n      dup2\n      add\n      swap1\n      tag_39\n      swap2\n      swap1\n      tag_25\n      jump\t// in\n    tag_39:\n      tag_40\n      jump\t// in\n    tag_38:\n      stop\n        /* \"supplychain.sol\":5641:6485  function addRetailerReport(address _retailer, address _processor, address _farmer,... */\n    tag_9:\n      tag_41\n      0x04\n      dup1\n      calldatasize\n      sub\n      dup2\n      add\n      swap1\n      tag_42\n      swap2\n      swap1\n      tag_43\n      jump\t// in\n    tag_42:\n      tag_44\n      jump\t// in\n    tag_41:\n      stop\n        /* \"supplychain.sol\":3932:4525  function getQualityReport(address _farmer,string memory _lotNumber) public view returns(... */\n    tag_10:\n      tag_45\n      0x04\n      dup1\n      calldatasize\n      sub\n      dup2\n      add\n      swap1\n      tag_46\n      swap2\n      swap1\n      tag_25\n      jump\t// in\n    tag_46:\n      tag_47\n      jump\t// in\n    tag_45:\n      mload(0x40)\n      tag_48\n      swap6\n      swap5\n      swap4\n      swap3\n      swap2\n      swap1\n      tag_49\n      jump\t// in\n    tag_48:\n      mload(0x40)\n      dup1\n      swap2\n      sub\n      swap1\n      return\n        /* \"supplychain.sol\":2465:2672  function addFarmer(address _farmer,string memory _farmerKey) public {... */\n    tag_11:\n      tag_50\n      0x04\n      dup1\n      calldatasize\n      sub\n      dup2\n      add\n      swap1\n      tag_51\n      swap2\n      swap1\n      tag_25\n      jump\t// in\n    tag_51:\n      tag_52\n      jump\t// in\n    tag_50:\n      stop\n        /* \"supplychain.sol\":3405:3926  function addQualityReport(address _farmer,address _inspector,string memory _lotNumber,string memory _remarks,int256 _sampleSize,int256 _quantity, int256 _defective) public {... */\n    tag_12:\n      tag_53\n      0x04\n      dup1\n      calldatasize\n      sub\n      dup2\n      add\n      swap1\n      tag_54\n      swap2\n      swap1\n      tag_55\n      jump\t// in\n    tag_54:\n      tag_56\n      jump\t// in\n    tag_53:\n      stop\n        /* \"supplychain.sol\":2924:3164  function addInspector(address _inspector,string memory _inspectorKey) public {... */\n    tag_13:\n      tag_57\n      0x04\n      dup1\n      calldatasize\n      sub\n      dup2\n      add\n      swap1\n      tag_58\n      swap2\n      swap1\n      tag_25\n      jump\t// in\n    tag_58:\n      tag_59\n      jump\t// in\n    tag_57:\n      stop\n        /* \"supplychain.sol\":5500:5635  function BatchtoLot(string memory _batchNumber,string memory _lotNumber) public{... */\n    tag_18:\n        /* \"supplychain.sol\":5617:5627  _lotNumber */\n      dup1\n        /* \"supplychain.sol\":5590:5600  lotToBatch */\n      0x0a\n        /* \"supplychain.sol\":5601:5613  _batchNumber */\n      dup4\n        /* \"supplychain.sol\":5590:5614  lotToBatch[_batchNumber] */\n      mload(0x40)\n      tag_61\n      swap2\n      swap1\n      tag_62\n      jump\t// in\n    tag_61:\n      swap1\n      dup2\n      mstore\n      0x20\n      add\n      mload(0x40)\n      dup1\n      swap2\n      sub\n      swap1\n      keccak256\n        /* \"supplychain.sol\":5590:5627  lotToBatch[_batchNumber] = _lotNumber */\n      swap1\n      dup2\n      tag_63\n      swap2\n      swap1\n      tag_64\n      jump\t// in\n    tag_63:\n      pop\n        /* \"supplychain.sol\":5500:5635  function BatchtoLot(string memory _batchNumber,string memory _lotNumber) public{... */\n      pop\n      pop\n      jump\t// out\n        /* \"supplychain.sol\":4531:5110  function addProcessorReport(address _processor,address _farmer,... */\n    tag_22:\n        /* \"supplychain.sol\":4885:4893  _remarks */\n      dup2\n        /* \"supplychain.sol\":4825:4841  processorReports */\n      0x09\n        /* \"supplychain.sol\":4825:4853  processorReports[_processor] */\n      0x00\n        /* \"supplychain.sol\":4842:4852  _processor */\n      dup8\n        /* \"supplychain.sol\":4825:4853  processorReports[_processor] */\n      0xffffffffffffffffffffffffffffffffffffffff\n      and\n      0xffffffffffffffffffffffffffffffffffffffff\n      and\n      dup2\n      mstore\n      0x20\n      add\n      swap1\n      dup2\n      mstore\n      0x20\n      add\n      0x00\n      keccak256\n        /* \"supplychain.sol\":4825:4862  processorReports[_processor][_farmer] */\n      0x00\n        /* \"supplychain.sol\":4854:4861  _farmer */\n      dup7\n        /* \"supplychain.sol\":4825:4862  processorReports[_processor][_farmer] */\n      0xffffffffffffffffffffffffffffffffffffffff\n      and\n      0xffffffffffffffffffffffffffffffffffffffff\n      and\n      dup2\n      mstore\n      0x20\n      add\n      swap1\n      dup2\n      mstore\n      0x20\n      add\n      0x00\n      keccak256\n        /* \"supplychain.sol\":4863:4873  _lotNumber */\n      dup5\n        /* \"supplychain.sol\":4825:4874  processorReports[_processor][_farmer][_lotNumber] */\n      mload(0x40)\n      tag_66\n      swap2\n      swap1\n      tag_62\n      jump\t// in\n    tag_66:\n      swap1\n      dup2\n      mstore\n      0x20\n      add\n      mload(0x40)\n      dup1\n      swap2\n      sub\n      swap1\n      keccak256\n        /* \"supplychain.sol\":4825:4882  processorReports[_processor][_farmer][_lotNumber].remarks */\n      0x00\n      add\n        /* \"supplychain.sol\":4825:4893  processorReports[_processor][_farmer][_lotNumber].remarks = _remarks */\n      swap1\n      dup2\n      tag_67\n      swap2\n      swap1\n      tag_64\n      jump\t// in\n    tag_67:\n      pop\n        /* \"supplychain.sol\":4973:4990  _receivedShipment */\n      dup1\n        /* \"supplychain.sol\":4904:4920  processorReports */\n      0x09\n        /* \"supplychain.sol\":4904:4932  processorReports[_processor] */\n      0x00\n        /* \"supplychain.sol\":4921:4931  _processor */\n      dup8\n        /* \"supplychain.sol\":4904:4932  processorReports[_processor] */\n      0xffffffffffffffffffffffffffffffffffffffff\n      and\n      0xffffffffffffffffffffffffffffffffffffffff\n      and\n      dup2\n      mstore\n      0x20\n      add\n      swap1\n      dup2\n      mstore\n      0x20\n      add\n      0x00\n      keccak256\n        /* \"supplychain.sol\":4904:4941  processorReports[_processor][_farmer] */\n      0x00\n        /* \"supplychain.sol\":4933:4940  _farmer */\n      dup7\n        /* \"supplychain.sol\":4904:4941  processorReports[_processor][_farmer] */\n      0xffffffffffffffffffffffffffffffffffffffff\n      and\n      0xffffffffffffffffffffffffffffffffffffffff\n      and\n      dup2\n      mstore\n      0x20\n      add\n      swap1\n      dup2\n      mstore\n      0x20\n      add\n      0x00\n      keccak256\n        /* \"supplychain.sol\":4942:4952  _lotNumber */\n      dup5\n        /* \"supplychain.sol\":4904:4953  processorReports[_processor][_farmer][_lotNumber] */\n      mload(0x40)\n      tag_68\n      swap2\n      swap1\n      tag_62\n      jump\t// in\n    tag_68:\n      swap1\n      dup2\n      mstore\n      0x20\n      add\n      mload(0x40)\n      dup1\n      swap2\n      sub\n      swap1\n      keccak256\n        /* \"supplychain.sol\":4904:4970  processorReports[_processor][_farmer][_lotNumber].receivedShipment */\n      0x01\n      add\n        /* \"supplychain.sol\":4904:4990  processorReports[_processor][_farmer][_lotNumber].receivedShipment = _receivedShipment */\n      swap1\n      dup2\n      tag_69\n      swap2\n      swap1\n      tag_64\n      jump\t// in\n    tag_69:\n      pop\n        /* \"supplychain.sol\":5067:5081  qualityReports */\n      0x08\n        /* \"supplychain.sol\":5067:5090  qualityReports[_farmer] */\n      0x00\n        /* \"supplychain.sol\":5082:5089  _farmer */\n      dup6\n        /* \"supplychain.sol\":5067:5090  qualityReports[_farmer] */\n      0xffffffffffffffffffffffffffffffffffffffff\n      and\n      0xffffffffffffffffffffffffffffffffffffffff\n      and\n      dup2\n      mstore\n      0x20\n      add\n      swap1\n      dup2\n      mstore\n      0x20\n      add\n      0x00\n      keccak256\n        /* \"supplychain.sol\":5091:5101  _lotNumber */\n      dup4\n        /* \"supplychain.sol\":5067:5102  qualityReports[_farmer][_lotNumber] */\n      mload(0x40)\n      tag_70\n      swap2\n      swap1\n      tag_62\n      jump\t// in\n    tag_70:\n      swap1\n      dup2\n      mstore\n      0x20\n      add\n      mload(0x40)\n      dup1\n      swap2\n      sub\n      swap1\n      keccak256\n        /* \"supplychain.sol\":5001:5017  processorReports */\n      0x09\n        /* \"supplychain.sol\":5001:5029  processorReports[_processor] */\n      0x00\n        /* \"supplychain.sol\":5018:5028  _processor */\n      dup8\n        /* \"supplychain.sol\":5001:5029  processorReports[_processor] */\n      0xffffffffffffffffffffffffffffffffffffffff\n      and\n      0xffffffffffffffffffffffffffffffffffffffff\n      and\n      dup2\n      mstore\n      0x20\n      add\n      swap1\n      dup2\n      mstore\n      0x20\n      add\n      0x00\n      keccak256\n        /* \"supplychain.sol\":5001:5038  processorReports[_processor][_farmer] */\n      0x00\n        /* \"supplychain.sol\":5030:5037  _farmer */\n      dup7\n        /* \"supplychain.sol\":5001:5038  processorReports[_processor][_farmer] */\n      0xffffffffffffffffffffffffffffffffffffffff\n      and\n      0xffffffffffffffffffffffffffffffffffffffff\n      and\n      dup2\n      mstore\n      0x20\n      add\n      swap1\n      dup2\n      mstore\n      0x20\n      add\n      0x00\n      keccak256\n        /* \"supplychain.sol\":5039:5049  _lotNumber */\n      dup5\n        /* \"supplychain.sol\":5001:5050  processorReports[_processor][_farmer][_lotNumber] */\n      mload(0x40)\n      tag_71\n      swap2\n      swap1\n      tag_62\n      jump\t// in\n    tag_71:\n      swap1\n      dup2\n      mstore\n      0x20\n      add\n      mload(0x40)\n      dup1\n      swap2\n      sub\n      swap1\n      keccak256\n        /* \"supplychain.sol\":5001:5064  processorReports[_processor][_farmer][_lotNumber].qualityreport */\n      0x02\n      add\n        /* \"supplychain.sol\":5001:5102  processorReports[_processor][_farmer][_lotNumber].qualityreport = qualityReports[_farmer][_lotNumber] */\n      0x00\n      dup3\n      add\n      0x00\n      swap1\n      sload\n      swap1\n      0x0100\n      exp\n      swap1\n      div\n      0xffffffffffffffffffffffffffffffffffffffff\n      and\n      dup2\n      0x00\n      add\n      exp(0x0100, 0x00)\n      dup2\n      sload\n      dup2\n      0xffffffffffffffffffffffffffffffffffffffff\n      mul\n      not\n      and\n      swap1\n      dup4\n      0xffffffffffffffffffffffffffffffffffffffff\n      and\n      mul\n      or\n      swap1\n      sstore\n      pop\n      0x01\n      dup3\n      add\n      sload\n      dup2\n      0x01\n      add\n      sstore\n      0x02\n      dup3\n      add\n      sload\n      dup2\n      0x02\n      add\n      sstore\n      0x03\n      dup3\n      add\n      sload\n      dup2\n      0x03\n      add\n      sstore\n      0x04\n      dup3\n      add\n      dup2\n      0x04\n      add\n      swap1\n      dup2\n      tag_72\n      swap2\n      swap1\n      tag_73\n      jump\t// in\n    tag_72:\n      pop\n      swap1\n      pop\n      pop\n        /* \"supplychain.sol\":4531:5110  function addProcessorReport(address _processor,address _farmer,... */\n      pop\n      pop\n      pop\n      pop\n      pop\n      jump\t// out\n        /* \"supplychain.sol\":6491:7196  function getRetailerReport(address _retailer,string memory _batchNumber) public view returns(... */\n    tag_26:\n        /* \"supplychain.sol\":6594:6620  string memory _productName */\n      0x60\n        /* \"supplychain.sol\":6631:6653  string memory _remarks */\n      dup1\n        /* \"supplychain.sol\":6664:6690  string memory _rawMaterial */\n      0x60\n        /* \"supplychain.sol\":6701:6732  string memory _manufacturedDate */\n      dup1\n        /* \"supplychain.sol\":6743:6759  int256 _quantity */\n      0x00\n        /* \"supplychain.sol\":6800:6815  retailerReports */\n      0x0b\n        /* \"supplychain.sol\":6800:6826  retailerReports[_retailer] */\n      0x00\n        /* \"supplychain.sol\":6816:6825  _retailer */\n      dup9\n        /* \"supplychain.sol\":6800:6826  retailerReports[_retailer] */\n      0xffffffffffffffffffffffffffffffffffffffff\n      and\n      0xffffffffffffffffffffffffffffffffffffffff\n      and\n      dup2\n      mstore\n      0x20\n      add\n      swap1\n      dup2\n      mstore\n      0x20\n      add\n      0x00\n      keccak256\n        /* \"supplychain.sol\":6827:6839  _batchNumber */\n      dup7\n        /* \"supplychain.sol\":6800:6840  retailerReports[_retailer][_batchNumber] */\n      mload(0x40)\n      tag_75\n      swap2\n      swap1\n      tag_62\n      jump\t// in\n    tag_75:\n      swap1\n      dup2\n      mstore\n      0x20\n      add\n      mload(0x40)\n      dup1\n      swap2\n      sub\n      swap1\n      keccak256\n        /* \"supplychain.sol\":6800:6852  retailerReports[_retailer][_batchNumber].productName */\n      0x00\n      add\n        /* \"supplychain.sol\":6785:6852  _productName = retailerReports[_retailer][_batchNumber].productName */\n      dup1\n      sload\n      tag_76\n      swap1\n      tag_77\n      jump\t// in\n    tag_76:\n      dup1\n      0x1f\n      add\n      0x20\n      dup1\n      swap2\n      div\n      mul\n      0x20\n      add\n      mload(0x40)\n      swap1\n      dup2\n      add\n      0x40\n      mstore\n      dup1\n      swap3\n      swap2\n      swap1\n      dup2\n      dup2\n      mstore\n      0x20\n      add\n      dup3\n      dup1\n      sload\n      tag_78\n      swap1\n      tag_77\n      jump\t// in\n    tag_78:\n      dup1\n      iszero\n      tag_79\n      jumpi\n      dup1\n      0x1f\n      lt\n      tag_80\n      jumpi\n      0x0100\n      dup1\n      dup4\n      sload\n      div\n      mul\n      dup4\n      mstore\n      swap2\n      0x20\n      add\n      swap2\n      jump(tag_79)\n    tag_80:\n      dup3\n      add\n      swap2\n      swap1\n      0x00\n      mstore\n      keccak256(0x00, 0x20)\n      swap1\n    tag_81:\n      dup2\n      sload\n      dup2\n      mstore\n      swap1\n      0x01\n      add\n      swap1\n      0x20\n      add\n      dup1\n      dup4\n      gt\n      tag_81\n      jumpi\n      dup3\n      swap1\n      sub\n      0x1f\n      and\n      dup3\n      add\n      swap2\n    tag_79:\n      pop\n      pop\n      pop\n      pop\n      pop\n      swap5\n      pop\n        /* \"supplychain.sol\":6878:6893  retailerReports */\n      0x0b\n        /* \"supplychain.sol\":6878:6904  retailerReports[_retailer] */\n      0x00\n        /* \"supplychain.sol\":6894:6903  _retailer */\n      dup9\n        /* \"supplychain.sol\":6878:6904  retailerReports[_retailer] */\n      0xffffffffffffffffffffffffffffffffffffffff\n      and\n      0xffffffffffffffffffffffffffffffffffffffff\n      and\n      dup2\n      mstore\n      0x20\n      add\n      swap1\n      dup2\n      mstore\n      0x20\n      add\n      0x00\n      keccak256\n        /* \"supplychain.sol\":6905:6917  _batchNumber */\n      dup7\n        /* \"supplychain.sol\":6878:6918  retailerReports[_retailer][_batchNumber] */\n      mload(0x40)\n      tag_82\n      swap2\n      swap1\n      tag_62\n      jump\t// in\n    tag_82:\n      swap1\n      dup2\n      mstore\n      0x20\n      add\n      mload(0x40)\n      dup1\n      swap2\n      sub\n      swap1\n      keccak256\n        /* \"supplychain.sol\":6878:6926  retailerReports[_retailer][_batchNumber].remarks */\n      0x02\n      add\n        /* \"supplychain.sol\":6867:6926  _remarks = retailerReports[_retailer][_batchNumber].remarks */\n      dup1\n      sload\n      tag_83\n      swap1\n      tag_77\n      jump\t// in\n    tag_83:\n      dup1\n      0x1f\n      add\n      0x20\n      dup1\n      swap2\n      div\n      mul\n      0x20\n      add\n      mload(0x40)\n      swap1\n      dup2\n      add\n      0x40\n      mstore\n      dup1\n      swap3\n      swap2\n      swap1\n      dup2\n      dup2\n      mstore\n      0x20\n      add\n      dup3\n      dup1\n      sload\n      tag_84\n      swap1\n      tag_77\n      jump\t// in\n    tag_84:\n      dup1\n      iszero\n      tag_85\n      jumpi\n      dup1\n      0x1f\n      lt\n      tag_86\n      jumpi\n      0x0100\n      dup1\n      dup4\n      sload\n      div\n      mul\n      dup4\n      mstore\n      swap2\n      0x20\n      add\n      swap2\n      jump(tag_85)\n    tag_86:\n      dup3\n      add\n      swap2\n      swap1\n      0x00\n      mstore\n      keccak256(0x00, 0x20)\n      swap1\n    tag_87:\n      dup2\n      sload\n      dup2\n      mstore\n      swap1\n      0x01\n      add\n      swap1\n      0x20\n      add\n      dup1\n      dup4\n      gt\n      tag_87\n      jumpi\n      dup3\n      swap1\n      sub\n      0x1f\n      and\n      dup3\n      add\n      swap2\n    tag_85:\n      pop\n      pop\n      pop\n      pop\n      pop\n      swap4\n      pop\n        /* \"supplychain.sol\":6956:6971  retailerReports */\n      0x0b\n        /* \"supplychain.sol\":6956:6982  retailerReports[_retailer] */\n      0x00\n        /* \"supplychain.sol\":6972:6981  _retailer */\n      dup9\n        /* \"supplychain.sol\":6956:6982  retailerReports[_retailer] */\n      0xffffffffffffffffffffffffffffffffffffffff\n      and\n      0xffffffffffffffffffffffffffffffffffffffff\n      and\n      dup2\n      mstore\n      0x20\n      add\n      swap1\n      dup2\n      mstore\n      0x20\n      add\n      0x00\n      keccak256\n        /* \"supplychain.sol\":6983:6995  _batchNumber */\n      dup7\n        /* \"supplychain.sol\":6956:6996  retailerReports[_retailer][_batchNumber] */\n      mload(0x40)\n      tag_88\n      swap2\n      swap1\n      tag_62\n      jump\t// in\n    tag_88:\n      swap1\n      dup2\n      mstore\n      0x20\n      add\n      mload(0x40)\n      dup1\n      swap2\n      sub\n      swap1\n      keccak256\n        /* \"supplychain.sol\":6956:7008  retailerReports[_retailer][_batchNumber].rawMaterial */\n      0x01\n      add\n        /* \"supplychain.sol\":6941:7008  _rawMaterial = retailerReports[_retailer][_batchNumber].rawMaterial */\n      dup1\n      sload\n      tag_89\n      swap1\n      tag_77\n      jump\t// in\n    tag_89:\n      dup1\n      0x1f\n      add\n      0x20\n      dup1\n      swap2\n      div\n      mul\n      0x20\n      add\n      mload(0x40)\n      swap1\n      dup2\n      add\n      0x40\n      mstore\n      dup1\n      swap3\n      swap2\n      swap1\n      dup2\n      dup2\n      mstore\n      0x20\n      add\n      dup3\n      dup1\n      sload\n      tag_90\n      swap1\n      tag_77\n      jump\t// in\n    tag_90:\n      dup1\n      iszero\n      tag_91\n      jumpi\n      dup1\n      0x1f\n      lt\n      tag_92\n      jumpi\n      0x0100\n      dup1\n      dup4\n      sload\n      div\n      mul\n      dup4\n      mstore\n      swap2\n      0x20\n      add\n      swap2\n      jump(tag_91)\n    tag_92:\n      dup3\n      add\n      swap2\n      swap1\n      0x00\n      mstore\n      keccak256(0x00, 0x20)\n      swap1\n    tag_93:\n      dup2\n      sload\n      dup2\n      mstore\n      swap1\n      0x01\n      add\n      swap1\n      0x20\n      add\n      dup1\n      dup4\n      gt\n      tag_93\n      jumpi\n      dup3\n      swap1\n      sub\n      0x1f\n      and\n      dup3\n      add\n      swap2\n    tag_91:\n      pop\n      pop\n      pop\n      pop\n      pop\n      swap3\n      pop\n        /* \"supplychain.sol\":7043:7058  retailerReports */\n      0x0b\n        /* \"supplychain.sol\":7043:7069  retailerReports[_retailer] */\n      0x00\n        /* \"supplychain.sol\":7059:7068  _retailer */\n      dup9\n        /* \"supplychain.sol\":7043:7069  retailerReports[_retailer] */\n      0xffffffffffffffffffffffffffffffffffffffff\n      and\n      0xffffffffffffffffffffffffffffffffffffffff\n      and\n      dup2\n      mstore\n      0x20\n      add\n      swap1\n      dup2\n      mstore\n      0x20\n      add\n      0x00\n      keccak256\n        /* \"supplychain.sol\":7070:7082  _batchNumber */\n      dup7\n        /* \"supplychain.sol\":7043:7083  retailerReports[_retailer][_batchNumber] */\n      mload(0x40)\n      tag_94\n      swap2\n      swap1\n      tag_62\n      jump\t// in\n    tag_94:\n      swap1\n      dup2\n      mstore\n      0x20\n      add\n      mload(0x40)\n      dup1\n      swap2\n      sub\n      swap1\n      keccak256\n        /* \"supplychain.sol\":7043:7100  retailerReports[_retailer][_batchNumber].manufacturedDate */\n      0x03\n      add\n        /* \"supplychain.sol\":7023:7100  _manufacturedDate = retailerReports[_retailer][_batchNumber].manufacturedDate */\n      dup1\n      sload\n      tag_95\n      swap1\n      tag_77\n      jump\t// in\n    tag_95:\n      dup1\n      0x1f\n      add\n      0x20\n      dup1\n      swap2\n      div\n      mul\n      0x20\n      add\n      mload(0x40)\n      swap1\n      dup2\n      add\n      0x40\n      mstore\n      dup1\n      swap3\n      swap2\n      swap1\n      dup2\n      dup2\n      mstore\n      0x20\n      add\n      dup3\n      dup1\n      sload\n      tag_96\n      swap1\n      tag_77\n      jump\t// in\n    tag_96:\n      dup1\n      iszero\n      tag_97\n      jumpi\n      dup1\n      0x1f\n      lt\n      tag_98\n      jumpi\n      0x0100\n      dup1\n      dup4\n      sload\n      div\n      mul\n      dup4\n      mstore\n      swap2\n      0x20\n      add\n      swap2\n      jump(tag_97)\n    tag_98:\n      dup3\n      add\n      swap2\n      swap1\n      0x00\n      mstore\n      keccak256(0x00, 0x20)\n      swap1\n    tag_99:\n      dup2\n      sload\n      dup2\n      mstore\n      swap1\n      0x01\n      add\n      swap1\n      0x20\n      add\n      dup1\n      dup4\n      gt\n      tag_99\n      jumpi\n      dup3\n      swap1\n      sub\n      0x1f\n      and\n      dup3\n      add\n      swap2\n    tag_97:\n      pop\n      pop\n      pop\n      pop\n      pop\n      swap2\n      pop\n        /* \"supplychain.sol\":7127:7142  retailerReports */\n      0x0b\n        /* \"supplychain.sol\":7127:7153  retailerReports[_retailer] */\n      0x00\n        /* \"supplychain.sol\":7143:7152  _retailer */\n      dup9\n        /* \"supplychain.sol\":7127:7153  retailerReports[_retailer] */\n      0xffffffffffffffffffffffffffffffffffffffff\n      and\n      0xffffffffffffffffffffffffffffffffffffffff\n      and\n      dup2\n      mstore\n      0x20\n      add\n      swap1\n      dup2\n      mstore\n      0x20\n      add\n      0x00\n      keccak256\n        /* \"supplychain.sol\":7154:7166  _batchNumber */\n      dup7\n        /* \"supplychain.sol\":7127:7167  retailerReports[_retailer][_batchNumber] */\n      mload(0x40)\n      tag_100\n      swap2\n      swap1\n      tag_62\n      jump\t// in\n    tag_100:\n      swap1\n      dup2\n      mstore\n      0x20\n      add\n      mload(0x40)\n      dup1\n      swap2\n      sub\n      swap1\n      keccak256\n        /* \"supplychain.sol\":7127:7184  retailerReports[_retailer][_batchNumber].quantityProduced */\n      0x04\n      add\n      sload\n        /* \"supplychain.sol\":7115:7184  _quantity = retailerReports[_retailer][_batchNumber].quantityProduced */\n      swap1\n      pop\n        /* \"supplychain.sol\":6491:7196  function getRetailerReport(address _retailer,string memory _batchNumber) public view returns(... */\n      swap3\n      swap6\n      pop\n      swap3\n      swap6\n      swap1\n      swap4\n      pop\n      jump\t// out\n        /* \"supplychain.sol\":5116:5494  function getProcessorReport(address _processor,address _farmer,string memory _lotNumber) public view returns(... */\n    tag_32:\n        /* \"supplychain.sol\":5235:5257  string memory _remarks */\n      0x60\n        /* \"supplychain.sol\":5268:5299  string memory _receivedShipment */\n      dup1\n        /* \"supplychain.sol\":5332:5348  processorReports */\n      0x09\n        /* \"supplychain.sol\":5332:5360  processorReports[_processor] */\n      0x00\n        /* \"supplychain.sol\":5349:5359  _processor */\n      dup7\n        /* \"supplychain.sol\":5332:5360  processorReports[_processor] */\n      0xffffffffffffffffffffffffffffffffffffffff\n      and\n      0xffffffffffffffffffffffffffffffffffffffff\n      and\n      dup2\n      mstore\n      0x20\n      add\n      swap1\n      dup2\n      mstore\n      0x20\n      add\n      0x00\n      keccak256\n        /* \"supplychain.sol\":5332:5369  processorReports[_processor][_farmer] */\n      0x00\n        /* \"supplychain.sol\":5361:5368  _farmer */\n      dup6\n        /* \"supplychain.sol\":5332:5369  processorReports[_processor][_farmer] */\n      0xffffffffffffffffffffffffffffffffffffffff\n      and\n      0xffffffffffffffffffffffffffffffffffffffff\n      and\n      dup2\n      mstore\n      0x20\n      add\n      swap1\n      dup2\n      mstore\n      0x20\n      add\n      0x00\n      keccak256\n        /* \"supplychain.sol\":5370:5380  _lotNumber */\n      dup4\n        /* \"supplychain.sol\":5332:5381  processorReports[_processor][_farmer][_lotNumber] */\n      mload(0x40)\n      tag_102\n      swap2\n      swap1\n      tag_62\n      jump\t// in\n    tag_102:\n      swap1\n      dup2\n      mstore\n      0x20\n      add\n      mload(0x40)\n      dup1\n      swap2\n      sub\n      swap1\n      keccak256\n        /* \"supplychain.sol\":5332:5389  processorReports[_processor][_farmer][_lotNumber].remarks */\n      0x00\n      add\n        /* \"supplychain.sol\":5321:5389  _remarks = processorReports[_processor][_farmer][_lotNumber].remarks */\n      dup1\n      sload\n      tag_103\n      swap1\n      tag_77\n      jump\t// in\n    tag_103:\n      dup1\n      0x1f\n      add\n      0x20\n      dup1\n      swap2\n      div\n      mul\n      0x20\n      add\n      mload(0x40)\n      swap1\n      dup2\n      add\n      0x40\n      mstore\n      dup1\n      swap3\n      swap2\n      swap1\n      dup2\n      dup2\n      mstore\n      0x20\n      add\n      dup3\n      dup1\n      sload\n      tag_104\n      swap1\n      tag_77\n      jump\t// in\n    tag_104:\n      dup1\n      iszero\n      tag_105\n      jumpi\n      dup1\n      0x1f\n      lt\n      tag_106\n      jumpi\n      0x0100\n      dup1\n      dup4\n      sload\n      div\n      mul\n      dup4\n      mstore\n      swap2\n      0x20\n      add\n      swap2\n      jump(tag_105)\n    tag_106:\n      dup3\n      add\n      swap2\n      swap1\n      0x00\n      mstore\n      keccak256(0x00, 0x20)\n      swap1\n    tag_107:\n      dup2\n      sload\n      dup2\n      mstore\n      swap1\n      0x01\n      add\n      swap1\n      0x20\n      add\n      dup1\n      dup4\n      gt\n      tag_107\n      jumpi\n      dup3\n      swap1\n      sub\n      0x1f\n      and\n      dup3\n      add\n      swap2\n    tag_105:\n      pop\n      pop\n      pop\n      pop\n      pop\n      swap2\n      pop\n        /* \"supplychain.sol\":5420:5436  processorReports */\n      0x09\n        /* \"supplychain.sol\":5420:5448  processorReports[_processor] */\n      0x00\n        /* \"supplychain.sol\":5437:5447  _processor */\n      dup7\n        /* \"supplychain.sol\":5420:5448  processorReports[_processor] */\n      0xffffffffffffffffffffffffffffffffffffffff\n      and\n      0xffffffffffffffffffffffffffffffffffffffff\n      and\n      dup2\n      mstore\n      0x20\n      add\n      swap1\n      dup2\n      mstore\n      0x20\n      add\n      0x00\n      keccak256\n        /* \"supplychain.sol\":5420:5457  processorReports[_processor][_farmer] */\n      0x00\n        /* \"supplychain.sol\":5449:5456  _farmer */\n      dup6\n        /* \"supplychain.sol\":5420:5457  processorReports[_processor][_farmer] */\n      0xffffffffffffffffffffffffffffffffffffffff\n      and\n      0xffffffffffffffffffffffffffffffffffffffff\n      and\n      dup2\n      mstore\n      0x20\n      add\n      swap1\n      dup2\n      mstore\n      0x20\n      add\n      0x00\n      keccak256\n        /* \"supplychain.sol\":5458:5468  _lotNumber */\n      dup4\n        /* \"supplychain.sol\":5420:5469  processorReports[_processor][_farmer][_lotNumber] */\n      mload(0x40)\n      tag_108\n      swap2\n      swap1\n      tag_62\n      jump\t// in\n    tag_108:\n      swap1\n      dup2\n      mstore\n      0x20\n      add\n      mload(0x40)\n      dup1\n      swap2\n      sub\n      swap1\n      keccak256\n        /* \"supplychain.sol\":5420:5486  processorReports[_processor][_farmer][_lotNumber].receivedShipment */\n      0x01\n      add\n        /* \"supplychain.sol\":5400:5486  _receivedShipment = processorReports[_processor][_farmer][_lotNumber].receivedShipment */\n      dup1\n      sload\n      tag_109\n      swap1\n      tag_77\n      jump\t// in\n    tag_109:\n      dup1\n      0x1f\n      add\n      0x20\n      dup1\n      swap2\n      div\n      mul\n      0x20\n      add\n      mload(0x40)\n      swap1\n      dup2\n      add\n      0x40\n      mstore\n      dup1\n      swap3\n      swap2\n      swap1\n      dup2\n      dup2\n      mstore\n      0x20\n      add\n      dup3\n      dup1\n      sload\n      tag_110\n      swap1\n      tag_77\n      jump\t// in\n    tag_110:\n      dup1\n      iszero\n      tag_111\n      jumpi\n      dup1\n      0x1f\n      lt\n      tag_112\n      jumpi\n      0x0100\n      dup1\n      dup4\n      sload\n      div\n      mul\n      dup4\n      mstore\n      swap2\n      0x20\n      add\n      swap2\n      jump(tag_111)\n    tag_112:\n      dup3\n      add\n      swap2\n      swap1\n      0x00\n      mstore\n      keccak256(0x00, 0x20)\n      swap1\n    tag_113:\n      dup2\n      sload\n      dup2\n      mstore\n      swap1\n      0x01\n      add\n      swap1\n      0x20\n      add\n      dup1\n      dup4\n      gt\n      tag_113\n      jumpi\n      dup3\n      swap1\n      sub\n      0x1f\n      and\n      dup3\n      add\n      swap2\n    tag_111:\n      pop\n      pop\n      pop\n      pop\n      pop\n      swap1\n      pop\n        /* \"supplychain.sol\":5116:5494  function getProcessorReport(address _processor,address _farmer,string memory _lotNumber) public view returns(... */\n      swap4\n      pop\n      swap4\n      swap2\n      pop\n      pop\n      jump\t// out\n        /* \"supplychain.sol\":3170:3399  function addRetailer(address _retailer,string memory _retailerKey) public {... */\n    tag_37:\n        /* \"supplychain.sol\":3279:3283  true */\n      0x01\n        /* \"supplychain.sol\":3255:3265  isRetailer */\n      0x02\n        /* \"supplychain.sol\":3255:3276  isRetailer[_retailer] */\n      0x00\n        /* \"supplychain.sol\":3266:3275  _retailer */\n      dup5\n        /* \"supplychain.sol\":3255:3276  isRetailer[_retailer] */\n      0xffffffffffffffffffffffffffffffffffffffff\n      and\n      0xffffffffffffffffffffffffffffffffffffffff\n      and\n      dup2\n      mstore\n      0x20\n      add\n      swap1\n      dup2\n      mstore\n      0x20\n      add\n      0x00\n      keccak256\n      0x00\n        /* \"supplychain.sol\":3255:3283  isRetailer[_retailer] = true */\n      0x0100\n      exp\n      dup2\n      sload\n      dup2\n      0xff\n      mul\n      not\n      and\n      swap1\n      dup4\n      iszero\n      iszero\n      mul\n      or\n      swap1\n      sstore\n      pop\n        /* \"supplychain.sol\":3323:3335  _retailerKey */\n      dup1\n        /* \"supplychain.sol\":3294:3309  retailerMapping */\n      0x06\n        /* \"supplychain.sol\":3294:3320  retailerMapping[_retailer] */\n      0x00\n        /* \"supplychain.sol\":3310:3319  _retailer */\n      dup5\n        /* \"supplychain.sol\":3294:3320  retailerMapping[_retailer] */\n      0xffffffffffffffffffffffffffffffffffffffff\n      and\n      0xffffffffffffffffffffffffffffffffffffffff\n      and\n      dup2\n      mstore\n      0x20\n      add\n      swap1\n      dup2\n      mstore\n      0x20\n      add\n      0x00\n      keccak256\n        /* \"supplychain.sol\":3294:3335  retailerMapping[_retailer] = _retailerKey */\n      swap1\n      dup2\n      tag_115\n      swap2\n      swap1\n      tag_64\n      jump\t// in\n    tag_115:\n      pop\n        /* \"supplychain.sol\":3351:3391  retailerAddition(_retailer,_retailerKey) */\n      0x52d2250a74439a1966b3af244c06fb46fe5cd15b66ef97ce37cd8a4fedd7403a\n        /* \"supplychain.sol\":3368:3377  _retailer */\n      dup3\n        /* \"supplychain.sol\":3378:3390  _retailerKey */\n      dup3\n        /* \"supplychain.sol\":3351:3391  retailerAddition(_retailer,_retailerKey) */\n      mload(0x40)\n      tag_116\n      swap3\n      swap2\n      swap1\n      tag_117\n      jump\t// in\n    tag_116:\n      mload(0x40)\n      dup1\n      swap2\n      sub\n      swap1\n      log1\n        /* \"supplychain.sol\":3170:3399  function addRetailer(address _retailer,string memory _retailerKey) public {... */\n      pop\n      pop\n      jump\t// out\n        /* \"supplychain.sol\":2678:2918  function addProcessor(address _processor,string memory _processorKey) public {... */\n    tag_40:\n        /* \"supplychain.sol\":2792:2796  true */\n      0x01\n        /* \"supplychain.sol\":2766:2777  isProcessor */\n      dup1\n        /* \"supplychain.sol\":2766:2789  isProcessor[_processor] */\n      0x00\n        /* \"supplychain.sol\":2778:2788  _processor */\n      dup5\n        /* \"supplychain.sol\":2766:2789  isProcessor[_processor] */\n      0xffffffffffffffffffffffffffffffffffffffff\n      and\n      0xffffffffffffffffffffffffffffffffffffffff\n      and\n      dup2\n      mstore\n      0x20\n      add\n      swap1\n      dup2\n      mstore\n      0x20\n      add\n      0x00\n      keccak256\n      0x00\n        /* \"supplychain.sol\":2766:2796  isProcessor[_processor] = true */\n      0x0100\n      exp\n      dup2\n      sload\n      dup2\n      0xff\n      mul\n      not\n      and\n      swap1\n      dup4\n      iszero\n      iszero\n      mul\n      or\n      swap1\n      sstore\n      pop\n        /* \"supplychain.sol\":2838:2851  _processorKey */\n      dup1\n        /* \"supplychain.sol\":2807:2823  processorMapping */\n      0x05\n        /* \"supplychain.sol\":2807:2835  processorMapping[_processor] */\n      0x00\n        /* \"supplychain.sol\":2824:2834  _processor */\n      dup5\n        /* \"supplychain.sol\":2807:2835  processorMapping[_processor] */\n      0xffffffffffffffffffffffffffffffffffffffff\n      and\n      0xffffffffffffffffffffffffffffffffffffffff\n      and\n      dup2\n      mstore\n      0x20\n      add\n      swap1\n      dup2\n      mstore\n      0x20\n      add\n      0x00\n      keccak256\n        /* \"supplychain.sol\":2807:2851  processorMapping[_processor] = _processorKey */\n      swap1\n      dup2\n      tag_119\n      swap2\n      swap1\n      tag_64\n      jump\t// in\n    tag_119:\n      pop\n        /* \"supplychain.sol\":2867:2910  processorAddition(_processor,_processorKey) */\n      0x05f61c0a0db439e10deb19e144239bc9962ed66941e65703c47bb12369f06f9b\n        /* \"supplychain.sol\":2885:2895  _processor */\n      dup3\n        /* \"supplychain.sol\":2896:2909  _processorKey */\n      dup3\n        /* \"supplychain.sol\":2867:2910  processorAddition(_processor,_processorKey) */\n      mload(0x40)\n      tag_120\n      swap3\n      swap2\n      swap1\n      tag_117\n      jump\t// in\n    tag_120:\n      mload(0x40)\n      dup1\n      swap2\n      sub\n      swap1\n      log1\n        /* \"supplychain.sol\":2678:2918  function addProcessor(address _processor,string memory _processorKey) public {... */\n      pop\n      pop\n      jump\t// out\n        /* \"supplychain.sol\":5641:6485  function addRetailerReport(address _retailer, address _processor, address _farmer,... */\n    tag_44:\n        /* \"supplychain.sol\":6016:6028  _productName */\n      dup4\n        /* \"supplychain.sol\":5961:5976  retailerReports */\n      0x0b\n        /* \"supplychain.sol\":5961:5987  retailerReports[_retailer] */\n      0x00\n        /* \"supplychain.sol\":5977:5986  _retailer */\n      dup12\n        /* \"supplychain.sol\":5961:5987  retailerReports[_retailer] */\n      0xffffffffffffffffffffffffffffffffffffffff\n      and\n      0xffffffffffffffffffffffffffffffffffffffff\n      and\n      dup2\n      mstore\n      0x20\n      add\n      swap1\n      dup2\n      mstore\n      0x20\n      add\n      0x00\n      keccak256\n        /* \"supplychain.sol\":5988:6000  _batchNumber */\n      dup3\n        /* \"supplychain.sol\":5961:6001  retailerReports[_retailer][_batchNumber] */\n      mload(0x40)\n      tag_122\n      swap2\n      swap1\n      tag_62\n      jump\t// in\n    tag_122:\n      swap1\n      dup2\n      mstore\n      0x20\n      add\n      mload(0x40)\n      dup1\n      swap2\n      sub\n      swap1\n      keccak256\n        /* \"supplychain.sol\":5961:6013  retailerReports[_retailer][_batchNumber].productName */\n      0x00\n      add\n        /* \"supplychain.sol\":5961:6028  retailerReports[_retailer][_batchNumber].productName = _productName */\n      swap1\n      dup2\n      tag_123\n      swap2\n      swap1\n      tag_64\n      jump\t// in\n    tag_123:\n      pop\n        /* \"supplychain.sol\":6090:6098  _remarks */\n      dup6\n        /* \"supplychain.sol\":6039:6054  retailerReports */\n      0x0b\n        /* \"supplychain.sol\":6039:6065  retailerReports[_retailer] */\n      0x00\n        /* \"supplychain.sol\":6055:6064  _retailer */\n      dup12\n        /* \"supplychain.sol\":6039:6065  retailerReports[_retailer] */\n      0xffffffffffffffffffffffffffffffffffffffff\n      and\n      0xffffffffffffffffffffffffffffffffffffffff\n      and\n      dup2\n      mstore\n      0x20\n      add\n      swap1\n      dup2\n      mstore\n      0x20\n      add\n      0x00\n      keccak256\n        /* \"supplychain.sol\":6066:6078  _batchNumber */\n      dup3\n        /* \"supplychain.sol\":6039:6079  retailerReports[_retailer][_batchNumber] */\n      mload(0x40)\n      tag_124\n      swap2\n      swap1\n      tag_62\n      jump\t// in\n    tag_124:\n      swap1\n      dup2\n      mstore\n      0x20\n      add\n      mload(0x40)\n      dup1\n      swap2\n      sub\n      swap1\n      keccak256\n        /* \"supplychain.sol\":6039:6087  retailerReports[_retailer][_batchNumber].remarks */\n      0x02\n      add\n        /* \"supplychain.sol\":6039:6098  retailerReports[_retailer][_batchNumber].remarks = _remarks */\n      swap1\n      dup2\n      tag_125\n      swap2\n      swap1\n      tag_64\n      jump\t// in\n    tag_125:\n      pop\n        /* \"supplychain.sol\":6164:6176  _rawMaterial */\n      dup5\n        /* \"supplychain.sol\":6109:6124  retailerReports */\n      0x0b\n        /* \"supplychain.sol\":6109:6135  retailerReports[_retailer] */\n      0x00\n        /* \"supplychain.sol\":6125:6134  _retailer */\n      dup12\n        /* \"supplychain.sol\":6109:6135  retailerReports[_retailer] */\n      0xffffffffffffffffffffffffffffffffffffffff\n      and\n      0xffffffffffffffffffffffffffffffffffffffff\n      and\n      dup2\n      mstore\n      0x20\n      add\n      swap1\n      dup2\n      mstore\n      0x20\n      add\n      0x00\n      keccak256\n        /* \"supplychain.sol\":6136:6148  _batchNumber */\n      dup3\n        /* \"supplychain.sol\":6109:6149  retailerReports[_retailer][_batchNumber] */\n      mload(0x40)\n      tag_126\n      swap2\n      swap1\n      tag_62\n      jump\t// in\n    tag_126:\n      swap1\n      dup2\n      mstore\n      0x20\n      add\n      mload(0x40)\n      dup1\n      swap2\n      sub\n      swap1\n      keccak256\n        /* \"supplychain.sol\":6109:6161  retailerReports[_retailer][_batchNumber].rawMaterial */\n      0x01\n      add\n        /* \"supplychain.sol\":6109:6176  retailerReports[_retailer][_batchNumber].rawMaterial = _rawMaterial */\n      swap1\n      dup2\n      tag_127\n      swap2\n      swap1\n      tag_64\n      jump\t// in\n    tag_127:\n      pop\n        /* \"supplychain.sol\":6247:6264  _manufacturedDate */\n      dup3\n        /* \"supplychain.sol\":6187:6202  retailerReports */\n      0x0b\n        /* \"supplychain.sol\":6187:6213  retailerReports[_retailer] */\n      0x00\n        /* \"supplychain.sol\":6203:6212  _retailer */\n      dup12\n        /* \"supplychain.sol\":6187:6213  retailerReports[_retailer] */\n      0xffffffffffffffffffffffffffffffffffffffff\n      and\n      0xffffffffffffffffffffffffffffffffffffffff\n      and\n      dup2\n      mstore\n      0x20\n      add\n      swap1\n      dup2\n      mstore\n      0x20\n      add\n      0x00\n      keccak256\n        /* \"supplychain.sol\":6214:6226  _batchNumber */\n      dup3\n        /* \"supplychain.sol\":6187:6227  retailerReports[_retailer][_batchNumber] */\n      mload(0x40)\n      tag_128\n      swap2\n      swap1\n      tag_62\n      jump\t// in\n    tag_128:\n      swap1\n      dup2\n      mstore\n      0x20\n      add\n      mload(0x40)\n      dup1\n      swap2\n      sub\n      swap1\n      keccak256\n        /* \"supplychain.sol\":6187:6244  retailerReports[_retailer][_batchNumber].manufacturedDate */\n      0x03\n      add\n        /* \"supplychain.sol\":6187:6264  retailerReports[_retailer][_batchNumber].manufacturedDate = _manufacturedDate */\n      swap1\n      dup2\n      tag_129\n      swap2\n      swap1\n      tag_64\n      jump\t// in\n    tag_129:\n      pop\n        /* \"supplychain.sol\":6335:6344  _quantity */\n      dup2\n        /* \"supplychain.sol\":6275:6290  retailerReports */\n      0x0b\n        /* \"supplychain.sol\":6275:6301  retailerReports[_retailer] */\n      0x00\n        /* \"supplychain.sol\":6291:6300  _retailer */\n      dup12\n        /* \"supplychain.sol\":6275:6301  retailerReports[_retailer] */\n      0xffffffffffffffffffffffffffffffffffffffff\n      and\n      0xffffffffffffffffffffffffffffffffffffffff\n      and\n      dup2\n      mstore\n      0x20\n      add\n      swap1\n      dup2\n      mstore\n      0x20\n      add\n      0x00\n      keccak256\n        /* \"supplychain.sol\":6302:6314  _batchNumber */\n      dup3\n        /* \"supplychain.sol\":6275:6315  retailerReports[_retailer][_batchNumber] */\n      mload(0x40)\n      tag_130\n      swap2\n      swap1\n      tag_62\n      jump\t// in\n    tag_130:\n      swap1\n      dup2\n      mstore\n      0x20\n      add\n      mload(0x40)\n      dup1\n      swap2\n      sub\n      swap1\n      keccak256\n        /* \"supplychain.sol\":6275:6332  retailerReports[_retailer][_batchNumber].quantityProduced */\n      0x04\n      add\n        /* \"supplychain.sol\":6275:6344  retailerReports[_retailer][_batchNumber].quantityProduced = _quantity */\n      dup2\n      swap1\n      sstore\n      pop\n        /* \"supplychain.sol\":6414:6430  processorReports */\n      0x09\n        /* \"supplychain.sol\":6414:6442  processorReports[_processor] */\n      0x00\n        /* \"supplychain.sol\":6431:6441  _processor */\n      dup10\n        /* \"supplychain.sol\":6414:6442  processorReports[_processor] */\n      0xffffffffffffffffffffffffffffffffffffffff\n      and\n      0xffffffffffffffffffffffffffffffffffffffff\n      and\n      dup2\n      mstore\n      0x20\n      add\n      swap1\n      dup2\n      mstore\n      0x20\n      add\n      0x00\n      keccak256\n        /* \"supplychain.sol\":6414:6451  processorReports[_processor][_farmer] */\n      0x00\n        /* \"supplychain.sol\":6443:6450  _farmer */\n      dup9\n        /* \"supplychain.sol\":6414:6451  processorReports[_processor][_farmer] */\n      0xffffffffffffffffffffffffffffffffffffffff\n      and\n      0xffffffffffffffffffffffffffffffffffffffff\n      and\n      dup2\n      mstore\n      0x20\n      add\n      swap1\n      dup2\n      mstore\n      0x20\n      add\n      0x00\n      keccak256\n        /* \"supplychain.sol\":6452:6462  lotToBatch */\n      0x0a\n        /* \"supplychain.sol\":6463:6475  _batchNumber */\n      dup3\n        /* \"supplychain.sol\":6452:6476  lotToBatch[_batchNumber] */\n      mload(0x40)\n      tag_131\n      swap2\n      swap1\n      tag_62\n      jump\t// in\n    tag_131:\n      swap1\n      dup2\n      mstore\n      0x20\n      add\n      mload(0x40)\n      dup1\n      swap2\n      sub\n      swap1\n      keccak256\n        /* \"supplychain.sol\":6414:6477  processorReports[_processor][_farmer][lotToBatch[_batchNumber]] */\n      mload(0x40)\n      tag_132\n      swap2\n      swap1\n      tag_133\n      jump\t// in\n    tag_132:\n      swap1\n      dup2\n      mstore\n      0x20\n      add\n      mload(0x40)\n      dup1\n      swap2\n      sub\n      swap1\n      keccak256\n        /* \"supplychain.sol\":6355:6370  retailerReports */\n      0x0b\n        /* \"supplychain.sol\":6355:6381  retailerReports[_retailer] */\n      0x00\n        /* \"supplychain.sol\":6371:6380  _retailer */\n      dup12\n        /* \"supplychain.sol\":6355:6381  retailerReports[_retailer] */\n      0xffffffffffffffffffffffffffffffffffffffff\n      and\n      0xffffffffffffffffffffffffffffffffffffffff\n      and\n      dup2\n      mstore\n      0x20\n      add\n      swap1\n      dup2\n      mstore\n      0x20\n      add\n      0x00\n      keccak256\n        /* \"supplychain.sol\":6382:6394  _batchNumber */\n      dup3\n        /* \"supplychain.sol\":6355:6395  retailerReports[_retailer][_batchNumber] */\n      mload(0x40)\n      tag_134\n      swap2\n      swap1\n      tag_62\n      jump\t// in\n    tag_134:\n      swap1\n      dup2\n      mstore\n      0x20\n      add\n      mload(0x40)\n      dup1\n      swap2\n      sub\n      swap1\n      keccak256\n        /* \"supplychain.sol\":6355:6411  retailerReports[_retailer][_batchNumber].processedReport */\n      0x05\n      add\n        /* \"supplychain.sol\":6355:6477  retailerReports[_retailer][_batchNumber].processedReport = processorReports[_processor][_farmer][lotToBatch[_batchNumber]] */\n      0x00\n      dup3\n      add\n      dup2\n      0x00\n      add\n      swap1\n      dup2\n      tag_135\n      swap2\n      swap1\n      tag_73\n      jump\t// in\n    tag_135:\n      pop\n      0x01\n      dup3\n      add\n      dup2\n      0x01\n      add\n      swap1\n      dup2\n      tag_136\n      swap2\n      swap1\n      tag_73\n      jump\t// in\n    tag_136:\n      pop\n      0x02\n      dup3\n      add\n      dup2\n      0x02\n      add\n      0x00\n      dup3\n      add\n      0x00\n      swap1\n      sload\n      swap1\n      0x0100\n      exp\n      swap1\n      div\n      0xffffffffffffffffffffffffffffffffffffffff\n      and\n      dup2\n      0x00\n      add\n      exp(0x0100, 0x00)\n      dup2\n      sload\n      dup2\n      0xffffffffffffffffffffffffffffffffffffffff\n      mul\n      not\n      and\n      swap1\n      dup4\n      0xffffffffffffffffffffffffffffffffffffffff\n      and\n      mul\n      or\n      swap1\n      sstore\n      pop\n      0x01\n      dup3\n      add\n      sload\n      dup2\n      0x01\n      add\n      sstore\n      0x02\n      dup3\n      add\n      sload\n      dup2\n      0x02\n      add\n      sstore\n      0x03\n      dup3\n      add\n      sload\n      dup2\n      0x03\n      add\n      sstore\n      0x04\n      dup3\n      add\n      dup2\n      0x04\n      add\n      swap1\n      dup2\n      tag_137\n      swap2\n      swap1\n      tag_73\n      jump\t// in\n    tag_137:\n      pop\n      pop\n      pop\n      swap1\n      pop\n      pop\n        /* \"supplychain.sol\":5641:6485  function addRetailerReport(address _retailer, address _processor, address _farmer,... */\n      pop\n      pop\n      pop\n      pop\n      pop\n      pop\n      pop\n      pop\n      pop\n      jump\t// out\n        /* \"supplychain.sol\":3932:4525  function getQualityReport(address _farmer,string memory _lotNumber) public view returns(... */\n    tag_47:\n        /* \"supplychain.sol\":4030:4052  string memory _remarks */\n      0x60\n        /* \"supplychain.sol\":4063:4081  address _inspector */\n      0x00\n        /* \"supplychain.sol\":4092:4110  int256 _sampleSize */\n      dup1\n        /* \"supplychain.sol\":4121:4138  int256 _defective */\n      0x00\n        /* \"supplychain.sol\":4149:4165  int256 _quantity */\n      dup1\n        /* \"supplychain.sol\":4198:4212  qualityReports */\n      0x08\n        /* \"supplychain.sol\":4198:4221  qualityReports[_farmer] */\n      0x00\n        /* \"supplychain.sol\":4213:4220  _farmer */\n      dup9\n        /* \"supplychain.sol\":4198:4221  qualityReports[_farmer] */\n      0xffffffffffffffffffffffffffffffffffffffff\n      and\n      0xffffffffffffffffffffffffffffffffffffffff\n      and\n      dup2\n      mstore\n      0x20\n      add\n      swap1\n      dup2\n      mstore\n      0x20\n      add\n      0x00\n      keccak256\n        /* \"supplychain.sol\":4222:4232  _lotNumber */\n      dup7\n        /* \"supplychain.sol\":4198:4233  qualityReports[_farmer][_lotNumber] */\n      mload(0x40)\n      tag_139\n      swap2\n      swap1\n      tag_62\n      jump\t// in\n    tag_139:\n      swap1\n      dup2\n      mstore\n      0x20\n      add\n      mload(0x40)\n      dup1\n      swap2\n      sub\n      swap1\n      keccak256\n        /* \"supplychain.sol\":4198:4241  qualityReports[_farmer][_lotNumber].remarks */\n      0x04\n      add\n        /* \"supplychain.sol\":4187:4241  _remarks = qualityReports[_farmer][_lotNumber].remarks */\n      dup1\n      sload\n      tag_140\n      swap1\n      tag_77\n      jump\t// in\n    tag_140:\n      dup1\n      0x1f\n      add\n      0x20\n      dup1\n      swap2\n      div\n      mul\n      0x20\n      add\n      mload(0x40)\n      swap1\n      dup2\n      add\n      0x40\n      mstore\n      dup1\n      swap3\n      swap2\n      swap1\n      dup2\n      dup2\n      mstore\n      0x20\n      add\n      dup3\n      dup1\n      sload\n      tag_141\n      swap1\n      tag_77\n      jump\t// in\n    tag_141:\n      dup1\n      iszero\n      tag_142\n      jumpi\n      dup1\n      0x1f\n      lt\n      tag_143\n      jumpi\n      0x0100\n      dup1\n      dup4\n      sload\n      div\n      mul\n      dup4\n      mstore\n      swap2\n      0x20\n      add\n      swap2\n      jump(tag_142)\n    tag_143:\n      dup3\n      add\n      swap2\n      swap1\n      0x00\n      mstore\n      keccak256(0x00, 0x20)\n      swap1\n    tag_144:\n      dup2\n      sload\n      dup2\n      mstore\n      swap1\n      0x01\n      add\n      swap1\n      0x20\n      add\n      dup1\n      dup4\n      gt\n      tag_144\n      jumpi\n      dup3\n      swap1\n      sub\n      0x1f\n      and\n      dup3\n      add\n      swap2\n    tag_142:\n      pop\n      pop\n      pop\n      pop\n      pop\n      swap5\n      pop\n        /* \"supplychain.sol\":4265:4279  qualityReports */\n      0x08\n        /* \"supplychain.sol\":4265:4288  qualityReports[_farmer] */\n      0x00\n        /* \"supplychain.sol\":4280:4287  _farmer */\n      dup9\n        /* \"supplychain.sol\":4265:4288  qualityReports[_farmer] */\n      0xffffffffffffffffffffffffffffffffffffffff\n      and\n      0xffffffffffffffffffffffffffffffffffffffff\n      and\n      dup2\n      mstore\n      0x20\n      add\n      swap1\n      dup2\n      mstore\n      0x20\n      add\n      0x00\n      keccak256\n        /* \"supplychain.sol\":4289:4299  _lotNumber */\n      dup7\n        /* \"supplychain.sol\":4265:4300  qualityReports[_farmer][_lotNumber] */\n      mload(0x40)\n      tag_145\n      swap2\n      swap1\n      tag_62\n      jump\t// in\n    tag_145:\n      swap1\n      dup2\n      mstore\n      0x20\n      add\n      mload(0x40)\n      dup1\n      swap2\n      sub\n      swap1\n      keccak256\n        /* \"supplychain.sol\":4265:4310  qualityReports[_farmer][_lotNumber].inspector */\n      0x00\n      add\n      0x00\n      swap1\n      sload\n      swap1\n      0x0100\n      exp\n      swap1\n      div\n      0xffffffffffffffffffffffffffffffffffffffff\n      and\n        /* \"supplychain.sol\":4252:4310  _inspector = qualityReports[_farmer][_lotNumber].inspector */\n      swap4\n      pop\n        /* \"supplychain.sol\":4335:4349  qualityReports */\n      0x08\n        /* \"supplychain.sol\":4335:4358  qualityReports[_farmer] */\n      0x00\n        /* \"supplychain.sol\":4350:4357  _farmer */\n      dup9\n        /* \"supplychain.sol\":4335:4358  qualityReports[_farmer] */\n      0xffffffffffffffffffffffffffffffffffffffff\n      and\n      0xffffffffffffffffffffffffffffffffffffffff\n      and\n      dup2\n      mstore\n      0x20\n      add\n      swap1\n      dup2\n      mstore\n      0x20\n      add\n      0x00\n      keccak256\n        /* \"supplychain.sol\":4359:4369  _lotNumber */\n      dup7\n        /* \"supplychain.sol\":4335:4370  qualityReports[_farmer][_lotNumber] */\n      mload(0x40)\n      tag_146\n      swap2\n      swap1\n      tag_62\n      jump\t// in\n    tag_146:\n      swap1\n      dup2\n      mstore\n      0x20\n      add\n      mload(0x40)\n      dup1\n      swap2\n      sub\n      swap1\n      keccak256\n        /* \"supplychain.sol\":4335:4381  qualityReports[_farmer][_lotNumber].sampleSize */\n      0x02\n      add\n      sload\n        /* \"supplychain.sol\":4321:4381  _sampleSize = qualityReports[_farmer][_lotNumber].sampleSize */\n      swap3\n      pop\n        /* \"supplychain.sol\":4405:4419  qualityReports */\n      0x08\n        /* \"supplychain.sol\":4405:4428  qualityReports[_farmer] */\n      0x00\n        /* \"supplychain.sol\":4420:4427  _farmer */\n      dup9\n        /* \"supplychain.sol\":4405:4428  qualityReports[_farmer] */\n      0xffffffffffffffffffffffffffffffffffffffff\n      and\n      0xffffffffffffffffffffffffffffffffffffffff\n      and\n      dup2\n      mstore\n      0x20\n      add\n      swap1\n      dup2\n      mstore\n      0x20\n      add\n      0x00\n      keccak256\n        /* \"supplychain.sol\":4429:4439  _lotNumber */\n      dup7\n        /* \"supplychain.sol\":4405:4440  qualityReports[_farmer][_lotNumber] */\n      mload(0x40)\n      tag_147\n      swap2\n      swap1\n      tag_62\n      jump\t// in\n    tag_147:\n      swap1\n      dup2\n      mstore\n      0x20\n      add\n      mload(0x40)\n      dup1\n      swap2\n      sub\n      swap1\n      keccak256\n        /* \"supplychain.sol\":4405:4450  qualityReports[_farmer][_lotNumber].defective */\n      0x03\n      add\n      sload\n        /* \"supplychain.sol\":4392:4450  _defective = qualityReports[_farmer][_lotNumber].defective */\n      swap2\n      pop\n        /* \"supplychain.sol\":4473:4487  qualityReports */\n      0x08\n        /* \"supplychain.sol\":4473:4496  qualityReports[_farmer] */\n      0x00\n        /* \"supplychain.sol\":4488:4495  _farmer */\n      dup9\n        /* \"supplychain.sol\":4473:4496  qualityReports[_farmer] */\n      0xffffffffffffffffffffffffffffffffffffffff\n      and\n      0xffffffffffffffffffffffffffffffffffffffff\n      and\n      dup2\n      mstore\n      0x20\n      add\n      swap1\n      dup2\n      mstore\n      0x20\n      add\n      0x00\n      keccak256\n        /* \"supplychain.sol\":4497:4507  _lotNumber */\n      dup7\n        /* \"supplychain.sol\":4473:4508  qualityReports[_farmer][_lotNumber] */\n      mload(0x40)\n      tag_148\n      swap2\n      swap1\n      tag_62\n      jump\t// in\n    tag_148:\n      swap1\n      dup2\n      mstore\n      0x20\n      add\n      mload(0x40)\n      dup1\n      swap2\n      sub\n      swap1\n      keccak256\n        /* \"supplychain.sol\":4473:4517  qualityReports[_farmer][_lotNumber].quantity */\n      0x01\n      add\n      sload\n        /* \"supplychain.sol\":4461:4517  _quantity = qualityReports[_farmer][_lotNumber].quantity */\n      swap1\n      pop\n        /* \"supplychain.sol\":3932:4525  function getQualityReport(address _farmer,string memory _lotNumber) public view returns(... */\n      swap3\n      swap6\n      pop\n      swap3\n      swap6\n      swap1\n      swap4\n      pop\n      jump\t// out\n        /* \"supplychain.sol\":2465:2672  function addFarmer(address _farmer,string memory _farmerKey) public {... */\n    tag_52:\n        /* \"supplychain.sol\":2564:2568  true */\n      0x01\n        /* \"supplychain.sol\":2544:2552  isFarmer */\n      0x00\n        /* \"supplychain.sol\":2544:2561  isFarmer[_farmer] */\n      dup1\n        /* \"supplychain.sol\":2553:2560  _farmer */\n      dup5\n        /* \"supplychain.sol\":2544:2561  isFarmer[_farmer] */\n      0xffffffffffffffffffffffffffffffffffffffff\n      and\n      0xffffffffffffffffffffffffffffffffffffffff\n      and\n      dup2\n      mstore\n      0x20\n      add\n      swap1\n      dup2\n      mstore\n      0x20\n      add\n      0x00\n      keccak256\n      0x00\n        /* \"supplychain.sol\":2544:2568  isFarmer[_farmer] = true */\n      0x0100\n      exp\n      dup2\n      sload\n      dup2\n      0xff\n      mul\n      not\n      and\n      swap1\n      dup4\n      iszero\n      iszero\n      mul\n      or\n      swap1\n      sstore\n      pop\n        /* \"supplychain.sol\":2604:2614  _farmerKey */\n      dup1\n        /* \"supplychain.sol\":2579:2592  farmerMapping */\n      0x04\n        /* \"supplychain.sol\":2579:2601  farmerMapping[_farmer] */\n      0x00\n        /* \"supplychain.sol\":2593:2600  _farmer */\n      dup5\n        /* \"supplychain.sol\":2579:2601  farmerMapping[_farmer] */\n      0xffffffffffffffffffffffffffffffffffffffff\n      and\n      0xffffffffffffffffffffffffffffffffffffffff\n      and\n      dup2\n      mstore\n      0x20\n      add\n      swap1\n      dup2\n      mstore\n      0x20\n      add\n      0x00\n      keccak256\n        /* \"supplychain.sol\":2579:2614  farmerMapping[_farmer] = _farmerKey */\n      swap1\n      dup2\n      tag_150\n      swap2\n      swap1\n      tag_64\n      jump\t// in\n    tag_150:\n      pop\n        /* \"supplychain.sol\":2630:2664  farmerAddition(_farmer,_farmerKey) */\n      0xcd5007c1f083baec1024fa63f0d6728fb0e85e5eb620e0def97c4282cf32ff99\n        /* \"supplychain.sol\":2645:2652  _farmer */\n      dup3\n        /* \"supplychain.sol\":2653:2663  _farmerKey */\n      dup3\n        /* \"supplychain.sol\":2630:2664  farmerAddition(_farmer,_farmerKey) */\n      mload(0x40)\n      tag_151\n      swap3\n      swap2\n      swap1\n      tag_117\n      jump\t// in\n    tag_151:\n      mload(0x40)\n      dup1\n      swap2\n      sub\n      swap1\n      log1\n        /* \"supplychain.sol\":2465:2672  function addFarmer(address _farmer,string memory _farmerKey) public {... */\n      pop\n      pop\n      jump\t// out\n        /* \"supplychain.sol\":3405:3926  function addQualityReport(address _farmer,address _inspector,string memory _lotNumber,string memory _remarks,int256 _sampleSize,int256 _quantity, int256 _defective) public {... */\n    tag_56:\n        /* \"supplychain.sol\":3636:3646  _inspector */\n      dup6\n        /* \"supplychain.sol\":3588:3602  qualityReports */\n      0x08\n        /* \"supplychain.sol\":3588:3611  qualityReports[_farmer] */\n      0x00\n        /* \"supplychain.sol\":3603:3610  _farmer */\n      dup10\n        /* \"supplychain.sol\":3588:3611  qualityReports[_farmer] */\n      0xffffffffffffffffffffffffffffffffffffffff\n      and\n      0xffffffffffffffffffffffffffffffffffffffff\n      and\n      dup2\n      mstore\n      0x20\n      add\n      swap1\n      dup2\n      mstore\n      0x20\n      add\n      0x00\n      keccak256\n        /* \"supplychain.sol\":3612:3622  _lotNumber */\n      dup7\n        /* \"supplychain.sol\":3588:3623  qualityReports[_farmer][_lotNumber] */\n      mload(0x40)\n      tag_153\n      swap2\n      swap1\n      tag_62\n      jump\t// in\n    tag_153:\n      swap1\n      dup2\n      mstore\n      0x20\n      add\n      mload(0x40)\n      dup1\n      swap2\n      sub\n      swap1\n      keccak256\n        /* \"supplychain.sol\":3588:3633  qualityReports[_farmer][_lotNumber].inspector */\n      0x00\n      add\n      0x00\n        /* \"supplychain.sol\":3588:3646  qualityReports[_farmer][_lotNumber].inspector = _inspector */\n      0x0100\n      exp\n      dup2\n      sload\n      dup2\n      0xffffffffffffffffffffffffffffffffffffffff\n      mul\n      not\n      and\n      swap1\n      dup4\n      0xffffffffffffffffffffffffffffffffffffffff\n      and\n      mul\n      or\n      swap1\n      sstore\n      pop\n        /* \"supplychain.sol\":3703:3711  _remarks */\n      dup4\n        /* \"supplychain.sol\":3657:3671  qualityReports */\n      0x08\n        /* \"supplychain.sol\":3657:3680  qualityReports[_farmer] */\n      0x00\n        /* \"supplychain.sol\":3672:3679  _farmer */\n      dup10\n        /* \"supplychain.sol\":3657:3680  qualityReports[_farmer] */\n      0xffffffffffffffffffffffffffffffffffffffff\n      and\n      0xffffffffffffffffffffffffffffffffffffffff\n      and\n      dup2\n      mstore\n      0x20\n      add\n      swap1\n      dup2\n      mstore\n      0x20\n      add\n      0x00\n      keccak256\n        /* \"supplychain.sol\":3681:3691  _lotNumber */\n      dup7\n        /* \"supplychain.sol\":3657:3692  qualityReports[_farmer][_lotNumber] */\n      mload(0x40)\n      tag_154\n      swap2\n      swap1\n      tag_62\n      jump\t// in\n    tag_154:\n      swap1\n      dup2\n      mstore\n      0x20\n      add\n      mload(0x40)\n      dup1\n      swap2\n      sub\n      swap1\n      keccak256\n        /* \"supplychain.sol\":3657:3700  qualityReports[_farmer][_lotNumber].remarks */\n      0x04\n      add\n        /* \"supplychain.sol\":3657:3711  qualityReports[_farmer][_lotNumber].remarks = _remarks */\n      swap1\n      dup2\n      tag_155\n      swap2\n      swap1\n      tag_64\n      jump\t// in\n    tag_155:\n      pop\n        /* \"supplychain.sol\":3771:3782  _sampleSize */\n      dup3\n        /* \"supplychain.sol\":3722:3736  qualityReports */\n      0x08\n        /* \"supplychain.sol\":3722:3745  qualityReports[_farmer] */\n      0x00\n        /* \"supplychain.sol\":3737:3744  _farmer */\n      dup10\n        /* \"supplychain.sol\":3722:3745  qualityReports[_farmer] */\n      0xffffffffffffffffffffffffffffffffffffffff\n      and\n      0xffffffffffffffffffffffffffffffffffffffff\n      and\n      dup2\n      mstore\n      0x20\n      add\n      swap1\n      dup2\n      mstore\n      0x20\n      add\n      0x00\n      keccak256\n        /* \"supplychain.sol\":3746:3756  _lotNumber */\n      dup7\n        /* \"supplychain.sol\":3722:3757  qualityReports[_farmer][_lotNumber] */\n      mload(0x40)\n      tag_156\n      swap2\n      swap1\n      tag_62\n      jump\t// in\n    tag_156:\n      swap1\n      dup2\n      mstore\n      0x20\n      add\n      mload(0x40)\n      dup1\n      swap2\n      sub\n      swap1\n      keccak256\n        /* \"supplychain.sol\":3722:3768  qualityReports[_farmer][_lotNumber].sampleSize */\n      0x02\n      add\n        /* \"supplychain.sol\":3722:3782  qualityReports[_farmer][_lotNumber].sampleSize = _sampleSize */\n      dup2\n      swap1\n      sstore\n      pop\n        /* \"supplychain.sol\":3841:3851  _defective */\n      dup1\n        /* \"supplychain.sol\":3793:3807  qualityReports */\n      0x08\n        /* \"supplychain.sol\":3793:3816  qualityReports[_farmer] */\n      0x00\n        /* \"supplychain.sol\":3808:3815  _farmer */\n      dup10\n        /* \"supplychain.sol\":3793:3816  qualityReports[_farmer] */\n      0xffffffffffffffffffffffffffffffffffffffff\n      and\n      0xffffffffffffffffffffffffffffffffffffffff\n      and\n      dup2\n      mstore\n      0x20\n      add\n      swap1\n      dup2\n      mstore\n      0x20\n      add\n      0x00\n      keccak256\n        /* \"supplychain.sol\":3817:3827  _lotNumber */\n      dup7\n        /* \"supplychain.sol\":3793:3828  qualityReports[_farmer][_lotNumber] */\n      mload(0x40)\n      tag_157\n      swap2\n      swap1\n      tag_62\n      jump\t// in\n    tag_157:\n      swap1\n      dup2\n      mstore\n      0x20\n      add\n      mload(0x40)\n      dup1\n      swap2\n      sub\n      swap1\n      keccak256\n        /* \"supplychain.sol\":3793:3838  qualityReports[_farmer][_lotNumber].defective */\n      0x03\n      add\n        /* \"supplychain.sol\":3793:3851  qualityReports[_farmer][_lotNumber].defective = _defective */\n      dup2\n      swap1\n      sstore\n      pop\n        /* \"supplychain.sol\":3909:3918  _quantity */\n      dup2\n        /* \"supplychain.sol\":3862:3876  qualityReports */\n      0x08\n        /* \"supplychain.sol\":3862:3885  qualityReports[_farmer] */\n      0x00\n        /* \"supplychain.sol\":3877:3884  _farmer */\n      dup10\n        /* \"supplychain.sol\":3862:3885  qualityReports[_farmer] */\n      0xffffffffffffffffffffffffffffffffffffffff\n      and\n      0xffffffffffffffffffffffffffffffffffffffff\n      and\n      dup2\n      mstore\n      0x20\n      add\n      swap1\n      dup2\n      mstore\n      0x20\n      add\n      0x00\n      keccak256\n        /* \"supplychain.sol\":3886:3896  _lotNumber */\n      dup7\n        /* \"supplychain.sol\":3862:3897  qualityReports[_farmer][_lotNumber] */\n      mload(0x40)\n      tag_158\n      swap2\n      swap1\n      tag_62\n      jump\t// in\n    tag_158:\n      swap1\n      dup2\n      mstore\n      0x20\n      add\n      mload(0x40)\n      dup1\n      swap2\n      sub\n      swap1\n      keccak256\n        /* \"supplychain.sol\":3862:3906  qualityReports[_farmer][_lotNumber].quantity */\n      0x01\n      add\n        /* \"supplychain.sol\":3862:3918  qualityReports[_farmer][_lotNumber].quantity = _quantity */\n      dup2\n      swap1\n      sstore\n      pop\n        /* \"supplychain.sol\":3405:3926  function addQualityReport(address _farmer,address _inspector,string memory _lotNumber,string memory _remarks,int256 _sampleSize,int256 _quantity, int256 _defective) public {... */\n      pop\n      pop\n      pop\n      pop\n      pop\n      pop\n      pop\n      jump\t// out\n        /* \"supplychain.sol\":2924:3164  function addInspector(address _inspector,string memory _inspectorKey) public {... */\n    tag_59:\n        /* \"supplychain.sol\":3038:3042  true */\n      0x01\n        /* \"supplychain.sol\":3012:3023  isInspector */\n      0x03\n        /* \"supplychain.sol\":3012:3035  isInspector[_inspector] */\n      0x00\n        /* \"supplychain.sol\":3024:3034  _inspector */\n      dup5\n        /* \"supplychain.sol\":3012:3035  isInspector[_inspector] */\n      0xffffffffffffffffffffffffffffffffffffffff\n      and\n      0xffffffffffffffffffffffffffffffffffffffff\n      and\n      dup2\n      mstore\n      0x20\n      add\n      swap1\n      dup2\n      mstore\n      0x20\n      add\n      0x00\n      keccak256\n      0x00\n        /* \"supplychain.sol\":3012:3042  isInspector[_inspector] = true */\n      0x0100\n      exp\n      dup2\n      sload\n      dup2\n      0xff\n      mul\n      not\n      and\n      swap1\n      dup4\n      iszero\n      iszero\n      mul\n      or\n      swap1\n      sstore\n      pop\n        /* \"supplychain.sol\":3084:3097  _inspectorKey */\n      dup1\n        /* \"supplychain.sol\":3053:3069  inspectorMapping */\n      0x07\n        /* \"supplychain.sol\":3053:3081  inspectorMapping[_inspector] */\n      0x00\n        /* \"supplychain.sol\":3070:3080  _inspector */\n      dup5\n        /* \"supplychain.sol\":3053:3081  inspectorMapping[_inspector] */\n      0xffffffffffffffffffffffffffffffffffffffff\n      and\n      0xffffffffffffffffffffffffffffffffffffffff\n      and\n      dup2\n      mstore\n      0x20\n      add\n      swap1\n      dup2\n      mstore\n      0x20\n      add\n      0x00\n      keccak256\n        /* \"supplychain.sol\":3053:3097  inspectorMapping[_inspector] = _inspectorKey */\n      swap1\n      dup2\n      tag_160\n      swap2\n      swap1\n      tag_64\n      jump\t// in\n    tag_160:\n      pop\n        /* \"supplychain.sol\":3113:3156  inspectorAddition(_inspector,_inspectorKey) */\n      0xbb1d92b487a3ad94ebd0d3f8005ac38869d7b8218dfa1b3aef46faddfd3a2fad\n        /* \"supplychain.sol\":3131:3141  _inspector */\n      dup3\n        /* \"supplychain.sol\":3142:3155  _inspectorKey */\n      dup3\n        /* \"supplychain.sol\":3113:3156  inspectorAddition(_inspector,_inspectorKey) */\n      mload(0x40)\n      tag_161\n      swap3\n      swap2\n      swap1\n      tag_117\n      jump\t// in\n    tag_161:\n      mload(0x40)\n      dup1\n      swap2\n      sub\n      swap1\n      log1\n        /* \"supplychain.sol\":2924:3164  function addInspector(address _inspector,string memory _inspectorKey) public {... */\n      pop\n      pop\n      jump\t// out\n        /* \"#utility.yul\":7:82   */\n    tag_162:\n        /* \"#utility.yul\":40:46   */\n      0x00\n        /* \"#utility.yul\":73:75   */\n      0x40\n        /* \"#utility.yul\":67:76   */\n      mload\n        /* \"#utility.yul\":57:76   */\n      swap1\n      pop\n        /* \"#utility.yul\":7:82   */\n      swap1\n      jump\t// out\n        /* \"#utility.yul\":88:205   */\n    tag_163:\n        /* \"#utility.yul\":197:198   */\n      0x00\n        /* \"#utility.yul\":194:195   */\n      dup1\n        /* \"#utility.yul\":187:199   */\n      revert\n        /* \"#utility.yul\":211:328   */\n    tag_164:\n        /* \"#utility.yul\":320:321   */\n      0x00\n        /* \"#utility.yul\":317:318   */\n      dup1\n        /* \"#utility.yul\":310:322   */\n      revert\n        /* \"#utility.yul\":334:451   */\n    tag_165:\n        /* \"#utility.yul\":443:444   */\n      0x00\n        /* \"#utility.yul\":440:441   */\n      dup1\n        /* \"#utility.yul\":433:445   */\n      revert\n        /* \"#utility.yul\":457:574   */\n    tag_166:\n        /* \"#utility.yul\":566:567   */\n      0x00\n        /* \"#utility.yul\":563:564   */\n      dup1\n        /* \"#utility.yul\":556:568   */\n      revert\n        /* \"#utility.yul\":580:682   */\n    tag_167:\n        /* \"#utility.yul\":621:627   */\n      0x00\n        /* \"#utility.yul\":672:674   */\n      0x1f\n        /* \"#utility.yul\":668:675   */\n      not\n        /* \"#utility.yul\":663:665   */\n      0x1f\n        /* \"#utility.yul\":656:661   */\n      dup4\n        /* \"#utility.yul\":652:666   */\n      add\n        /* \"#utility.yul\":648:676   */\n      and\n        /* \"#utility.yul\":638:676   */\n      swap1\n      pop\n        /* \"#utility.yul\":580:682   */\n      swap2\n      swap1\n      pop\n      jump\t// out\n        /* \"#utility.yul\":688:868   */\n    tag_168:\n        /* \"#utility.yul\":736:813   */\n      0x4e487b7100000000000000000000000000000000000000000000000000000000\n        /* \"#utility.yul\":733:734   */\n      0x00\n        /* \"#utility.yul\":726:814   */\n      mstore\n        /* \"#utility.yul\":833:837   */\n      0x41\n        /* \"#utility.yul\":830:831   */\n      0x04\n        /* \"#utility.yul\":823:838   */\n      mstore\n        /* \"#utility.yul\":857:861   */\n      0x24\n        /* \"#utility.yul\":854:855   */\n      0x00\n        /* \"#utility.yul\":847:862   */\n      revert\n        /* \"#utility.yul\":874:1155   */\n    tag_169:\n        /* \"#utility.yul\":957:984   */\n      tag_218\n        /* \"#utility.yul\":979:983   */\n      dup3\n        /* \"#utility.yul\":957:984   */\n      tag_167\n      jump\t// in\n    tag_218:\n        /* \"#utility.yul\":949:955   */\n      dup2\n        /* \"#utility.yul\":945:985   */\n      add\n        /* \"#utility.yul\":1087:1093   */\n      dup2\n        /* \"#utility.yul\":1075:1085   */\n      dup2\n        /* \"#utility.yul\":1072:1094   */\n      lt\n        /* \"#utility.yul\":1051:1069   */\n      0xffffffffffffffff\n        /* \"#utility.yul\":1039:1049   */\n      dup3\n        /* \"#utility.yul\":1036:1070   */\n      gt\n        /* \"#utility.yul\":1033:1095   */\n      or\n        /* \"#utility.yul\":1030:1118   */\n      iszero\n      tag_219\n      jumpi\n        /* \"#utility.yul\":1098:1116   */\n      tag_220\n      tag_168\n      jump\t// in\n    tag_220:\n        /* \"#utility.yul\":1030:1118   */\n    tag_219:\n        /* \"#utility.yul\":1138:1148   */\n      dup1\n        /* \"#utility.yul\":1134:1136   */\n      0x40\n        /* \"#utility.yul\":1127:1149   */\n      mstore\n        /* \"#utility.yul\":917:1155   */\n      pop\n        /* \"#utility.yul\":874:1155   */\n      pop\n      pop\n      jump\t// out\n        /* \"#utility.yul\":1161:1290   */\n    tag_170:\n        /* \"#utility.yul\":1195:1201   */\n      0x00\n        /* \"#utility.yul\":1222:1242   */\n      tag_222\n      tag_162\n      jump\t// in\n    tag_222:\n        /* \"#utility.yul\":1212:1242   */\n      swap1\n      pop\n        /* \"#utility.yul\":1251:1284   */\n      tag_223\n        /* \"#utility.yul\":1279:1283   */\n      dup3\n        /* \"#utility.yul\":1271:1277   */\n      dup3\n        /* \"#utility.yul\":1251:1284   */\n      tag_169\n      jump\t// in\n    tag_223:\n        /* \"#utility.yul\":1161:1290   */\n      swap2\n      swap1\n      pop\n      jump\t// out\n        /* \"#utility.yul\":1296:1604   */\n    tag_171:\n        /* \"#utility.yul\":1358:1362   */\n      0x00\n        /* \"#utility.yul\":1448:1466   */\n      0xffffffffffffffff\n        /* \"#utility.yul\":1440:1446   */\n      dup3\n        /* \"#utility.yul\":1437:1467   */\n      gt\n        /* \"#utility.yul\":1434:1490   */\n      iszero\n      tag_225\n      jumpi\n        /* \"#utility.yul\":1470:1488   */\n      tag_226\n      tag_168\n      jump\t// in\n    tag_226:\n        /* \"#utility.yul\":1434:1490   */\n    tag_225:\n        /* \"#utility.yul\":1508:1537   */\n      tag_227\n        /* \"#utility.yul\":1530:1536   */\n      dup3\n        /* \"#utility.yul\":1508:1537   */\n      tag_167\n      jump\t// in\n    tag_227:\n        /* \"#utility.yul\":1500:1537   */\n      swap1\n      pop\n        /* \"#utility.yul\":1592:1596   */\n      0x20\n        /* \"#utility.yul\":1586:1590   */\n      dup2\n        /* \"#utility.yul\":1582:1597   */\n      add\n        /* \"#utility.yul\":1574:1597   */\n      swap1\n      pop\n        /* \"#utility.yul\":1296:1604   */\n      swap2\n      swap1\n      pop\n      jump\t// out\n        /* \"#utility.yul\":1610:1756   */\n    tag_172:\n        /* \"#utility.yul\":1707:1713   */\n      dup3\n        /* \"#utility.yul\":1702:1705   */\n      dup2\n        /* \"#utility.yul\":1697:1700   */\n      dup4\n        /* \"#utility.yul\":1684:1714   */\n      calldatacopy\n        /* \"#utility.yul\":1748:1749   */\n      0x00\n        /* \"#utility.yul\":1739:1745   */\n      dup4\n        /* \"#utility.yul\":1734:1737   */\n      dup4\n        /* \"#utility.yul\":1730:1746   */\n      add\n        /* \"#utility.yul\":1723:1750   */\n      mstore\n        /* \"#utility.yul\":1610:1756   */\n      pop\n      pop\n      pop\n      jump\t// out\n        /* \"#utility.yul\":1762:2187   */\n    tag_173:\n        /* \"#utility.yul\":1840:1845   */\n      0x00\n        /* \"#utility.yul\":1865:1931   */\n      tag_230\n        /* \"#utility.yul\":1881:1930   */\n      tag_231\n        /* \"#utility.yul\":1923:1929   */\n      dup5\n        /* \"#utility.yul\":1881:1930   */\n      tag_171\n      jump\t// in\n    tag_231:\n        /* \"#utility.yul\":1865:1931   */\n      tag_170\n      jump\t// in\n    tag_230:\n        /* \"#utility.yul\":1856:1931   */\n      swap1\n      pop\n        /* \"#utility.yul\":1954:1960   */\n      dup3\n        /* \"#utility.yul\":1947:1952   */\n      dup2\n        /* \"#utility.yul\":1940:1961   */\n      mstore\n        /* \"#utility.yul\":1992:1996   */\n      0x20\n        /* \"#utility.yul\":1985:1990   */\n      dup2\n        /* \"#utility.yul\":1981:1997   */\n      add\n        /* \"#utility.yul\":2030:2033   */\n      dup5\n        /* \"#utility.yul\":2021:2027   */\n      dup5\n        /* \"#utility.yul\":2016:2019   */\n      dup5\n        /* \"#utility.yul\":2012:2028   */\n      add\n        /* \"#utility.yul\":2009:2034   */\n      gt\n        /* \"#utility.yul\":2006:2118   */\n      iszero\n      tag_232\n      jumpi\n        /* \"#utility.yul\":2037:2116   */\n      tag_233\n      tag_166\n      jump\t// in\n    tag_233:\n        /* \"#utility.yul\":2006:2118   */\n    tag_232:\n        /* \"#utility.yul\":2127:2181   */\n      tag_234\n        /* \"#utility.yul\":2174:2180   */\n      dup5\n        /* \"#utility.yul\":2169:2172   */\n      dup3\n        /* \"#utility.yul\":2164:2167   */\n      dup6\n        /* \"#utility.yul\":2127:2181   */\n      tag_172\n      jump\t// in\n    tag_234:\n        /* \"#utility.yul\":1846:2187   */\n      pop\n        /* \"#utility.yul\":1762:2187   */\n      swap4\n      swap3\n      pop\n      pop\n      pop\n      jump\t// out\n        /* \"#utility.yul\":2207:2547   */\n    tag_174:\n        /* \"#utility.yul\":2263:2268   */\n      0x00\n        /* \"#utility.yul\":2312:2315   */\n      dup3\n        /* \"#utility.yul\":2305:2309   */\n      0x1f\n        /* \"#utility.yul\":2297:2303   */\n      dup4\n        /* \"#utility.yul\":2293:2310   */\n      add\n        /* \"#utility.yul\":2289:2316   */\n      slt\n        /* \"#utility.yul\":2279:2401   */\n      tag_236\n      jumpi\n        /* \"#utility.yul\":2320:2399   */\n      tag_237\n      tag_165\n      jump\t// in\n    tag_237:\n        /* \"#utility.yul\":2279:2401   */\n    tag_236:\n        /* \"#utility.yul\":2437:2443   */\n      dup2\n        /* \"#utility.yul\":2424:2444   */\n      calldataload\n        /* \"#utility.yul\":2462:2541   */\n      tag_238\n        /* \"#utility.yul\":2537:2540   */\n      dup5\n        /* \"#utility.yul\":2529:2535   */\n      dup3\n        /* \"#utility.yul\":2522:2526   */\n      0x20\n        /* \"#utility.yul\":2514:2520   */\n      dup7\n        /* \"#utility.yul\":2510:2527   */\n      add\n        /* \"#utility.yul\":2462:2541   */\n      tag_173\n      jump\t// in\n    tag_238:\n        /* \"#utility.yul\":2453:2541   */\n      swap2\n      pop\n        /* \"#utility.yul\":2269:2547   */\n      pop\n        /* \"#utility.yul\":2207:2547   */\n      swap3\n      swap2\n      pop\n      pop\n      jump\t// out\n        /* \"#utility.yul\":2553:3387   */\n    tag_17:\n        /* \"#utility.yul\":2641:2647   */\n      0x00\n        /* \"#utility.yul\":2649:2655   */\n      dup1\n        /* \"#utility.yul\":2698:2700   */\n      0x40\n        /* \"#utility.yul\":2686:2695   */\n      dup4\n        /* \"#utility.yul\":2677:2684   */\n      dup6\n        /* \"#utility.yul\":2673:2696   */\n      sub\n        /* \"#utility.yul\":2669:2701   */\n      slt\n        /* \"#utility.yul\":2666:2785   */\n      iszero\n      tag_240\n      jumpi\n        /* \"#utility.yul\":2704:2783   */\n      tag_241\n      tag_163\n      jump\t// in\n    tag_241:\n        /* \"#utility.yul\":2666:2785   */\n    tag_240:\n        /* \"#utility.yul\":2852:2853   */\n      0x00\n        /* \"#utility.yul\":2841:2850   */\n      dup4\n        /* \"#utility.yul\":2837:2854   */\n      add\n        /* \"#utility.yul\":2824:2855   */\n      calldataload\n        /* \"#utility.yul\":2882:2900   */\n      0xffffffffffffffff\n        /* \"#utility.yul\":2874:2880   */\n      dup2\n        /* \"#utility.yul\":2871:2901   */\n      gt\n        /* \"#utility.yul\":2868:2985   */\n      iszero\n      tag_242\n      jumpi\n        /* \"#utility.yul\":2904:2983   */\n      tag_243\n      tag_164\n      jump\t// in\n    tag_243:\n        /* \"#utility.yul\":2868:2985   */\n    tag_242:\n        /* \"#utility.yul\":3009:3072   */\n      tag_244\n        /* \"#utility.yul\":3064:3071   */\n      dup6\n        /* \"#utility.yul\":3055:3061   */\n      dup3\n        /* \"#utility.yul\":3044:3053   */\n      dup7\n        /* \"#utility.yul\":3040:3062   */\n      add\n        /* \"#utility.yul\":3009:3072   */\n      tag_174\n      jump\t// in\n    tag_244:\n        /* \"#utility.yul\":2999:3072   */\n      swap3\n      pop\n        /* \"#utility.yul\":2795:3082   */\n      pop\n        /* \"#utility.yul\":3149:3151   */\n      0x20\n        /* \"#utility.yul\":3138:3147   */\n      dup4\n        /* \"#utility.yul\":3134:3152   */\n      add\n        /* \"#utility.yul\":3121:3153   */\n      calldataload\n        /* \"#utility.yul\":3180:3198   */\n      0xffffffffffffffff\n        /* \"#utility.yul\":3172:3178   */\n      dup2\n        /* \"#utility.yul\":3169:3199   */\n      gt\n        /* \"#utility.yul\":3166:3283   */\n      iszero\n      tag_245\n      jumpi\n        /* \"#utility.yul\":3202:3281   */\n      tag_246\n      tag_164\n      jump\t// in\n    tag_246:\n        /* \"#utility.yul\":3166:3283   */\n    tag_245:\n        /* \"#utility.yul\":3307:3370   */\n      tag_247\n        /* \"#utility.yul\":3362:3369   */\n      dup6\n        /* \"#utility.yul\":3353:3359   */\n      dup3\n        /* \"#utility.yul\":3342:3351   */\n      dup7\n        /* \"#utility.yul\":3338:3360   */\n      add\n        /* \"#utility.yul\":3307:3370   */\n      tag_174\n      jump\t// in\n    tag_247:\n        /* \"#utility.yul\":3297:3370   */\n      swap2\n      pop\n        /* \"#utility.yul\":3092:3380   */\n      pop\n        /* \"#utility.yul\":2553:3387   */\n      swap3\n      pop\n      swap3\n      swap1\n      pop\n      jump\t// out\n        /* \"#utility.yul\":3393:3519   */\n    tag_175:\n        /* \"#utility.yul\":3430:3437   */\n      0x00\n        /* \"#utility.yul\":3470:3512   */\n      0xffffffffffffffffffffffffffffffffffffffff\n        /* \"#utility.yul\":3463:3468   */\n      dup3\n        /* \"#utility.yul\":3459:3513   */\n      and\n        /* \"#utility.yul\":3448:3513   */\n      swap1\n      pop\n        /* \"#utility.yul\":3393:3519   */\n      swap2\n      swap1\n      pop\n      jump\t// out\n        /* \"#utility.yul\":3525:3621   */\n    tag_176:\n        /* \"#utility.yul\":3562:3569   */\n      0x00\n        /* \"#utility.yul\":3591:3615   */\n      tag_250\n        /* \"#utility.yul\":3609:3614   */\n      dup3\n        /* \"#utility.yul\":3591:3615   */\n      tag_175\n      jump\t// in\n    tag_250:\n        /* \"#utility.yul\":3580:3615   */\n      swap1\n      pop\n        /* \"#utility.yul\":3525:3621   */\n      swap2\n      swap1\n      pop\n      jump\t// out\n        /* \"#utility.yul\":3627:3749   */\n    tag_177:\n        /* \"#utility.yul\":3700:3724   */\n      tag_252\n        /* \"#utility.yul\":3718:3723   */\n      dup2\n        /* \"#utility.yul\":3700:3724   */\n      tag_176\n      jump\t// in\n    tag_252:\n        /* \"#utility.yul\":3693:3698   */\n      dup2\n        /* \"#utility.yul\":3690:3725   */\n      eq\n        /* \"#utility.yul\":3680:3743   */\n      tag_253\n      jumpi\n        /* \"#utility.yul\":3739:3740   */\n      0x00\n        /* \"#utility.yul\":3736:3737   */\n      dup1\n        /* \"#utility.yul\":3729:3741   */\n      revert\n        /* \"#utility.yul\":3680:3743   */\n    tag_253:\n        /* \"#utility.yul\":3627:3749   */\n      pop\n      jump\t// out\n        /* \"#utility.yul\":3755:3894   */\n    tag_178:\n        /* \"#utility.yul\":3801:3806   */\n      0x00\n        /* \"#utility.yul\":3839:3845   */\n      dup2\n        /* \"#utility.yul\":3826:3846   */\n      calldataload\n        /* \"#utility.yul\":3817:3846   */\n      swap1\n      pop\n        /* \"#utility.yul\":3855:3888   */\n      tag_255\n        /* \"#utility.yul\":3882:3887   */\n      dup2\n        /* \"#utility.yul\":3855:3888   */\n      tag_177\n      jump\t// in\n    tag_255:\n        /* \"#utility.yul\":3755:3894   */\n      swap3\n      swap2\n      pop\n      pop\n      jump\t// out\n        /* \"#utility.yul\":3900:5351   */\n    tag_21:\n        /* \"#utility.yul\":4025:4031   */\n      0x00\n        /* \"#utility.yul\":4033:4039   */\n      dup1\n        /* \"#utility.yul\":4041:4047   */\n      0x00\n        /* \"#utility.yul\":4049:4055   */\n      dup1\n        /* \"#utility.yul\":4057:4063   */\n      0x00\n        /* \"#utility.yul\":4106:4109   */\n      0xa0\n        /* \"#utility.yul\":4094:4103   */\n      dup7\n        /* \"#utility.yul\":4085:4092   */\n      dup9\n        /* \"#utility.yul\":4081:4104   */\n      sub\n        /* \"#utility.yul\":4077:4110   */\n      slt\n        /* \"#utility.yul\":4074:4194   */\n      iszero\n      tag_257\n      jumpi\n        /* \"#utility.yul\":4113:4192   */\n      tag_258\n      tag_163\n      jump\t// in\n    tag_258:\n        /* \"#utility.yul\":4074:4194   */\n    tag_257:\n        /* \"#utility.yul\":4233:4234   */\n      0x00\n        /* \"#utility.yul\":4258:4311   */\n      tag_259\n        /* \"#utility.yul\":4303:4310   */\n      dup9\n        /* \"#utility.yul\":4294:4300   */\n      dup3\n        /* \"#utility.yul\":4283:4292   */\n      dup10\n        /* \"#utility.yul\":4279:4301   */\n      add\n        /* \"#utility.yul\":4258:4311   */\n      tag_178\n      jump\t// in\n    tag_259:\n        /* \"#utility.yul\":4248:4311   */\n      swap6\n      pop\n        /* \"#utility.yul\":4204:4321   */\n      pop\n        /* \"#utility.yul\":4360:4362   */\n      0x20\n        /* \"#utility.yul\":4386:4439   */\n      tag_260\n        /* \"#utility.yul\":4431:4438   */\n      dup9\n        /* \"#utility.yul\":4422:4428   */\n      dup3\n        /* \"#utility.yul\":4411:4420   */\n      dup10\n        /* \"#utility.yul\":4407:4429   */\n      add\n        /* \"#utility.yul\":4386:4439   */\n      tag_178\n      jump\t// in\n    tag_260:\n        /* \"#utility.yul\":4376:4439   */\n      swap5\n      pop\n        /* \"#utility.yul\":4331:4449   */\n      pop\n        /* \"#utility.yul\":4516:4518   */\n      0x40\n        /* \"#utility.yul\":4505:4514   */\n      dup7\n        /* \"#utility.yul\":4501:4519   */\n      add\n        /* \"#utility.yul\":4488:4520   */\n      calldataload\n        /* \"#utility.yul\":4547:4565   */\n      0xffffffffffffffff\n        /* \"#utility.yul\":4539:4545   */\n      dup2\n        /* \"#utility.yul\":4536:4566   */\n      gt\n        /* \"#utility.yul\":4533:4650   */\n      iszero\n      tag_261\n      jumpi\n        /* \"#utility.yul\":4569:4648   */\n      tag_262\n      tag_164\n      jump\t// in\n    tag_262:\n        /* \"#utility.yul\":4533:4650   */\n    tag_261:\n        /* \"#utility.yul\":4674:4737   */\n      tag_263\n        /* \"#utility.yul\":4729:4736   */\n      dup9\n        /* \"#utility.yul\":4720:4726   */\n      dup3\n        /* \"#utility.yul\":4709:4718   */\n      dup10\n        /* \"#utility.yul\":4705:4727   */\n      add\n        /* \"#utility.yul\":4674:4737   */\n      tag_174\n      jump\t// in\n    tag_263:\n        /* \"#utility.yul\":4664:4737   */\n      swap4\n      pop\n        /* \"#utility.yul\":4459:4747   */\n      pop\n        /* \"#utility.yul\":4814:4816   */\n      0x60\n        /* \"#utility.yul\":4803:4812   */\n      dup7\n        /* \"#utility.yul\":4799:4817   */\n      add\n        /* \"#utility.yul\":4786:4818   */\n      calldataload\n        /* \"#utility.yul\":4845:4863   */\n      0xffffffffffffffff\n        /* \"#utility.yul\":4837:4843   */\n      dup2\n        /* \"#utility.yul\":4834:4864   */\n      gt\n        /* \"#utility.yul\":4831:4948   */\n      iszero\n      tag_264\n      jumpi\n        /* \"#utility.yul\":4867:4946   */\n      tag_265\n      tag_164\n      jump\t// in\n    tag_265:\n        /* \"#utility.yul\":4831:4948   */\n    tag_264:\n        /* \"#utility.yul\":4972:5035   */\n      tag_266\n        /* \"#utility.yul\":5027:5034   */\n      dup9\n        /* \"#utility.yul\":5018:5024   */\n      dup3\n        /* \"#utility.yul\":5007:5016   */\n      dup10\n        /* \"#utility.yul\":5003:5025   */\n      add\n        /* \"#utility.yul\":4972:5035   */\n      tag_174\n      jump\t// in\n    tag_266:\n        /* \"#utility.yul\":4962:5035   */\n      swap3\n      pop\n        /* \"#utility.yul\":4757:5045   */\n      pop\n        /* \"#utility.yul\":5112:5115   */\n      0x80\n        /* \"#utility.yul\":5101:5110   */\n      dup7\n        /* \"#utility.yul\":5097:5116   */\n      add\n        /* \"#utility.yul\":5084:5117   */\n      calldataload\n        /* \"#utility.yul\":5144:5162   */\n      0xffffffffffffffff\n        /* \"#utility.yul\":5136:5142   */\n      dup2\n        /* \"#utility.yul\":5133:5163   */\n      gt\n        /* \"#utility.yul\":5130:5247   */\n      iszero\n      tag_267\n      jumpi\n        /* \"#utility.yul\":5166:5245   */\n      tag_268\n      tag_164\n      jump\t// in\n    tag_268:\n        /* \"#utility.yul\":5130:5247   */\n    tag_267:\n        /* \"#utility.yul\":5271:5334   */\n      tag_269\n        /* \"#utility.yul\":5326:5333   */\n      dup9\n        /* \"#utility.yul\":5317:5323   */\n      dup3\n        /* \"#utility.yul\":5306:5315   */\n      dup10\n        /* \"#utility.yul\":5302:5324   */\n      add\n        /* \"#utility.yul\":5271:5334   */\n      tag_174\n      jump\t// in\n    tag_269:\n        /* \"#utility.yul\":5261:5334   */\n      swap2\n      pop\n        /* \"#utility.yul\":5055:5344   */\n      pop\n        /* \"#utility.yul\":3900:5351   */\n      swap3\n      swap6\n      pop\n      swap3\n      swap6\n      swap1\n      swap4\n      pop\n      jump\t// out\n        /* \"#utility.yul\":5357:6011   */\n    tag_25:\n        /* \"#utility.yul\":5435:5441   */\n      0x00\n        /* \"#utility.yul\":5443:5449   */\n      dup1\n        /* \"#utility.yul\":5492:5494   */\n      0x40\n        /* \"#utility.yul\":5480:5489   */\n      dup4\n        /* \"#utility.yul\":5471:5478   */\n      dup6\n        /* \"#utility.yul\":5467:5490   */\n      sub\n        /* \"#utility.yul\":5463:5495   */\n      slt\n        /* \"#utility.yul\":5460:5579   */\n      iszero\n      tag_271\n      jumpi\n        /* \"#utility.yul\":5498:5577   */\n      tag_272\n      tag_163\n      jump\t// in\n    tag_272:\n        /* \"#utility.yul\":5460:5579   */\n    tag_271:\n        /* \"#utility.yul\":5618:5619   */\n      0x00\n        /* \"#utility.yul\":5643:5696   */\n      tag_273\n        /* \"#utility.yul\":5688:5695   */\n      dup6\n        /* \"#utility.yul\":5679:5685   */\n      dup3\n        /* \"#utility.yul\":5668:5677   */\n      dup7\n        /* \"#utility.yul\":5664:5686   */\n      add\n        /* \"#utility.yul\":5643:5696   */\n      tag_178\n      jump\t// in\n    tag_273:\n        /* \"#utility.yul\":5633:5696   */\n      swap3\n      pop\n        /* \"#utility.yul\":5589:5706   */\n      pop\n        /* \"#utility.yul\":5773:5775   */\n      0x20\n        /* \"#utility.yul\":5762:5771   */\n      dup4\n        /* \"#utility.yul\":5758:5776   */\n      add\n        /* \"#utility.yul\":5745:5777   */\n      calldataload\n        /* \"#utility.yul\":5804:5822   */\n      0xffffffffffffffff\n        /* \"#utility.yul\":5796:5802   */\n      dup2\n        /* \"#utility.yul\":5793:5823   */\n      gt\n        /* \"#utility.yul\":5790:5907   */\n      iszero\n      tag_274\n      jumpi\n        /* \"#utility.yul\":5826:5905   */\n      tag_275\n      tag_164\n      jump\t// in\n    tag_275:\n        /* \"#utility.yul\":5790:5907   */\n    tag_274:\n        /* \"#utility.yul\":5931:5994   */\n      tag_276\n        /* \"#utility.yul\":5986:5993   */\n      dup6\n        /* \"#utility.yul\":5977:5983   */\n      dup3\n        /* \"#utility.yul\":5966:5975   */\n      dup7\n        /* \"#utility.yul\":5962:5984   */\n      add\n        /* \"#utility.yul\":5931:5994   */\n      tag_174\n      jump\t// in\n    tag_276:\n        /* \"#utility.yul\":5921:5994   */\n      swap2\n      pop\n        /* \"#utility.yul\":5716:6004   */\n      pop\n        /* \"#utility.yul\":5357:6011   */\n      swap3\n      pop\n      swap3\n      swap1\n      pop\n      jump\t// out\n        /* \"#utility.yul\":6017:6116   */\n    tag_179:\n        /* \"#utility.yul\":6069:6075   */\n      0x00\n        /* \"#utility.yul\":6103:6108   */\n      dup2\n        /* \"#utility.yul\":6097:6109   */\n      mload\n        /* \"#utility.yul\":6087:6109   */\n      swap1\n      pop\n        /* \"#utility.yul\":6017:6116   */\n      swap2\n      swap1\n      pop\n      jump\t// out\n        /* \"#utility.yul\":6122:6291   */\n    tag_180:\n        /* \"#utility.yul\":6206:6217   */\n      0x00\n        /* \"#utility.yul\":6240:6246   */\n      dup3\n        /* \"#utility.yul\":6235:6238   */\n      dup3\n        /* \"#utility.yul\":6228:6247   */\n      mstore\n        /* \"#utility.yul\":6280:6284   */\n      0x20\n        /* \"#utility.yul\":6275:6278   */\n      dup3\n        /* \"#utility.yul\":6271:6285   */\n      add\n        /* \"#utility.yul\":6256:6285   */\n      swap1\n      pop\n        /* \"#utility.yul\":6122:6291   */\n      swap3\n      swap2\n      pop\n      pop\n      jump\t// out\n        /* \"#utility.yul\":6297:6543   */\n    tag_181:\n        /* \"#utility.yul\":6378:6379   */\n      0x00\n        /* \"#utility.yul\":6388:6501   */\n    tag_280:\n        /* \"#utility.yul\":6402:6408   */\n      dup4\n        /* \"#utility.yul\":6399:6400   */\n      dup2\n        /* \"#utility.yul\":6396:6409   */\n      lt\n        /* \"#utility.yul\":6388:6501   */\n      iszero\n      tag_282\n      jumpi\n        /* \"#utility.yul\":6487:6488   */\n      dup1\n        /* \"#utility.yul\":6482:6485   */\n      dup3\n        /* \"#utility.yul\":6478:6489   */\n      add\n        /* \"#utility.yul\":6472:6490   */\n      mload\n        /* \"#utility.yul\":6468:6469   */\n      dup2\n        /* \"#utility.yul\":6463:6466   */\n      dup5\n        /* \"#utility.yul\":6459:6470   */\n      add\n        /* \"#utility.yul\":6452:6491   */\n      mstore\n        /* \"#utility.yul\":6424:6426   */\n      0x20\n        /* \"#utility.yul\":6421:6422   */\n      dup2\n        /* \"#utility.yul\":6417:6427   */\n      add\n        /* \"#utility.yul\":6412:6427   */\n      swap1\n      pop\n        /* \"#utility.yul\":6388:6501   */\n      jump(tag_280)\n    tag_282:\n        /* \"#utility.yul\":6535:6536   */\n      0x00\n        /* \"#utility.yul\":6526:6532   */\n      dup5\n        /* \"#utility.yul\":6521:6524   */\n      dup5\n        /* \"#utility.yul\":6517:6533   */\n      add\n        /* \"#utility.yul\":6510:6537   */\n      mstore\n        /* \"#utility.yul\":6359:6543   */\n      pop\n        /* \"#utility.yul\":6297:6543   */\n      pop\n      pop\n      pop\n      jump\t// out\n        /* \"#utility.yul\":6549:6926   */\n    tag_182:\n        /* \"#utility.yul\":6637:6640   */\n      0x00\n        /* \"#utility.yul\":6665:6704   */\n      tag_284\n        /* \"#utility.yul\":6698:6703   */\n      dup3\n        /* \"#utility.yul\":6665:6704   */\n      tag_179\n      jump\t// in\n    tag_284:\n        /* \"#utility.yul\":6720:6791   */\n      tag_285\n        /* \"#utility.yul\":6784:6790   */\n      dup2\n        /* \"#utility.yul\":6779:6782   */\n      dup6\n        /* \"#utility.yul\":6720:6791   */\n      tag_180\n      jump\t// in\n    tag_285:\n        /* \"#utility.yul\":6713:6791   */\n      swap4\n      pop\n        /* \"#utility.yul\":6800:6865   */\n      tag_286\n        /* \"#utility.yul\":6858:6864   */\n      dup2\n        /* \"#utility.yul\":6853:6856   */\n      dup6\n        /* \"#utility.yul\":6846:6850   */\n      0x20\n        /* \"#utility.yul\":6839:6844   */\n      dup7\n        /* \"#utility.yul\":6835:6851   */\n      add\n        /* \"#utility.yul\":6800:6865   */\n      tag_181\n      jump\t// in\n    tag_286:\n        /* \"#utility.yul\":6890:6919   */\n      tag_287\n        /* \"#utility.yul\":6912:6918   */\n      dup2\n        /* \"#utility.yul\":6890:6919   */\n      tag_167\n      jump\t// in\n    tag_287:\n        /* \"#utility.yul\":6885:6888   */\n      dup5\n        /* \"#utility.yul\":6881:6920   */\n      add\n        /* \"#utility.yul\":6874:6920   */\n      swap2\n      pop\n        /* \"#utility.yul\":6641:6926   */\n      pop\n        /* \"#utility.yul\":6549:6926   */\n      swap3\n      swap2\n      pop\n      pop\n      jump\t// out\n        /* \"#utility.yul\":6932:7008   */\n    tag_183:\n        /* \"#utility.yul\":6968:6975   */\n      0x00\n        /* \"#utility.yul\":6997:7002   */\n      dup2\n        /* \"#utility.yul\":6986:7002   */\n      swap1\n      pop\n        /* \"#utility.yul\":6932:7008   */\n      swap2\n      swap1\n      pop\n      jump\t// out\n        /* \"#utility.yul\":7014:7129   */\n    tag_184:\n        /* \"#utility.yul\":7099:7122   */\n      tag_290\n        /* \"#utility.yul\":7116:7121   */\n      dup2\n        /* \"#utility.yul\":7099:7122   */\n      tag_183\n      jump\t// in\n    tag_290:\n        /* \"#utility.yul\":7094:7097   */\n      dup3\n        /* \"#utility.yul\":7087:7123   */\n      mstore\n        /* \"#utility.yul\":7014:7129   */\n      pop\n      pop\n      jump\t// out\n        /* \"#utility.yul\":7135:8159   */\n    tag_28:\n        /* \"#utility.yul\":7418:7422   */\n      0x00\n        /* \"#utility.yul\":7456:7459   */\n      0xa0\n        /* \"#utility.yul\":7445:7454   */\n      dup3\n        /* \"#utility.yul\":7441:7460   */\n      add\n        /* \"#utility.yul\":7433:7460   */\n      swap1\n      pop\n        /* \"#utility.yul\":7506:7515   */\n      dup2\n        /* \"#utility.yul\":7500:7504   */\n      dup2\n        /* \"#utility.yul\":7496:7516   */\n      sub\n        /* \"#utility.yul\":7492:7493   */\n      0x00\n        /* \"#utility.yul\":7481:7490   */\n      dup4\n        /* \"#utility.yul\":7477:7494   */\n      add\n        /* \"#utility.yul\":7470:7517   */\n      mstore\n        /* \"#utility.yul\":7534:7612   */\n      tag_292\n        /* \"#utility.yul\":7607:7611   */\n      dup2\n        /* \"#utility.yul\":7598:7604   */\n      dup9\n        /* \"#utility.yul\":7534:7612   */\n      tag_182\n      jump\t// in\n    tag_292:\n        /* \"#utility.yul\":7526:7612   */\n      swap1\n      pop\n        /* \"#utility.yul\":7659:7668   */\n      dup2\n        /* \"#utility.yul\":7653:7657   */\n      dup2\n        /* \"#utility.yul\":7649:7669   */\n      sub\n        /* \"#utility.yul\":7644:7646   */\n      0x20\n        /* \"#utility.yul\":7633:7642   */\n      dup4\n        /* \"#utility.yul\":7629:7647   */\n      add\n        /* \"#utility.yul\":7622:7670   */\n      mstore\n        /* \"#utility.yul\":7687:7765   */\n      tag_293\n        /* \"#utility.yul\":7760:7764   */\n      dup2\n        /* \"#utility.yul\":7751:7757   */\n      dup8\n        /* \"#utility.yul\":7687:7765   */\n      tag_182\n      jump\t// in\n    tag_293:\n        /* \"#utility.yul\":7679:7765   */\n      swap1\n      pop\n        /* \"#utility.yul\":7812:7821   */\n      dup2\n        /* \"#utility.yul\":7806:7810   */\n      dup2\n        /* \"#utility.yul\":7802:7822   */\n      sub\n        /* \"#utility.yul\":7797:7799   */\n      0x40\n        /* \"#utility.yul\":7786:7795   */\n      dup4\n        /* \"#utility.yul\":7782:7800   */\n      add\n        /* \"#utility.yul\":7775:7823   */\n      mstore\n        /* \"#utility.yul\":7840:7918   */\n      tag_294\n        /* \"#utility.yul\":7913:7917   */\n      dup2\n        /* \"#utility.yul\":7904:7910   */\n      dup7\n        /* \"#utility.yul\":7840:7918   */\n      tag_182\n      jump\t// in\n    tag_294:\n        /* \"#utility.yul\":7832:7918   */\n      swap1\n      pop\n        /* \"#utility.yul\":7965:7974   */\n      dup2\n        /* \"#utility.yul\":7959:7963   */\n      dup2\n        /* \"#utility.yul\":7955:7975   */\n      sub\n        /* \"#utility.yul\":7950:7952   */\n      0x60\n        /* \"#utility.yul\":7939:7948   */\n      dup4\n        /* \"#utility.yul\":7935:7953   */\n      add\n        /* \"#utility.yul\":7928:7976   */\n      mstore\n        /* \"#utility.yul\":7993:8071   */\n      tag_295\n        /* \"#utility.yul\":8066:8070   */\n      dup2\n        /* \"#utility.yul\":8057:8063   */\n      dup6\n        /* \"#utility.yul\":7993:8071   */\n      tag_182\n      jump\t// in\n    tag_295:\n        /* \"#utility.yul\":7985:8071   */\n      swap1\n      pop\n        /* \"#utility.yul\":8081:8152   */\n      tag_296\n        /* \"#utility.yul\":8147:8150   */\n      0x80\n        /* \"#utility.yul\":8136:8145   */\n      dup4\n        /* \"#utility.yul\":8132:8151   */\n      add\n        /* \"#utility.yul\":8123:8129   */\n      dup5\n        /* \"#utility.yul\":8081:8152   */\n      tag_184\n      jump\t// in\n    tag_296:\n        /* \"#utility.yul\":7135:8159   */\n      swap7\n      swap6\n      pop\n      pop\n      pop\n      pop\n      pop\n      pop\n      jump\t// out\n        /* \"#utility.yul\":8165:8964   */\n    tag_31:\n        /* \"#utility.yul\":8252:8258   */\n      0x00\n        /* \"#utility.yul\":8260:8266   */\n      dup1\n        /* \"#utility.yul\":8268:8274   */\n      0x00\n        /* \"#utility.yul\":8317:8319   */\n      0x60\n        /* \"#utility.yul\":8305:8314   */\n      dup5\n        /* \"#utility.yul\":8296:8303   */\n      dup7\n        /* \"#utility.yul\":8292:8315   */\n      sub\n        /* \"#utility.yul\":8288:8320   */\n      slt\n        /* \"#utility.yul\":8285:8404   */\n      iszero\n      tag_298\n      jumpi\n        /* \"#utility.yul\":8323:8402   */\n      tag_299\n      tag_163\n      jump\t// in\n    tag_299:\n        /* \"#utility.yul\":8285:8404   */\n    tag_298:\n        /* \"#utility.yul\":8443:8444   */\n      0x00\n        /* \"#utility.yul\":8468:8521   */\n      tag_300\n        /* \"#utility.yul\":8513:8520   */\n      dup7\n        /* \"#utility.yul\":8504:8510   */\n      dup3\n        /* \"#utility.yul\":8493:8502   */\n      dup8\n        /* \"#utility.yul\":8489:8511   */\n      add\n        /* \"#utility.yul\":8468:8521   */\n      tag_178\n      jump\t// in\n    tag_300:\n        /* \"#utility.yul\":8458:8521   */\n      swap4\n      pop\n        /* \"#utility.yul\":8414:8531   */\n      pop\n        /* \"#utility.yul\":8570:8572   */\n      0x20\n        /* \"#utility.yul\":8596:8649   */\n      tag_301\n        /* \"#utility.yul\":8641:8648   */\n      dup7\n        /* \"#utility.yul\":8632:8638   */\n      dup3\n        /* \"#utility.yul\":8621:8630   */\n      dup8\n        /* \"#utility.yul\":8617:8639   */\n      add\n        /* \"#utility.yul\":8596:8649   */\n      tag_178\n      jump\t// in\n    tag_301:\n        /* \"#utility.yul\":8586:8649   */\n      swap3\n      pop\n        /* \"#utility.yul\":8541:8659   */\n      pop\n        /* \"#utility.yul\":8726:8728   */\n      0x40\n        /* \"#utility.yul\":8715:8724   */\n      dup5\n        /* \"#utility.yul\":8711:8729   */\n      add\n        /* \"#utility.yul\":8698:8730   */\n      calldataload\n        /* \"#utility.yul\":8757:8775   */\n      0xffffffffffffffff\n        /* \"#utility.yul\":8749:8755   */\n      dup2\n        /* \"#utility.yul\":8746:8776   */\n      gt\n        /* \"#utility.yul\":8743:8860   */\n      iszero\n      tag_302\n      jumpi\n        /* \"#utility.yul\":8779:8858   */\n      tag_303\n      tag_164\n      jump\t// in\n    tag_303:\n        /* \"#utility.yul\":8743:8860   */\n    tag_302:\n        /* \"#utility.yul\":8884:8947   */\n      tag_304\n        /* \"#utility.yul\":8939:8946   */\n      dup7\n        /* \"#utility.yul\":8930:8936   */\n      dup3\n        /* \"#utility.yul\":8919:8928   */\n      dup8\n        /* \"#utility.yul\":8915:8937   */\n      add\n        /* \"#utility.yul\":8884:8947   */\n      tag_174\n      jump\t// in\n    tag_304:\n        /* \"#utility.yul\":8874:8947   */\n      swap2\n      pop\n        /* \"#utility.yul\":8669:8957   */\n      pop\n        /* \"#utility.yul\":8165:8964   */\n      swap3\n      pop\n      swap3\n      pop\n      swap3\n      jump\t// out\n        /* \"#utility.yul\":8970:9484   */\n    tag_34:\n        /* \"#utility.yul\":9131:9135   */\n      0x00\n        /* \"#utility.yul\":9169:9171   */\n      0x40\n        /* \"#utility.yul\":9158:9167   */\n      dup3\n        /* \"#utility.yul\":9154:9172   */\n      add\n        /* \"#utility.yul\":9146:9172   */\n      swap1\n      pop\n        /* \"#utility.yul\":9218:9227   */\n      dup2\n        /* \"#utility.yul\":9212:9216   */\n      dup2\n        /* \"#utility.yul\":9208:9228   */\n      sub\n        /* \"#utility.yul\":9204:9205   */\n      0x00\n        /* \"#utility.yul\":9193:9202   */\n      dup4\n        /* \"#utility.yul\":9189:9206   */\n      add\n        /* \"#utility.yul\":9182:9229   */\n      mstore\n        /* \"#utility.yul\":9246:9324   */\n      tag_306\n        /* \"#utility.yul\":9319:9323   */\n      dup2\n        /* \"#utility.yul\":9310:9316   */\n      dup6\n        /* \"#utility.yul\":9246:9324   */\n      tag_182\n      jump\t// in\n    tag_306:\n        /* \"#utility.yul\":9238:9324   */\n      swap1\n      pop\n        /* \"#utility.yul\":9371:9380   */\n      dup2\n        /* \"#utility.yul\":9365:9369   */\n      dup2\n        /* \"#utility.yul\":9361:9381   */\n      sub\n        /* \"#utility.yul\":9356:9358   */\n      0x20\n        /* \"#utility.yul\":9345:9354   */\n      dup4\n        /* \"#utility.yul\":9341:9359   */\n      add\n        /* \"#utility.yul\":9334:9382   */\n      mstore\n        /* \"#utility.yul\":9399:9477   */\n      tag_307\n        /* \"#utility.yul\":9472:9476   */\n      dup2\n        /* \"#utility.yul\":9463:9469   */\n      dup5\n        /* \"#utility.yul\":9399:9477   */\n      tag_182\n      jump\t// in\n    tag_307:\n        /* \"#utility.yul\":9391:9477   */\n      swap1\n      pop\n        /* \"#utility.yul\":8970:9484   */\n      swap4\n      swap3\n      pop\n      pop\n      pop\n      jump\t// out\n        /* \"#utility.yul\":9490:9610   */\n    tag_185:\n        /* \"#utility.yul\":9562:9585   */\n      tag_309\n        /* \"#utility.yul\":9579:9584   */\n      dup2\n        /* \"#utility.yul\":9562:9585   */\n      tag_183\n      jump\t// in\n    tag_309:\n        /* \"#utility.yul\":9555:9560   */\n      dup2\n        /* \"#utility.yul\":9552:9586   */\n      eq\n        /* \"#utility.yul\":9542:9604   */\n      tag_310\n      jumpi\n        /* \"#utility.yul\":9600:9601   */\n      0x00\n        /* \"#utility.yul\":9597:9598   */\n      dup1\n        /* \"#utility.yul\":9590:9602   */\n      revert\n        /* \"#utility.yul\":9542:9604   */\n    tag_310:\n        /* \"#utility.yul\":9490:9610   */\n      pop\n      jump\t// out\n        /* \"#utility.yul\":9616:9753   */\n    tag_186:\n        /* \"#utility.yul\":9661:9666   */\n      0x00\n        /* \"#utility.yul\":9699:9705   */\n      dup2\n        /* \"#utility.yul\":9686:9706   */\n      calldataload\n        /* \"#utility.yul\":9677:9706   */\n      swap1\n      pop\n        /* \"#utility.yul\":9715:9747   */\n      tag_312\n        /* \"#utility.yul\":9741:9746   */\n      dup2\n        /* \"#utility.yul\":9715:9747   */\n      tag_185\n      jump\t// in\n    tag_312:\n        /* \"#utility.yul\":9616:9753   */\n      swap3\n      swap2\n      pop\n      pop\n      jump\t// out\n        /* \"#utility.yul\":9759:12152   */\n    tag_43:\n        /* \"#utility.yul\":9939:9945   */\n      0x00\n        /* \"#utility.yul\":9947:9953   */\n      dup1\n        /* \"#utility.yul\":9955:9961   */\n      0x00\n        /* \"#utility.yul\":9963:9969   */\n      dup1\n        /* \"#utility.yul\":9971:9977   */\n      0x00\n        /* \"#utility.yul\":9979:9985   */\n      dup1\n        /* \"#utility.yul\":9987:9993   */\n      0x00\n        /* \"#utility.yul\":9995:10001   */\n      dup1\n        /* \"#utility.yul\":10003:10009   */\n      0x00\n        /* \"#utility.yul\":10052:10055   */\n      0x0120\n        /* \"#utility.yul\":10040:10049   */\n      dup11\n        /* \"#utility.yul\":10031:10038   */\n      dup13\n        /* \"#utility.yul\":10027:10050   */\n      sub\n        /* \"#utility.yul\":10023:10056   */\n      slt\n        /* \"#utility.yul\":10020:10140   */\n      iszero\n      tag_314\n      jumpi\n        /* \"#utility.yul\":10059:10138   */\n      tag_315\n      tag_163\n      jump\t// in\n    tag_315:\n        /* \"#utility.yul\":10020:10140   */\n    tag_314:\n        /* \"#utility.yul\":10179:10180   */\n      0x00\n        /* \"#utility.yul\":10204:10257   */\n      tag_316\n        /* \"#utility.yul\":10249:10256   */\n      dup13\n        /* \"#utility.yul\":10240:10246   */\n      dup3\n        /* \"#utility.yul\":10229:10238   */\n      dup14\n        /* \"#utility.yul\":10225:10247   */\n      add\n        /* \"#utility.yul\":10204:10257   */\n      tag_178\n      jump\t// in\n    tag_316:\n        /* \"#utility.yul\":10194:10257   */\n      swap10\n      pop\n        /* \"#utility.yul\":10150:10267   */\n      pop\n        /* \"#utility.yul\":10306:10308   */\n      0x20\n        /* \"#utility.yul\":10332:10385   */\n      tag_317\n        /* \"#utility.yul\":10377:10384   */\n      dup13\n        /* \"#utility.yul\":10368:10374   */\n      dup3\n        /* \"#utility.yul\":10357:10366   */\n      dup14\n        /* \"#utility.yul\":10353:10375   */\n      add\n        /* \"#utility.yul\":10332:10385   */\n      tag_178\n      jump\t// in\n    tag_317:\n        /* \"#utility.yul\":10322:10385   */\n      swap9\n      pop\n        /* \"#utility.yul\":10277:10395   */\n      pop\n        /* \"#utility.yul\":10434:10436   */\n      0x40\n        /* \"#utility.yul\":10460:10513   */\n      tag_318\n        /* \"#utility.yul\":10505:10512   */\n      dup13\n        /* \"#utility.yul\":10496:10502   */\n      dup3\n        /* \"#utility.yul\":10485:10494   */\n      dup14\n        /* \"#utility.yul\":10481:10503   */\n      add\n        /* \"#utility.yul\":10460:10513   */\n      tag_178\n      jump\t// in\n    tag_318:\n        /* \"#utility.yul\":10450:10513   */\n      swap8\n      pop\n        /* \"#utility.yul\":10405:10523   */\n      pop\n        /* \"#utility.yul\":10590:10592   */\n      0x60\n        /* \"#utility.yul\":10579:10588   */\n      dup11\n        /* \"#utility.yul\":10575:10593   */\n      add\n        /* \"#utility.yul\":10562:10594   */\n      calldataload\n        /* \"#utility.yul\":10621:10639   */\n      0xffffffffffffffff\n        /* \"#utility.yul\":10613:10619   */\n      dup2\n        /* \"#utility.yul\":10610:10640   */\n      gt\n        /* \"#utility.yul\":10607:10724   */\n      iszero\n      tag_319\n      jumpi\n        /* \"#utility.yul\":10643:10722   */\n      tag_320\n      tag_164\n      jump\t// in\n    tag_320:\n        /* \"#utility.yul\":10607:10724   */\n    tag_319:\n        /* \"#utility.yul\":10748:10811   */\n      tag_321\n        /* \"#utility.yul\":10803:10810   */\n      dup13\n        /* \"#utility.yul\":10794:10800   */\n      dup3\n        /* \"#utility.yul\":10783:10792   */\n      dup14\n        /* \"#utility.yul\":10779:10801   */\n      add\n        /* \"#utility.yul\":10748:10811   */\n      tag_174\n      jump\t// in\n    tag_321:\n        /* \"#utility.yul\":10738:10811   */\n      swap7\n      pop\n        /* \"#utility.yul\":10533:10821   */\n      pop\n        /* \"#utility.yul\":10888:10891   */\n      0x80\n        /* \"#utility.yul\":10877:10886   */\n      dup11\n        /* \"#utility.yul\":10873:10892   */\n      add\n        /* \"#utility.yul\":10860:10893   */\n      calldataload\n        /* \"#utility.yul\":10920:10938   */\n      0xffffffffffffffff\n        /* \"#utility.yul\":10912:10918   */\n      dup2\n        /* \"#utility.yul\":10909:10939   */\n      gt\n        /* \"#utility.yul\":10906:11023   */\n      iszero\n      tag_322\n      jumpi\n        /* \"#utility.yul\":10942:11021   */\n      tag_323\n      tag_164\n      jump\t// in\n    tag_323:\n        /* \"#utility.yul\":10906:11023   */\n    tag_322:\n        /* \"#utility.yul\":11047:11110   */\n      tag_324\n        /* \"#utility.yul\":11102:11109   */\n      dup13\n        /* \"#utility.yul\":11093:11099   */\n      dup3\n        /* \"#utility.yul\":11082:11091   */\n      dup14\n        /* \"#utility.yul\":11078:11100   */\n      add\n        /* \"#utility.yul\":11047:11110   */\n      tag_174\n      jump\t// in\n    tag_324:\n        /* \"#utility.yul\":11037:11110   */\n      swap6\n      pop\n        /* \"#utility.yul\":10831:11120   */\n      pop\n        /* \"#utility.yul\":11187:11190   */\n      0xa0\n        /* \"#utility.yul\":11176:11185   */\n      dup11\n        /* \"#utility.yul\":11172:11191   */\n      add\n        /* \"#utility.yul\":11159:11192   */\n      calldataload\n        /* \"#utility.yul\":11219:11237   */\n      0xffffffffffffffff\n        /* \"#utility.yul\":11211:11217   */\n      dup2\n        /* \"#utility.yul\":11208:11238   */\n      gt\n        /* \"#utility.yul\":11205:11322   */\n      iszero\n      tag_325\n      jumpi\n        /* \"#utility.yul\":11241:11320   */\n      tag_326\n      tag_164\n      jump\t// in\n    tag_326:\n        /* \"#utility.yul\":11205:11322   */\n    tag_325:\n        /* \"#utility.yul\":11346:11409   */\n      tag_327\n        /* \"#utility.yul\":11401:11408   */\n      dup13\n        /* \"#utility.yul\":11392:11398   */\n      dup3\n        /* \"#utility.yul\":11381:11390   */\n      dup14\n        /* \"#utility.yul\":11377:11399   */\n      add\n        /* \"#utility.yul\":11346:11409   */\n      tag_174\n      jump\t// in\n    tag_327:\n        /* \"#utility.yul\":11336:11409   */\n      swap5\n      pop\n        /* \"#utility.yul\":11130:11419   */\n      pop\n        /* \"#utility.yul\":11486:11489   */\n      0xc0\n        /* \"#utility.yul\":11475:11484   */\n      dup11\n        /* \"#utility.yul\":11471:11490   */\n      add\n        /* \"#utility.yul\":11458:11491   */\n      calldataload\n        /* \"#utility.yul\":11518:11536   */\n      0xffffffffffffffff\n        /* \"#utility.yul\":11510:11516   */\n      dup2\n        /* \"#utility.yul\":11507:11537   */\n      gt\n        /* \"#utility.yul\":11504:11621   */\n      iszero\n      tag_328\n      jumpi\n        /* \"#utility.yul\":11540:11619   */\n      tag_329\n      tag_164\n      jump\t// in\n    tag_329:\n        /* \"#utility.yul\":11504:11621   */\n    tag_328:\n        /* \"#utility.yul\":11645:11708   */\n      tag_330\n        /* \"#utility.yul\":11700:11707   */\n      dup13\n        /* \"#utility.yul\":11691:11697   */\n      dup3\n        /* \"#utility.yul\":11680:11689   */\n      dup14\n        /* \"#utility.yul\":11676:11698   */\n      add\n        /* \"#utility.yul\":11645:11708   */\n      tag_174\n      jump\t// in\n    tag_330:\n        /* \"#utility.yul\":11635:11708   */\n      swap4\n      pop\n        /* \"#utility.yul\":11429:11718   */\n      pop\n        /* \"#utility.yul\":11757:11760   */\n      0xe0\n        /* \"#utility.yul\":11784:11836   */\n      tag_331\n        /* \"#utility.yul\":11828:11835   */\n      dup13\n        /* \"#utility.yul\":11819:11825   */\n      dup3\n        /* \"#utility.yul\":11808:11817   */\n      dup14\n        /* \"#utility.yul\":11804:11826   */\n      add\n        /* \"#utility.yul\":11784:11836   */\n      tag_186\n      jump\t// in\n    tag_331:\n        /* \"#utility.yul\":11774:11836   */\n      swap3\n      pop\n        /* \"#utility.yul\":11728:11846   */\n      pop\n        /* \"#utility.yul\":11913:11916   */\n      0x0100\n        /* \"#utility.yul\":11902:11911   */\n      dup11\n        /* \"#utility.yul\":11898:11917   */\n      add\n        /* \"#utility.yul\":11885:11918   */\n      calldataload\n        /* \"#utility.yul\":11945:11963   */\n      0xffffffffffffffff\n        /* \"#utility.yul\":11937:11943   */\n      dup2\n        /* \"#utility.yul\":11934:11964   */\n      gt\n        /* \"#utility.yul\":11931:12048   */\n      iszero\n      tag_332\n      jumpi\n        /* \"#utility.yul\":11967:12046   */\n      tag_333\n      tag_164\n      jump\t// in\n    tag_333:\n        /* \"#utility.yul\":11931:12048   */\n    tag_332:\n        /* \"#utility.yul\":12072:12135   */\n      tag_334\n        /* \"#utility.yul\":12127:12134   */\n      dup13\n        /* \"#utility.yul\":12118:12124   */\n      dup3\n        /* \"#utility.yul\":12107:12116   */\n      dup14\n        /* \"#utility.yul\":12103:12125   */\n      add\n        /* \"#utility.yul\":12072:12135   */\n      tag_174\n      jump\t// in\n    tag_334:\n        /* \"#utility.yul\":12062:12135   */\n      swap2\n      pop\n        /* \"#utility.yul\":11856:12145   */\n      pop\n        /* \"#utility.yul\":9759:12152   */\n      swap3\n      swap6\n      swap9\n      pop\n      swap3\n      swap6\n      swap9\n      pop\n      swap3\n      swap6\n      swap9\n      jump\t// out\n        /* \"#utility.yul\":12158:12276   */\n    tag_187:\n        /* \"#utility.yul\":12245:12269   */\n      tag_336\n        /* \"#utility.yul\":12263:12268   */\n      dup2\n        /* \"#utility.yul\":12245:12269   */\n      tag_176\n      jump\t// in\n    tag_336:\n        /* \"#utility.yul\":12240:12243   */\n      dup3\n        /* \"#utility.yul\":12233:12270   */\n      mstore\n        /* \"#utility.yul\":12158:12276   */\n      pop\n      pop\n      jump\t// out\n        /* \"#utility.yul\":12282:13025   */\n    tag_49:\n        /* \"#utility.yul\":12501:12505   */\n      0x00\n        /* \"#utility.yul\":12539:12542   */\n      0xa0\n        /* \"#utility.yul\":12528:12537   */\n      dup3\n        /* \"#utility.yul\":12524:12543   */\n      add\n        /* \"#utility.yul\":12516:12543   */\n      swap1\n      pop\n        /* \"#utility.yul\":12589:12598   */\n      dup2\n        /* \"#utility.yul\":12583:12587   */\n      dup2\n        /* \"#utility.yul\":12579:12599   */\n      sub\n        /* \"#utility.yul\":12575:12576   */\n      0x00\n        /* \"#utility.yul\":12564:12573   */\n      dup4\n        /* \"#utility.yul\":12560:12577   */\n      add\n        /* \"#utility.yul\":12553:12600   */\n      mstore\n        /* \"#utility.yul\":12617:12695   */\n      tag_338\n        /* \"#utility.yul\":12690:12694   */\n      dup2\n        /* \"#utility.yul\":12681:12687   */\n      dup9\n        /* \"#utility.yul\":12617:12695   */\n      tag_182\n      jump\t// in\n    tag_338:\n        /* \"#utility.yul\":12609:12695   */\n      swap1\n      pop\n        /* \"#utility.yul\":12705:12777   */\n      tag_339\n        /* \"#utility.yul\":12773:12775   */\n      0x20\n        /* \"#utility.yul\":12762:12771   */\n      dup4\n        /* \"#utility.yul\":12758:12776   */\n      add\n        /* \"#utility.yul\":12749:12755   */\n      dup8\n        /* \"#utility.yul\":12705:12777   */\n      tag_187\n      jump\t// in\n    tag_339:\n        /* \"#utility.yul\":12787:12857   */\n      tag_340\n        /* \"#utility.yul\":12853:12855   */\n      0x40\n        /* \"#utility.yul\":12842:12851   */\n      dup4\n        /* \"#utility.yul\":12838:12856   */\n      add\n        /* \"#utility.yul\":12829:12835   */\n      dup7\n        /* \"#utility.yul\":12787:12857   */\n      tag_184\n      jump\t// in\n    tag_340:\n        /* \"#utility.yul\":12867:12937   */\n      tag_341\n        /* \"#utility.yul\":12933:12935   */\n      0x60\n        /* \"#utility.yul\":12922:12931   */\n      dup4\n        /* \"#utility.yul\":12918:12936   */\n      add\n        /* \"#utility.yul\":12909:12915   */\n      dup6\n        /* \"#utility.yul\":12867:12937   */\n      tag_184\n      jump\t// in\n    tag_341:\n        /* \"#utility.yul\":12947:13018   */\n      tag_342\n        /* \"#utility.yul\":13013:13016   */\n      0x80\n        /* \"#utility.yul\":13002:13011   */\n      dup4\n        /* \"#utility.yul\":12998:13017   */\n      add\n        /* \"#utility.yul\":12989:12995   */\n      dup5\n        /* \"#utility.yul\":12947:13018   */\n      tag_184\n      jump\t// in\n    tag_342:\n        /* \"#utility.yul\":12282:13025   */\n      swap7\n      swap6\n      pop\n      pop\n      pop\n      pop\n      pop\n      pop\n      jump\t// out\n        /* \"#utility.yul\":13031:14588   */\n    tag_55:\n        /* \"#utility.yul\":13161:13167   */\n      0x00\n        /* \"#utility.yul\":13169:13175   */\n      dup1\n        /* \"#utility.yul\":13177:13183   */\n      0x00\n        /* \"#utility.yul\":13185:13191   */\n      dup1\n        /* \"#utility.yul\":13193:13199   */\n      0x00\n        /* \"#utility.yul\":13201:13207   */\n      dup1\n        /* \"#utility.yul\":13209:13215   */\n      0x00\n        /* \"#utility.yul\":13258:13261   */\n      0xe0\n        /* \"#utility.yul\":13246:13255   */\n      dup9\n        /* \"#utility.yul\":13237:13244   */\n      dup11\n        /* \"#utility.yul\":13233:13256   */\n      sub\n        /* \"#utility.yul\":13229:13262   */\n      slt\n        /* \"#utility.yul\":13226:13346   */\n      iszero\n      tag_344\n      jumpi\n        /* \"#utility.yul\":13265:13344   */\n      tag_345\n      tag_163\n      jump\t// in\n    tag_345:\n        /* \"#utility.yul\":13226:13346   */\n    tag_344:\n        /* \"#utility.yul\":13385:13386   */\n      0x00\n        /* \"#utility.yul\":13410:13463   */\n      tag_346\n        /* \"#utility.yul\":13455:13462   */\n      dup11\n        /* \"#utility.yul\":13446:13452   */\n      dup3\n        /* \"#utility.yul\":13435:13444   */\n      dup12\n        /* \"#utility.yul\":13431:13453   */\n      add\n        /* \"#utility.yul\":13410:13463   */\n      tag_178\n      jump\t// in\n    tag_346:\n        /* \"#utility.yul\":13400:13463   */\n      swap8\n      pop\n        /* \"#utility.yul\":13356:13473   */\n      pop\n        /* \"#utility.yul\":13512:13514   */\n      0x20\n        /* \"#utility.yul\":13538:13591   */\n      tag_347\n        /* \"#utility.yul\":13583:13590   */\n      dup11\n        /* \"#utility.yul\":13574:13580   */\n      dup3\n        /* \"#utility.yul\":13563:13572   */\n      dup12\n        /* \"#utility.yul\":13559:13581   */\n      add\n        /* \"#utility.yul\":13538:13591   */\n      tag_178\n      jump\t// in\n    tag_347:\n        /* \"#utility.yul\":13528:13591   */\n      swap7\n      pop\n        /* \"#utility.yul\":13483:13601   */\n      pop\n        /* \"#utility.yul\":13668:13670   */\n      0x40\n        /* \"#utility.yul\":13657:13666   */\n      dup9\n        /* \"#utility.yul\":13653:13671   */\n      add\n        /* \"#utility.yul\":13640:13672   */\n      calldataload\n        /* \"#utility.yul\":13699:13717   */\n      0xffffffffffffffff\n        /* \"#utility.yul\":13691:13697   */\n      dup2\n        /* \"#utility.yul\":13688:13718   */\n      gt\n        /* \"#utility.yul\":13685:13802   */\n      iszero\n      tag_348\n      jumpi\n        /* \"#utility.yul\":13721:13800   */\n      tag_349\n      tag_164\n      jump\t// in\n    tag_349:\n        /* \"#utility.yul\":13685:13802   */\n    tag_348:\n        /* \"#utility.yul\":13826:13889   */\n      tag_350\n        /* \"#utility.yul\":13881:13888   */\n      dup11\n        /* \"#utility.yul\":13872:13878   */\n      dup3\n        /* \"#utility.yul\":13861:13870   */\n      dup12\n        /* \"#utility.yul\":13857:13879   */\n      add\n        /* \"#utility.yul\":13826:13889   */\n      tag_174\n      jump\t// in\n    tag_350:\n        /* \"#utility.yul\":13816:13889   */\n      swap6\n      pop\n        /* \"#utility.yul\":13611:13899   */\n      pop\n        /* \"#utility.yul\":13966:13968   */\n      0x60\n        /* \"#utility.yul\":13955:13964   */\n      dup9\n        /* \"#utility.yul\":13951:13969   */\n      add\n        /* \"#utility.yul\":13938:13970   */\n      calldataload\n        /* \"#utility.yul\":13997:14015   */\n      0xffffffffffffffff\n        /* \"#utility.yul\":13989:13995   */\n      dup2\n        /* \"#utility.yul\":13986:14016   */\n      gt\n        /* \"#utility.yul\":13983:14100   */\n      iszero\n      tag_351\n      jumpi\n        /* \"#utility.yul\":14019:14098   */\n      tag_352\n      tag_164\n      jump\t// in\n    tag_352:\n        /* \"#utility.yul\":13983:14100   */\n    tag_351:\n        /* \"#utility.yul\":14124:14187   */\n      tag_353\n        /* \"#utility.yul\":14179:14186   */\n      dup11\n        /* \"#utility.yul\":14170:14176   */\n      dup3\n        /* \"#utility.yul\":14159:14168   */\n      dup12\n        /* \"#utility.yul\":14155:14177   */\n      add\n        /* \"#utility.yul\":14124:14187   */\n      tag_174\n      jump\t// in\n    tag_353:\n        /* \"#utility.yul\":14114:14187   */\n      swap5\n      pop\n        /* \"#utility.yul\":13909:14197   */\n      pop\n        /* \"#utility.yul\":14236:14239   */\n      0x80\n        /* \"#utility.yul\":14263:14315   */\n      tag_354\n        /* \"#utility.yul\":14307:14314   */\n      dup11\n        /* \"#utility.yul\":14298:14304   */\n      dup3\n        /* \"#utility.yul\":14287:14296   */\n      dup12\n        /* \"#utility.yul\":14283:14305   */\n      add\n        /* \"#utility.yul\":14263:14315   */\n      tag_186\n      jump\t// in\n    tag_354:\n        /* \"#utility.yul\":14253:14315   */\n      swap4\n      pop\n        /* \"#utility.yul\":14207:14325   */\n      pop\n        /* \"#utility.yul\":14364:14367   */\n      0xa0\n        /* \"#utility.yul\":14391:14443   */\n      tag_355\n        /* \"#utility.yul\":14435:14442   */\n      dup11\n        /* \"#utility.yul\":14426:14432   */\n      dup3\n        /* \"#utility.yul\":14415:14424   */\n      dup12\n        /* \"#utility.yul\":14411:14433   */\n      add\n        /* \"#utility.yul\":14391:14443   */\n      tag_186\n      jump\t// in\n    tag_355:\n        /* \"#utility.yul\":14381:14443   */\n      swap3\n      pop\n        /* \"#utility.yul\":14335:14453   */\n      pop\n        /* \"#utility.yul\":14492:14495   */\n      0xc0\n        /* \"#utility.yul\":14519:14571   */\n      tag_356\n        /* \"#utility.yul\":14563:14570   */\n      dup11\n        /* \"#utility.yul\":14554:14560   */\n      dup3\n        /* \"#utility.yul\":14543:14552   */\n      dup12\n        /* \"#utility.yul\":14539:14561   */\n      add\n        /* \"#utility.yul\":14519:14571   */\n      tag_186\n      jump\t// in\n    tag_356:\n        /* \"#utility.yul\":14509:14571   */\n      swap2\n      pop\n        /* \"#utility.yul\":14463:14581   */\n      pop\n        /* \"#utility.yul\":13031:14588   */\n      swap3\n      swap6\n      swap9\n      swap2\n      swap5\n      swap8\n      pop\n      swap3\n      swap6\n      pop\n      jump\t// out\n        /* \"#utility.yul\":14594:14742   */\n    tag_188:\n        /* \"#utility.yul\":14696:14707   */\n      0x00\n        /* \"#utility.yul\":14733:14736   */\n      dup2\n        /* \"#utility.yul\":14718:14736   */\n      swap1\n      pop\n        /* \"#utility.yul\":14594:14742   */\n      swap3\n      swap2\n      pop\n      pop\n      jump\t// out\n        /* \"#utility.yul\":14748:15138   */\n    tag_189:\n        /* \"#utility.yul\":14854:14857   */\n      0x00\n        /* \"#utility.yul\":14882:14921   */\n      tag_359\n        /* \"#utility.yul\":14915:14920   */\n      dup3\n        /* \"#utility.yul\":14882:14921   */\n      tag_179\n      jump\t// in\n    tag_359:\n        /* \"#utility.yul\":14937:15026   */\n      tag_360\n        /* \"#utility.yul\":15019:15025   */\n      dup2\n        /* \"#utility.yul\":15014:15017   */\n      dup6\n        /* \"#utility.yul\":14937:15026   */\n      tag_188\n      jump\t// in\n    tag_360:\n        /* \"#utility.yul\":14930:15026   */\n      swap4\n      pop\n        /* \"#utility.yul\":15035:15100   */\n      tag_361\n        /* \"#utility.yul\":15093:15099   */\n      dup2\n        /* \"#utility.yul\":15088:15091   */\n      dup6\n        /* \"#utility.yul\":15081:15085   */\n      0x20\n        /* \"#utility.yul\":15074:15079   */\n      dup7\n        /* \"#utility.yul\":15070:15086   */\n      add\n        /* \"#utility.yul\":15035:15100   */\n      tag_181\n      jump\t// in\n    tag_361:\n        /* \"#utility.yul\":15125:15131   */\n      dup1\n        /* \"#utility.yul\":15120:15123   */\n      dup5\n        /* \"#utility.yul\":15116:15132   */\n      add\n        /* \"#utility.yul\":15109:15132   */\n      swap2\n      pop\n        /* \"#utility.yul\":14858:15138   */\n      pop\n        /* \"#utility.yul\":14748:15138   */\n      swap3\n      swap2\n      pop\n      pop\n      jump\t// out\n        /* \"#utility.yul\":15144:15419   */\n    tag_62:\n        /* \"#utility.yul\":15276:15279   */\n      0x00\n        /* \"#utility.yul\":15298:15393   */\n      tag_363\n        /* \"#utility.yul\":15389:15392   */\n      dup3\n        /* \"#utility.yul\":15380:15386   */\n      dup5\n        /* \"#utility.yul\":15298:15393   */\n      tag_189\n      jump\t// in\n    tag_363:\n        /* \"#utility.yul\":15291:15393   */\n      swap2\n      pop\n        /* \"#utility.yul\":15410:15413   */\n      dup2\n        /* \"#utility.yul\":15403:15413   */\n      swap1\n      pop\n        /* \"#utility.yul\":15144:15419   */\n      swap3\n      swap2\n      pop\n      pop\n      jump\t// out\n        /* \"#utility.yul\":15425:15605   */\n    tag_190:\n        /* \"#utility.yul\":15473:15550   */\n      0x4e487b7100000000000000000000000000000000000000000000000000000000\n        /* \"#utility.yul\":15470:15471   */\n      0x00\n        /* \"#utility.yul\":15463:15551   */\n      mstore\n        /* \"#utility.yul\":15570:15574   */\n      0x22\n        /* \"#utility.yul\":15567:15568   */\n      0x04\n        /* \"#utility.yul\":15560:15575   */\n      mstore\n        /* \"#utility.yul\":15594:15598   */\n      0x24\n        /* \"#utility.yul\":15591:15592   */\n      0x00\n        /* \"#utility.yul\":15584:15599   */\n      revert\n        /* \"#utility.yul\":15611:15931   */\n    tag_77:\n        /* \"#utility.yul\":15655:15661   */\n      0x00\n        /* \"#utility.yul\":15692:15693   */\n      0x02\n        /* \"#utility.yul\":15686:15690   */\n      dup3\n        /* \"#utility.yul\":15682:15694   */\n      div\n        /* \"#utility.yul\":15672:15694   */\n      swap1\n      pop\n        /* \"#utility.yul\":15739:15740   */\n      0x01\n        /* \"#utility.yul\":15733:15737   */\n      dup3\n        /* \"#utility.yul\":15729:15741   */\n      and\n        /* \"#utility.yul\":15760:15778   */\n      dup1\n        /* \"#utility.yul\":15750:15831   */\n      tag_366\n      jumpi\n        /* \"#utility.yul\":15816:15820   */\n      0x7f\n        /* \"#utility.yul\":15808:15814   */\n      dup3\n        /* \"#utility.yul\":15804:15821   */\n      and\n        /* \"#utility.yul\":15794:15821   */\n      swap2\n      pop\n        /* \"#utility.yul\":15750:15831   */\n    tag_366:\n        /* \"#utility.yul\":15878:15880   */\n      0x20\n        /* \"#utility.yul\":15870:15876   */\n      dup3\n        /* \"#utility.yul\":15867:15881   */\n      lt\n        /* \"#utility.yul\":15847:15865   */\n      dup2\n        /* \"#utility.yul\":15844:15882   */\n      sub\n        /* \"#utility.yul\":15841:15925   */\n      tag_367\n      jumpi\n        /* \"#utility.yul\":15897:15915   */\n      tag_368\n      tag_190\n      jump\t// in\n    tag_368:\n        /* \"#utility.yul\":15841:15925   */\n    tag_367:\n        /* \"#utility.yul\":15662:15931   */\n      pop\n        /* \"#utility.yul\":15611:15931   */\n      swap2\n      swap1\n      pop\n      jump\t// out\n        /* \"#utility.yul\":15937:16078   */\n    tag_191:\n        /* \"#utility.yul\":15986:15990   */\n      0x00\n        /* \"#utility.yul\":16009:16012   */\n      dup2\n        /* \"#utility.yul\":16001:16012   */\n      swap1\n      pop\n        /* \"#utility.yul\":16032:16035   */\n      dup2\n        /* \"#utility.yul\":16029:16030   */\n      0x00\n        /* \"#utility.yul\":16022:16036   */\n      mstore\n        /* \"#utility.yul\":16066:16070   */\n      0x20\n        /* \"#utility.yul\":16063:16064   */\n      0x00\n        /* \"#utility.yul\":16053:16071   */\n      keccak256\n        /* \"#utility.yul\":16045:16071   */\n      swap1\n      pop\n        /* \"#utility.yul\":15937:16078   */\n      swap2\n      swap1\n      pop\n      jump\t// out\n        /* \"#utility.yul\":16084:16177   */\n    tag_192:\n        /* \"#utility.yul\":16121:16127   */\n      0x00\n        /* \"#utility.yul\":16168:16170   */\n      0x20\n        /* \"#utility.yul\":16163:16165   */\n      0x1f\n        /* \"#utility.yul\":16156:16161   */\n      dup4\n        /* \"#utility.yul\":16152:16166   */\n      add\n        /* \"#utility.yul\":16148:16171   */\n      div\n        /* \"#utility.yul\":16138:16171   */\n      swap1\n      pop\n        /* \"#utility.yul\":16084:16177   */\n      swap2\n      swap1\n      pop\n      jump\t// out\n        /* \"#utility.yul\":16183:16298   */\n    tag_193:\n        /* \"#utility.yul\":16227:16235   */\n      0x00\n        /* \"#utility.yul\":16285:16289   */\n      dup2\n        /* \"#utility.yul\":16282:16283   */\n      0x02\n        /* \"#utility.yul\":16278:16290   */\n      exp\n        /* \"#utility.yul\":16271:16276   */\n      dup4\n        /* \"#utility.yul\":16267:16291   */\n      mul\n        /* \"#utility.yul\":16246:16291   */\n      swap1\n      pop\n        /* \"#utility.yul\":16183:16298   */\n      swap3\n      swap2\n      pop\n      pop\n      jump\t// out\n        /* \"#utility.yul\":16304:16697   */\n    tag_194:\n        /* \"#utility.yul\":16373:16379   */\n      0x00\n        /* \"#utility.yul\":16423:16424   */\n      0x08\n        /* \"#utility.yul\":16411:16421   */\n      dup4\n        /* \"#utility.yul\":16407:16425   */\n      mul\n        /* \"#utility.yul\":16446:16543   */\n      tag_373\n        /* \"#utility.yul\":16476:16542   */\n      0xffffffffffffffffffffffffffffffffffffffffffffffffffffffffffffffff\n        /* \"#utility.yul\":16465:16474   */\n      dup3\n        /* \"#utility.yul\":16446:16543   */\n      tag_193\n      jump\t// in\n    tag_373:\n        /* \"#utility.yul\":16564:16603   */\n      tag_374\n        /* \"#utility.yul\":16594:16602   */\n      dup7\n        /* \"#utility.yul\":16583:16592   */\n      dup4\n        /* \"#utility.yul\":16564:16603   */\n      tag_193\n      jump\t// in\n    tag_374:\n        /* \"#utility.yul\":16552:16603   */\n      swap6\n      pop\n        /* \"#utility.yul\":16636:16640   */\n      dup1\n        /* \"#utility.yul\":16632:16641   */\n      not\n        /* \"#utility.yul\":16625:16630   */\n      dup5\n        /* \"#utility.yul\":16621:16642   */\n      and\n        /* \"#utility.yul\":16612:16642   */\n      swap4\n      pop\n        /* \"#utility.yul\":16685:16689   */\n      dup1\n        /* \"#utility.yul\":16675:16683   */\n      dup7\n        /* \"#utility.yul\":16671:16690   */\n      and\n        /* \"#utility.yul\":16664:16669   */\n      dup5\n        /* \"#utility.yul\":16661:16691   */\n      or\n        /* \"#utility.yul\":16651:16691   */\n      swap3\n      pop\n        /* \"#utility.yul\":16380:16697   */\n      pop\n      pop\n        /* \"#utility.yul\":16304:16697   */\n      swap4\n      swap3\n      pop\n      pop\n      pop\n      jump\t// out\n        /* \"#utility.yul\":16703:16780   */\n    tag_195:\n        /* \"#utility.yul\":16740:16747   */\n      0x00\n        /* \"#utility.yul\":16769:16774   */\n      dup2\n        /* \"#utility.yul\":16758:16774   */\n      swap1\n      pop\n        /* \"#utility.yul\":16703:16780   */\n      swap2\n      swap1\n      pop\n      jump\t// out\n        /* \"#utility.yul\":16786:16846   */\n    tag_196:\n        /* \"#utility.yul\":16814:16817   */\n      0x00\n        /* \"#utility.yul\":16835:16840   */\n      dup2\n        /* \"#utility.yul\":16828:16840   */\n      swap1\n      pop\n        /* \"#utility.yul\":16786:16846   */\n      swap2\n      swap1\n      pop\n      jump\t// out\n        /* \"#utility.yul\":16852:16994   */\n    tag_197:\n        /* \"#utility.yul\":16902:16911   */\n      0x00\n        /* \"#utility.yul\":16935:16988   */\n      tag_378\n        /* \"#utility.yul\":16953:16987   */\n      tag_379\n        /* \"#utility.yul\":16962:16986   */\n      tag_380\n        /* \"#utility.yul\":16980:16985   */\n      dup5\n        /* \"#utility.yul\":16962:16986   */\n      tag_195\n      jump\t// in\n    tag_380:\n        /* \"#utility.yul\":16953:16987   */\n      tag_196\n      jump\t// in\n    tag_379:\n        /* \"#utility.yul\":16935:16988   */\n      tag_195\n      jump\t// in\n    tag_378:\n        /* \"#utility.yul\":16922:16988   */\n      swap1\n      pop\n        /* \"#utility.yul\":16852:16994   */\n      swap2\n      swap1\n      pop\n      jump\t// out\n        /* \"#utility.yul\":17000:17075   */\n    tag_198:\n        /* \"#utility.yul\":17043:17046   */\n      0x00\n        /* \"#utility.yul\":17064:17069   */\n      dup2\n        /* \"#utility.yul\":17057:17069   */\n      swap1\n      pop\n        /* \"#utility.yul\":17000:17075   */\n      swap2\n      swap1\n      pop\n      jump\t// out\n        /* \"#utility.yul\":17081:17350   */\n    tag_199:\n        /* \"#utility.yul\":17191:17230   */\n      tag_383\n        /* \"#utility.yul\":17222:17229   */\n      dup4\n        /* \"#utility.yul\":17191:17230   */\n      tag_197\n      jump\t// in\n    tag_383:\n        /* \"#utility.yul\":17252:17343   */\n      tag_384\n        /* \"#utility.yul\":17301:17342   */\n      tag_385\n        /* \"#utility.yul\":17325:17341   */\n      dup3\n        /* \"#utility.yul\":17301:17342   */\n      tag_198\n      jump\t// in\n    tag_385:\n        /* \"#utility.yul\":17293:17299   */\n      dup5\n        /* \"#utility.yul\":17286:17290   */\n      dup5\n        /* \"#utility.yul\":17280:17291   */\n      sload\n        /* \"#utility.yul\":17252:17343   */\n      tag_194\n      jump\t// in\n    tag_384:\n        /* \"#utility.yul\":17246:17250   */\n      dup3\n        /* \"#utility.yul\":17239:17344   */\n      sstore\n        /* \"#utility.yul\":17157:17350   */\n      pop\n        /* \"#utility.yul\":17081:17350   */\n      pop\n      pop\n      pop\n      jump\t// out\n        /* \"#utility.yul\":17356:17429   */\n    tag_200:\n        /* \"#utility.yul\":17401:17404   */\n      0x00\n        /* \"#utility.yul\":17356:17429   */\n      swap1\n      jump\t// out\n        /* \"#utility.yul\":17435:17624   */\n    tag_201:\n        /* \"#utility.yul\":17512:17544   */\n      tag_388\n      tag_200\n      jump\t// in\n    tag_388:\n        /* \"#utility.yul\":17553:17618   */\n      tag_389\n        /* \"#utility.yul\":17611:17617   */\n      dup2\n        /* \"#utility.yul\":17603:17609   */\n      dup5\n        /* \"#utility.yul\":17597:17601   */\n      dup5\n        /* \"#utility.yul\":17553:17618   */\n      tag_199\n      jump\t// in\n    tag_389:\n        /* \"#utility.yul\":17488:17624   */\n      pop\n        /* \"#utility.yul\":17435:17624   */\n      pop\n      pop\n      jump\t// out\n        /* \"#utility.yul\":17630:17816   */\n    tag_202:\n        /* \"#utility.yul\":17690:17810   */\n    tag_391:\n        /* \"#utility.yul\":17707:17710   */\n      dup2\n        /* \"#utility.yul\":17700:17705   */\n      dup2\n        /* \"#utility.yul\":17697:17711   */\n      lt\n        /* \"#utility.yul\":17690:17810   */\n      iszero\n      tag_393\n      jumpi\n        /* \"#utility.yul\":17761:17800   */\n      tag_394\n        /* \"#utility.yul\":17798:17799   */\n      0x00\n        /* \"#utility.yul\":17791:17796   */\n      dup3\n        /* \"#utility.yul\":17761:17800   */\n      tag_201\n      jump\t// in\n    tag_394:\n        /* \"#utility.yul\":17734:17735   */\n      0x01\n        /* \"#utility.yul\":17727:17732   */\n      dup2\n        /* \"#utility.yul\":17723:17736   */\n      add\n        /* \"#utility.yul\":17714:17736   */\n      swap1\n      pop\n        /* \"#utility.yul\":17690:17810   */\n      jump(tag_391)\n    tag_393:\n        /* \"#utility.yul\":17630:17816   */\n      pop\n      pop\n      jump\t// out\n        /* \"#utility.yul\":17822:18365   */\n    tag_203:\n        /* \"#utility.yul\":17923:17925   */\n      0x1f\n        /* \"#utility.yul\":17918:17921   */\n      dup3\n        /* \"#utility.yul\":17915:17926   */\n      gt\n        /* \"#utility.yul\":17912:18358   */\n      iszero\n      tag_396\n      jumpi\n        /* \"#utility.yul\":17957:17995   */\n      tag_397\n        /* \"#utility.yul\":17989:17994   */\n      dup2\n        /* \"#utility.yul\":17957:17995   */\n      tag_191\n      jump\t// in\n    tag_397:\n        /* \"#utility.yul\":18041:18070   */\n      tag_398\n        /* \"#utility.yul\":18059:18069   */\n      dup5\n        /* \"#utility.yul\":18041:18070   */\n      tag_192\n      jump\t// in\n    tag_398:\n        /* \"#utility.yul\":18031:18039   */\n      dup2\n        /* \"#utility.yul\":18027:18071   */\n      add\n        /* \"#utility.yul\":18224:18226   */\n      0x20\n        /* \"#utility.yul\":18212:18222   */\n      dup6\n        /* \"#utility.yul\":18209:18227   */\n      lt\n        /* \"#utility.yul\":18206:18255   */\n      iszero\n      tag_399\n      jumpi\n        /* \"#utility.yul\":18245:18253   */\n      dup2\n        /* \"#utility.yul\":18230:18253   */\n      swap1\n      pop\n        /* \"#utility.yul\":18206:18255   */\n    tag_399:\n        /* \"#utility.yul\":18268:18348   */\n      tag_400\n        /* \"#utility.yul\":18324:18346   */\n      tag_401\n        /* \"#utility.yul\":18342:18345   */\n      dup6\n        /* \"#utility.yul\":18324:18346   */\n      tag_192\n      jump\t// in\n    tag_401:\n        /* \"#utility.yul\":18314:18322   */\n      dup4\n        /* \"#utility.yul\":18310:18347   */\n      add\n        /* \"#utility.yul\":18297:18308   */\n      dup3\n        /* \"#utility.yul\":18268:18348   */\n      tag_202\n      jump\t// in\n    tag_400:\n        /* \"#utility.yul\":17927:18358   */\n      pop\n      pop\n        /* \"#utility.yul\":17912:18358   */\n    tag_396:\n        /* \"#utility.yul\":17822:18365   */\n      pop\n      pop\n      pop\n      jump\t// out\n        /* \"#utility.yul\":18371:18496   */\n    tag_204:\n        /* \"#utility.yul\":18425:18433   */\n      0x00\n        /* \"#utility.yul\":18483:18487   */\n      dup2\n        /* \"#utility.yul\":18480:18481   */\n      0x02\n        /* \"#utility.yul\":18476:18488   */\n      exp\n        /* \"#utility.yul\":18469:18474   */\n      dup4\n        /* \"#utility.yul\":18465:18489   */\n      div\n        /* \"#utility.yul\":18444:18489   */\n      swap1\n      pop\n        /* \"#utility.yul\":18371:18496   */\n      swap3\n      swap2\n      pop\n      pop\n      jump\t// out\n        /* \"#utility.yul\":18502:18671   */\n    tag_205:\n        /* \"#utility.yul\":18546:18552   */\n      0x00\n        /* \"#utility.yul\":18579:18630   */\n      tag_404\n        /* \"#utility.yul\":18627:18628   */\n      0x00\n        /* \"#utility.yul\":18623:18629   */\n      not\n        /* \"#utility.yul\":18615:18620   */\n      dup5\n        /* \"#utility.yul\":18612:18613   */\n      0x08\n        /* \"#utility.yul\":18608:18621   */\n      mul\n        /* \"#utility.yul\":18579:18630   */\n      tag_204\n      jump\t// in\n    tag_404:\n        /* \"#utility.yul\":18575:18631   */\n      not\n        /* \"#utility.yul\":18660:18664   */\n      dup1\n        /* \"#utility.yul\":18654:18658   */\n      dup4\n        /* \"#utility.yul\":18650:18665   */\n      and\n        /* \"#utility.yul\":18640:18665   */\n      swap2\n      pop\n        /* \"#utility.yul\":18553:18671   */\n      pop\n        /* \"#utility.yul\":18502:18671   */\n      swap3\n      swap2\n      pop\n      pop\n      jump\t// out\n        /* \"#utility.yul\":18676:18971   */\n    tag_206:\n        /* \"#utility.yul\":18752:18756   */\n      0x00\n        /* \"#utility.yul\":18898:18927   */\n      tag_406\n        /* \"#utility.yul\":18923:18926   */\n      dup4\n        /* \"#utility.yul\":18917:18921   */\n      dup4\n        /* \"#utility.yul\":18898:18927   */\n      tag_205\n      jump\t// in\n    tag_406:\n        /* \"#utility.yul\":18890:18927   */\n      swap2\n      pop\n        /* \"#utility.yul\":18960:18963   */\n      dup3\n        /* \"#utility.yul\":18957:18958   */\n      0x02\n        /* \"#utility.yul\":18953:18964   */\n      mul\n        /* \"#utility.yul\":18947:18951   */\n      dup3\n        /* \"#utility.yul\":18944:18965   */\n      or\n        /* \"#utility.yul\":18936:18965   */\n      swap1\n      pop\n        /* \"#utility.yul\":18676:18971   */\n      swap3\n      swap2\n      pop\n      pop\n      jump\t// out\n        /* \"#utility.yul\":18976:20371   */\n    tag_64:\n        /* \"#utility.yul\":19093:19130   */\n      tag_408\n        /* \"#utility.yul\":19126:19129   */\n      dup3\n        /* \"#utility.yul\":19093:19130   */\n      tag_179\n      jump\t// in\n    tag_408:\n        /* \"#utility.yul\":19195:19213   */\n      0xffffffffffffffff\n        /* \"#utility.yul\":19187:19193   */\n      dup2\n        /* \"#utility.yul\":19184:19214   */\n      gt\n        /* \"#utility.yul\":19181:19237   */\n      iszero\n      tag_409\n      jumpi\n        /* \"#utility.yul\":19217:19235   */\n      tag_410\n      tag_168\n      jump\t// in\n    tag_410:\n        /* \"#utility.yul\":19181:19237   */\n    tag_409:\n        /* \"#utility.yul\":19261:19299   */\n      tag_411\n        /* \"#utility.yul\":19293:19297   */\n      dup3\n        /* \"#utility.yul\":19287:19298   */\n      sload\n        /* \"#utility.yul\":19261:19299   */\n      tag_77\n      jump\t// in\n    tag_411:\n        /* \"#utility.yul\":19346:19413   */\n      tag_412\n        /* \"#utility.yul\":19406:19412   */\n      dup3\n        /* \"#utility.yul\":19398:19404   */\n      dup3\n        /* \"#utility.yul\":19392:19396   */\n      dup6\n        /* \"#utility.yul\":19346:19413   */\n      tag_203\n      jump\t// in\n    tag_412:\n        /* \"#utility.yul\":19440:19441   */\n      0x00\n        /* \"#utility.yul\":19464:19468   */\n      0x20\n        /* \"#utility.yul\":19451:19468   */\n      swap1\n      pop\n        /* \"#utility.yul\":19496:19498   */\n      0x1f\n        /* \"#utility.yul\":19488:19494   */\n      dup4\n        /* \"#utility.yul\":19485:19499   */\n      gt\n        /* \"#utility.yul\":19513:19514   */\n      0x01\n        /* \"#utility.yul\":19508:20126   */\n      dup2\n      eq\n      tag_414\n      jumpi\n        /* \"#utility.yul\":20170:20171   */\n      0x00\n        /* \"#utility.yul\":20187:20193   */\n      dup5\n        /* \"#utility.yul\":20184:20261   */\n      iszero\n      tag_415\n      jumpi\n        /* \"#utility.yul\":20236:20245   */\n      dup3\n        /* \"#utility.yul\":20231:20234   */\n      dup8\n        /* \"#utility.yul\":20227:20246   */\n      add\n        /* \"#utility.yul\":20221:20247   */\n      mload\n        /* \"#utility.yul\":20212:20247   */\n      swap1\n      pop\n        /* \"#utility.yul\":20184:20261   */\n    tag_415:\n        /* \"#utility.yul\":20287:20354   */\n      tag_416\n        /* \"#utility.yul\":20347:20353   */\n      dup6\n        /* \"#utility.yul\":20340:20345   */\n      dup3\n        /* \"#utility.yul\":20287:20354   */\n      tag_206\n      jump\t// in\n    tag_416:\n        /* \"#utility.yul\":20281:20285   */\n      dup7\n        /* \"#utility.yul\":20274:20355   */\n      sstore\n        /* \"#utility.yul\":20143:20365   */\n      pop\n        /* \"#utility.yul\":19478:20365   */\n      jump(tag_413)\n        /* \"#utility.yul\":19508:20126   */\n    tag_414:\n        /* \"#utility.yul\":19560:19564   */\n      0x1f\n        /* \"#utility.yul\":19556:19565   */\n      not\n        /* \"#utility.yul\":19548:19554   */\n      dup5\n        /* \"#utility.yul\":19544:19566   */\n      and\n        /* \"#utility.yul\":19594:19631   */\n      tag_417\n        /* \"#utility.yul\":19626:19630   */\n      dup7\n        /* \"#utility.yul\":19594:19631   */\n      tag_191\n      jump\t// in\n    tag_417:\n        /* \"#utility.yul\":19653:19654   */\n      0x00\n        /* \"#utility.yul\":19667:19875   */\n    tag_418:\n        /* \"#utility.yul\":19681:19688   */\n      dup3\n        /* \"#utility.yul\":19678:19679   */\n      dup2\n        /* \"#utility.yul\":19675:19689   */\n      lt\n        /* \"#utility.yul\":19667:19875   */\n      iszero\n      tag_420\n      jumpi\n        /* \"#utility.yul\":19760:19769   */\n      dup5\n        /* \"#utility.yul\":19755:19758   */\n      dup10\n        /* \"#utility.yul\":19751:19770   */\n      add\n        /* \"#utility.yul\":19745:19771   */\n      mload\n        /* \"#utility.yul\":19737:19743   */\n      dup3\n        /* \"#utility.yul\":19730:19772   */\n      sstore\n        /* \"#utility.yul\":19811:19812   */\n      0x01\n        /* \"#utility.yul\":19803:19809   */\n      dup3\n        /* \"#utility.yul\":19799:19813   */\n      add\n        /* \"#utility.yul\":19789:19813   */\n      swap2\n      pop\n        /* \"#utility.yul\":19858:19860   */\n      0x20\n        /* \"#utility.yul\":19847:19856   */\n      dup6\n        /* \"#utility.yul\":19843:19861   */\n      add\n        /* \"#utility.yul\":19830:19861   */\n      swap5\n      pop\n        /* \"#utility.yul\":19704:19708   */\n      0x20\n        /* \"#utility.yul\":19701:19702   */\n      dup2\n        /* \"#utility.yul\":19697:19709   */\n      add\n        /* \"#utility.yul\":19692:19709   */\n      swap1\n      pop\n        /* \"#utility.yul\":19667:19875   */\n      jump(tag_418)\n    tag_420:\n        /* \"#utility.yul\":19903:19909   */\n      dup7\n        /* \"#utility.yul\":19894:19901   */\n      dup4\n        /* \"#utility.yul\":19891:19910   */\n      lt\n        /* \"#utility.yul\":19888:20067   */\n      iszero\n      tag_421\n      jumpi\n        /* \"#utility.yul\":19961:19970   */\n      dup5\n        /* \"#utility.yul\":19956:19959   */\n      dup10\n        /* \"#utility.yul\":19952:19971   */\n      add\n        /* \"#utility.yul\":19946:19972   */\n      mload\n        /* \"#utility.yul\":20004:20052   */\n      tag_422\n        /* \"#utility.yul\":20046:20050   */\n      0x1f\n        /* \"#utility.yul\":20038:20044   */\n      dup10\n        /* \"#utility.yul\":20034:20051   */\n      and\n        /* \"#utility.yul\":20023:20032   */\n      dup3\n        /* \"#utility.yul\":20004:20052   */\n      tag_205\n      jump\t// in\n    tag_422:\n        /* \"#utility.yul\":19996:20002   */\n      dup4\n        /* \"#utility.yul\":19989:20053   */\n      sstore\n        /* \"#utility.yul\":19911:20067   */\n      pop\n        /* \"#utility.yul\":19888:20067   */\n    tag_421:\n        /* \"#utility.yul\":20113:20114   */\n      0x01\n        /* \"#utility.yul\":20109:20110   */\n      0x02\n        /* \"#utility.yul\":20101:20107   */\n      dup9\n        /* \"#utility.yul\":20097:20111   */\n      mul\n        /* \"#utility.yul\":20093:20115   */\n      add\n        /* \"#utility.yul\":20087:20091   */\n      dup9\n        /* \"#utility.yul\":20080:20116   */\n      sstore\n        /* \"#utility.yul\":19515:20126   */\n      pop\n      pop\n      pop\n        /* \"#utility.yul\":19478:20365   */\n    tag_413:\n      pop\n        /* \"#utility.yul\":19068:20371   */\n      pop\n      pop\n      pop\n        /* \"#utility.yul\":18976:20371   */\n      pop\n      pop\n      jump\t// out\n        /* \"#utility.yul\":20377:20526   */\n    tag_207:\n        /* \"#utility.yul\":20426:20432   */\n      0x00\n        /* \"#utility.yul\":20460:20465   */\n      dup2\n        /* \"#utility.yul\":20454:20466   */\n      sload\n        /* \"#utility.yul\":20444:20466   */\n      swap1\n      pop\n        /* \"#utility.yul\":20486:20519   */\n      tag_424\n        /* \"#utility.yul\":20512:20518   */\n      dup2\n        /* \"#utility.yul\":20486:20519   */\n      tag_77\n      jump\t// in\n    tag_424:\n        /* \"#utility.yul\":20476:20519   */\n      swap1\n      pop\n        /* \"#utility.yul\":20377:20526   */\n      swap2\n      swap1\n      pop\n      jump\t// out\n        /* \"#utility.yul\":20532:21983   */\n    tag_73:\n        /* \"#utility.yul\":20643:20646   */\n      dup2\n        /* \"#utility.yul\":20637:20641   */\n      dup2\n        /* \"#utility.yul\":20634:20647   */\n      sub\n        /* \"#utility.yul\":20631:20657   */\n      tag_426\n      jumpi\n        /* \"#utility.yul\":20650:20655   */\n      pop\n      pop\n      jump(tag_425)\n        /* \"#utility.yul\":20631:20657   */\n    tag_426:\n        /* \"#utility.yul\":20681:20715   */\n      tag_427\n        /* \"#utility.yul\":20711:20714   */\n      dup3\n        /* \"#utility.yul\":20681:20715   */\n      tag_207\n      jump\t// in\n    tag_427:\n        /* \"#utility.yul\":20780:20798   */\n      0xffffffffffffffff\n        /* \"#utility.yul\":20772:20778   */\n      dup2\n        /* \"#utility.yul\":20769:20799   */\n      gt\n        /* \"#utility.yul\":20766:20822   */\n      iszero\n      tag_428\n      jumpi\n        /* \"#utility.yul\":20802:20820   */\n      tag_429\n      tag_168\n      jump\t// in\n    tag_429:\n        /* \"#utility.yul\":20766:20822   */\n    tag_428:\n        /* \"#utility.yul\":20846:20884   */\n      tag_430\n        /* \"#utility.yul\":20878:20882   */\n      dup3\n        /* \"#utility.yul\":20872:20883   */\n      sload\n        /* \"#utility.yul\":20846:20884   */\n      tag_77\n      jump\t// in\n    tag_430:\n        /* \"#utility.yul\":20931:20998   */\n      tag_431\n        /* \"#utility.yul\":20991:20997   */\n      dup3\n        /* \"#utility.yul\":20983:20989   */\n      dup3\n        /* \"#utility.yul\":20977:20981   */\n      dup6\n        /* \"#utility.yul\":20931:20998   */\n      tag_203\n      jump\t// in\n    tag_431:\n        /* \"#utility.yul\":21025:21026   */\n      0x00\n        /* \"#utility.yul\":21054:21056   */\n      0x1f\n        /* \"#utility.yul\":21046:21052   */\n      dup4\n        /* \"#utility.yul\":21043:21057   */\n      gt\n        /* \"#utility.yul\":21071:21072   */\n      0x01\n        /* \"#utility.yul\":21066:21738   */\n      dup2\n      eq\n      tag_433\n      jumpi\n        /* \"#utility.yul\":21782:21783   */\n      0x00\n        /* \"#utility.yul\":21799:21805   */\n      dup5\n        /* \"#utility.yul\":21796:21873   */\n      iszero\n      tag_434\n      jumpi\n        /* \"#utility.yul\":21848:21857   */\n      dup3\n        /* \"#utility.yul\":21843:21846   */\n      dup8\n        /* \"#utility.yul\":21839:21858   */\n      add\n        /* \"#utility.yul\":21833:21859   */\n      sload\n        /* \"#utility.yul\":21824:21859   */\n      swap1\n      pop\n        /* \"#utility.yul\":21796:21873   */\n    tag_434:\n        /* \"#utility.yul\":21899:21966   */\n      tag_435\n        /* \"#utility.yul\":21959:21965   */\n      dup6\n        /* \"#utility.yul\":21952:21957   */\n      dup3\n        /* \"#utility.yul\":21899:21966   */\n      tag_206\n      jump\t// in\n    tag_435:\n        /* \"#utility.yul\":21893:21897   */\n      dup7\n        /* \"#utility.yul\":21886:21967   */\n      sstore\n        /* \"#utility.yul\":21755:21977   */\n      pop\n        /* \"#utility.yul\":21036:21977   */\n      jump(tag_432)\n        /* \"#utility.yul\":21066:21738   */\n    tag_433:\n        /* \"#utility.yul\":21118:21122   */\n      0x1f\n        /* \"#utility.yul\":21114:21123   */\n      not\n        /* \"#utility.yul\":21106:21112   */\n      dup5\n        /* \"#utility.yul\":21102:21124   */\n      and\n        /* \"#utility.yul\":21144:21180   */\n      tag_436\n        /* \"#utility.yul\":21176:21179   */\n      dup8\n        /* \"#utility.yul\":21144:21180   */\n      tag_191\n      jump\t// in\n    tag_436:\n        /* \"#utility.yul\":21137:21180   */\n      swap7\n      pop\n        /* \"#utility.yul\":21207:21244   */\n      tag_437\n        /* \"#utility.yul\":21239:21243   */\n      dup7\n        /* \"#utility.yul\":21207:21244   */\n      tag_191\n      jump\t// in\n    tag_437:\n        /* \"#utility.yul\":21266:21267   */\n      0x00\n        /* \"#utility.yul\":21280:21487   */\n    tag_438:\n        /* \"#utility.yul\":21294:21301   */\n      dup3\n        /* \"#utility.yul\":21291:21292   */\n      dup2\n        /* \"#utility.yul\":21288:21302   */\n      lt\n        /* \"#utility.yul\":21280:21487   */\n      iszero\n      tag_440\n      jumpi\n        /* \"#utility.yul\":21373:21382   */\n      dup5\n        /* \"#utility.yul\":21368:21371   */\n      dup10\n        /* \"#utility.yul\":21364:21383   */\n      add\n        /* \"#utility.yul\":21358:21384   */\n      sload\n        /* \"#utility.yul\":21350:21356   */\n      dup3\n        /* \"#utility.yul\":21343:21385   */\n      sstore\n        /* \"#utility.yul\":21424:21425   */\n      0x01\n        /* \"#utility.yul\":21416:21422   */\n      dup3\n        /* \"#utility.yul\":21412:21426   */\n      add\n        /* \"#utility.yul\":21402:21426   */\n      swap2\n      pop\n        /* \"#utility.yul\":21471:21472   */\n      0x01\n        /* \"#utility.yul\":21460:21469   */\n      dup6\n        /* \"#utility.yul\":21456:21473   */\n      add\n        /* \"#utility.yul\":21443:21473   */\n      swap5\n      pop\n        /* \"#utility.yul\":21317:21321   */\n      0x20\n        /* \"#utility.yul\":21314:21315   */\n      dup2\n        /* \"#utility.yul\":21310:21322   */\n      add\n        /* \"#utility.yul\":21305:21322   */\n      swap1\n      pop\n        /* \"#utility.yul\":21280:21487   */\n      jump(tag_438)\n    tag_440:\n        /* \"#utility.yul\":21515:21521   */\n      dup7\n        /* \"#utility.yul\":21506:21513   */\n      dup4\n        /* \"#utility.yul\":21503:21522   */\n      lt\n        /* \"#utility.yul\":21500:21679   */\n      iszero\n      tag_441\n      jumpi\n        /* \"#utility.yul\":21573:21582   */\n      dup5\n        /* \"#utility.yul\":21568:21571   */\n      dup10\n        /* \"#utility.yul\":21564:21583   */\n      add\n        /* \"#utility.yul\":21558:21584   */\n      sload\n        /* \"#utility.yul\":21616:21664   */\n      tag_442\n        /* \"#utility.yul\":21658:21662   */\n      0x1f\n        /* \"#utility.yul\":21650:21656   */\n      dup10\n        /* \"#utility.yul\":21646:21663   */\n      and\n        /* \"#utility.yul\":21635:21644   */\n      dup3\n        /* \"#utility.yul\":21616:21664   */\n      tag_205\n      jump\t// in\n    tag_442:\n        /* \"#utility.yul\":21608:21614   */\n      dup4\n        /* \"#utility.yul\":21601:21665   */\n      sstore\n        /* \"#utility.yul\":21523:21679   */\n      pop\n        /* \"#utility.yul\":21500:21679   */\n    tag_441:\n        /* \"#utility.yul\":21725:21726   */\n      0x01\n        /* \"#utility.yul\":21721:21722   */\n      0x02\n        /* \"#utility.yul\":21713:21719   */\n      dup9\n        /* \"#utility.yul\":21709:21723   */\n      mul\n        /* \"#utility.yul\":21705:21727   */\n      add\n        /* \"#utility.yul\":21699:21703   */\n      dup9\n        /* \"#utility.yul\":21692:21728   */\n      sstore\n        /* \"#utility.yul\":21073:21738   */\n      pop\n      pop\n      pop\n        /* \"#utility.yul\":21036:21977   */\n    tag_432:\n      pop\n        /* \"#utility.yul\":20621:21983   */\n      pop\n      pop\n      pop\n        /* \"#utility.yul\":20532:21983   */\n      pop\n      pop\n    tag_425:\n      jump\t// out\n        /* \"#utility.yul\":21989:22412   */\n    tag_117:\n        /* \"#utility.yul\":22130:22134   */\n      0x00\n        /* \"#utility.yul\":22168:22170   */\n      0x40\n        /* \"#utility.yul\":22157:22166   */\n      dup3\n        /* \"#utility.yul\":22153:22171   */\n      add\n        /* \"#utility.yul\":22145:22171   */\n      swap1\n      pop\n        /* \"#utility.yul\":22181:22252   */\n      tag_444\n        /* \"#utility.yul\":22249:22250   */\n      0x00\n        /* \"#utility.yul\":22238:22247   */\n      dup4\n        /* \"#utility.yul\":22234:22251   */\n      add\n        /* \"#utility.yul\":22225:22231   */\n      dup6\n        /* \"#utility.yul\":22181:22252   */\n      tag_187\n      jump\t// in\n    tag_444:\n        /* \"#utility.yul\":22299:22308   */\n      dup2\n        /* \"#utility.yul\":22293:22297   */\n      dup2\n        /* \"#utility.yul\":22289:22309   */\n      sub\n        /* \"#utility.yul\":22284:22286   */\n      0x20\n        /* \"#utility.yul\":22273:22282   */\n      dup4\n        /* \"#utility.yul\":22269:22287   */\n      add\n        /* \"#utility.yul\":22262:22310   */\n      mstore\n        /* \"#utility.yul\":22327:22405   */\n      tag_445\n        /* \"#utility.yul\":22400:22404   */\n      dup2\n        /* \"#utility.yul\":22391:22397   */\n      dup5\n        /* \"#utility.yul\":22327:22405   */\n      tag_182\n      jump\t// in\n    tag_445:\n        /* \"#utility.yul\":22319:22405   */\n      swap1\n      pop\n        /* \"#utility.yul\":21989:22412   */\n      swap4\n      swap3\n      pop\n      pop\n      pop\n      jump\t// out\n        /* \"#utility.yul\":22442:23316   */\n    tag_208:\n        /* \"#utility.yul\":22545:22548   */\n      0x00\n        /* \"#utility.yul\":22582:22587   */\n      dup2\n        /* \"#utility.yul\":22576:22588   */\n      sload\n        /* \"#utility.yul\":22611:22647   */\n      tag_447\n        /* \"#utility.yul\":22637:22646   */\n      dup2\n        /* \"#utility.yul\":22611:22647   */\n      tag_77\n      jump\t// in\n    tag_447:\n        /* \"#utility.yul\":22663:22752   */\n      tag_448\n        /* \"#utility.yul\":22745:22751   */\n      dup2\n        /* \"#utility.yul\":22740:22743   */\n      dup7\n        /* \"#utility.yul\":22663:22752   */\n      tag_188\n      jump\t// in\n    tag_448:\n        /* \"#utility.yul\":22656:22752   */\n      swap5\n      pop\n        /* \"#utility.yul\":22783:22784   */\n      0x01\n        /* \"#utility.yul\":22772:22781   */\n      dup3\n        /* \"#utility.yul\":22768:22785   */\n      and\n        /* \"#utility.yul\":22799:22800   */\n      0x00\n        /* \"#utility.yul\":22794:22960   */\n      dup2\n      eq\n      tag_450\n      jumpi\n        /* \"#utility.yul\":22974:22975   */\n      0x01\n        /* \"#utility.yul\":22969:23310   */\n      dup2\n      eq\n      tag_451\n      jumpi\n        /* \"#utility.yul\":22761:23310   */\n      jump(tag_449)\n        /* \"#utility.yul\":22794:22960   */\n    tag_450:\n        /* \"#utility.yul\":22878:22882   */\n      0xff\n        /* \"#utility.yul\":22874:22883   */\n      not\n        /* \"#utility.yul\":22863:22872   */\n      dup4\n        /* \"#utility.yul\":22859:22884   */\n      and\n        /* \"#utility.yul\":22854:22857   */\n      dup7\n        /* \"#utility.yul\":22847:22885   */\n      mstore\n        /* \"#utility.yul\":22940:22946   */\n      dup2\n        /* \"#utility.yul\":22933:22947   */\n      iszero\n        /* \"#utility.yul\":22926:22948   */\n      iszero\n        /* \"#utility.yul\":22918:22924   */\n      dup3\n        /* \"#utility.yul\":22914:22949   */\n      mul\n        /* \"#utility.yul\":22909:22912   */\n      dup7\n        /* \"#utility.yul\":22905:22950   */\n      add\n        /* \"#utility.yul\":22898:22950   */\n      swap4\n      pop\n        /* \"#utility.yul\":22794:22960   */\n      jump(tag_449)\n        /* \"#utility.yul\":22969:23310   */\n    tag_451:\n        /* \"#utility.yul\":23036:23074   */\n      tag_452\n        /* \"#utility.yul\":23068:23073   */\n      dup6\n        /* \"#utility.yul\":23036:23074   */\n      tag_191\n      jump\t// in\n    tag_452:\n        /* \"#utility.yul\":23096:23097   */\n      0x00\n        /* \"#utility.yul\":23110:23264   */\n    tag_453:\n        /* \"#utility.yul\":23124:23130   */\n      dup4\n        /* \"#utility.yul\":23121:23122   */\n      dup2\n        /* \"#utility.yul\":23118:23131   */\n      lt\n        /* \"#utility.yul\":23110:23264   */\n      iszero\n      tag_455\n      jumpi\n        /* \"#utility.yul\":23198:23205   */\n      dup2\n        /* \"#utility.yul\":23192:23206   */\n      sload\n        /* \"#utility.yul\":23188:23189   */\n      dup2\n        /* \"#utility.yul\":23183:23186   */\n      dup10\n        /* \"#utility.yul\":23179:23190   */\n      add\n        /* \"#utility.yul\":23172:23207   */\n      mstore\n        /* \"#utility.yul\":23248:23249   */\n      0x01\n        /* \"#utility.yul\":23239:23246   */\n      dup3\n        /* \"#utility.yul\":23235:23250   */\n      add\n        /* \"#utility.yul\":23224:23250   */\n      swap2\n      pop\n        /* \"#utility.yul\":23146:23150   */\n      0x20\n        /* \"#utility.yul\":23143:23144   */\n      dup2\n        /* \"#utility.yul\":23139:23151   */\n      add\n        /* \"#utility.yul\":23134:23151   */\n      swap1\n      pop\n        /* \"#utility.yul\":23110:23264   */\n      jump(tag_453)\n    tag_455:\n        /* \"#utility.yul\":23293:23299   */\n      dup4\n        /* \"#utility.yul\":23288:23291   */\n      dup9\n        /* \"#utility.yul\":23284:23300   */\n      add\n        /* \"#utility.yul\":23277:23300   */\n      swap6\n      pop\n        /* \"#utility.yul\":22976:23310   */\n      pop\n      pop\n        /* \"#utility.yul\":22761:23310   */\n    tag_449:\n      pop\n        /* \"#utility.yul\":22549:23316   */\n      pop\n      pop\n        /* \"#utility.yul\":22442:23316   */\n      swap3\n      swap2\n      pop\n      pop\n      jump\t// out\n        /* \"#utility.yul\":23322:23591   */\n    tag_133:\n        /* \"#utility.yul\":23451:23454   */\n      0x00\n        /* \"#utility.yul\":23473:23565   */\n      tag_457\n        /* \"#utility.yul\":23561:23564   */\n      dup3\n        /* \"#utility.yul\":23552:23558   */\n      dup5\n        /* \"#utility.yul\":23473:23565   */\n      tag_208\n      jump\t// in\n    tag_457:\n        /* \"#utility.yul\":23466:23565   */\n      swap2\n      pop\n        /* \"#utility.yul\":23582:23585   */\n      dup2\n        /* \"#utility.yul\":23575:23585   */\n      swap1\n      pop\n        /* \"#utility.yul\":23322:23591   */\n      swap3\n      swap2\n      pop\n      pop\n      jump\t// out\n\n    auxdata: 0xa2646970667358221220a8f5481a5393d1445235be1277aa87303298a082fb3690a7ac280d8a45da81f664736f6c63430008160033\n}\n",
				"bytecode": {
					"linkReferences": {},
					"object": "608060405234801561001057600080fd5b5061253c806100206000396000f3fe608060405234801561001057600080fd5b50600436106100c6576000357c01000000000000000000000000000000000000000000000000000000009004806378e5099b1161008e57806378e5099b1461018457806384730f7a146101a0578063864a80b4146101bc57806389671bf0146101f0578063a64ad3ff1461020c578063e127705814610228576100c6565b806310bdc518146100cb578063296c3ad1146100e757806337225024146101035780635b5100ff1461013757806375c6da2314610168575b600080fd5b6100e560048036038101906100e0919061198a565b610244565b005b61010160048036038101906100fc9190611a60565b610274565b005b61011d60048036038101906101189190611b2f565b610560565b60405161012e959493929190611c23565b60405180910390f35b610151600480360381019061014c9190611c92565b610977565b60405161015f929190611d01565b60405180910390f35b610182600480360381019061017d9190611b2f565b610bce565b005b61019e60048036038101906101999190611b2f565b610cb0565b005b6101ba60048036038101906101b59190611d64565b610d91565b005b6101d660048036038101906101d19190611b2f565b611193565b6040516101e7959493929190611ec9565b60405180910390f35b61020a60048036038101906102059190611b2f565b611432565b005b61022660048036038101906102219190611f23565b611513565b005b610242600480360381019061023d9190611b2f565b61174e565b005b80600a836040516102559190612039565b9081526020016040518091039020908161026f919061226c565b505050565b81600960008773ffffffffffffffffffffffffffffffffffffffff1673ffffffffffffffffffffffffffffffffffffffff16815260200190815260200160002060008673ffffffffffffffffffffffffffffffffffffffff1673ffffffffffffffffffffffffffffffffffffffff168152602001908152602001600020846040516102ff9190612039565b9081526020016040518091039020600001908161031c919061226c565b5080600960008773ffffffffffffffffffffffffffffffffffffffff1673ffffffffffffffffffffffffffffffffffffffff16815260200190815260200160002060008673ffffffffffffffffffffffffffffffffffffffff1673ffffffffffffffffffffffffffffffffffffffff168152602001908152602001600020846040516103a89190612039565b908152602001604051809103902060010190816103c5919061226c565b50600860008573ffffffffffffffffffffffffffffffffffffffff1673ffffffffffffffffffffffffffffffffffffffff168152602001908152602001600020836040516104139190612039565b9081526020016040518091039020600960008773ffffffffffffffffffffffffffffffffffffffff1673ffffffffffffffffffffffffffffffffffffffff16815260200190815260200160002060008673ffffffffffffffffffffffffffffffffffffffff1673ffffffffffffffffffffffffffffffffffffffff168152602001908152602001600020846040516104ab9190612039565b90815260200160405180910390206002016000820160009054906101000a900473ffffffffffffffffffffffffffffffffffffffff168160000160006101000a81548173ffffffffffffffffffffffffffffffffffffffff021916908373ffffffffffffffffffffffffffffffffffffffff160217905550600182015481600101556002820154816002015560038201548160030155600482018160040190816105559190612354565b509050505050505050565b6060806060806000600b60008873ffffffffffffffffffffffffffffffffffffffff1673ffffffffffffffffffffffffffffffffffffffff168152602001908152602001600020866040516105b59190612039565b908152602001604051809103902060000180546105d19061207f565b80601f01602080910402602001604051908101604052809291908181526020018280546105fd9061207f565b801561064a5780601f1061061f5761010080835404028352916020019161064a565b820191906000526020600020905b81548152906001019060200180831161062d57829003601f168201915b50505050509450600b60008873ffffffffffffffffffffffffffffffffffffffff1673ffffffffffffffffffffffffffffffffffffffff1681526020019081526020016000208660405161069e9190612039565b908152602001604051809103902060020180546106ba9061207f565b80601f01602080910402602001604051908101604052809291908181526020018280546106e69061207f565b80156107335780601f1061070857610100808354040283529160200191610733565b820191906000526020600020905b81548152906001019060200180831161071657829003601f168201915b50505050509350600b60008873ffffffffffffffffffffffffffffffffffffffff1673ffffffffffffffffffffffffffffffffffffffff168152602001908152602001600020866040516107879190612039565b908152602001604051809103902060010180546107a39061207f565b80601f01602080910402602001604051908101604052809291908181526020018280546107cf9061207f565b801561081c5780601f106107f15761010080835404028352916020019161081c565b820191906000526020600020905b8154815290600101906020018083116107ff57829003601f168201915b50505050509250600b60008873ffffffffffffffffffffffffffffffffffffffff1673ffffffffffffffffffffffffffffffffffffffff168152602001908152602001600020866040516108709190612039565b9081526020016040518091039020600301805461088c9061207f565b80601f01602080910402602001604051908101604052809291908181526020018280546108b89061207f565b80156109055780601f106108da57610100808354040283529160200191610905565b820191906000526020600020905b8154815290600101906020018083116108e857829003601f168201915b50505050509150600b60008873ffffffffffffffffffffffffffffffffffffffff1673ffffffffffffffffffffffffffffffffffffffff168152602001908152602001600020866040516109599190612039565b90815260200160405180910390206004015490509295509295909350565b606080600960008673ffffffffffffffffffffffffffffffffffffffff1673ffffffffffffffffffffffffffffffffffffffff16815260200190815260200160002060008573ffffffffffffffffffffffffffffffffffffffff1673ffffffffffffffffffffffffffffffffffffffff16815260200190815260200160002083604051610a049190612039565b90815260200160405180910390206000018054610a209061207f565b80601f0160208091040260200160405190810160405280929190818152602001828054610a4c9061207f565b8015610a995780601f10610a6e57610100808354040283529160200191610a99565b820191906000526020600020905b815481529060010190602001808311610a7c57829003601f168201915b50505050509150600960008673ffffffffffffffffffffffffffffffffffffffff1673ffffffffffffffffffffffffffffffffffffffff16815260200190815260200160002060008573ffffffffffffffffffffffffffffffffffffffff1673ffffffffffffffffffffffffffffffffffffffff16815260200190815260200160002083604051610b2a9190612039565b90815260200160405180910390206001018054610b469061207f565b80601f0160208091040260200160405190810160405280929190818152602001828054610b729061207f565b8015610bbf5780601f10610b9457610100808354040283529160200191610bbf565b820191906000526020600020905b815481529060010190602001808311610ba257829003601f168201915b50505050509050935093915050565b6001600260008473ffffffffffffffffffffffffffffffffffffffff1673ffffffffffffffffffffffffffffffffffffffff16815260200190815260200160002060006101000a81548160ff02191690831515021790555080600660008473ffffffffffffffffffffffffffffffffffffffff1673ffffffffffffffffffffffffffffffffffffffff1681526020019081526020016000209081610c72919061226c565b507f52d2250a74439a1966b3af244c06fb46fe5cd15b66ef97ce37cd8a4fedd7403a8282604051610ca492919061243c565b60405180910390a15050565b60018060008473ffffffffffffffffffffffffffffffffffffffff1673ffffffffffffffffffffffffffffffffffffffff16815260200190815260200160002060006101000a81548160ff02191690831515021790555080600560008473ffffffffffffffffffffffffffffffffffffffff1673ffffffffffffffffffffffffffffffffffffffff1681526020019081526020016000209081610d53919061226c565b507f05f61c0a0db439e10deb19e144239bc9962ed66941e65703c47bb12369f06f9b8282604051610d8592919061243c565b60405180910390a15050565b83600b60008b73ffffffffffffffffffffffffffffffffffffffff1673ffffffffffffffffffffffffffffffffffffffff16815260200190815260200160002082604051610ddf9190612039565b90815260200160405180910390206000019081610dfc919061226c565b5085600b60008b73ffffffffffffffffffffffffffffffffffffffff1673ffffffffffffffffffffffffffffffffffffffff16815260200190815260200160002082604051610e4b9190612039565b90815260200160405180910390206002019081610e68919061226c565b5084600b60008b73ffffffffffffffffffffffffffffffffffffffff1673ffffffffffffffffffffffffffffffffffffffff16815260200190815260200160002082604051610eb79190612039565b90815260200160405180910390206001019081610ed4919061226c565b5082600b60008b73ffffffffffffffffffffffffffffffffffffffff1673ffffffffffffffffffffffffffffffffffffffff16815260200190815260200160002082604051610f239190612039565b90815260200160405180910390206003019081610f40919061226c565b5081600b60008b73ffffffffffffffffffffffffffffffffffffffff1673ffffffffffffffffffffffffffffffffffffffff16815260200190815260200160002082604051610f8f9190612039565b908152602001604051809103902060040181905550600960008973ffffffffffffffffffffffffffffffffffffffff1673ffffffffffffffffffffffffffffffffffffffff16815260200190815260200160002060008873ffffffffffffffffffffffffffffffffffffffff1673ffffffffffffffffffffffffffffffffffffffff168152602001908152602001600020600a826040516110309190612039565b908152602001604051809103902060405161104b91906124ef565b9081526020016040518091039020600b60008b73ffffffffffffffffffffffffffffffffffffffff1673ffffffffffffffffffffffffffffffffffffffff168152602001908152602001600020826040516110a69190612039565b9081526020016040518091039020600501600082018160000190816110cb9190612354565b50600182018160010190816110e09190612354565b5060028201816002016000820160009054906101000a900473ffffffffffffffffffffffffffffffffffffffff168160000160006101000a81548173ffffffffffffffffffffffffffffffffffffffff021916908373ffffffffffffffffffffffffffffffffffffffff160217905550600182015481600101556002820154816002015560038201548160030155600482018160040190816111829190612354565b505050905050505050505050505050565b6060600080600080600860008873ffffffffffffffffffffffffffffffffffffffff1673ffffffffffffffffffffffffffffffffffffffff168152602001908152602001600020866040516111e89190612039565b908152602001604051809103902060040180546112049061207f565b80601f01602080910402602001604051908101604052809291908181526020018280546112309061207f565b801561127d5780601f106112525761010080835404028352916020019161127d565b820191906000526020600020905b81548152906001019060200180831161126057829003601f168201915b50505050509450600860008873ffffffffffffffffffffffffffffffffffffffff1673ffffffffffffffffffffffffffffffffffffffff168152602001908152602001600020866040516112d19190612039565b908152602001604051809103902060000160009054906101000a900473ffffffffffffffffffffffffffffffffffffffff169350600860008873ffffffffffffffffffffffffffffffffffffffff1673ffffffffffffffffffffffffffffffffffffffff168152602001908152602001600020866040516113529190612039565b9081526020016040518091039020600201549250600860008873ffffffffffffffffffffffffffffffffffffffff1673ffffffffffffffffffffffffffffffffffffffff168152602001908152602001600020866040516113b39190612039565b9081526020016040518091039020600301549150600860008873ffffffffffffffffffffffffffffffffffffffff1673ffffffffffffffffffffffffffffffffffffffff168152602001908152602001600020866040516114149190612039565b90815260200160405180910390206001015490509295509295909350565b60016000808473ffffffffffffffffffffffffffffffffffffffff1673ffffffffffffffffffffffffffffffffffffffff16815260200190815260200160002060006101000a81548160ff02191690831515021790555080600460008473ffffffffffffffffffffffffffffffffffffffff1673ffffffffffffffffffffffffffffffffffffffff16815260200190815260200160002090816114d5919061226c565b507fcd5007c1f083baec1024fa63f0d6728fb0e85e5eb620e0def97c4282cf32ff99828260405161150792919061243c565b60405180910390a15050565b85600860008973ffffffffffffffffffffffffffffffffffffffff1673ffffffffffffffffffffffffffffffffffffffff168152602001908152602001600020866040516115619190612039565b908152602001604051809103902060000160006101000a81548173ffffffffffffffffffffffffffffffffffffffff021916908373ffffffffffffffffffffffffffffffffffffffff16021790555083600860008973ffffffffffffffffffffffffffffffffffffffff1673ffffffffffffffffffffffffffffffffffffffff168152602001908152602001600020866040516115fe9190612039565b9081526020016040518091039020600401908161161b919061226c565b5082600860008973ffffffffffffffffffffffffffffffffffffffff1673ffffffffffffffffffffffffffffffffffffffff1681526020019081526020016000208660405161166a9190612039565b90815260200160405180910390206002018190555080600860008973ffffffffffffffffffffffffffffffffffffffff1673ffffffffffffffffffffffffffffffffffffffff168152602001908152602001600020866040516116cd9190612039565b90815260200160405180910390206003018190555081600860008973ffffffffffffffffffffffffffffffffffffffff1673ffffffffffffffffffffffffffffffffffffffff168152602001908152602001600020866040516117309190612039565b90815260200160405180910390206001018190555050505050505050565b6001600360008473ffffffffffffffffffffffffffffffffffffffff1673ffffffffffffffffffffffffffffffffffffffff16815260200190815260200160002060006101000a81548160ff02191690831515021790555080600760008473ffffffffffffffffffffffffffffffffffffffff1673ffffffffffffffffffffffffffffffffffffffff16815260200190815260200160002090816117f2919061226c565b507fbb1d92b487a3ad94ebd0d3f8005ac38869d7b8218dfa1b3aef46faddfd3a2fad828260405161182492919061243c565b60405180910390a15050565b6000604051905090565b600080fd5b600080fd5b600080fd5b600080fd5b6000601f19601f8301169050919050565b7f4e487b7100000000000000000000000000000000000000000000000000000000600052604160045260246000fd5b6118978261184e565b810181811067ffffffffffffffff821117156118b6576118b561185f565b5b80604052505050565b60006118c9611830565b90506118d5828261188e565b919050565b600067ffffffffffffffff8211156118f5576118f461185f565b5b6118fe8261184e565b9050602081019050919050565b82818337600083830152505050565b600061192d611928846118da565b6118bf565b90508281526020810184848401111561194957611948611849565b5b61195484828561190b565b509392505050565b600082601f83011261197157611970611844565b5b813561198184826020860161191a565b91505092915050565b600080604083850312156119a1576119a061183a565b5b600083013567ffffffffffffffff8111156119bf576119be61183f565b5b6119cb8582860161195c565b925050602083013567ffffffffffffffff8111156119ec576119eb61183f565b5b6119f88582860161195c565b9150509250929050565b600073ffffffffffffffffffffffffffffffffffffffff82169050919050565b6000611a2d82611a02565b9050919050565b611a3d81611a22565b8114611a4857600080fd5b50565b600081359050611a5a81611a34565b92915050565b600080600080600060a08688031215611a7c57611a7b61183a565b5b6000611a8a88828901611a4b565b9550506020611a9b88828901611a4b565b945050604086013567ffffffffffffffff811115611abc57611abb61183f565b5b611ac88882890161195c565b935050606086013567ffffffffffffffff811115611ae957611ae861183f565b5b611af58882890161195c565b925050608086013567ffffffffffffffff811115611b1657611b1561183f565b5b611b228882890161195c565b9150509295509295909350565b60008060408385031215611b4657611b4561183a565b5b6000611b5485828601611a4b565b925050602083013567ffffffffffffffff811115611b7557611b7461183f565b5b611b818582860161195c565b9150509250929050565b600081519050919050565b600082825260208201905092915050565b60005b83811015611bc5578082015181840152602081019050611baa565b60008484015250505050565b6000611bdc82611b8b565b611be68185611b96565b9350611bf6818560208601611ba7565b611bff8161184e565b840191505092915050565b6000819050919050565b611c1d81611c0a565b82525050565b600060a0820190508181036000830152611c3d8188611bd1565b90508181036020830152611c518187611bd1565b90508181036040830152611c658186611bd1565b90508181036060830152611c798185611bd1565b9050611c886080830184611c14565b9695505050505050565b600080600060608486031215611cab57611caa61183a565b5b6000611cb986828701611a4b565b9350506020611cca86828701611a4b565b925050604084013567ffffffffffffffff811115611ceb57611cea61183f565b5b611cf78682870161195c565b9150509250925092565b60006040820190508181036000830152611d1b8185611bd1565b90508181036020830152611d2f8184611bd1565b90509392505050565b611d4181611c0a565b8114611d4c57600080fd5b50565b600081359050611d5e81611d38565b92915050565b60008060008060008060008060006101208a8c031215611d8757611d8661183a565b5b6000611d958c828d01611a4b565b9950506020611da68c828d01611a4b565b9850506040611db78c828d01611a4b565b97505060608a013567ffffffffffffffff811115611dd857611dd761183f565b5b611de48c828d0161195c565b96505060808a013567ffffffffffffffff811115611e0557611e0461183f565b5b611e118c828d0161195c565b95505060a08a013567ffffffffffffffff811115611e3257611e3161183f565b5b611e3e8c828d0161195c565b94505060c08a013567ffffffffffffffff811115611e5f57611e5e61183f565b5b611e6b8c828d0161195c565b93505060e0611e7c8c828d01611d4f565b9250506101008a013567ffffffffffffffff811115611e9e57611e9d61183f565b5b611eaa8c828d0161195c565b9150509295985092959850929598565b611ec381611a22565b82525050565b600060a0820190508181036000830152611ee38188611bd1565b9050611ef26020830187611eba565b611eff6040830186611c14565b611f0c6060830185611c14565b611f196080830184611c14565b9695505050505050565b600080600080600080600060e0888a031215611f4257611f4161183a565b5b6000611f508a828b01611a4b565b9750506020611f618a828b01611a4b565b965050604088013567ffffffffffffffff811115611f8257611f8161183f565b5b611f8e8a828b0161195c565b955050606088013567ffffffffffffffff811115611faf57611fae61183f565b5b611fbb8a828b0161195c565b9450506080611fcc8a828b01611d4f565b93505060a0611fdd8a828b01611d4f565b92505060c0611fee8a828b01611d4f565b91505092959891949750929550565b600081905092915050565b600061201382611b8b565b61201d8185611ffd565b935061202d818560208601611ba7565b80840191505092915050565b60006120458284612008565b915081905092915050565b7f4e487b7100000000000000000000000000000000000000000000000000000000600052602260045260246000fd5b6000600282049050600182168061209757607f821691505b6020821081036120aa576120a9612050565b5b50919050565b60008190508160005260206000209050919050565b60006020601f8301049050919050565b60008160020a8302905092915050565b6000600883026121157fffffffffffffffffffffffffffffffffffffffffffffffffffffffffffffffff826120d5565b61211f86836120d5565b95508019841693508086168417925050509392505050565b6000819050919050565b6000819050919050565b600061216661216161215c84612137565b612141565b612137565b9050919050565b6000819050919050565b6121808361214b565b61219461218c8261216d565b8484546120e5565b825550505050565b600090565b6121a961219c565b6121b4818484612177565b505050565b5b818110156121d8576121cd6000826121a1565b6001810190506121ba565b5050565b601f82111561221d576121ee816120b0565b6121f7846120c5565b81016020851015612206578190505b61221a612212856120c5565b8301826121b9565b50505b505050565b60008160020a8304905092915050565b600061224360001984600802612222565b1980831691505092915050565b600061225c8383612232565b9150826002028217905092915050565b61227582611b8b565b67ffffffffffffffff81111561228e5761228d61185f565b5b612298825461207f565b6122a38282856121dc565b600060209050601f8311600181146122d657600084156122c4578287015190505b6122ce8582612250565b865550612336565b601f1984166122e4866120b0565b60005b8281101561230c578489015182556001820191506020850194506020810190506122e7565b868310156123295784890151612325601f891682612232565b8355505b6001600288020188555050505b505050505050565b60008154905061234d8161207f565b9050919050565b81810361236257505061243a565b61236b8261233e565b67ffffffffffffffff8111156123845761238361185f565b5b61238e825461207f565b6123998282856121dc565b6000601f8311600181146123c857600084156123b6578287015490505b6123c08582612250565b865550612433565b601f1984166123d6876120b0565b96506123e1866120b0565b60005b82811015612409578489015482556001820191506001850194506020810190506123e4565b868310156124265784890154612422601f891682612232565b8355505b6001600288020188555050505b5050505050505b565b60006040820190506124516000830185611eba565b81810360208301526124638184611bd1565b90509392505050565b600081546124798161207f565b6124838186611ffd565b9450600182166000811461249e57600181146124b3576124e6565b60ff19831686528115158202860193506124e6565b6124bc856120b0565b60005b838110156124de578154818901526001820191506020810190506124bf565b838801955050505b50505092915050565b60006124fb828461246c565b91508190509291505056fea2646970667358221220a8f5481a5393d1445235be1277aa87303298a082fb3690a7ac280d8a45da81f664736f6c63430008160033",
					"opcodes": "PUSH1 0x80 PUSH1 0x40 MSTORE CALLVALUE DUP1 ISZERO PUSH2 0x10 JUMPI PUSH1 0x0 DUP1 REVERT JUMPDEST POP PUSH2 0x253C DUP1 PUSH2 0x20 PUSH1 0x0 CODECOPY PUSH1 0x0 RETURN INVALID PUSH1 0x80 PUSH1 0x40 MSTORE CALLVALUE DUP1 ISZERO PUSH2 0x10 JUMPI PUSH1 0x0 DUP1 REVERT JUMPDEST POP PUSH1 0x4 CALLDATASIZE LT PUSH2 0xC6 JUMPI PUSH1 0x0 CALLDATALOAD PUSH29 0x100000000000000000000000000000000000000000000000000000000 SWAP1 DIV DUP1 PUSH4 0x78E5099B GT PUSH2 0x8E JUMPI DUP1 PUSH4 0x78E5099B EQ PUSH2 0x184 JUMPI DUP1 PUSH4 0x84730F7A EQ PUSH2 0x1A0 JUMPI DUP1 PUSH4 0x864A80B4 EQ PUSH2 0x1BC JUMPI DUP1 PUSH4 0x89671BF0 EQ PUSH2 0x1F0 JUMPI DUP1 PUSH4 0xA64AD3FF EQ PUSH2 0x20C JUMPI DUP1 PUSH4 0xE1277058 EQ PUSH2 0x228 JUMPI PUSH2 0xC6 JUMP JUMPDEST DUP1 PUSH4 0x10BDC518 EQ PUSH2 0xCB JUMPI DUP1 PUSH4 0x296C3AD1 EQ PUSH2 0xE7 JUMPI DUP1 PUSH4 0x37225024 EQ PUSH2 0x103 JUMPI DUP1 PUSH4 0x5B5100FF EQ PUSH2 0x137 JUMPI DUP1 PUSH4 0x75C6DA23 EQ PUSH2 0x168 JUMPI JUMPDEST PUSH1 0x0 DUP1 REVERT JUMPDEST PUSH2 0xE5 PUSH1 0x4 DUP1 CALLDATASIZE SUB DUP2 ADD SWAP1 PUSH2 0xE0 SWAP2 SWAP1 PUSH2 0x198A JUMP JUMPDEST PUSH2 0x244 JUMP JUMPDEST STOP JUMPDEST PUSH2 0x101 PUSH1 0x4 DUP1 CALLDATASIZE SUB DUP2 ADD SWAP1 PUSH2 0xFC SWAP2 SWAP1 PUSH2 0x1A60 JUMP JUMPDEST PUSH2 0x274 JUMP JUMPDEST STOP JUMPDEST PUSH2 0x11D PUSH1 0x4 DUP1 CALLDATASIZE SUB DUP2 ADD SWAP1 PUSH2 0x118 SWAP2 SWAP1 PUSH2 0x1B2F JUMP JUMPDEST PUSH2 0x560 JUMP JUMPDEST PUSH1 0x40 MLOAD PUSH2 0x12E SWAP6 SWAP5 SWAP4 SWAP3 SWAP2 SWAP1 PUSH2 0x1C23 JUMP JUMPDEST PUSH1 0x40 MLOAD DUP1 SWAP2 SUB SWAP1 RETURN JUMPDEST PUSH2 0x151 PUSH1 0x4 DUP1 CALLDATASIZE SUB DUP2 ADD SWAP1 PUSH2 0x14C SWAP2 SWAP1 PUSH2 0x1C92 JUMP JUMPDEST PUSH2 0x977 JUMP JUMPDEST PUSH1 0x40 MLOAD PUSH2 0x15F SWAP3 SWAP2 SWAP1 PUSH2 0x1D01 JUMP JUMPDEST PUSH1 0x40 MLOAD DUP1 SWAP2 SUB SWAP1 RETURN JUMPDEST PUSH2 0x182 PUSH1 0x4 DUP1 CALLDATASIZE SUB DUP2 ADD SWAP1 PUSH2 0x17D SWAP2 SWAP1 PUSH2 0x1B2F JUMP JUMPDEST PUSH2 0xBCE JUMP JUMPDEST STOP JUMPDEST PUSH2 0x19E PUSH1 0x4 DUP1 CALLDATASIZE SUB DUP2 ADD SWAP1 PUSH2 0x199 SWAP2 SWAP1 PUSH2 0x1B2F JUMP JUMPDEST PUSH2 0xCB0 JUMP JUMPDEST STOP JUMPDEST PUSH2 0x1BA PUSH1 0x4 DUP1 CALLDATASIZE SUB DUP2 ADD SWAP1 PUSH2 0x1B5 SWAP2 SWAP1 PUSH2 0x1D64 JUMP JUMPDEST PUSH2 0xD91 JUMP JUMPDEST STOP JUMPDEST PUSH2 0x1D6 PUSH1 0x4 DUP1 CALLDATASIZE SUB DUP2 ADD SWAP1 PUSH2 0x1D1 SWAP2 SWAP1 PUSH2 0x1B2F JUMP JUMPDEST PUSH2 0x1193 JUMP JUMPDEST PUSH1 0x40 MLOAD PUSH2 0x1E7 SWAP6 SWAP5 SWAP4 SWAP3 SWAP2 SWAP1 PUSH2 0x1EC9 JUMP JUMPDEST PUSH1 0x40 MLOAD DUP1 SWAP2 SUB SWAP1 RETURN JUMPDEST PUSH2 0x20A PUSH1 0x4 DUP1 CALLDATASIZE SUB DUP2 ADD SWAP1 PUSH2 0x205 SWAP2 SWAP1 PUSH2 0x1B2F JUMP JUMPDEST PUSH2 0x1432 JUMP JUMPDEST STOP JUMPDEST PUSH2 0x226 PUSH1 0x4 DUP1 CALLDATASIZE SUB DUP2 ADD SWAP1 PUSH2 0x221 SWAP2 SWAP1 PUSH2 0x1F23 JUMP JUMPDEST PUSH2 0x1513 JUMP JUMPDEST STOP JUMPDEST PUSH2 0x242 PUSH1 0x4 DUP1 CALLDATASIZE SUB DUP2 ADD SWAP1 PUSH2 0x23D SWAP2 SWAP1 PUSH2 0x1B2F JUMP JUMPDEST PUSH2 0x174E JUMP JUMPDEST STOP JUMPDEST DUP1 PUSH1 0xA DUP4 PUSH1 0x40 MLOAD PUSH2 0x255 SWAP2 SWAP1 PUSH2 0x2039 JUMP JUMPDEST SWAP1 DUP2 MSTORE PUSH1 0x20 ADD PUSH1 0x40 MLOAD DUP1 SWAP2 SUB SWAP1 KECCAK256 SWAP1 DUP2 PUSH2 0x26F SWAP2 SWAP1 PUSH2 0x226C JUMP JUMPDEST POP POP POP JUMP JUMPDEST DUP2 PUSH1 0x9 PUSH1 0x0 DUP8 PUSH20 0xFFFFFFFFFFFFFFFFFFFFFFFFFFFFFFFFFFFFFFFF AND PUSH20 0xFFFFFFFFFFFFFFFFFFFFFFFFFFFFFFFFFFFFFFFF AND DUP2 MSTORE PUSH1 0x20 ADD SWAP1 DUP2 MSTORE PUSH1 0x20 ADD PUSH1 0x0 KECCAK256 PUSH1 0x0 DUP7 PUSH20 0xFFFFFFFFFFFFFFFFFFFFFFFFFFFFFFFFFFFFFFFF AND PUSH20 0xFFFFFFFFFFFFFFFFFFFFFFFFFFFFFFFFFFFFFFFF AND DUP2 MSTORE PUSH1 0x20 ADD SWAP1 DUP2 MSTORE PUSH1 0x20 ADD PUSH1 0x0 KECCAK256 DUP5 PUSH1 0x40 MLOAD PUSH2 0x2FF SWAP2 SWAP1 PUSH2 0x2039 JUMP JUMPDEST SWAP1 DUP2 MSTORE PUSH1 0x20 ADD PUSH1 0x40 MLOAD DUP1 SWAP2 SUB SWAP1 KECCAK256 PUSH1 0x0 ADD SWAP1 DUP2 PUSH2 0x31C SWAP2 SWAP1 PUSH2 0x226C JUMP JUMPDEST POP DUP1 PUSH1 0x9 PUSH1 0x0 DUP8 PUSH20 0xFFFFFFFFFFFFFFFFFFFFFFFFFFFFFFFFFFFFFFFF AND PUSH20 0xFFFFFFFFFFFFFFFFFFFFFFFFFFFFFFFFFFFFFFFF AND DUP2 MSTORE PUSH1 0x20 ADD SWAP1 DUP2 MSTORE PUSH1 0x20 ADD PUSH1 0x0 KECCAK256 PUSH1 0x0 DUP7 PUSH20 0xFFFFFFFFFFFFFFFFFFFFFFFFFFFFFFFFFFFFFFFF AND PUSH20 0xFFFFFFFFFFFFFFFFFFFFFFFFFFFFFFFFFFFFFFFF AND DUP2 MSTORE PUSH1 0x20 ADD SWAP1 DUP2 MSTORE PUSH1 0x20 ADD PUSH1 0x0 KECCAK256 DUP5 PUSH1 0x40 MLOAD PUSH2 0x3A8 SWAP2 SWAP1 PUSH2 0x2039 JUMP JUMPDEST SWAP1 DUP2 MSTORE PUSH1 0x20 ADD PUSH1 0x40 MLOAD DUP1 SWAP2 SUB SWAP1 KECCAK256 PUSH1 0x1 ADD SWAP1 DUP2 PUSH2 0x3C5 SWAP2 SWAP1 PUSH2 0x226C JUMP JUMPDEST POP PUSH1 0x8 PUSH1 0x0 DUP6 PUSH20 0xFFFFFFFFFFFFFFFFFFFFFFFFFFFFFFFFFFFFFFFF AND PUSH20 0xFFFFFFFFFFFFFFFFFFFFFFFFFFFFFFFFFFFFFFFF AND DUP2 MSTORE PUSH1 0x20 ADD SWAP1 DUP2 MSTORE PUSH1 0x20 ADD PUSH1 0x0 KECCAK256 DUP4 PUSH1 0x40 MLOAD PUSH2 0x413 SWAP2 SWAP1 PUSH2 0x2039 JUMP JUMPDEST SWAP1 DUP2 MSTORE PUSH1 0x20 ADD PUSH1 0x40 MLOAD DUP1 SWAP2 SUB SWAP1 KECCAK256 PUSH1 0x9 PUSH1 0x0 DUP8 PUSH20 0xFFFFFFFFFFFFFFFFFFFFFFFFFFFFFFFFFFFFFFFF AND PUSH20 0xFFFFFFFFFFFFFFFFFFFFFFFFFFFFFFFFFFFFFFFF AND DUP2 MSTORE PUSH1 0x20 ADD SWAP1 DUP2 MSTORE PUSH1 0x20 ADD PUSH1 0x0 KECCAK256 PUSH1 0x0 DUP7 PUSH20 0xFFFFFFFFFFFFFFFFFFFFFFFFFFFFFFFFFFFFFFFF AND PUSH20 0xFFFFFFFFFFFFFFFFFFFFFFFFFFFFFFFFFFFFFFFF AND DUP2 MSTORE PUSH1 0x20 ADD SWAP1 DUP2 MSTORE PUSH1 0x20 ADD PUSH1 0x0 KECCAK256 DUP5 PUSH1 0x40 MLOAD PUSH2 0x4AB SWAP2 SWAP1 PUSH2 0x2039 JUMP JUMPDEST SWAP1 DUP2 MSTORE PUSH1 0x20 ADD PUSH1 0x40 MLOAD DUP1 SWAP2 SUB SWAP1 KECCAK256 PUSH1 0x2 ADD PUSH1 0x0 DUP3 ADD PUSH1 0x0 SWAP1 SLOAD SWAP1 PUSH2 0x100 EXP SWAP1 DIV PUSH20 0xFFFFFFFFFFFFFFFFFFFFFFFFFFFFFFFFFFFFFFFF AND DUP2 PUSH1 0x0 ADD PUSH1 0x0 PUSH2 0x100 EXP DUP2 SLOAD DUP2 PUSH20 0xFFFFFFFFFFFFFFFFFFFFFFFFFFFFFFFFFFFFFFFF MUL NOT AND SWAP1 DUP4 PUSH20 0xFFFFFFFFFFFFFFFFFFFFFFFFFFFFFFFFFFFFFFFF AND MUL OR SWAP1 SSTORE POP PUSH1 0x1 DUP3 ADD SLOAD DUP2 PUSH1 0x1 ADD SSTORE PUSH1 0x2 DUP3 ADD SLOAD DUP2 PUSH1 0x2 ADD SSTORE PUSH1 0x3 DUP3 ADD SLOAD DUP2 PUSH1 0x3 ADD SSTORE PUSH1 0x4 DUP3 ADD DUP2 PUSH1 0x4 ADD SWAP1 DUP2 PUSH2 0x555 SWAP2 SWAP1 PUSH2 0x2354 JUMP JUMPDEST POP SWAP1 POP POP POP POP POP POP POP JUMP JUMPDEST PUSH1 0x60 DUP1 PUSH1 0x60 DUP1 PUSH1 0x0 PUSH1 0xB PUSH1 0x0 DUP9 PUSH20 0xFFFFFFFFFFFFFFFFFFFFFFFFFFFFFFFFFFFFFFFF AND PUSH20 0xFFFFFFFFFFFFFFFFFFFFFFFFFFFFFFFFFFFFFFFF AND DUP2 MSTORE PUSH1 0x20 ADD SWAP1 DUP2 MSTORE PUSH1 0x20 ADD PUSH1 0x0 KECCAK256 DUP7 PUSH1 0x40 MLOAD PUSH2 0x5B5 SWAP2 SWAP1 PUSH2 0x2039 JUMP JUMPDEST SWAP1 DUP2 MSTORE PUSH1 0x20 ADD PUSH1 0x40 MLOAD DUP1 SWAP2 SUB SWAP1 KECCAK256 PUSH1 0x0 ADD DUP1 SLOAD PUSH2 0x5D1 SWAP1 PUSH2 0x207F JUMP JUMPDEST DUP1 PUSH1 0x1F ADD PUSH1 0x20 DUP1 SWAP2 DIV MUL PUSH1 0x20 ADD PUSH1 0x40 MLOAD SWAP1 DUP2 ADD PUSH1 0x40 MSTORE DUP1 SWAP3 SWAP2 SWAP1 DUP2 DUP2 MSTORE PUSH1 0x20 ADD DUP3 DUP1 SLOAD PUSH2 0x5FD SWAP1 PUSH2 0x207F JUMP JUMPDEST DUP1 ISZERO PUSH2 0x64A JUMPI DUP1 PUSH1 0x1F LT PUSH2 0x61F JUMPI PUSH2 0x100 DUP1 DUP4 SLOAD DIV MUL DUP4 MSTORE SWAP2 PUSH1 0x20 ADD SWAP2 PUSH2 0x64A JUMP JUMPDEST DUP3 ADD SWAP2 SWAP1 PUSH1 0x0 MSTORE PUSH1 0x20 PUSH1 0x0 KECCAK256 SWAP1 JUMPDEST DUP2 SLOAD DUP2 MSTORE SWAP1 PUSH1 0x1 ADD SWAP1 PUSH1 0x20 ADD DUP1 DUP4 GT PUSH2 0x62D JUMPI DUP3 SWAP1 SUB PUSH1 0x1F AND DUP3 ADD SWAP2 JUMPDEST POP POP POP POP POP SWAP5 POP PUSH1 0xB PUSH1 0x0 DUP9 PUSH20 0xFFFFFFFFFFFFFFFFFFFFFFFFFFFFFFFFFFFFFFFF AND PUSH20 0xFFFFFFFFFFFFFFFFFFFFFFFFFFFFFFFFFFFFFFFF AND DUP2 MSTORE PUSH1 0x20 ADD SWAP1 DUP2 MSTORE PUSH1 0x20 ADD PUSH1 0x0 KECCAK256 DUP7 PUSH1 0x40 MLOAD PUSH2 0x69E SWAP2 SWAP1 PUSH2 0x2039 JUMP JUMPDEST SWAP1 DUP2 MSTORE PUSH1 0x20 ADD PUSH1 0x40 MLOAD DUP1 SWAP2 SUB SWAP1 KECCAK256 PUSH1 0x2 ADD DUP1 SLOAD PUSH2 0x6BA SWAP1 PUSH2 0x207F JUMP JUMPDEST DUP1 PUSH1 0x1F ADD PUSH1 0x20 DUP1 SWAP2 DIV MUL PUSH1 0x20 ADD PUSH1 0x40 MLOAD SWAP1 DUP2 ADD PUSH1 0x40 MSTORE DUP1 SWAP3 SWAP2 SWAP1 DUP2 DUP2 MSTORE PUSH1 0x20 ADD DUP3 DUP1 SLOAD PUSH2 0x6E6 SWAP1 PUSH2 0x207F JUMP JUMPDEST DUP1 ISZERO PUSH2 0x733 JUMPI DUP1 PUSH1 0x1F LT PUSH2 0x708 JUMPI PUSH2 0x100 DUP1 DUP4 SLOAD DIV MUL DUP4 MSTORE SWAP2 PUSH1 0x20 ADD SWAP2 PUSH2 0x733 JUMP JUMPDEST DUP3 ADD SWAP2 SWAP1 PUSH1 0x0 MSTORE PUSH1 0x20 PUSH1 0x0 KECCAK256 SWAP1 JUMPDEST DUP2 SLOAD DUP2 MSTORE SWAP1 PUSH1 0x1 ADD SWAP1 PUSH1 0x20 ADD DUP1 DUP4 GT PUSH2 0x716 JUMPI DUP3 SWAP1 SUB PUSH1 0x1F AND DUP3 ADD SWAP2 JUMPDEST POP POP POP POP POP SWAP4 POP PUSH1 0xB PUSH1 0x0 DUP9 PUSH20 0xFFFFFFFFFFFFFFFFFFFFFFFFFFFFFFFFFFFFFFFF AND PUSH20 0xFFFFFFFFFFFFFFFFFFFFFFFFFFFFFFFFFFFFFFFF AND DUP2 MSTORE PUSH1 0x20 ADD SWAP1 DUP2 MSTORE PUSH1 0x20 ADD PUSH1 0x0 KECCAK256 DUP7 PUSH1 0x40 MLOAD PUSH2 0x787 SWAP2 SWAP1 PUSH2 0x2039 JUMP JUMPDEST SWAP1 DUP2 MSTORE PUSH1 0x20 ADD PUSH1 0x40 MLOAD DUP1 SWAP2 SUB SWAP1 KECCAK256 PUSH1 0x1 ADD DUP1 SLOAD PUSH2 0x7A3 SWAP1 PUSH2 0x207F JUMP JUMPDEST DUP1 PUSH1 0x1F ADD PUSH1 0x20 DUP1 SWAP2 DIV MUL PUSH1 0x20 ADD PUSH1 0x40 MLOAD SWAP1 DUP2 ADD PUSH1 0x40 MSTORE DUP1 SWAP3 SWAP2 SWAP1 DUP2 DUP2 MSTORE PUSH1 0x20 ADD DUP3 DUP1 SLOAD PUSH2 0x7CF SWAP1 PUSH2 0x207F JUMP JUMPDEST DUP1 ISZERO PUSH2 0x81C JUMPI DUP1 PUSH1 0x1F LT PUSH2 0x7F1 JUMPI PUSH2 0x100 DUP1 DUP4 SLOAD DIV MUL DUP4 MSTORE SWAP2 PUSH1 0x20 ADD SWAP2 PUSH2 0x81C JUMP JUMPDEST DUP3 ADD SWAP2 SWAP1 PUSH1 0x0 MSTORE PUSH1 0x20 PUSH1 0x0 KECCAK256 SWAP1 JUMPDEST DUP2 SLOAD DUP2 MSTORE SWAP1 PUSH1 0x1 ADD SWAP1 PUSH1 0x20 ADD DUP1 DUP4 GT PUSH2 0x7FF JUMPI DUP3 SWAP1 SUB PUSH1 0x1F AND DUP3 ADD SWAP2 JUMPDEST POP POP POP POP POP SWAP3 POP PUSH1 0xB PUSH1 0x0 DUP9 PUSH20 0xFFFFFFFFFFFFFFFFFFFFFFFFFFFFFFFFFFFFFFFF AND PUSH20 0xFFFFFFFFFFFFFFFFFFFFFFFFFFFFFFFFFFFFFFFF AND DUP2 MSTORE PUSH1 0x20 ADD SWAP1 DUP2 MSTORE PUSH1 0x20 ADD PUSH1 0x0 KECCAK256 DUP7 PUSH1 0x40 MLOAD PUSH2 0x870 SWAP2 SWAP1 PUSH2 0x2039 JUMP JUMPDEST SWAP1 DUP2 MSTORE PUSH1 0x20 ADD PUSH1 0x40 MLOAD DUP1 SWAP2 SUB SWAP1 KECCAK256 PUSH1 0x3 ADD DUP1 SLOAD PUSH2 0x88C SWAP1 PUSH2 0x207F JUMP JUMPDEST DUP1 PUSH1 0x1F ADD PUSH1 0x20 DUP1 SWAP2 DIV MUL PUSH1 0x20 ADD PUSH1 0x40 MLOAD SWAP1 DUP2 ADD PUSH1 0x40 MSTORE DUP1 SWAP3 SWAP2 SWAP1 DUP2 DUP2 MSTORE PUSH1 0x20 ADD DUP3 DUP1 SLOAD PUSH2 0x8B8 SWAP1 PUSH2 0x207F JUMP JUMPDEST DUP1 ISZERO PUSH2 0x905 JUMPI DUP1 PUSH1 0x1F LT PUSH2 0x8DA JUMPI PUSH2 0x100 DUP1 DUP4 SLOAD DIV MUL DUP4 MSTORE SWAP2 PUSH1 0x20 ADD SWAP2 PUSH2 0x905 JUMP JUMPDEST DUP3 ADD SWAP2 SWAP1 PUSH1 0x0 MSTORE PUSH1 0x20 PUSH1 0x0 KECCAK256 SWAP1 JUMPDEST DUP2 SLOAD DUP2 MSTORE SWAP1 PUSH1 0x1 ADD SWAP1 PUSH1 0x20 ADD DUP1 DUP4 GT PUSH2 0x8E8 JUMPI DUP3 SWAP1 SUB PUSH1 0x1F AND DUP3 ADD SWAP2 JUMPDEST POP POP POP POP POP SWAP2 POP PUSH1 0xB PUSH1 0x0 DUP9 PUSH20 0xFFFFFFFFFFFFFFFFFFFFFFFFFFFFFFFFFFFFFFFF AND PUSH20 0xFFFFFFFFFFFFFFFFFFFFFFFFFFFFFFFFFFFFFFFF AND DUP2 MSTORE PUSH1 0x20 ADD SWAP1 DUP2 MSTORE PUSH1 0x20 ADD PUSH1 0x0 KECCAK256 DUP7 PUSH1 0x40 MLOAD PUSH2 0x959 SWAP2 SWAP1 PUSH2 0x2039 JUMP JUMPDEST SWAP1 DUP2 MSTORE PUSH1 0x20 ADD PUSH1 0x40 MLOAD DUP1 SWAP2 SUB SWAP1 KECCAK256 PUSH1 0x4 ADD SLOAD SWAP1 POP SWAP3 SWAP6 POP SWAP3 SWAP6 SWAP1 SWAP4 POP JUMP JUMPDEST PUSH1 0x60 DUP1 PUSH1 0x9 PUSH1 0x0 DUP7 PUSH20 0xFFFFFFFFFFFFFFFFFFFFFFFFFFFFFFFFFFFFFFFF AND PUSH20 0xFFFFFFFFFFFFFFFFFFFFFFFFFFFFFFFFFFFFFFFF AND DUP2 MSTORE PUSH1 0x20 ADD SWAP1 DUP2 MSTORE PUSH1 0x20 ADD PUSH1 0x0 KECCAK256 PUSH1 0x0 DUP6 PUSH20 0xFFFFFFFFFFFFFFFFFFFFFFFFFFFFFFFFFFFFFFFF AND PUSH20 0xFFFFFFFFFFFFFFFFFFFFFFFFFFFFFFFFFFFFFFFF AND DUP2 MSTORE PUSH1 0x20 ADD SWAP1 DUP2 MSTORE PUSH1 0x20 ADD PUSH1 0x0 KECCAK256 DUP4 PUSH1 0x40 MLOAD PUSH2 0xA04 SWAP2 SWAP1 PUSH2 0x2039 JUMP JUMPDEST SWAP1 DUP2 MSTORE PUSH1 0x20 ADD PUSH1 0x40 MLOAD DUP1 SWAP2 SUB SWAP1 KECCAK256 PUSH1 0x0 ADD DUP1 SLOAD PUSH2 0xA20 SWAP1 PUSH2 0x207F JUMP JUMPDEST DUP1 PUSH1 0x1F ADD PUSH1 0x20 DUP1 SWAP2 DIV MUL PUSH1 0x20 ADD PUSH1 0x40 MLOAD SWAP1 DUP2 ADD PUSH1 0x40 MSTORE DUP1 SWAP3 SWAP2 SWAP1 DUP2 DUP2 MSTORE PUSH1 0x20 ADD DUP3 DUP1 SLOAD PUSH2 0xA4C SWAP1 PUSH2 0x207F JUMP JUMPDEST DUP1 ISZERO PUSH2 0xA99 JUMPI DUP1 PUSH1 0x1F LT PUSH2 0xA6E JUMPI PUSH2 0x100 DUP1 DUP4 SLOAD DIV MUL DUP4 MSTORE SWAP2 PUSH1 0x20 ADD SWAP2 PUSH2 0xA99 JUMP JUMPDEST DUP3 ADD SWAP2 SWAP1 PUSH1 0x0 MSTORE PUSH1 0x20 PUSH1 0x0 KECCAK256 SWAP1 JUMPDEST DUP2 SLOAD DUP2 MSTORE SWAP1 PUSH1 0x1 ADD SWAP1 PUSH1 0x20 ADD DUP1 DUP4 GT PUSH2 0xA7C JUMPI DUP3 SWAP1 SUB PUSH1 0x1F AND DUP3 ADD SWAP2 JUMPDEST POP POP POP POP POP SWAP2 POP PUSH1 0x9 PUSH1 0x0 DUP7 PUSH20 0xFFFFFFFFFFFFFFFFFFFFFFFFFFFFFFFFFFFFFFFF AND PUSH20 0xFFFFFFFFFFFFFFFFFFFFFFFFFFFFFFFFFFFFFFFF AND DUP2 MSTORE PUSH1 0x20 ADD SWAP1 DUP2 MSTORE PUSH1 0x20 ADD PUSH1 0x0 KECCAK256 PUSH1 0x0 DUP6 PUSH20 0xFFFFFFFFFFFFFFFFFFFFFFFFFFFFFFFFFFFFFFFF AND PUSH20 0xFFFFFFFFFFFFFFFFFFFFFFFFFFFFFFFFFFFFFFFF AND DUP2 MSTORE PUSH1 0x20 ADD SWAP1 DUP2 MSTORE PUSH1 0x20 ADD PUSH1 0x0 KECCAK256 DUP4 PUSH1 0x40 MLOAD PUSH2 0xB2A SWAP2 SWAP1 PUSH2 0x2039 JUMP JUMPDEST SWAP1 DUP2 MSTORE PUSH1 0x20 ADD PUSH1 0x40 MLOAD DUP1 SWAP2 SUB SWAP1 KECCAK256 PUSH1 0x1 ADD DUP1 SLOAD PUSH2 0xB46 SWAP1 PUSH2 0x207F JUMP JUMPDEST DUP1 PUSH1 0x1F ADD PUSH1 0x20 DUP1 SWAP2 DIV MUL PUSH1 0x20 ADD PUSH1 0x40 MLOAD SWAP1 DUP2 ADD PUSH1 0x40 MSTORE DUP1 SWAP3 SWAP2 SWAP1 DUP2 DUP2 MSTORE PUSH1 0x20 ADD DUP3 DUP1 SLOAD PUSH2 0xB72 SWAP1 PUSH2 0x207F JUMP JUMPDEST DUP1 ISZERO PUSH2 0xBBF JUMPI DUP1 PUSH1 0x1F LT PUSH2 0xB94 JUMPI PUSH2 0x100 DUP1 DUP4 SLOAD DIV MUL DUP4 MSTORE SWAP2 PUSH1 0x20 ADD SWAP2 PUSH2 0xBBF JUMP JUMPDEST DUP3 ADD SWAP2 SWAP1 PUSH1 0x0 MSTORE PUSH1 0x20 PUSH1 0x0 KECCAK256 SWAP1 JUMPDEST DUP2 SLOAD DUP2 MSTORE SWAP1 PUSH1 0x1 ADD SWAP1 PUSH1 0x20 ADD DUP1 DUP4 GT PUSH2 0xBA2 JUMPI DUP3 SWAP1 SUB PUSH1 0x1F AND DUP3 ADD SWAP2 JUMPDEST POP POP POP POP POP SWAP1 POP SWAP4 POP SWAP4 SWAP2 POP POP JUMP JUMPDEST PUSH1 0x1 PUSH1 0x2 PUSH1 0x0 DUP5 PUSH20 0xFFFFFFFFFFFFFFFFFFFFFFFFFFFFFFFFFFFFFFFF AND PUSH20 0xFFFFFFFFFFFFFFFFFFFFFFFFFFFFFFFFFFFFFFFF AND DUP2 MSTORE PUSH1 0x20 ADD SWAP1 DUP2 MSTORE PUSH1 0x20 ADD PUSH1 0x0 KECCAK256 PUSH1 0x0 PUSH2 0x100 EXP DUP2 SLOAD DUP2 PUSH1 0xFF MUL NOT AND SWAP1 DUP4 ISZERO ISZERO MUL OR SWAP1 SSTORE POP DUP1 PUSH1 0x6 PUSH1 0x0 DUP5 PUSH20 0xFFFFFFFFFFFFFFFFFFFFFFFFFFFFFFFFFFFFFFFF AND PUSH20 0xFFFFFFFFFFFFFFFFFFFFFFFFFFFFFFFFFFFFFFFF AND DUP2 MSTORE PUSH1 0x20 ADD SWAP1 DUP2 MSTORE PUSH1 0x20 ADD PUSH1 0x0 KECCAK256 SWAP1 DUP2 PUSH2 0xC72 SWAP2 SWAP1 PUSH2 0x226C JUMP JUMPDEST POP PUSH32 0x52D2250A74439A1966B3AF244C06FB46FE5CD15B66EF97CE37CD8A4FEDD7403A DUP3 DUP3 PUSH1 0x40 MLOAD PUSH2 0xCA4 SWAP3 SWAP2 SWAP1 PUSH2 0x243C JUMP JUMPDEST PUSH1 0x40 MLOAD DUP1 SWAP2 SUB SWAP1 LOG1 POP POP JUMP JUMPDEST PUSH1 0x1 DUP1 PUSH1 0x0 DUP5 PUSH20 0xFFFFFFFFFFFFFFFFFFFFFFFFFFFFFFFFFFFFFFFF AND PUSH20 0xFFFFFFFFFFFFFFFFFFFFFFFFFFFFFFFFFFFFFFFF AND DUP2 MSTORE PUSH1 0x20 ADD SWAP1 DUP2 MSTORE PUSH1 0x20 ADD PUSH1 0x0 KECCAK256 PUSH1 0x0 PUSH2 0x100 EXP DUP2 SLOAD DUP2 PUSH1 0xFF MUL NOT AND SWAP1 DUP4 ISZERO ISZERO MUL OR SWAP1 SSTORE POP DUP1 PUSH1 0x5 PUSH1 0x0 DUP5 PUSH20 0xFFFFFFFFFFFFFFFFFFFFFFFFFFFFFFFFFFFFFFFF AND PUSH20 0xFFFFFFFFFFFFFFFFFFFFFFFFFFFFFFFFFFFFFFFF AND DUP2 MSTORE PUSH1 0x20 ADD SWAP1 DUP2 MSTORE PUSH1 0x20 ADD PUSH1 0x0 KECCAK256 SWAP1 DUP2 PUSH2 0xD53 SWAP2 SWAP1 PUSH2 0x226C JUMP JUMPDEST POP PUSH32 0x5F61C0A0DB439E10DEB19E144239BC9962ED66941E65703C47BB12369F06F9B DUP3 DUP3 PUSH1 0x40 MLOAD PUSH2 0xD85 SWAP3 SWAP2 SWAP1 PUSH2 0x243C JUMP JUMPDEST PUSH1 0x40 MLOAD DUP1 SWAP2 SUB SWAP1 LOG1 POP POP JUMP JUMPDEST DUP4 PUSH1 0xB PUSH1 0x0 DUP12 PUSH20 0xFFFFFFFFFFFFFFFFFFFFFFFFFFFFFFFFFFFFFFFF AND PUSH20 0xFFFFFFFFFFFFFFFFFFFFFFFFFFFFFFFFFFFFFFFF AND DUP2 MSTORE PUSH1 0x20 ADD SWAP1 DUP2 MSTORE PUSH1 0x20 ADD PUSH1 0x0 KECCAK256 DUP3 PUSH1 0x40 MLOAD PUSH2 0xDDF SWAP2 SWAP1 PUSH2 0x2039 JUMP JUMPDEST SWAP1 DUP2 MSTORE PUSH1 0x20 ADD PUSH1 0x40 MLOAD DUP1 SWAP2 SUB SWAP1 KECCAK256 PUSH1 0x0 ADD SWAP1 DUP2 PUSH2 0xDFC SWAP2 SWAP1 PUSH2 0x226C JUMP JUMPDEST POP DUP6 PUSH1 0xB PUSH1 0x0 DUP12 PUSH20 0xFFFFFFFFFFFFFFFFFFFFFFFFFFFFFFFFFFFFFFFF AND PUSH20 0xFFFFFFFFFFFFFFFFFFFFFFFFFFFFFFFFFFFFFFFF AND DUP2 MSTORE PUSH1 0x20 ADD SWAP1 DUP2 MSTORE PUSH1 0x20 ADD PUSH1 0x0 KECCAK256 DUP3 PUSH1 0x40 MLOAD PUSH2 0xE4B SWAP2 SWAP1 PUSH2 0x2039 JUMP JUMPDEST SWAP1 DUP2 MSTORE PUSH1 0x20 ADD PUSH1 0x40 MLOAD DUP1 SWAP2 SUB SWAP1 KECCAK256 PUSH1 0x2 ADD SWAP1 DUP2 PUSH2 0xE68 SWAP2 SWAP1 PUSH2 0x226C JUMP JUMPDEST POP DUP5 PUSH1 0xB PUSH1 0x0 DUP12 PUSH20 0xFFFFFFFFFFFFFFFFFFFFFFFFFFFFFFFFFFFFFFFF AND PUSH20 0xFFFFFFFFFFFFFFFFFFFFFFFFFFFFFFFFFFFFFFFF AND DUP2 MSTORE PUSH1 0x20 ADD SWAP1 DUP2 MSTORE PUSH1 0x20 ADD PUSH1 0x0 KECCAK256 DUP3 PUSH1 0x40 MLOAD PUSH2 0xEB7 SWAP2 SWAP1 PUSH2 0x2039 JUMP JUMPDEST SWAP1 DUP2 MSTORE PUSH1 0x20 ADD PUSH1 0x40 MLOAD DUP1 SWAP2 SUB SWAP1 KECCAK256 PUSH1 0x1 ADD SWAP1 DUP2 PUSH2 0xED4 SWAP2 SWAP1 PUSH2 0x226C JUMP JUMPDEST POP DUP3 PUSH1 0xB PUSH1 0x0 DUP12 PUSH20 0xFFFFFFFFFFFFFFFFFFFFFFFFFFFFFFFFFFFFFFFF AND PUSH20 0xFFFFFFFFFFFFFFFFFFFFFFFFFFFFFFFFFFFFFFFF AND DUP2 MSTORE PUSH1 0x20 ADD SWAP1 DUP2 MSTORE PUSH1 0x20 ADD PUSH1 0x0 KECCAK256 DUP3 PUSH1 0x40 MLOAD PUSH2 0xF23 SWAP2 SWAP1 PUSH2 0x2039 JUMP JUMPDEST SWAP1 DUP2 MSTORE PUSH1 0x20 ADD PUSH1 0x40 MLOAD DUP1 SWAP2 SUB SWAP1 KECCAK256 PUSH1 0x3 ADD SWAP1 DUP2 PUSH2 0xF40 SWAP2 SWAP1 PUSH2 0x226C JUMP JUMPDEST POP DUP2 PUSH1 0xB PUSH1 0x0 DUP12 PUSH20 0xFFFFFFFFFFFFFFFFFFFFFFFFFFFFFFFFFFFFFFFF AND PUSH20 0xFFFFFFFFFFFFFFFFFFFFFFFFFFFFFFFFFFFFFFFF AND DUP2 MSTORE PUSH1 0x20 ADD SWAP1 DUP2 MSTORE PUSH1 0x20 ADD PUSH1 0x0 KECCAK256 DUP3 PUSH1 0x40 MLOAD PUSH2 0xF8F SWAP2 SWAP1 PUSH2 0x2039 JUMP JUMPDEST SWAP1 DUP2 MSTORE PUSH1 0x20 ADD PUSH1 0x40 MLOAD DUP1 SWAP2 SUB SWAP1 KECCAK256 PUSH1 0x4 ADD DUP2 SWAP1 SSTORE POP PUSH1 0x9 PUSH1 0x0 DUP10 PUSH20 0xFFFFFFFFFFFFFFFFFFFFFFFFFFFFFFFFFFFFFFFF AND PUSH20 0xFFFFFFFFFFFFFFFFFFFFFFFFFFFFFFFFFFFFFFFF AND DUP2 MSTORE PUSH1 0x20 ADD SWAP1 DUP2 MSTORE PUSH1 0x20 ADD PUSH1 0x0 KECCAK256 PUSH1 0x0 DUP9 PUSH20 0xFFFFFFFFFFFFFFFFFFFFFFFFFFFFFFFFFFFFFFFF AND PUSH20 0xFFFFFFFFFFFFFFFFFFFFFFFFFFFFFFFFFFFFFFFF AND DUP2 MSTORE PUSH1 0x20 ADD SWAP1 DUP2 MSTORE PUSH1 0x20 ADD PUSH1 0x0 KECCAK256 PUSH1 0xA DUP3 PUSH1 0x40 MLOAD PUSH2 0x1030 SWAP2 SWAP1 PUSH2 0x2039 JUMP JUMPDEST SWAP1 DUP2 MSTORE PUSH1 0x20 ADD PUSH1 0x40 MLOAD DUP1 SWAP2 SUB SWAP1 KECCAK256 PUSH1 0x40 MLOAD PUSH2 0x104B SWAP2 SWAP1 PUSH2 0x24EF JUMP JUMPDEST SWAP1 DUP2 MSTORE PUSH1 0x20 ADD PUSH1 0x40 MLOAD DUP1 SWAP2 SUB SWAP1 KECCAK256 PUSH1 0xB PUSH1 0x0 DUP12 PUSH20 0xFFFFFFFFFFFFFFFFFFFFFFFFFFFFFFFFFFFFFFFF AND PUSH20 0xFFFFFFFFFFFFFFFFFFFFFFFFFFFFFFFFFFFFFFFF AND DUP2 MSTORE PUSH1 0x20 ADD SWAP1 DUP2 MSTORE PUSH1 0x20 ADD PUSH1 0x0 KECCAK256 DUP3 PUSH1 0x40 MLOAD PUSH2 0x10A6 SWAP2 SWAP1 PUSH2 0x2039 JUMP JUMPDEST SWAP1 DUP2 MSTORE PUSH1 0x20 ADD PUSH1 0x40 MLOAD DUP1 SWAP2 SUB SWAP1 KECCAK256 PUSH1 0x5 ADD PUSH1 0x0 DUP3 ADD DUP2 PUSH1 0x0 ADD SWAP1 DUP2 PUSH2 0x10CB SWAP2 SWAP1 PUSH2 0x2354 JUMP JUMPDEST POP PUSH1 0x1 DUP3 ADD DUP2 PUSH1 0x1 ADD SWAP1 DUP2 PUSH2 0x10E0 SWAP2 SWAP1 PUSH2 0x2354 JUMP JUMPDEST POP PUSH1 0x2 DUP3 ADD DUP2 PUSH1 0x2 ADD PUSH1 0x0 DUP3 ADD PUSH1 0x0 SWAP1 SLOAD SWAP1 PUSH2 0x100 EXP SWAP1 DIV PUSH20 0xFFFFFFFFFFFFFFFFFFFFFFFFFFFFFFFFFFFFFFFF AND DUP2 PUSH1 0x0 ADD PUSH1 0x0 PUSH2 0x100 EXP DUP2 SLOAD DUP2 PUSH20 0xFFFFFFFFFFFFFFFFFFFFFFFFFFFFFFFFFFFFFFFF MUL NOT AND SWAP1 DUP4 PUSH20 0xFFFFFFFFFFFFFFFFFFFFFFFFFFFFFFFFFFFFFFFF AND MUL OR SWAP1 SSTORE POP PUSH1 0x1 DUP3 ADD SLOAD DUP2 PUSH1 0x1 ADD SSTORE PUSH1 0x2 DUP3 ADD SLOAD DUP2 PUSH1 0x2 ADD SSTORE PUSH1 0x3 DUP3 ADD SLOAD DUP2 PUSH1 0x3 ADD SSTORE PUSH1 0x4 DUP3 ADD DUP2 PUSH1 0x4 ADD SWAP1 DUP2 PUSH2 0x1182 SWAP2 SWAP1 PUSH2 0x2354 JUMP JUMPDEST POP POP POP SWAP1 POP POP POP POP POP POP POP POP POP POP POP JUMP JUMPDEST PUSH1 0x60 PUSH1 0x0 DUP1 PUSH1 0x0 DUP1 PUSH1 0x8 PUSH1 0x0 DUP9 PUSH20 0xFFFFFFFFFFFFFFFFFFFFFFFFFFFFFFFFFFFFFFFF AND PUSH20 0xFFFFFFFFFFFFFFFFFFFFFFFFFFFFFFFFFFFFFFFF AND DUP2 MSTORE PUSH1 0x20 ADD SWAP1 DUP2 MSTORE PUSH1 0x20 ADD PUSH1 0x0 KECCAK256 DUP7 PUSH1 0x40 MLOAD PUSH2 0x11E8 SWAP2 SWAP1 PUSH2 0x2039 JUMP JUMPDEST SWAP1 DUP2 MSTORE PUSH1 0x20 ADD PUSH1 0x40 MLOAD DUP1 SWAP2 SUB SWAP1 KECCAK256 PUSH1 0x4 ADD DUP1 SLOAD PUSH2 0x1204 SWAP1 PUSH2 0x207F JUMP JUMPDEST DUP1 PUSH1 0x1F ADD PUSH1 0x20 DUP1 SWAP2 DIV MUL PUSH1 0x20 ADD PUSH1 0x40 MLOAD SWAP1 DUP2 ADD PUSH1 0x40 MSTORE DUP1 SWAP3 SWAP2 SWAP1 DUP2 DUP2 MSTORE PUSH1 0x20 ADD DUP3 DUP1 SLOAD PUSH2 0x1230 SWAP1 PUSH2 0x207F JUMP JUMPDEST DUP1 ISZERO PUSH2 0x127D JUMPI DUP1 PUSH1 0x1F LT PUSH2 0x1252 JUMPI PUSH2 0x100 DUP1 DUP4 SLOAD DIV MUL DUP4 MSTORE SWAP2 PUSH1 0x20 ADD SWAP2 PUSH2 0x127D JUMP JUMPDEST DUP3 ADD SWAP2 SWAP1 PUSH1 0x0 MSTORE PUSH1 0x20 PUSH1 0x0 KECCAK256 SWAP1 JUMPDEST DUP2 SLOAD DUP2 MSTORE SWAP1 PUSH1 0x1 ADD SWAP1 PUSH1 0x20 ADD DUP1 DUP4 GT PUSH2 0x1260 JUMPI DUP3 SWAP1 SUB PUSH1 0x1F AND DUP3 ADD SWAP2 JUMPDEST POP POP POP POP POP SWAP5 POP PUSH1 0x8 PUSH1 0x0 DUP9 PUSH20 0xFFFFFFFFFFFFFFFFFFFFFFFFFFFFFFFFFFFFFFFF AND PUSH20 0xFFFFFFFFFFFFFFFFFFFFFFFFFFFFFFFFFFFFFFFF AND DUP2 MSTORE PUSH1 0x20 ADD SWAP1 DUP2 MSTORE PUSH1 0x20 ADD PUSH1 0x0 KECCAK256 DUP7 PUSH1 0x40 MLOAD PUSH2 0x12D1 SWAP2 SWAP1 PUSH2 0x2039 JUMP JUMPDEST SWAP1 DUP2 MSTORE PUSH1 0x20 ADD PUSH1 0x40 MLOAD DUP1 SWAP2 SUB SWAP1 KECCAK256 PUSH1 0x0 ADD PUSH1 0x0 SWAP1 SLOAD SWAP1 PUSH2 0x100 EXP SWAP1 DIV PUSH20 0xFFFFFFFFFFFFFFFFFFFFFFFFFFFFFFFFFFFFFFFF AND SWAP4 POP PUSH1 0x8 PUSH1 0x0 DUP9 PUSH20 0xFFFFFFFFFFFFFFFFFFFFFFFFFFFFFFFFFFFFFFFF AND PUSH20 0xFFFFFFFFFFFFFFFFFFFFFFFFFFFFFFFFFFFFFFFF AND DUP2 MSTORE PUSH1 0x20 ADD SWAP1 DUP2 MSTORE PUSH1 0x20 ADD PUSH1 0x0 KECCAK256 DUP7 PUSH1 0x40 MLOAD PUSH2 0x1352 SWAP2 SWAP1 PUSH2 0x2039 JUMP JUMPDEST SWAP1 DUP2 MSTORE PUSH1 0x20 ADD PUSH1 0x40 MLOAD DUP1 SWAP2 SUB SWAP1 KECCAK256 PUSH1 0x2 ADD SLOAD SWAP3 POP PUSH1 0x8 PUSH1 0x0 DUP9 PUSH20 0xFFFFFFFFFFFFFFFFFFFFFFFFFFFFFFFFFFFFFFFF AND PUSH20 0xFFFFFFFFFFFFFFFFFFFFFFFFFFFFFFFFFFFFFFFF AND DUP2 MSTORE PUSH1 0x20 ADD SWAP1 DUP2 MSTORE PUSH1 0x20 ADD PUSH1 0x0 KECCAK256 DUP7 PUSH1 0x40 MLOAD PUSH2 0x13B3 SWAP2 SWAP1 PUSH2 0x2039 JUMP JUMPDEST SWAP1 DUP2 MSTORE PUSH1 0x20 ADD PUSH1 0x40 MLOAD DUP1 SWAP2 SUB SWAP1 KECCAK256 PUSH1 0x3 ADD SLOAD SWAP2 POP PUSH1 0x8 PUSH1 0x0 DUP9 PUSH20 0xFFFFFFFFFFFFFFFFFFFFFFFFFFFFFFFFFFFFFFFF AND PUSH20 0xFFFFFFFFFFFFFFFFFFFFFFFFFFFFFFFFFFFFFFFF AND DUP2 MSTORE PUSH1 0x20 ADD SWAP1 DUP2 MSTORE PUSH1 0x20 ADD PUSH1 0x0 KECCAK256 DUP7 PUSH1 0x40 MLOAD PUSH2 0x1414 SWAP2 SWAP1 PUSH2 0x2039 JUMP JUMPDEST SWAP1 DUP2 MSTORE PUSH1 0x20 ADD PUSH1 0x40 MLOAD DUP1 SWAP2 SUB SWAP1 KECCAK256 PUSH1 0x1 ADD SLOAD SWAP1 POP SWAP3 SWAP6 POP SWAP3 SWAP6 SWAP1 SWAP4 POP JUMP JUMPDEST PUSH1 0x1 PUSH1 0x0 DUP1 DUP5 PUSH20 0xFFFFFFFFFFFFFFFFFFFFFFFFFFFFFFFFFFFFFFFF AND PUSH20 0xFFFFFFFFFFFFFFFFFFFFFFFFFFFFFFFFFFFFFFFF AND DUP2 MSTORE PUSH1 0x20 ADD SWAP1 DUP2 MSTORE PUSH1 0x20 ADD PUSH1 0x0 KECCAK256 PUSH1 0x0 PUSH2 0x100 EXP DUP2 SLOAD DUP2 PUSH1 0xFF MUL NOT AND SWAP1 DUP4 ISZERO ISZERO MUL OR SWAP1 SSTORE POP DUP1 PUSH1 0x4 PUSH1 0x0 DUP5 PUSH20 0xFFFFFFFFFFFFFFFFFFFFFFFFFFFFFFFFFFFFFFFF AND PUSH20 0xFFFFFFFFFFFFFFFFFFFFFFFFFFFFFFFFFFFFFFFF AND DUP2 MSTORE PUSH1 0x20 ADD SWAP1 DUP2 MSTORE PUSH1 0x20 ADD PUSH1 0x0 KECCAK256 SWAP1 DUP2 PUSH2 0x14D5 SWAP2 SWAP1 PUSH2 0x226C JUMP JUMPDEST POP PUSH32 0xCD5007C1F083BAEC1024FA63F0D6728FB0E85E5EB620E0DEF97C4282CF32FF99 DUP3 DUP3 PUSH1 0x40 MLOAD PUSH2 0x1507 SWAP3 SWAP2 SWAP1 PUSH2 0x243C JUMP JUMPDEST PUSH1 0x40 MLOAD DUP1 SWAP2 SUB SWAP1 LOG1 POP POP JUMP JUMPDEST DUP6 PUSH1 0x8 PUSH1 0x0 DUP10 PUSH20 0xFFFFFFFFFFFFFFFFFFFFFFFFFFFFFFFFFFFFFFFF AND PUSH20 0xFFFFFFFFFFFFFFFFFFFFFFFFFFFFFFFFFFFFFFFF AND DUP2 MSTORE PUSH1 0x20 ADD SWAP1 DUP2 MSTORE PUSH1 0x20 ADD PUSH1 0x0 KECCAK256 DUP7 PUSH1 0x40 MLOAD PUSH2 0x1561 SWAP2 SWAP1 PUSH2 0x2039 JUMP JUMPDEST SWAP1 DUP2 MSTORE PUSH1 0x20 ADD PUSH1 0x40 MLOAD DUP1 SWAP2 SUB SWAP1 KECCAK256 PUSH1 0x0 ADD PUSH1 0x0 PUSH2 0x100 EXP DUP2 SLOAD DUP2 PUSH20 0xFFFFFFFFFFFFFFFFFFFFFFFFFFFFFFFFFFFFFFFF MUL NOT AND SWAP1 DUP4 PUSH20 0xFFFFFFFFFFFFFFFFFFFFFFFFFFFFFFFFFFFFFFFF AND MUL OR SWAP1 SSTORE POP DUP4 PUSH1 0x8 PUSH1 0x0 DUP10 PUSH20 0xFFFFFFFFFFFFFFFFFFFFFFFFFFFFFFFFFFFFFFFF AND PUSH20 0xFFFFFFFFFFFFFFFFFFFFFFFFFFFFFFFFFFFFFFFF AND DUP2 MSTORE PUSH1 0x20 ADD SWAP1 DUP2 MSTORE PUSH1 0x20 ADD PUSH1 0x0 KECCAK256 DUP7 PUSH1 0x40 MLOAD PUSH2 0x15FE SWAP2 SWAP1 PUSH2 0x2039 JUMP JUMPDEST SWAP1 DUP2 MSTORE PUSH1 0x20 ADD PUSH1 0x40 MLOAD DUP1 SWAP2 SUB SWAP1 KECCAK256 PUSH1 0x4 ADD SWAP1 DUP2 PUSH2 0x161B SWAP2 SWAP1 PUSH2 0x226C JUMP JUMPDEST POP DUP3 PUSH1 0x8 PUSH1 0x0 DUP10 PUSH20 0xFFFFFFFFFFFFFFFFFFFFFFFFFFFFFFFFFFFFFFFF AND PUSH20 0xFFFFFFFFFFFFFFFFFFFFFFFFFFFFFFFFFFFFFFFF AND DUP2 MSTORE PUSH1 0x20 ADD SWAP1 DUP2 MSTORE PUSH1 0x20 ADD PUSH1 0x0 KECCAK256 DUP7 PUSH1 0x40 MLOAD PUSH2 0x166A SWAP2 SWAP1 PUSH2 0x2039 JUMP JUMPDEST SWAP1 DUP2 MSTORE PUSH1 0x20 ADD PUSH1 0x40 MLOAD DUP1 SWAP2 SUB SWAP1 KECCAK256 PUSH1 0x2 ADD DUP2 SWAP1 SSTORE POP DUP1 PUSH1 0x8 PUSH1 0x0 DUP10 PUSH20 0xFFFFFFFFFFFFFFFFFFFFFFFFFFFFFFFFFFFFFFFF AND PUSH20 0xFFFFFFFFFFFFFFFFFFFFFFFFFFFFFFFFFFFFFFFF AND DUP2 MSTORE PUSH1 0x20 ADD SWAP1 DUP2 MSTORE PUSH1 0x20 ADD PUSH1 0x0 KECCAK256 DUP7 PUSH1 0x40 MLOAD PUSH2 0x16CD SWAP2 SWAP1 PUSH2 0x2039 JUMP JUMPDEST SWAP1 DUP2 MSTORE PUSH1 0x20 ADD PUSH1 0x40 MLOAD DUP1 SWAP2 SUB SWAP1 KECCAK256 PUSH1 0x3 ADD DUP2 SWAP1 SSTORE POP DUP2 PUSH1 0x8 PUSH1 0x0 DUP10 PUSH20 0xFFFFFFFFFFFFFFFFFFFFFFFFFFFFFFFFFFFFFFFF AND PUSH20 0xFFFFFFFFFFFFFFFFFFFFFFFFFFFFFFFFFFFFFFFF AND DUP2 MSTORE PUSH1 0x20 ADD SWAP1 DUP2 MSTORE PUSH1 0x20 ADD PUSH1 0x0 KECCAK256 DUP7 PUSH1 0x40 MLOAD PUSH2 0x1730 SWAP2 SWAP1 PUSH2 0x2039 JUMP JUMPDEST SWAP1 DUP2 MSTORE PUSH1 0x20 ADD PUSH1 0x40 MLOAD DUP1 SWAP2 SUB SWAP1 KECCAK256 PUSH1 0x1 ADD DUP2 SWAP1 SSTORE POP POP POP POP POP POP POP POP JUMP JUMPDEST PUSH1 0x1 PUSH1 0x3 PUSH1 0x0 DUP5 PUSH20 0xFFFFFFFFFFFFFFFFFFFFFFFFFFFFFFFFFFFFFFFF AND PUSH20 0xFFFFFFFFFFFFFFFFFFFFFFFFFFFFFFFFFFFFFFFF AND DUP2 MSTORE PUSH1 0x20 ADD SWAP1 DUP2 MSTORE PUSH1 0x20 ADD PUSH1 0x0 KECCAK256 PUSH1 0x0 PUSH2 0x100 EXP DUP2 SLOAD DUP2 PUSH1 0xFF MUL NOT AND SWAP1 DUP4 ISZERO ISZERO MUL OR SWAP1 SSTORE POP DUP1 PUSH1 0x7 PUSH1 0x0 DUP5 PUSH20 0xFFFFFFFFFFFFFFFFFFFFFFFFFFFFFFFFFFFFFFFF AND PUSH20 0xFFFFFFFFFFFFFFFFFFFFFFFFFFFFFFFFFFFFFFFF AND DUP2 MSTORE PUSH1 0x20 ADD SWAP1 DUP2 MSTORE PUSH1 0x20 ADD PUSH1 0x0 KECCAK256 SWAP1 DUP2 PUSH2 0x17F2 SWAP2 SWAP1 PUSH2 0x226C JUMP JUMPDEST POP PUSH32 0xBB1D92B487A3AD94EBD0D3F8005AC38869D7B8218DFA1B3AEF46FADDFD3A2FAD DUP3 DUP3 PUSH1 0x40 MLOAD PUSH2 0x1824 SWAP3 SWAP2 SWAP1 PUSH2 0x243C JUMP JUMPDEST PUSH1 0x40 MLOAD DUP1 SWAP2 SUB SWAP1 LOG1 POP POP JUMP JUMPDEST PUSH1 0x0 PUSH1 0x40 MLOAD SWAP1 POP SWAP1 JUMP JUMPDEST PUSH1 0x0 DUP1 REVERT JUMPDEST PUSH1 0x0 DUP1 REVERT JUMPDEST PUSH1 0x0 DUP1 REVERT JUMPDEST PUSH1 0x0 DUP1 REVERT JUMPDEST PUSH1 0x0 PUSH1 0x1F NOT PUSH1 0x1F DUP4 ADD AND SWAP1 POP SWAP2 SWAP1 POP JUMP JUMPDEST PUSH32 0x4E487B7100000000000000000000000000000000000000000000000000000000 PUSH1 0x0 MSTORE PUSH1 0x41 PUSH1 0x4 MSTORE PUSH1 0x24 PUSH1 0x0 REVERT JUMPDEST PUSH2 0x1897 DUP3 PUSH2 0x184E JUMP JUMPDEST DUP2 ADD DUP2 DUP2 LT PUSH8 0xFFFFFFFFFFFFFFFF DUP3 GT OR ISZERO PUSH2 0x18B6 JUMPI PUSH2 0x18B5 PUSH2 0x185F JUMP JUMPDEST JUMPDEST DUP1 PUSH1 0x40 MSTORE POP POP POP JUMP JUMPDEST PUSH1 0x0 PUSH2 0x18C9 PUSH2 0x1830 JUMP JUMPDEST SWAP1 POP PUSH2 0x18D5 DUP3 DUP3 PUSH2 0x188E JUMP JUMPDEST SWAP2 SWAP1 POP JUMP JUMPDEST PUSH1 0x0 PUSH8 0xFFFFFFFFFFFFFFFF DUP3 GT ISZERO PUSH2 0x18F5 JUMPI PUSH2 0x18F4 PUSH2 0x185F JUMP JUMPDEST JUMPDEST PUSH2 0x18FE DUP3 PUSH2 0x184E JUMP JUMPDEST SWAP1 POP PUSH1 0x20 DUP2 ADD SWAP1 POP SWAP2 SWAP1 POP JUMP JUMPDEST DUP3 DUP2 DUP4 CALLDATACOPY PUSH1 0x0 DUP4 DUP4 ADD MSTORE POP POP POP JUMP JUMPDEST PUSH1 0x0 PUSH2 0x192D PUSH2 0x1928 DUP5 PUSH2 0x18DA JUMP JUMPDEST PUSH2 0x18BF JUMP JUMPDEST SWAP1 POP DUP3 DUP2 MSTORE PUSH1 0x20 DUP2 ADD DUP5 DUP5 DUP5 ADD GT ISZERO PUSH2 0x1949 JUMPI PUSH2 0x1948 PUSH2 0x1849 JUMP JUMPDEST JUMPDEST PUSH2 0x1954 DUP5 DUP3 DUP6 PUSH2 0x190B JUMP JUMPDEST POP SWAP4 SWAP3 POP POP POP JUMP JUMPDEST PUSH1 0x0 DUP3 PUSH1 0x1F DUP4 ADD SLT PUSH2 0x1971 JUMPI PUSH2 0x1970 PUSH2 0x1844 JUMP JUMPDEST JUMPDEST DUP2 CALLDATALOAD PUSH2 0x1981 DUP5 DUP3 PUSH1 0x20 DUP7 ADD PUSH2 0x191A JUMP JUMPDEST SWAP2 POP POP SWAP3 SWAP2 POP POP JUMP JUMPDEST PUSH1 0x0 DUP1 PUSH1 0x40 DUP4 DUP6 SUB SLT ISZERO PUSH2 0x19A1 JUMPI PUSH2 0x19A0 PUSH2 0x183A JUMP JUMPDEST JUMPDEST PUSH1 0x0 DUP4 ADD CALLDATALOAD PUSH8 0xFFFFFFFFFFFFFFFF DUP2 GT ISZERO PUSH2 0x19BF JUMPI PUSH2 0x19BE PUSH2 0x183F JUMP JUMPDEST JUMPDEST PUSH2 0x19CB DUP6 DUP3 DUP7 ADD PUSH2 0x195C JUMP JUMPDEST SWAP3 POP POP PUSH1 0x20 DUP4 ADD CALLDATALOAD PUSH8 0xFFFFFFFFFFFFFFFF DUP2 GT ISZERO PUSH2 0x19EC JUMPI PUSH2 0x19EB PUSH2 0x183F JUMP JUMPDEST JUMPDEST PUSH2 0x19F8 DUP6 DUP3 DUP7 ADD PUSH2 0x195C JUMP JUMPDEST SWAP2 POP POP SWAP3 POP SWAP3 SWAP1 POP JUMP JUMPDEST PUSH1 0x0 PUSH20 0xFFFFFFFFFFFFFFFFFFFFFFFFFFFFFFFFFFFFFFFF DUP3 AND SWAP1 POP SWAP2 SWAP1 POP JUMP JUMPDEST PUSH1 0x0 PUSH2 0x1A2D DUP3 PUSH2 0x1A02 JUMP JUMPDEST SWAP1 POP SWAP2 SWAP1 POP JUMP JUMPDEST PUSH2 0x1A3D DUP2 PUSH2 0x1A22 JUMP JUMPDEST DUP2 EQ PUSH2 0x1A48 JUMPI PUSH1 0x0 DUP1 REVERT JUMPDEST POP JUMP JUMPDEST PUSH1 0x0 DUP2 CALLDATALOAD SWAP1 POP PUSH2 0x1A5A DUP2 PUSH2 0x1A34 JUMP JUMPDEST SWAP3 SWAP2 POP POP JUMP JUMPDEST PUSH1 0x0 DUP1 PUSH1 0x0 DUP1 PUSH1 0x0 PUSH1 0xA0 DUP7 DUP9 SUB SLT ISZERO PUSH2 0x1A7C JUMPI PUSH2 0x1A7B PUSH2 0x183A JUMP JUMPDEST JUMPDEST PUSH1 0x0 PUSH2 0x1A8A DUP9 DUP3 DUP10 ADD PUSH2 0x1A4B JUMP JUMPDEST SWAP6 POP POP PUSH1 0x20 PUSH2 0x1A9B DUP9 DUP3 DUP10 ADD PUSH2 0x1A4B JUMP JUMPDEST SWAP5 POP POP PUSH1 0x40 DUP7 ADD CALLDATALOAD PUSH8 0xFFFFFFFFFFFFFFFF DUP2 GT ISZERO PUSH2 0x1ABC JUMPI PUSH2 0x1ABB PUSH2 0x183F JUMP JUMPDEST JUMPDEST PUSH2 0x1AC8 DUP9 DUP3 DUP10 ADD PUSH2 0x195C JUMP JUMPDEST SWAP4 POP POP PUSH1 0x60 DUP7 ADD CALLDATALOAD PUSH8 0xFFFFFFFFFFFFFFFF DUP2 GT ISZERO PUSH2 0x1AE9 JUMPI PUSH2 0x1AE8 PUSH2 0x183F JUMP JUMPDEST JUMPDEST PUSH2 0x1AF5 DUP9 DUP3 DUP10 ADD PUSH2 0x195C JUMP JUMPDEST SWAP3 POP POP PUSH1 0x80 DUP7 ADD CALLDATALOAD PUSH8 0xFFFFFFFFFFFFFFFF DUP2 GT ISZERO PUSH2 0x1B16 JUMPI PUSH2 0x1B15 PUSH2 0x183F JUMP JUMPDEST JUMPDEST PUSH2 0x1B22 DUP9 DUP3 DUP10 ADD PUSH2 0x195C JUMP JUMPDEST SWAP2 POP POP SWAP3 SWAP6 POP SWAP3 SWAP6 SWAP1 SWAP4 POP JUMP JUMPDEST PUSH1 0x0 DUP1 PUSH1 0x40 DUP4 DUP6 SUB SLT ISZERO PUSH2 0x1B46 JUMPI PUSH2 0x1B45 PUSH2 0x183A JUMP JUMPDEST JUMPDEST PUSH1 0x0 PUSH2 0x1B54 DUP6 DUP3 DUP7 ADD PUSH2 0x1A4B JUMP JUMPDEST SWAP3 POP POP PUSH1 0x20 DUP4 ADD CALLDATALOAD PUSH8 0xFFFFFFFFFFFFFFFF DUP2 GT ISZERO PUSH2 0x1B75 JUMPI PUSH2 0x1B74 PUSH2 0x183F JUMP JUMPDEST JUMPDEST PUSH2 0x1B81 DUP6 DUP3 DUP7 ADD PUSH2 0x195C JUMP JUMPDEST SWAP2 POP POP SWAP3 POP SWAP3 SWAP1 POP JUMP JUMPDEST PUSH1 0x0 DUP2 MLOAD SWAP1 POP SWAP2 SWAP1 POP JUMP JUMPDEST PUSH1 0x0 DUP3 DUP3 MSTORE PUSH1 0x20 DUP3 ADD SWAP1 POP SWAP3 SWAP2 POP POP JUMP JUMPDEST PUSH1 0x0 JUMPDEST DUP4 DUP2 LT ISZERO PUSH2 0x1BC5 JUMPI DUP1 DUP3 ADD MLOAD DUP2 DUP5 ADD MSTORE PUSH1 0x20 DUP2 ADD SWAP1 POP PUSH2 0x1BAA JUMP JUMPDEST PUSH1 0x0 DUP5 DUP5 ADD MSTORE POP POP POP POP JUMP JUMPDEST PUSH1 0x0 PUSH2 0x1BDC DUP3 PUSH2 0x1B8B JUMP JUMPDEST PUSH2 0x1BE6 DUP2 DUP6 PUSH2 0x1B96 JUMP JUMPDEST SWAP4 POP PUSH2 0x1BF6 DUP2 DUP6 PUSH1 0x20 DUP7 ADD PUSH2 0x1BA7 JUMP JUMPDEST PUSH2 0x1BFF DUP2 PUSH2 0x184E JUMP JUMPDEST DUP5 ADD SWAP2 POP POP SWAP3 SWAP2 POP POP JUMP JUMPDEST PUSH1 0x0 DUP2 SWAP1 POP SWAP2 SWAP1 POP JUMP JUMPDEST PUSH2 0x1C1D DUP2 PUSH2 0x1C0A JUMP JUMPDEST DUP3 MSTORE POP POP JUMP JUMPDEST PUSH1 0x0 PUSH1 0xA0 DUP3 ADD SWAP1 POP DUP2 DUP2 SUB PUSH1 0x0 DUP4 ADD MSTORE PUSH2 0x1C3D DUP2 DUP9 PUSH2 0x1BD1 JUMP JUMPDEST SWAP1 POP DUP2 DUP2 SUB PUSH1 0x20 DUP4 ADD MSTORE PUSH2 0x1C51 DUP2 DUP8 PUSH2 0x1BD1 JUMP JUMPDEST SWAP1 POP DUP2 DUP2 SUB PUSH1 0x40 DUP4 ADD MSTORE PUSH2 0x1C65 DUP2 DUP7 PUSH2 0x1BD1 JUMP JUMPDEST SWAP1 POP DUP2 DUP2 SUB PUSH1 0x60 DUP4 ADD MSTORE PUSH2 0x1C79 DUP2 DUP6 PUSH2 0x1BD1 JUMP JUMPDEST SWAP1 POP PUSH2 0x1C88 PUSH1 0x80 DUP4 ADD DUP5 PUSH2 0x1C14 JUMP JUMPDEST SWAP7 SWAP6 POP POP POP POP POP POP JUMP JUMPDEST PUSH1 0x0 DUP1 PUSH1 0x0 PUSH1 0x60 DUP5 DUP7 SUB SLT ISZERO PUSH2 0x1CAB JUMPI PUSH2 0x1CAA PUSH2 0x183A JUMP JUMPDEST JUMPDEST PUSH1 0x0 PUSH2 0x1CB9 DUP7 DUP3 DUP8 ADD PUSH2 0x1A4B JUMP JUMPDEST SWAP4 POP POP PUSH1 0x20 PUSH2 0x1CCA DUP7 DUP3 DUP8 ADD PUSH2 0x1A4B JUMP JUMPDEST SWAP3 POP POP PUSH1 0x40 DUP5 ADD CALLDATALOAD PUSH8 0xFFFFFFFFFFFFFFFF DUP2 GT ISZERO PUSH2 0x1CEB JUMPI PUSH2 0x1CEA PUSH2 0x183F JUMP JUMPDEST JUMPDEST PUSH2 0x1CF7 DUP7 DUP3 DUP8 ADD PUSH2 0x195C JUMP JUMPDEST SWAP2 POP POP SWAP3 POP SWAP3 POP SWAP3 JUMP JUMPDEST PUSH1 0x0 PUSH1 0x40 DUP3 ADD SWAP1 POP DUP2 DUP2 SUB PUSH1 0x0 DUP4 ADD MSTORE PUSH2 0x1D1B DUP2 DUP6 PUSH2 0x1BD1 JUMP JUMPDEST SWAP1 POP DUP2 DUP2 SUB PUSH1 0x20 DUP4 ADD MSTORE PUSH2 0x1D2F DUP2 DUP5 PUSH2 0x1BD1 JUMP JUMPDEST SWAP1 POP SWAP4 SWAP3 POP POP POP JUMP JUMPDEST PUSH2 0x1D41 DUP2 PUSH2 0x1C0A JUMP JUMPDEST DUP2 EQ PUSH2 0x1D4C JUMPI PUSH1 0x0 DUP1 REVERT JUMPDEST POP JUMP JUMPDEST PUSH1 0x0 DUP2 CALLDATALOAD SWAP1 POP PUSH2 0x1D5E DUP2 PUSH2 0x1D38 JUMP JUMPDEST SWAP3 SWAP2 POP POP JUMP JUMPDEST PUSH1 0x0 DUP1 PUSH1 0x0 DUP1 PUSH1 0x0 DUP1 PUSH1 0x0 DUP1 PUSH1 0x0 PUSH2 0x120 DUP11 DUP13 SUB SLT ISZERO PUSH2 0x1D87 JUMPI PUSH2 0x1D86 PUSH2 0x183A JUMP JUMPDEST JUMPDEST PUSH1 0x0 PUSH2 0x1D95 DUP13 DUP3 DUP14 ADD PUSH2 0x1A4B JUMP JUMPDEST SWAP10 POP POP PUSH1 0x20 PUSH2 0x1DA6 DUP13 DUP3 DUP14 ADD PUSH2 0x1A4B JUMP JUMPDEST SWAP9 POP POP PUSH1 0x40 PUSH2 0x1DB7 DUP13 DUP3 DUP14 ADD PUSH2 0x1A4B JUMP JUMPDEST SWAP8 POP POP PUSH1 0x60 DUP11 ADD CALLDATALOAD PUSH8 0xFFFFFFFFFFFFFFFF DUP2 GT ISZERO PUSH2 0x1DD8 JUMPI PUSH2 0x1DD7 PUSH2 0x183F JUMP JUMPDEST JUMPDEST PUSH2 0x1DE4 DUP13 DUP3 DUP14 ADD PUSH2 0x195C JUMP JUMPDEST SWAP7 POP POP PUSH1 0x80 DUP11 ADD CALLDATALOAD PUSH8 0xFFFFFFFFFFFFFFFF DUP2 GT ISZERO PUSH2 0x1E05 JUMPI PUSH2 0x1E04 PUSH2 0x183F JUMP JUMPDEST JUMPDEST PUSH2 0x1E11 DUP13 DUP3 DUP14 ADD PUSH2 0x195C JUMP JUMPDEST SWAP6 POP POP PUSH1 0xA0 DUP11 ADD CALLDATALOAD PUSH8 0xFFFFFFFFFFFFFFFF DUP2 GT ISZERO PUSH2 0x1E32 JUMPI PUSH2 0x1E31 PUSH2 0x183F JUMP JUMPDEST JUMPDEST PUSH2 0x1E3E DUP13 DUP3 DUP14 ADD PUSH2 0x195C JUMP JUMPDEST SWAP5 POP POP PUSH1 0xC0 DUP11 ADD CALLDATALOAD PUSH8 0xFFFFFFFFFFFFFFFF DUP2 GT ISZERO PUSH2 0x1E5F JUMPI PUSH2 0x1E5E PUSH2 0x183F JUMP JUMPDEST JUMPDEST PUSH2 0x1E6B DUP13 DUP3 DUP14 ADD PUSH2 0x195C JUMP JUMPDEST SWAP4 POP POP PUSH1 0xE0 PUSH2 0x1E7C DUP13 DUP3 DUP14 ADD PUSH2 0x1D4F JUMP JUMPDEST SWAP3 POP POP PUSH2 0x100 DUP11 ADD CALLDATALOAD PUSH8 0xFFFFFFFFFFFFFFFF DUP2 GT ISZERO PUSH2 0x1E9E JUMPI PUSH2 0x1E9D PUSH2 0x183F JUMP JUMPDEST JUMPDEST PUSH2 0x1EAA DUP13 DUP3 DUP14 ADD PUSH2 0x195C JUMP JUMPDEST SWAP2 POP POP SWAP3 SWAP6 SWAP9 POP SWAP3 SWAP6 SWAP9 POP SWAP3 SWAP6 SWAP9 JUMP JUMPDEST PUSH2 0x1EC3 DUP2 PUSH2 0x1A22 JUMP JUMPDEST DUP3 MSTORE POP POP JUMP JUMPDEST PUSH1 0x0 PUSH1 0xA0 DUP3 ADD SWAP1 POP DUP2 DUP2 SUB PUSH1 0x0 DUP4 ADD MSTORE PUSH2 0x1EE3 DUP2 DUP9 PUSH2 0x1BD1 JUMP JUMPDEST SWAP1 POP PUSH2 0x1EF2 PUSH1 0x20 DUP4 ADD DUP8 PUSH2 0x1EBA JUMP JUMPDEST PUSH2 0x1EFF PUSH1 0x40 DUP4 ADD DUP7 PUSH2 0x1C14 JUMP JUMPDEST PUSH2 0x1F0C PUSH1 0x60 DUP4 ADD DUP6 PUSH2 0x1C14 JUMP JUMPDEST PUSH2 0x1F19 PUSH1 0x80 DUP4 ADD DUP5 PUSH2 0x1C14 JUMP JUMPDEST SWAP7 SWAP6 POP POP POP POP POP POP JUMP JUMPDEST PUSH1 0x0 DUP1 PUSH1 0x0 DUP1 PUSH1 0x0 DUP1 PUSH1 0x0 PUSH1 0xE0 DUP9 DUP11 SUB SLT ISZERO PUSH2 0x1F42 JUMPI PUSH2 0x1F41 PUSH2 0x183A JUMP JUMPDEST JUMPDEST PUSH1 0x0 PUSH2 0x1F50 DUP11 DUP3 DUP12 ADD PUSH2 0x1A4B JUMP JUMPDEST SWAP8 POP POP PUSH1 0x20 PUSH2 0x1F61 DUP11 DUP3 DUP12 ADD PUSH2 0x1A4B JUMP JUMPDEST SWAP7 POP POP PUSH1 0x40 DUP9 ADD CALLDATALOAD PUSH8 0xFFFFFFFFFFFFFFFF DUP2 GT ISZERO PUSH2 0x1F82 JUMPI PUSH2 0x1F81 PUSH2 0x183F JUMP JUMPDEST JUMPDEST PUSH2 0x1F8E DUP11 DUP3 DUP12 ADD PUSH2 0x195C JUMP JUMPDEST SWAP6 POP POP PUSH1 0x60 DUP9 ADD CALLDATALOAD PUSH8 0xFFFFFFFFFFFFFFFF DUP2 GT ISZERO PUSH2 0x1FAF JUMPI PUSH2 0x1FAE PUSH2 0x183F JUMP JUMPDEST JUMPDEST PUSH2 0x1FBB DUP11 DUP3 DUP12 ADD PUSH2 0x195C JUMP JUMPDEST SWAP5 POP POP PUSH1 0x80 PUSH2 0x1FCC DUP11 DUP3 DUP12 ADD PUSH2 0x1D4F JUMP JUMPDEST SWAP4 POP POP PUSH1 0xA0 PUSH2 0x1FDD DUP11 DUP3 DUP12 ADD PUSH2 0x1D4F JUMP JUMPDEST SWAP3 POP POP PUSH1 0xC0 PUSH2 0x1FEE DUP11 DUP3 DUP12 ADD PUSH2 0x1D4F JUMP JUMPDEST SWAP2 POP POP SWAP3 SWAP6 SWAP9 SWAP2 SWAP5 SWAP8 POP SWAP3 SWAP6 POP JUMP JUMPDEST PUSH1 0x0 DUP2 SWAP1 POP SWAP3 SWAP2 POP POP JUMP JUMPDEST PUSH1 0x0 PUSH2 0x2013 DUP3 PUSH2 0x1B8B JUMP JUMPDEST PUSH2 0x201D DUP2 DUP6 PUSH2 0x1FFD JUMP JUMPDEST SWAP4 POP PUSH2 0x202D DUP2 DUP6 PUSH1 0x20 DUP7 ADD PUSH2 0x1BA7 JUMP JUMPDEST DUP1 DUP5 ADD SWAP2 POP POP SWAP3 SWAP2 POP POP JUMP JUMPDEST PUSH1 0x0 PUSH2 0x2045 DUP3 DUP5 PUSH2 0x2008 JUMP JUMPDEST SWAP2 POP DUP2 SWAP1 POP SWAP3 SWAP2 POP POP JUMP JUMPDEST PUSH32 0x4E487B7100000000000000000000000000000000000000000000000000000000 PUSH1 0x0 MSTORE PUSH1 0x22 PUSH1 0x4 MSTORE PUSH1 0x24 PUSH1 0x0 REVERT JUMPDEST PUSH1 0x0 PUSH1 0x2 DUP3 DIV SWAP1 POP PUSH1 0x1 DUP3 AND DUP1 PUSH2 0x2097 JUMPI PUSH1 0x7F DUP3 AND SWAP2 POP JUMPDEST PUSH1 0x20 DUP3 LT DUP2 SUB PUSH2 0x20AA JUMPI PUSH2 0x20A9 PUSH2 0x2050 JUMP JUMPDEST JUMPDEST POP SWAP2 SWAP1 POP JUMP JUMPDEST PUSH1 0x0 DUP2 SWAP1 POP DUP2 PUSH1 0x0 MSTORE PUSH1 0x20 PUSH1 0x0 KECCAK256 SWAP1 POP SWAP2 SWAP1 POP JUMP JUMPDEST PUSH1 0x0 PUSH1 0x20 PUSH1 0x1F DUP4 ADD DIV SWAP1 POP SWAP2 SWAP1 POP JUMP JUMPDEST PUSH1 0x0 DUP2 PUSH1 0x2 EXP DUP4 MUL SWAP1 POP SWAP3 SWAP2 POP POP JUMP JUMPDEST PUSH1 0x0 PUSH1 0x8 DUP4 MUL PUSH2 0x2115 PUSH32 0xFFFFFFFFFFFFFFFFFFFFFFFFFFFFFFFFFFFFFFFFFFFFFFFFFFFFFFFFFFFFFFFF DUP3 PUSH2 0x20D5 JUMP JUMPDEST PUSH2 0x211F DUP7 DUP4 PUSH2 0x20D5 JUMP JUMPDEST SWAP6 POP DUP1 NOT DUP5 AND SWAP4 POP DUP1 DUP7 AND DUP5 OR SWAP3 POP POP POP SWAP4 SWAP3 POP POP POP JUMP JUMPDEST PUSH1 0x0 DUP2 SWAP1 POP SWAP2 SWAP1 POP JUMP JUMPDEST PUSH1 0x0 DUP2 SWAP1 POP SWAP2 SWAP1 POP JUMP JUMPDEST PUSH1 0x0 PUSH2 0x2166 PUSH2 0x2161 PUSH2 0x215C DUP5 PUSH2 0x2137 JUMP JUMPDEST PUSH2 0x2141 JUMP JUMPDEST PUSH2 0x2137 JUMP JUMPDEST SWAP1 POP SWAP2 SWAP1 POP JUMP JUMPDEST PUSH1 0x0 DUP2 SWAP1 POP SWAP2 SWAP1 POP JUMP JUMPDEST PUSH2 0x2180 DUP4 PUSH2 0x214B JUMP JUMPDEST PUSH2 0x2194 PUSH2 0x218C DUP3 PUSH2 0x216D JUMP JUMPDEST DUP5 DUP5 SLOAD PUSH2 0x20E5 JUMP JUMPDEST DUP3 SSTORE POP POP POP POP JUMP JUMPDEST PUSH1 0x0 SWAP1 JUMP JUMPDEST PUSH2 0x21A9 PUSH2 0x219C JUMP JUMPDEST PUSH2 0x21B4 DUP2 DUP5 DUP5 PUSH2 0x2177 JUMP JUMPDEST POP POP POP JUMP JUMPDEST JUMPDEST DUP2 DUP2 LT ISZERO PUSH2 0x21D8 JUMPI PUSH2 0x21CD PUSH1 0x0 DUP3 PUSH2 0x21A1 JUMP JUMPDEST PUSH1 0x1 DUP2 ADD SWAP1 POP PUSH2 0x21BA JUMP JUMPDEST POP POP JUMP JUMPDEST PUSH1 0x1F DUP3 GT ISZERO PUSH2 0x221D JUMPI PUSH2 0x21EE DUP2 PUSH2 0x20B0 JUMP JUMPDEST PUSH2 0x21F7 DUP5 PUSH2 0x20C5 JUMP JUMPDEST DUP2 ADD PUSH1 0x20 DUP6 LT ISZERO PUSH2 0x2206 JUMPI DUP2 SWAP1 POP JUMPDEST PUSH2 0x221A PUSH2 0x2212 DUP6 PUSH2 0x20C5 JUMP JUMPDEST DUP4 ADD DUP3 PUSH2 0x21B9 JUMP JUMPDEST POP POP JUMPDEST POP POP POP JUMP JUMPDEST PUSH1 0x0 DUP2 PUSH1 0x2 EXP DUP4 DIV SWAP1 POP SWAP3 SWAP2 POP POP JUMP JUMPDEST PUSH1 0x0 PUSH2 0x2243 PUSH1 0x0 NOT DUP5 PUSH1 0x8 MUL PUSH2 0x2222 JUMP JUMPDEST NOT DUP1 DUP4 AND SWAP2 POP POP SWAP3 SWAP2 POP POP JUMP JUMPDEST PUSH1 0x0 PUSH2 0x225C DUP4 DUP4 PUSH2 0x2232 JUMP JUMPDEST SWAP2 POP DUP3 PUSH1 0x2 MUL DUP3 OR SWAP1 POP SWAP3 SWAP2 POP POP JUMP JUMPDEST PUSH2 0x2275 DUP3 PUSH2 0x1B8B JUMP JUMPDEST PUSH8 0xFFFFFFFFFFFFFFFF DUP2 GT ISZERO PUSH2 0x228E JUMPI PUSH2 0x228D PUSH2 0x185F JUMP JUMPDEST JUMPDEST PUSH2 0x2298 DUP3 SLOAD PUSH2 0x207F JUMP JUMPDEST PUSH2 0x22A3 DUP3 DUP3 DUP6 PUSH2 0x21DC JUMP JUMPDEST PUSH1 0x0 PUSH1 0x20 SWAP1 POP PUSH1 0x1F DUP4 GT PUSH1 0x1 DUP2 EQ PUSH2 0x22D6 JUMPI PUSH1 0x0 DUP5 ISZERO PUSH2 0x22C4 JUMPI DUP3 DUP8 ADD MLOAD SWAP1 POP JUMPDEST PUSH2 0x22CE DUP6 DUP3 PUSH2 0x2250 JUMP JUMPDEST DUP7 SSTORE POP PUSH2 0x2336 JUMP JUMPDEST PUSH1 0x1F NOT DUP5 AND PUSH2 0x22E4 DUP7 PUSH2 0x20B0 JUMP JUMPDEST PUSH1 0x0 JUMPDEST DUP3 DUP2 LT ISZERO PUSH2 0x230C JUMPI DUP5 DUP10 ADD MLOAD DUP3 SSTORE PUSH1 0x1 DUP3 ADD SWAP2 POP PUSH1 0x20 DUP6 ADD SWAP5 POP PUSH1 0x20 DUP2 ADD SWAP1 POP PUSH2 0x22E7 JUMP JUMPDEST DUP7 DUP4 LT ISZERO PUSH2 0x2329 JUMPI DUP5 DUP10 ADD MLOAD PUSH2 0x2325 PUSH1 0x1F DUP10 AND DUP3 PUSH2 0x2232 JUMP JUMPDEST DUP4 SSTORE POP JUMPDEST PUSH1 0x1 PUSH1 0x2 DUP9 MUL ADD DUP9 SSTORE POP POP POP JUMPDEST POP POP POP POP POP POP JUMP JUMPDEST PUSH1 0x0 DUP2 SLOAD SWAP1 POP PUSH2 0x234D DUP2 PUSH2 0x207F JUMP JUMPDEST SWAP1 POP SWAP2 SWAP1 POP JUMP JUMPDEST DUP2 DUP2 SUB PUSH2 0x2362 JUMPI POP POP PUSH2 0x243A JUMP JUMPDEST PUSH2 0x236B DUP3 PUSH2 0x233E JUMP JUMPDEST PUSH8 0xFFFFFFFFFFFFFFFF DUP2 GT ISZERO PUSH2 0x2384 JUMPI PUSH2 0x2383 PUSH2 0x185F JUMP JUMPDEST JUMPDEST PUSH2 0x238E DUP3 SLOAD PUSH2 0x207F JUMP JUMPDEST PUSH2 0x2399 DUP3 DUP3 DUP6 PUSH2 0x21DC JUMP JUMPDEST PUSH1 0x0 PUSH1 0x1F DUP4 GT PUSH1 0x1 DUP2 EQ PUSH2 0x23C8 JUMPI PUSH1 0x0 DUP5 ISZERO PUSH2 0x23B6 JUMPI DUP3 DUP8 ADD SLOAD SWAP1 POP JUMPDEST PUSH2 0x23C0 DUP6 DUP3 PUSH2 0x2250 JUMP JUMPDEST DUP7 SSTORE POP PUSH2 0x2433 JUMP JUMPDEST PUSH1 0x1F NOT DUP5 AND PUSH2 0x23D6 DUP8 PUSH2 0x20B0 JUMP JUMPDEST SWAP7 POP PUSH2 0x23E1 DUP7 PUSH2 0x20B0 JUMP JUMPDEST PUSH1 0x0 JUMPDEST DUP3 DUP2 LT ISZERO PUSH2 0x2409 JUMPI DUP5 DUP10 ADD SLOAD DUP3 SSTORE PUSH1 0x1 DUP3 ADD SWAP2 POP PUSH1 0x1 DUP6 ADD SWAP5 POP PUSH1 0x20 DUP2 ADD SWAP1 POP PUSH2 0x23E4 JUMP JUMPDEST DUP7 DUP4 LT ISZERO PUSH2 0x2426 JUMPI DUP5 DUP10 ADD SLOAD PUSH2 0x2422 PUSH1 0x1F DUP10 AND DUP3 PUSH2 0x2232 JUMP JUMPDEST DUP4 SSTORE POP JUMPDEST PUSH1 0x1 PUSH1 0x2 DUP9 MUL ADD DUP9 SSTORE POP POP POP JUMPDEST POP POP POP POP POP POP JUMPDEST JUMP JUMPDEST PUSH1 0x0 PUSH1 0x40 DUP3 ADD SWAP1 POP PUSH2 0x2451 PUSH1 0x0 DUP4 ADD DUP6 PUSH2 0x1EBA JUMP JUMPDEST DUP2 DUP2 SUB PUSH1 0x20 DUP4 ADD MSTORE PUSH2 0x2463 DUP2 DUP5 PUSH2 0x1BD1 JUMP JUMPDEST SWAP1 POP SWAP4 SWAP3 POP POP POP JUMP JUMPDEST PUSH1 0x0 DUP2 SLOAD PUSH2 0x2479 DUP2 PUSH2 0x207F JUMP JUMPDEST PUSH2 0x2483 DUP2 DUP7 PUSH2 0x1FFD JUMP JUMPDEST SWAP5 POP PUSH1 0x1 DUP3 AND PUSH1 0x0 DUP2 EQ PUSH2 0x249E JUMPI PUSH1 0x1 DUP2 EQ PUSH2 0x24B3 JUMPI PUSH2 0x24E6 JUMP JUMPDEST PUSH1 0xFF NOT DUP4 AND DUP7 MSTORE DUP2 ISZERO ISZERO DUP3 MUL DUP7 ADD SWAP4 POP PUSH2 0x24E6 JUMP JUMPDEST PUSH2 0x24BC DUP6 PUSH2 0x20B0 JUMP JUMPDEST PUSH1 0x0 JUMPDEST DUP4 DUP2 LT ISZERO PUSH2 0x24DE JUMPI DUP2 SLOAD DUP2 DUP10 ADD MSTORE PUSH1 0x1 DUP3 ADD SWAP2 POP PUSH1 0x20 DUP2 ADD SWAP1 POP PUSH2 0x24BF JUMP JUMPDEST DUP4 DUP9 ADD SWAP6 POP POP POP JUMPDEST POP POP POP SWAP3 SWAP2 POP POP JUMP JUMPDEST PUSH1 0x0 PUSH2 0x24FB DUP3 DUP5 PUSH2 0x246C JUMP JUMPDEST SWAP2 POP DUP2 SWAP1 POP SWAP3 SWAP2 POP POP JUMP INVALID LOG2 PUSH5 0x6970667358 0x22 SLT KECCAK256 0xA8 CREATE2 BASEFEE BYTE MSTORE8 SWAP4 0xD1 DIFFICULTY MSTORE CALLDATALOAD 0xBE SLT PUSH24 0xAA87303298A082FB3690A7AC280D8A45DA81F664736F6C63 NUMBER STOP ADDMOD AND STOP CALLER "
				},
				"gasEstimates": {
					"creation": {
						"codeDepositCost": "1906400",
						"executionCost": "2012",
						"totalCost": "1908412"
					},
					"external": {
						"BatchtoLot(string,string)": "infinite",
						"addFarmer(address,string)": "infinite",
						"addInspector(address,string)": "infinite",
						"addProcessor(address,string)": "infinite",
						"addProcessorReport(address,address,string,string,string)": "infinite",
						"addQualityReport(address,address,string,string,int256,int256,int256)": "infinite",
						"addRetailer(address,string)": "infinite",
						"addRetailerReport(address,address,address,string,string,string,string,int256,string)": "infinite",
						"getProcessorReport(address,address,string)": "infinite",
						"getQualityReport(address,string)": "infinite",
						"getRetailerReport(address,string)": "infinite"
					}
				},
				"methodIdentifiers": {
					"BatchtoLot(string,string)": "10bdc518",
					"addFarmer(address,string)": "89671bf0",
					"addInspector(address,string)": "e1277058",
					"addProcessor(address,string)": "78e5099b",
					"addProcessorReport(address,address,string,string,string)": "296c3ad1",
					"addQualityReport(address,address,string,string,int256,int256,int256)": "a64ad3ff",
					"addRetailer(address,string)": "75c6da23",
					"addRetailerReport(address,address,address,string,string,string,string,int256,string)": "84730f7a",
					"getProcessorReport(address,address,string)": "5b5100ff",
					"getQualityReport(address,string)": "864a80b4",
					"getRetailerReport(address,string)": "37225024"
				}
			},
			"storageLayout": {
				"storage": [
					{
						"astId": 38,
						"contract": "supplychain.sol:SupplyChain",
						"label": "isFarmer",
						"offset": 0,
						"slot": "0",
						"type": "t_mapping(t_address,t_bool)"
					},
					{
						"astId": 42,
						"contract": "supplychain.sol:SupplyChain",
						"label": "isProcessor",
						"offset": 0,
						"slot": "1",
						"type": "t_mapping(t_address,t_bool)"
					},
					{
						"astId": 46,
						"contract": "supplychain.sol:SupplyChain",
						"label": "isRetailer",
						"offset": 0,
						"slot": "2",
						"type": "t_mapping(t_address,t_bool)"
					},
					{
						"astId": 50,
						"contract": "supplychain.sol:SupplyChain",
						"label": "isInspector",
						"offset": 0,
						"slot": "3",
						"type": "t_mapping(t_address,t_bool)"
					},
					{
						"astId": 54,
						"contract": "supplychain.sol:SupplyChain",
						"label": "farmerMapping",
						"offset": 0,
						"slot": "4",
						"type": "t_mapping(t_address,t_string_storage)"
					},
					{
						"astId": 58,
						"contract": "supplychain.sol:SupplyChain",
						"label": "processorMapping",
						"offset": 0,
						"slot": "5",
						"type": "t_mapping(t_address,t_string_storage)"
					},
					{
						"astId": 62,
						"contract": "supplychain.sol:SupplyChain",
						"label": "retailerMapping",
						"offset": 0,
						"slot": "6",
						"type": "t_mapping(t_address,t_string_storage)"
					},
					{
						"astId": 66,
						"contract": "supplychain.sol:SupplyChain",
						"label": "inspectorMapping",
						"offset": 0,
						"slot": "7",
						"type": "t_mapping(t_address,t_string_storage)"
					},
					{
						"astId": 145,
						"contract": "supplychain.sol:SupplyChain",
						"label": "qualityReports",
						"offset": 0,
						"slot": "8",
						"type": "t_mapping(t_address,t_mapping(t_string_memory_ptr,t_struct(qualityReport)12_storage))"
					},
					{
						"astId": 154,
						"contract": "supplychain.sol:SupplyChain",
						"label": "processorReports",
						"offset": 0,
						"slot": "9",
						"type": "t_mapping(t_address,t_mapping(t_address,t_mapping(t_string_memory_ptr,t_struct(processorReport)20_storage)))"
					},
					{
						"astId": 158,
						"contract": "supplychain.sol:SupplyChain",
						"label": "lotToBatch",
						"offset": 0,
						"slot": "10",
						"type": "t_mapping(t_string_memory_ptr,t_string_storage)"
					},
					{
						"astId": 165,
						"contract": "supplychain.sol:SupplyChain",
						"label": "retailerReports",
						"offset": 0,
						"slot": "11",
						"type": "t_mapping(t_address,t_mapping(t_string_memory_ptr,t_struct(retailerReport)34_storage))"
					}
				],
				"types": {
					"t_address": {
						"encoding": "inplace",
						"label": "address",
						"numberOfBytes": "20"
					},
					"t_bool": {
						"encoding": "inplace",
						"label": "bool",
						"numberOfBytes": "1"
					},
					"t_int256": {
						"encoding": "inplace",
						"label": "int256",
						"numberOfBytes": "32"
					},
					"t_mapping(t_address,t_bool)": {
						"encoding": "mapping",
						"key": "t_address",
						"label": "mapping(address => bool)",
						"numberOfBytes": "32",
						"value": "t_bool"
					},
					"t_mapping(t_address,t_mapping(t_address,t_mapping(t_string_memory_ptr,t_struct(processorReport)20_storage)))": {
						"encoding": "mapping",
						"key": "t_address",
						"label": "mapping(address => mapping(address => mapping(string => struct SupplyChain.processorReport)))",
						"numberOfBytes": "32",
						"value": "t_mapping(t_address,t_mapping(t_string_memory_ptr,t_struct(processorReport)20_storage))"
					},
					"t_mapping(t_address,t_mapping(t_string_memory_ptr,t_struct(processorReport)20_storage))": {
						"encoding": "mapping",
						"key": "t_address",
						"label": "mapping(address => mapping(string => struct SupplyChain.processorReport))",
						"numberOfBytes": "32",
						"value": "t_mapping(t_string_memory_ptr,t_struct(processorReport)20_storage)"
					},
					"t_mapping(t_address,t_mapping(t_string_memory_ptr,t_struct(qualityReport)12_storage))": {
						"encoding": "mapping",
						"key": "t_address",
						"label": "mapping(address => mapping(string => struct SupplyChain.qualityReport))",
						"numberOfBytes": "32",
						"value": "t_mapping(t_string_memory_ptr,t_struct(qualityReport)12_storage)"
					},
					"t_mapping(t_address,t_mapping(t_string_memory_ptr,t_struct(retailerReport)34_storage))": {
						"encoding": "mapping",
						"key": "t_address",
						"label": "mapping(address => mapping(string => struct SupplyChain.retailerReport))",
						"numberOfBytes": "32",
						"value": "t_mapping(t_string_memory_ptr,t_struct(retailerReport)34_storage)"
					},
					"t_mapping(t_address,t_string_storage)": {
						"encoding": "mapping",
						"key": "t_address",
						"label": "mapping(address => string)",
						"numberOfBytes": "32",
						"value": "t_string_storage"
					},
					"t_mapping(t_string_memory_ptr,t_string_storage)": {
						"encoding": "mapping",
						"key": "t_string_memory_ptr",
						"label": "mapping(string => string)",
						"numberOfBytes": "32",
						"value": "t_string_storage"
					},
					"t_mapping(t_string_memory_ptr,t_struct(processorReport)20_storage)": {
						"encoding": "mapping",
						"key": "t_string_memory_ptr",
						"label": "mapping(string => struct SupplyChain.processorReport)",
						"numberOfBytes": "32",
						"value": "t_struct(processorReport)20_storage"
					},
					"t_mapping(t_string_memory_ptr,t_struct(qualityReport)12_storage)": {
						"encoding": "mapping",
						"key": "t_string_memory_ptr",
						"label": "mapping(string => struct SupplyChain.qualityReport)",
						"numberOfBytes": "32",
						"value": "t_struct(qualityReport)12_storage"
					},
					"t_mapping(t_string_memory_ptr,t_struct(retailerReport)34_storage)": {
						"encoding": "mapping",
						"key": "t_string_memory_ptr",
						"label": "mapping(string => struct SupplyChain.retailerReport)",
						"numberOfBytes": "32",
						"value": "t_struct(retailerReport)34_storage"
					},
					"t_string_memory_ptr": {
						"encoding": "bytes",
						"label": "string",
						"numberOfBytes": "32"
					},
					"t_string_storage": {
						"encoding": "bytes",
						"label": "string",
						"numberOfBytes": "32"
					},
					"t_struct(processorReport)20_storage": {
						"encoding": "inplace",
						"label": "struct SupplyChain.processorReport",
						"members": [
							{
								"astId": 14,
								"contract": "supplychain.sol:SupplyChain",
								"label": "remarks",
								"offset": 0,
								"slot": "0",
								"type": "t_string_storage"
							},
							{
								"astId": 16,
								"contract": "supplychain.sol:SupplyChain",
								"label": "receivedShipment",
								"offset": 0,
								"slot": "1",
								"type": "t_string_storage"
							},
							{
								"astId": 19,
								"contract": "supplychain.sol:SupplyChain",
								"label": "qualityreport",
								"offset": 0,
								"slot": "2",
								"type": "t_struct(qualityReport)12_storage"
							}
						],
						"numberOfBytes": "224"
					},
					"t_struct(qualityReport)12_storage": {
						"encoding": "inplace",
						"label": "struct SupplyChain.qualityReport",
						"members": [
							{
								"astId": 3,
								"contract": "supplychain.sol:SupplyChain",
								"label": "inspector",
								"offset": 0,
								"slot": "0",
								"type": "t_address"
							},
							{
								"astId": 5,
								"contract": "supplychain.sol:SupplyChain",
								"label": "quantity",
								"offset": 0,
								"slot": "1",
								"type": "t_int256"
							},
							{
								"astId": 7,
								"contract": "supplychain.sol:SupplyChain",
								"label": "sampleSize",
								"offset": 0,
								"slot": "2",
								"type": "t_int256"
							},
							{
								"astId": 9,
								"contract": "supplychain.sol:SupplyChain",
								"label": "defective",
								"offset": 0,
								"slot": "3",
								"type": "t_int256"
							},
							{
								"astId": 11,
								"contract": "supplychain.sol:SupplyChain",
								"label": "remarks",
								"offset": 0,
								"slot": "4",
								"type": "t_string_storage"
							}
						],
						"numberOfBytes": "160"
					},
					"t_struct(retailerReport)34_storage": {
						"encoding": "inplace",
						"label": "struct SupplyChain.retailerReport",
						"members": [
							{
								"astId": 22,
								"contract": "supplychain.sol:SupplyChain",
								"label": "productName",
								"offset": 0,
								"slot": "0",
								"type": "t_string_storage"
							},
							{
								"astId": 24,
								"contract": "supplychain.sol:SupplyChain",
								"label": "rawMaterial",
								"offset": 0,
								"slot": "1",
								"type": "t_string_storage"
							},
							{
								"astId": 26,
								"contract": "supplychain.sol:SupplyChain",
								"label": "remarks",
								"offset": 0,
								"slot": "2",
								"type": "t_string_storage"
							},
							{
								"astId": 28,
								"contract": "supplychain.sol:SupplyChain",
								"label": "manufacturedDate",
								"offset": 0,
								"slot": "3",
								"type": "t_string_storage"
							},
							{
								"astId": 30,
								"contract": "supplychain.sol:SupplyChain",
								"label": "quantityProduced",
								"offset": 0,
								"slot": "4",
								"type": "t_int256"
							},
							{
								"astId": 33,
								"contract": "supplychain.sol:SupplyChain",
								"label": "processedReport",
								"offset": 0,
								"slot": "5",
								"type": "t_struct(processorReport)20_storage"
							}
						],
						"numberOfBytes": "384"
					}
				}
			},
			"userdoc": {
				"kind": "user",
				"methods": {},
				"version": 1
			}
		}
	}
}