{
	"data": {
		"bytecode": {
			"linkReferences": {},
			"object": "608060405234801561001057600080fd5b5061253c806100206000396000f3fe608060405234801561001057600080fd5b50600436106100c6576000357c01000000000000000000000000000000000000000000000000000000009004806378e5099b1161008e57806378e5099b1461018457806384730f7a146101a0578063864a80b4146101bc57806389671bf0146101f0578063a64ad3ff1461020c578063e127705814610228576100c6565b806310bdc518146100cb578063296c3ad1146100e757806337225024146101035780635b5100ff1461013757806375c6da2314610168575b600080fd5b6100e560048036038101906100e0919061198a565b610244565b005b61010160048036038101906100fc9190611a60565b610274565b005b61011d60048036038101906101189190611b2f565b610560565b60405161012e959493929190611c23565b60405180910390f35b610151600480360381019061014c9190611c92565b610977565b60405161015f929190611d01565b60405180910390f35b610182600480360381019061017d9190611b2f565b610bce565b005b61019e60048036038101906101999190611b2f565b610cb0565b005b6101ba60048036038101906101b59190611d64565b610d91565b005b6101d660048036038101906101d19190611b2f565b611193565b6040516101e7959493929190611ec9565b60405180910390f35b61020a60048036038101906102059190611b2f565b611432565b005b61022660048036038101906102219190611f23565b611513565b005b610242600480360381019061023d9190611b2f565b61174e565b005b80600a836040516102559190612039565b9081526020016040518091039020908161026f919061226c565b505050565b81600960008773ffffffffffffffffffffffffffffffffffffffff1673ffffffffffffffffffffffffffffffffffffffff16815260200190815260200160002060008673ffffffffffffffffffffffffffffffffffffffff1673ffffffffffffffffffffffffffffffffffffffff168152602001908152602001600020846040516102ff9190612039565b9081526020016040518091039020600001908161031c919061226c565b5080600960008773ffffffffffffffffffffffffffffffffffffffff1673ffffffffffffffffffffffffffffffffffffffff16815260200190815260200160002060008673ffffffffffffffffffffffffffffffffffffffff1673ffffffffffffffffffffffffffffffffffffffff168152602001908152602001600020846040516103a89190612039565b908152602001604051809103902060010190816103c5919061226c565b50600860008573ffffffffffffffffffffffffffffffffffffffff1673ffffffffffffffffffffffffffffffffffffffff168152602001908152602001600020836040516104139190612039565b9081526020016040518091039020600960008773ffffffffffffffffffffffffffffffffffffffff1673ffffffffffffffffffffffffffffffffffffffff16815260200190815260200160002060008673ffffffffffffffffffffffffffffffffffffffff1673ffffffffffffffffffffffffffffffffffffffff168152602001908152602001600020846040516104ab9190612039565b90815260200160405180910390206002016000820160009054906101000a900473ffffffffffffffffffffffffffffffffffffffff168160000160006101000a81548173ffffffffffffffffffffffffffffffffffffffff021916908373ffffffffffffffffffffffffffffffffffffffff160217905550600182015481600101556002820154816002015560038201548160030155600482018160040190816105559190612354565b509050505050505050565b6060806060806000600b60008873ffffffffffffffffffffffffffffffffffffffff1673ffffffffffffffffffffffffffffffffffffffff168152602001908152602001600020866040516105b59190612039565b908152602001604051809103902060000180546105d19061207f565b80601f01602080910402602001604051908101604052809291908181526020018280546105fd9061207f565b801561064a5780601f1061061f5761010080835404028352916020019161064a565b820191906000526020600020905b81548152906001019060200180831161062d57829003601f168201915b50505050509450600b60008873ffffffffffffffffffffffffffffffffffffffff1673ffffffffffffffffffffffffffffffffffffffff1681526020019081526020016000208660405161069e9190612039565b908152602001604051809103902060020180546106ba9061207f565b80601f01602080910402602001604051908101604052809291908181526020018280546106e69061207f565b80156107335780601f1061070857610100808354040283529160200191610733565b820191906000526020600020905b81548152906001019060200180831161071657829003601f168201915b50505050509350600b60008873ffffffffffffffffffffffffffffffffffffffff1673ffffffffffffffffffffffffffffffffffffffff168152602001908152602001600020866040516107879190612039565b908152602001604051809103902060010180546107a39061207f565b80601f01602080910402602001604051908101604052809291908181526020018280546107cf9061207f565b801561081c5780601f106107f15761010080835404028352916020019161081c565b820191906000526020600020905b8154815290600101906020018083116107ff57829003601f168201915b50505050509250600b60008873ffffffffffffffffffffffffffffffffffffffff1673ffffffffffffffffffffffffffffffffffffffff168152602001908152602001600020866040516108709190612039565b9081526020016040518091039020600301805461088c9061207f565b80601f01602080910402602001604051908101604052809291908181526020018280546108b89061207f565b80156109055780601f106108da57610100808354040283529160200191610905565b820191906000526020600020905b8154815290600101906020018083116108e857829003601f168201915b50505050509150600b60008873ffffffffffffffffffffffffffffffffffffffff1673ffffffffffffffffffffffffffffffffffffffff168152602001908152602001600020866040516109599190612039565b90815260200160405180910390206004015490509295509295909350565b606080600960008673ffffffffffffffffffffffffffffffffffffffff1673ffffffffffffffffffffffffffffffffffffffff16815260200190815260200160002060008573ffffffffffffffffffffffffffffffffffffffff1673ffffffffffffffffffffffffffffffffffffffff16815260200190815260200160002083604051610a049190612039565b90815260200160405180910390206000018054610a209061207f565b80601f0160208091040260200160405190810160405280929190818152602001828054610a4c9061207f565b8015610a995780601f10610a6e57610100808354040283529160200191610a99565b820191906000526020600020905b815481529060010190602001808311610a7c57829003601f168201915b50505050509150600960008673ffffffffffffffffffffffffffffffffffffffff1673ffffffffffffffffffffffffffffffffffffffff16815260200190815260200160002060008573ffffffffffffffffffffffffffffffffffffffff1673ffffffffffffffffffffffffffffffffffffffff16815260200190815260200160002083604051610b2a9190612039565b90815260200160405180910390206001018054610b469061207f565b80601f0160208091040260200160405190810160405280929190818152602001828054610b729061207f565b8015610bbf5780601f10610b9457610100808354040283529160200191610bbf565b820191906000526020600020905b815481529060010190602001808311610ba257829003601f168201915b50505050509050935093915050565b6001600260008473ffffffffffffffffffffffffffffffffffffffff1673ffffffffffffffffffffffffffffffffffffffff16815260200190815260200160002060006101000a81548160ff02191690831515021790555080600660008473ffffffffffffffffffffffffffffffffffffffff1673ffffffffffffffffffffffffffffffffffffffff1681526020019081526020016000209081610c72919061226c565b507f52d2250a74439a1966b3af244c06fb46fe5cd15b66ef97ce37cd8a4fedd7403a8282604051610ca492919061243c565b60405180910390a15050565b60018060008473ffffffffffffffffffffffffffffffffffffffff1673ffffffffffffffffffffffffffffffffffffffff16815260200190815260200160002060006101000a81548160ff02191690831515021790555080600560008473ffffffffffffffffffffffffffffffffffffffff1673ffffffffffffffffffffffffffffffffffffffff1681526020019081526020016000209081610d53919061226c565b507f05f61c0a0db439e10deb19e144239bc9962ed66941e65703c47bb12369f06f9b8282604051610d8592919061243c565b60405180910390a15050565b83600b60008b73ffffffffffffffffffffffffffffffffffffffff1673ffffffffffffffffffffffffffffffffffffffff16815260200190815260200160002082604051610ddf9190612039565b90815260200160405180910390206000019081610dfc919061226c565b5085600b60008b73ffffffffffffffffffffffffffffffffffffffff1673ffffffffffffffffffffffffffffffffffffffff16815260200190815260200160002082604051610e4b9190612039565b90815260200160405180910390206002019081610e68919061226c565b5084600b60008b73ffffffffffffffffffffffffffffffffffffffff1673ffffffffffffffffffffffffffffffffffffffff16815260200190815260200160002082604051610eb79190612039565b90815260200160405180910390206001019081610ed4919061226c565b5082600b60008b73ffffffffffffffffffffffffffffffffffffffff1673ffffffffffffffffffffffffffffffffffffffff16815260200190815260200160002082604051610f239190612039565b90815260200160405180910390206003019081610f40919061226c565b5081600b60008b73ffffffffffffffffffffffffffffffffffffffff1673ffffffffffffffffffffffffffffffffffffffff16815260200190815260200160002082604051610f8f9190612039565b908152602001604051809103902060040181905550600960008973ffffffffffffffffffffffffffffffffffffffff1673ffffffffffffffffffffffffffffffffffffffff16815260200190815260200160002060008873ffffffffffffffffffffffffffffffffffffffff1673ffffffffffffffffffffffffffffffffffffffff168152602001908152602001600020600a826040516110309190612039565b908152602001604051809103902060405161104b91906124ef565b9081526020016040518091039020600b60008b73ffffffffffffffffffffffffffffffffffffffff1673ffffffffffffffffffffffffffffffffffffffff168152602001908152602001600020826040516110a69190612039565b9081526020016040518091039020600501600082018160000190816110cb9190612354565b50600182018160010190816110e09190612354565b5060028201816002016000820160009054906101000a900473ffffffffffffffffffffffffffffffffffffffff168160000160006101000a81548173ffffffffffffffffffffffffffffffffffffffff021916908373ffffffffffffffffffffffffffffffffffffffff160217905550600182015481600101556002820154816002015560038201548160030155600482018160040190816111829190612354565b505050905050505050505050505050565b6060600080600080600860008873ffffffffffffffffffffffffffffffffffffffff1673ffffffffffffffffffffffffffffffffffffffff168152602001908152602001600020866040516111e89190612039565b908152602001604051809103902060040180546112049061207f565b80601f01602080910402602001604051908101604052809291908181526020018280546112309061207f565b801561127d5780601f106112525761010080835404028352916020019161127d565b820191906000526020600020905b81548152906001019060200180831161126057829003601f168201915b50505050509450600860008873ffffffffffffffffffffffffffffffffffffffff1673ffffffffffffffffffffffffffffffffffffffff168152602001908152602001600020866040516112d19190612039565b908152602001604051809103902060000160009054906101000a900473ffffffffffffffffffffffffffffffffffffffff169350600860008873ffffffffffffffffffffffffffffffffffffffff1673ffffffffffffffffffffffffffffffffffffffff168152602001908152602001600020866040516113529190612039565b9081526020016040518091039020600201549250600860008873ffffffffffffffffffffffffffffffffffffffff1673ffffffffffffffffffffffffffffffffffffffff168152602001908152602001600020866040516113b39190612039565b9081526020016040518091039020600301549150600860008873ffffffffffffffffffffffffffffffffffffffff1673ffffffffffffffffffffffffffffffffffffffff168152602001908152602001600020866040516114149190612039565b90815260200160405180910390206001015490509295509295909350565b60016000808473ffffffffffffffffffffffffffffffffffffffff1673ffffffffffffffffffffffffffffffffffffffff16815260200190815260200160002060006101000a81548160ff02191690831515021790555080600460008473ffffffffffffffffffffffffffffffffffffffff1673ffffffffffffffffffffffffffffffffffffffff16815260200190815260200160002090816114d5919061226c565b507fcd5007c1f083baec1024fa63f0d6728fb0e85e5eb620e0def97c4282cf32ff99828260405161150792919061243c565b60405180910390a15050565b85600860008973ffffffffffffffffffffffffffffffffffffffff1673ffffffffffffffffffffffffffffffffffffffff168152602001908152602001600020866040516115619190612039565b908152602001604051809103902060000160006101000a81548173ffffffffffffffffffffffffffffffffffffffff021916908373ffffffffffffffffffffffffffffffffffffffff16021790555083600860008973ffffffffffffffffffffffffffffffffffffffff1673ffffffffffffffffffffffffffffffffffffffff168152602001908152602001600020866040516115fe9190612039565b9081526020016040518091039020600401908161161b919061226c565b5082600860008973ffffffffffffffffffffffffffffffffffffffff1673ffffffffffffffffffffffffffffffffffffffff1681526020019081526020016000208660405161166a9190612039565b90815260200160405180910390206002018190555080600860008973ffffffffffffffffffffffffffffffffffffffff1673ffffffffffffffffffffffffffffffffffffffff168152602001908152602001600020866040516116cd9190612039565b90815260200160405180910390206003018190555081600860008973ffffffffffffffffffffffffffffffffffffffff1673ffffffffffffffffffffffffffffffffffffffff168152602001908152602001600020866040516117309190612039565b90815260200160405180910390206001018190555050505050505050565b6001600360008473ffffffffffffffffffffffffffffffffffffffff1673ffffffffffffffffffffffffffffffffffffffff16815260200190815260200160002060006101000a81548160ff02191690831515021790555080600760008473ffffffffffffffffffffffffffffffffffffffff1673ffffffffffffffffffffffffffffffffffffffff16815260200190815260200160002090816117f2919061226c565b507fbb1d92b487a3ad94ebd0d3f8005ac38869d7b8218dfa1b3aef46faddfd3a2fad828260405161182492919061243c565b60405180910390a15050565b6000604051905090565b600080fd5b600080fd5b600080fd5b600080fd5b6000601f19601f8301169050919050565b7f4e487b7100000000000000000000000000000000000000000000000000000000600052604160045260246000fd5b6118978261184e565b810181811067ffffffffffffffff821117156118b6576118b561185f565b5b80604052505050565b60006118c9611830565b90506118d5828261188e565b919050565b600067ffffffffffffffff8211156118f5576118f461185f565b5b6118fe8261184e565b9050602081019050919050565b82818337600083830152505050565b600061192d611928846118da565b6118bf565b90508281526020810184848401111561194957611948611849565b5b61195484828561190b565b509392505050565b600082601f83011261197157611970611844565b5b813561198184826020860161191a565b91505092915050565b600080604083850312156119a1576119a061183a565b5b600083013567ffffffffffffffff8111156119bf576119be61183f565b5b6119cb8582860161195c565b925050602083013567ffffffffffffffff8111156119ec576119eb61183f565b5b6119f88582860161195c565b9150509250929050565b600073ffffffffffffffffffffffffffffffffffffffff82169050919050565b6000611a2d82611a02565b9050919050565b611a3d81611a22565b8114611a4857600080fd5b50565b600081359050611a5a81611a34565b92915050565b600080600080600060a08688031215611a7c57611a7b61183a565b5b6000611a8a88828901611a4b565b9550506020611a9b88828901611a4b565b945050604086013567ffffffffffffffff811115611abc57611abb61183f565b5b611ac88882890161195c565b935050606086013567ffffffffffffffff811115611ae957611ae861183f565b5b611af58882890161195c565b925050608086013567ffffffffffffffff811115611b1657611b1561183f565b5b611b228882890161195c565b9150509295509295909350565b60008060408385031215611b4657611b4561183a565b5b6000611b5485828601611a4b565b925050602083013567ffffffffffffffff811115611b7557611b7461183f565b5b611b818582860161195c565b9150509250929050565b600081519050919050565b600082825260208201905092915050565b60005b83811015611bc5578082015181840152602081019050611baa565b60008484015250505050565b6000611bdc82611b8b565b611be68185611b96565b9350611bf6818560208601611ba7565b611bff8161184e565b840191505092915050565b6000819050919050565b611c1d81611c0a565b82525050565b600060a0820190508181036000830152611c3d8188611bd1565b90508181036020830152611c518187611bd1565b90508181036040830152611c658186611bd1565b90508181036060830152611c798185611bd1565b9050611c886080830184611c14565b9695505050505050565b600080600060608486031215611cab57611caa61183a565b5b6000611cb986828701611a4b565b9350506020611cca86828701611a4b565b925050604084013567ffffffffffffffff811115611ceb57611cea61183f565b5b611cf78682870161195c565b9150509250925092565b60006040820190508181036000830152611d1b8185611bd1565b90508181036020830152611d2f8184611bd1565b90509392505050565b611d4181611c0a565b8114611d4c57600080fd5b50565b600081359050611d5e81611d38565b92915050565b60008060008060008060008060006101208a8c031215611d8757611d8661183a565b5b6000611d958c828d01611a4b565b9950506020611da68c828d01611a4b565b9850506040611db78c828d01611a4b565b97505060608a013567ffffffffffffffff811115611dd857611dd761183f565b5b611de48c828d0161195c565b96505060808a013567ffffffffffffffff811115611e0557611e0461183f565b5b611e118c828d0161195c565b95505060a08a013567ffffffffffffffff811115611e3257611e3161183f565b5b611e3e8c828d0161195c565b94505060c08a013567ffffffffffffffff811115611e5f57611e5e61183f565b5b611e6b8c828d0161195c565b93505060e0611e7c8c828d01611d4f565b9250506101008a013567ffffffffffffffff811115611e9e57611e9d61183f565b5b611eaa8c828d0161195c565b9150509295985092959850929598565b611ec381611a22565b82525050565b600060a0820190508181036000830152611ee38188611bd1565b9050611ef26020830187611eba565b611eff6040830186611c14565b611f0c6060830185611c14565b611f196080830184611c14565b9695505050505050565b600080600080600080600060e0888a031215611f4257611f4161183a565b5b6000611f508a828b01611a4b565b9750506020611f618a828b01611a4b565b965050604088013567ffffffffffffffff811115611f8257611f8161183f565b5b611f8e8a828b0161195c565b955050606088013567ffffffffffffffff811115611faf57611fae61183f565b5b611fbb8a828b0161195c565b9450506080611fcc8a828b01611d4f565b93505060a0611fdd8a828b01611d4f565b92505060c0611fee8a828b01611d4f565b91505092959891949750929550565b600081905092915050565b600061201382611b8b565b61201d8185611ffd565b935061202d818560208601611ba7565b80840191505092915050565b60006120458284612008565b915081905092915050565b7f4e487b7100000000000000000000000000000000000000000000000000000000600052602260045260246000fd5b6000600282049050600182168061209757607f821691505b6020821081036120aa576120a9612050565b5b50919050565b60008190508160005260206000209050919050565b60006020601f8301049050919050565b60008160020a8302905092915050565b6000600883026121157fffffffffffffffffffffffffffffffffffffffffffffffffffffffffffffffff826120d5565b61211f86836120d5565b95508019841693508086168417925050509392505050565b6000819050919050565b6000819050919050565b600061216661216161215c84612137565b612141565b612137565b9050919050565b6000819050919050565b6121808361214b565b61219461218c8261216d565b8484546120e5565b825550505050565b600090565b6121a961219c565b6121b4818484612177565b505050565b5b818110156121d8576121cd6000826121a1565b6001810190506121ba565b5050565b601f82111561221d576121ee816120b0565b6121f7846120c5565b81016020851015612206578190505b61221a612212856120c5565b8301826121b9565b50505b505050565b60008160020a8304905092915050565b600061224360001984600802612222565b1980831691505092915050565b600061225c8383612232565b9150826002028217905092915050565b61227582611b8b565b67ffffffffffffffff81111561228e5761228d61185f565b5b612298825461207f565b6122a38282856121dc565b600060209050601f8311600181146122d657600084156122c4578287015190505b6122ce8582612250565b865550612336565b601f1984166122e4866120b0565b60005b8281101561230c578489015182556001820191506020850194506020810190506122e7565b868310156123295784890151612325601f891682612232565b8355505b6001600288020188555050505b505050505050565b60008154905061234d8161207f565b9050919050565b81810361236257505061243a565b61236b8261233e565b67ffffffffffffffff8111156123845761238361185f565b5b61238e825461207f565b6123998282856121dc565b6000601f8311600181146123c857600084156123b6578287015490505b6123c08582612250565b865550612433565b601f1984166123d6876120b0565b96506123e1866120b0565b60005b82811015612409578489015482556001820191506001850194506020810190506123e4565b868310156124265784890154612422601f891682612232565b8355505b6001600288020188555050505b5050505050505b565b60006040820190506124516000830185611eba565b81810360208301526124638184611bd1565b90509392505050565b600081546124798161207f565b6124838186611ffd565b9450600182166000811461249e57600181146124b3576124e6565b60ff19831686528115158202860193506124e6565b6124bc856120b0565b60005b838110156124de578154818901526001820191506020810190506124bf565b838801955050505b50505092915050565b60006124fb828461246c565b91508190509291505056fea2646970667358221220a8f5481a5393d1445235be1277aa87303298a082fb3690a7ac280d8a45da81f664736f6c63430008160033",
			"opcodes": "PUSH1 0x80 PUSH1 0x40 MSTORE CALLVALUE DUP1 ISZERO PUSH2 0x10 JUMPI PUSH1 0x0 DUP1 REVERT JUMPDEST POP PUSH2 0x253C DUP1 PUSH2 0x20 PUSH1 0x0 CODECOPY PUSH1 0x0 RETURN INVALID PUSH1 0x80 PUSH1 0x40 MSTORE CALLVALUE DUP1 ISZERO PUSH2 0x10 JUMPI PUSH1 0x0 DUP1 REVERT JUMPDEST POP PUSH1 0x4 CALLDATASIZE LT PUSH2 0xC6 JUMPI PUSH1 0x0 CALLDATALOAD PUSH29 0x100000000000000000000000000000000000000000000000000000000 SWAP1 DIV DUP1 PUSH4 0x78E5099B GT PUSH2 0x8E JUMPI DUP1 PUSH4 0x78E5099B EQ PUSH2 0x184 JUMPI DUP1 PUSH4 0x84730F7A EQ PUSH2 0x1A0 JUMPI DUP1 PUSH4 0x864A80B4 EQ PUSH2 0x1BC JUMPI DUP1 PUSH4 0x89671BF0 EQ PUSH2 0x1F0 JUMPI DUP1 PUSH4 0xA64AD3FF EQ PUSH2 0x20C JUMPI DUP1 PUSH4 0xE1277058 EQ PUSH2 0x228 JUMPI PUSH2 0xC6 JUMP JUMPDEST DUP1 PUSH4 0x10BDC518 EQ PUSH2 0xCB JUMPI DUP1 PUSH4 0x296C3AD1 EQ PUSH2 0xE7 JUMPI DUP1 PUSH4 0x37225024 EQ PUSH2 0x103 JUMPI DUP1 PUSH4 0x5B5100FF EQ PUSH2 0x137 JUMPI DUP1 PUSH4 0x75C6DA23 EQ PUSH2 0x168 JUMPI JUMPDEST PUSH1 0x0 DUP1 REVERT JUMPDEST PUSH2 0xE5 PUSH1 0x4 DUP1 CALLDATASIZE SUB DUP2 ADD SWAP1 PUSH2 0xE0 SWAP2 SWAP1 PUSH2 0x198A JUMP JUMPDEST PUSH2 0x244 JUMP JUMPDEST STOP JUMPDEST PUSH2 0x101 PUSH1 0x4 DUP1 CALLDATASIZE SUB DUP2 ADD SWAP1 PUSH2 0xFC SWAP2 SWAP1 PUSH2 0x1A60 JUMP JUMPDEST PUSH2 0x274 JUMP JUMPDEST STOP JUMPDEST PUSH2 0x11D PUSH1 0x4 DUP1 CALLDATASIZE SUB DUP2 ADD SWAP1 PUSH2 0x118 SWAP2 SWAP1 PUSH2 0x1B2F JUMP JUMPDEST PUSH2 0x560 JUMP JUMPDEST PUSH1 0x40 MLOAD PUSH2 0x12E SWAP6 SWAP5 SWAP4 SWAP3 SWAP2 SWAP1 PUSH2 0x1C23 JUMP JUMPDEST PUSH1 0x40 MLOAD DUP1 SWAP2 SUB SWAP1 RETURN JUMPDEST PUSH2 0x151 PUSH1 0x4 DUP1 CALLDATASIZE SUB DUP2 ADD SWAP1 PUSH2 0x14C SWAP2 SWAP1 PUSH2 0x1C92 JUMP JUMPDEST PUSH2 0x977 JUMP JUMPDEST PUSH1 0x40 MLOAD PUSH2 0x15F SWAP3 SWAP2 SWAP1 PUSH2 0x1D01 JUMP JUMPDEST PUSH1 0x40 MLOAD DUP1 SWAP2 SUB SWAP1 RETURN JUMPDEST PUSH2 0x182 PUSH1 0x4 DUP1 CALLDATASIZE SUB DUP2 ADD SWAP1 PUSH2 0x17D SWAP2 SWAP1 PUSH2 0x1B2F JUMP JUMPDEST PUSH2 0xBCE JUMP JUMPDEST STOP JUMPDEST PUSH2 0x19E PUSH1 0x4 DUP1 CALLDATASIZE SUB DUP2 ADD SWAP1 PUSH2 0x199 SWAP2 SWAP1 PUSH2 0x1B2F JUMP JUMPDEST PUSH2 0xCB0 JUMP JUMPDEST STOP JUMPDEST PUSH2 0x1BA PUSH1 0x4 DUP1 CALLDATASIZE SUB DUP2 ADD SWAP1 PUSH2 0x1B5 SWAP2 SWAP1 PUSH2 0x1D64 JUMP JUMPDEST PUSH2 0xD91 JUMP JUMPDEST STOP JUMPDEST PUSH2 0x1D6 PUSH1 0x4 DUP1 CALLDATASIZE SUB DUP2 ADD SWAP1 PUSH2 0x1D1 SWAP2 SWAP1 PUSH2 0x1B2F JUMP JUMPDEST PUSH2 0x1193 JUMP JUMPDEST PUSH1 0x40 MLOAD PUSH2 0x1E7 SWAP6 SWAP5 SWAP4 SWAP3 SWAP2 SWAP1 PUSH2 0x1EC9 JUMP JUMPDEST PUSH1 0x40 MLOAD DUP1 SWAP2 SUB SWAP1 RETURN JUMPDEST PUSH2 0x20A PUSH1 0x4 DUP1 CALLDATASIZE SUB DUP2 ADD SWAP1 PUSH2 0x205 SWAP2 SWAP1 PUSH2 0x1B2F JUMP JUMPDEST PUSH2 0x1432 JUMP JUMPDEST STOP JUMPDEST PUSH2 0x226 PUSH1 0x4 DUP1 CALLDATASIZE SUB DUP2 ADD SWAP1 PUSH2 0x221 SWAP2 SWAP1 PUSH2 0x1F23 JUMP JUMPDEST PUSH2 0x1513 JUMP JUMPDEST STOP JUMPDEST PUSH2 0x242 PUSH1 0x4 DUP1 CALLDATASIZE SUB DUP2 ADD SWAP1 PUSH2 0x23D SWAP2 SWAP1 PUSH2 0x1B2F JUMP JUMPDEST PUSH2 0x174E JUMP JUMPDEST STOP JUMPDEST DUP1 PUSH1 0xA DUP4 PUSH1 0x40 MLOAD PUSH2 0x255 SWAP2 SWAP1 PUSH2 0x2039 JUMP JUMPDEST SWAP1 DUP2 MSTORE PUSH1 0x20 ADD PUSH1 0x40 MLOAD DUP1 SWAP2 SUB SWAP1 KECCAK256 SWAP1 DUP2 PUSH2 0x26F SWAP2 SWAP1 PUSH2 0x226C JUMP JUMPDEST POP POP POP JUMP JUMPDEST DUP2 PUSH1 0x9 PUSH1 0x0 DUP8 PUSH20 0xFFFFFFFFFFFFFFFFFFFFFFFFFFFFFFFFFFFFFFFF AND PUSH20 0xFFFFFFFFFFFFFFFFFFFFFFFFFFFFFFFFFFFFFFFF AND DUP2 MSTORE PUSH1 0x20 ADD SWAP1 DUP2 MSTORE PUSH1 0x20 ADD PUSH1 0x0 KECCAK256 PUSH1 0x0 DUP7 PUSH20 0xFFFFFFFFFFFFFFFFFFFFFFFFFFFFFFFFFFFFFFFF AND PUSH20 0xFFFFFFFFFFFFFFFFFFFFFFFFFFFFFFFFFFFFFFFF AND DUP2 MSTORE PUSH1 0x20 ADD SWAP1 DUP2 MSTORE PUSH1 0x20 ADD PUSH1 0x0 KECCAK256 DUP5 PUSH1 0x40 MLOAD PUSH2 0x2FF SWAP2 SWAP1 PUSH2 0x2039 JUMP JUMPDEST SWAP1 DUP2 MSTORE PUSH1 0x20 ADD PUSH1 0x40 MLOAD DUP1 SWAP2 SUB SWAP1 KECCAK256 PUSH1 0x0 ADD SWAP1 DUP2 PUSH2 0x31C SWAP2 SWAP1 PUSH2 0x226C JUMP JUMPDEST POP DUP1 PUSH1 0x9 PUSH1 0x0 DUP8 PUSH20 0xFFFFFFFFFFFFFFFFFFFFFFFFFFFFFFFFFFFFFFFF AND PUSH20 0xFFFFFFFFFFFFFFFFFFFFFFFFFFFFFFFFFFFFFFFF AND DUP2 MSTORE PUSH1 0x20 ADD SWAP1 DUP2 MSTORE PUSH1 0x20 ADD PUSH1 0x0 KECCAK256 PUSH1 0x0 DUP7 PUSH20 0xFFFFFFFFFFFFFFFFFFFFFFFFFFFFFFFFFFFFFFFF AND PUSH20 0xFFFFFFFFFFFFFFFFFFFFFFFFFFFFFFFFFFFFFFFF AND DUP2 MSTORE PUSH1 0x20 ADD SWAP1 DUP2 MSTORE PUSH1 0x20 ADD PUSH1 0x0 KECCAK256 DUP5 PUSH1 0x40 MLOAD PUSH2 0x3A8 SWAP2 SWAP1 PUSH2 0x2039 JUMP JUMPDEST SWAP1 DUP2 MSTORE PUSH1 0x20 ADD PUSH1 0x40 MLOAD DUP1 SWAP2 SUB SWAP1 KECCAK256 PUSH1 0x1 ADD SWAP1 DUP2 PUSH2 0x3C5 SWAP2 SWAP1 PUSH2 0x226C JUMP JUMPDEST POP PUSH1 0x8 PUSH1 0x0 DUP6 PUSH20 0xFFFFFFFFFFFFFFFFFFFFFFFFFFFFFFFFFFFFFFFF AND PUSH20 0xFFFFFFFFFFFFFFFFFFFFFFFFFFFFFFFFFFFFFFFF AND DUP2 MSTORE PUSH1 0x20 ADD SWAP1 DUP2 MSTORE PUSH1 0x20 ADD PUSH1 0x0 KECCAK256 DUP4 PUSH1 0x40 MLOAD PUSH2 0x413 SWAP2 SWAP1 PUSH2 0x2039 JUMP JUMPDEST SWAP1 DUP2 MSTORE PUSH1 0x20 ADD PUSH1 0x40 MLOAD DUP1 SWAP2 SUB SWAP1 KECCAK256 PUSH1 0x9 PUSH1 0x0 DUP8 PUSH20 0xFFFFFFFFFFFFFFFFFFFFFFFFFFFFFFFFFFFFFFFF AND PUSH20 0xFFFFFFFFFFFFFFFFFFFFFFFFFFFFFFFFFFFFFFFF AND DUP2 MSTORE PUSH1 0x20 ADD SWAP1 DUP2 MSTORE PUSH1 0x20 ADD PUSH1 0x0 KECCAK256 PUSH1 0x0 DUP7 PUSH20 0xFFFFFFFFFFFFFFFFFFFFFFFFFFFFFFFFFFFFFFFF AND PUSH20 0xFFFFFFFFFFFFFFFFFFFFFFFFFFFFFFFFFFFFFFFF AND DUP2 MSTORE PUSH1 0x20 ADD SWAP1 DUP2 MSTORE PUSH1 0x20 ADD PUSH1 0x0 KECCAK256 DUP5 PUSH1 0x40 MLOAD PUSH2 0x4AB SWAP2 SWAP1 PUSH2 0x2039 JUMP JUMPDEST SWAP1 DUP2 MSTORE PUSH1 0x20 ADD PUSH1 0x40 MLOAD DUP1 SWAP2 SUB SWAP1 KECCAK256 PUSH1 0x2 ADD PUSH1 0x0 DUP3 ADD PUSH1 0x0 SWAP1 SLOAD SWAP1 PUSH2 0x100 EXP SWAP1 DIV PUSH20 0xFFFFFFFFFFFFFFFFFFFFFFFFFFFFFFFFFFFFFFFF AND DUP2 PUSH1 0x0 ADD PUSH1 0x0 PUSH2 0x100 EXP DUP2 SLOAD DUP2 PUSH20 0xFFFFFFFFFFFFFFFFFFFFFFFFFFFFFFFFFFFFFFFF MUL NOT AND SWAP1 DUP4 PUSH20 0xFFFFFFFFFFFFFFFFFFFFFFFFFFFFFFFFFFFFFFFF AND MUL OR SWAP1 SSTORE POP PUSH1 0x1 DUP3 ADD SLOAD DUP2 PUSH1 0x1 ADD SSTORE PUSH1 0x2 DUP3 ADD SLOAD DUP2 PUSH1 0x2 ADD SSTORE PUSH1 0x3 DUP3 ADD SLOAD DUP2 PUSH1 0x3 ADD SSTORE PUSH1 0x4 DUP3 ADD DUP2 PUSH1 0x4 ADD SWAP1 DUP2 PUSH2 0x555 SWAP2 SWAP1 PUSH2 0x2354 JUMP JUMPDEST POP SWAP1 POP POP POP POP POP POP POP JUMP JUMPDEST PUSH1 0x60 DUP1 PUSH1 0x60 DUP1 PUSH1 0x0 PUSH1 0xB PUSH1 0x0 DUP9 PUSH20 0xFFFFFFFFFFFFFFFFFFFFFFFFFFFFFFFFFFFFFFFF AND PUSH20 0xFFFFFFFFFFFFFFFFFFFFFFFFFFFFFFFFFFFFFFFF AND DUP2 MSTORE PUSH1 0x20 ADD SWAP1 DUP2 MSTORE PUSH1 0x20 ADD PUSH1 0x0 KECCAK256 DUP7 PUSH1 0x40 MLOAD PUSH2 0x5B5 SWAP2 SWAP1 PUSH2 0x2039 JUMP JUMPDEST SWAP1 DUP2 MSTORE PUSH1 0x20 ADD PUSH1 0x40 MLOAD DUP1 SWAP2 SUB SWAP1 KECCAK256 PUSH1 0x0 ADD DUP1 SLOAD PUSH2 0x5D1 SWAP1 PUSH2 0x207F JUMP JUMPDEST DUP1 PUSH1 0x1F ADD PUSH1 0x20 DUP1 SWAP2 DIV MUL PUSH1 0x20 ADD PUSH1 0x40 MLOAD SWAP1 DUP2 ADD PUSH1 0x40 MSTORE DUP1 SWAP3 SWAP2 SWAP1 DUP2 DUP2 MSTORE PUSH1 0x20 ADD DUP3 DUP1 SLOAD PUSH2 0x5FD SWAP1 PUSH2 0x207F JUMP JUMPDEST DUP1 ISZERO PUSH2 0x64A JUMPI DUP1 PUSH1 0x1F LT PUSH2 0x61F JUMPI PUSH2 0x100 DUP1 DUP4 SLOAD DIV MUL DUP4 MSTORE SWAP2 PUSH1 0x20 ADD SWAP2 PUSH2 0x64A JUMP JUMPDEST DUP3 ADD SWAP2 SWAP1 PUSH1 0x0 MSTORE PUSH1 0x20 PUSH1 0x0 KECCAK256 SWAP1 JUMPDEST DUP2 SLOAD DUP2 MSTORE SWAP1 PUSH1 0x1 ADD SWAP1 PUSH1 0x20 ADD DUP1 DUP4 GT PUSH2 0x62D JUMPI DUP3 SWAP1 SUB PUSH1 0x1F AND DUP3 ADD SWAP2 JUMPDEST POP POP POP POP POP SWAP5 POP PUSH1 0xB PUSH1 0x0 DUP9 PUSH20 0xFFFFFFFFFFFFFFFFFFFFFFFFFFFFFFFFFFFFFFFF AND PUSH20 0xFFFFFFFFFFFFFFFFFFFFFFFFFFFFFFFFFFFFFFFF AND DUP2 MSTORE PUSH1 0x20 ADD SWAP1 DUP2 MSTORE PUSH1 0x20 ADD PUSH1 0x0 KECCAK256 DUP7 PUSH1 0x40 MLOAD PUSH2 0x69E SWAP2 SWAP1 PUSH2 0x2039 JUMP JUMPDEST SWAP1 DUP2 MSTORE PUSH1 0x20 ADD PUSH1 0x40 MLOAD DUP1 SWAP2 SUB SWAP1 KECCAK256 PUSH1 0x2 ADD DUP1 SLOAD PUSH2 0x6BA SWAP1 PUSH2 0x207F JUMP JUMPDEST DUP1 PUSH1 0x1F ADD PUSH1 0x20 DUP1 SWAP2 DIV MUL PUSH1 0x20 ADD PUSH1 0x40 MLOAD SWAP1 DUP2 ADD PUSH1 0x40 MSTORE DUP1 SWAP3 SWAP2 SWAP1 DUP2 DUP2 MSTORE PUSH1 0x20 ADD DUP3 DUP1 SLOAD PUSH2 0x6E6 SWAP1 PUSH2 0x207F JUMP JUMPDEST DUP1 ISZERO PUSH2 0x733 JUMPI DUP1 PUSH1 0x1F LT PUSH2 0x708 JUMPI PUSH2 0x100 DUP1 DUP4 SLOAD DIV MUL DUP4 MSTORE SWAP2 PUSH1 0x20 ADD SWAP2 PUSH2 0x733 JUMP JUMPDEST DUP3 ADD SWAP2 SWAP1 PUSH1 0x0 MSTORE PUSH1 0x20 PUSH1 0x0 KECCAK256 SWAP1 JUMPDEST DUP2 SLOAD DUP2 MSTORE SWAP1 PUSH1 0x1 ADD SWAP1 PUSH1 0x20 ADD DUP1 DUP4 GT PUSH2 0x716 JUMPI DUP3 SWAP1 SUB PUSH1 0x1F AND DUP3 ADD SWAP2 JUMPDEST POP POP POP POP POP SWAP4 POP PUSH1 0xB PUSH1 0x0 DUP9 PUSH20 0xFFFFFFFFFFFFFFFFFFFFFFFFFFFFFFFFFFFFFFFF AND PUSH20 0xFFFFFFFFFFFFFFFFFFFFFFFFFFFFFFFFFFFFFFFF AND DUP2 MSTORE PUSH1 0x20 ADD SWAP1 DUP2 MSTORE PUSH1 0x20 ADD PUSH1 0x0 KECCAK256 DUP7 PUSH1 0x40 MLOAD PUSH2 0x787 SWAP2 SWAP1 PUSH2 0x2039 JUMP JUMPDEST SWAP1 DUP2 MSTORE PUSH1 0x20 ADD PUSH1 0x40 MLOAD DUP1 SWAP2 SUB SWAP1 KECCAK256 PUSH1 0x1 ADD DUP1 SLOAD PUSH2 0x7A3 SWAP1 PUSH2 0x207F JUMP JUMPDEST DUP1 PUSH1 0x1F ADD PUSH1 0x20 DUP1 SWAP2 DIV MUL PUSH1 0x20 ADD PUSH1 0x40 MLOAD SWAP1 DUP2 ADD PUSH1 0x40 MSTORE DUP1 SWAP3 SWAP2 SWAP1 DUP2 DUP2 MSTORE PUSH1 0x20 ADD DUP3 DUP1 SLOAD PUSH2 0x7CF SWAP1 PUSH2 0x207F JUMP JUMPDEST DUP1 ISZERO PUSH2 0x81C JUMPI DUP1 PUSH1 0x1F LT PUSH2 0x7F1 JUMPI PUSH2 0x100 DUP1 DUP4 SLOAD DIV MUL DUP4 MSTORE SWAP2 PUSH1 0x20 ADD SWAP2 PUSH2 0x81C JUMP JUMPDEST DUP3 ADD SWAP2 SWAP1 PUSH1 0x0 MSTORE PUSH1 0x20 PUSH1 0x0 KECCAK256 SWAP1 JUMPDEST DUP2 SLOAD DUP2 MSTORE SWAP1 PUSH1 0x1 ADD SWAP1 PUSH1 0x20 ADD DUP1 DUP4 GT PUSH2 0x7FF JUMPI DUP3 SWAP1 SUB PUSH1 0x1F AND DUP3 ADD SWAP2 JUMPDEST POP POP POP POP POP SWAP3 POP PUSH1 0xB PUSH1 0x0 DUP9 PUSH20 0xFFFFFFFFFFFFFFFFFFFFFFFFFFFFFFFFFFFFFFFF AND PUSH20 0xFFFFFFFFFFFFFFFFFFFFFFFFFFFFFFFFFFFFFFFF AND DUP2 MSTORE PUSH1 0x20 ADD SWAP1 DUP2 MSTORE PUSH1 0x20 ADD PUSH1 0x0 KECCAK256 DUP7 PUSH1 0x40 MLOAD PUSH2 0x870 SWAP2 SWAP1 PUSH2 0x2039 JUMP JUMPDEST SWAP1 DUP2 MSTORE PUSH1 0x20 ADD PUSH1 0x40 MLOAD DUP1 SWAP2 SUB SWAP1 KECCAK256 PUSH1 0x3 ADD DUP1 SLOAD PUSH2 0x88C SWAP1 PUSH2 0x207F JUMP JUMPDEST DUP1 PUSH1 0x1F ADD PUSH1 0x20 DUP1 SWAP2 DIV MUL PUSH1 0x20 ADD PUSH1 0x40 MLOAD SWAP1 DUP2 ADD PUSH1 0x40 MSTORE DUP1 SWAP3 SWAP2 SWAP1 DUP2 DUP2 MSTORE PUSH1 0x20 ADD DUP3 DUP1 SLOAD PUSH2 0x8B8 SWAP1 PUSH2 0x207F JUMP JUMPDEST DUP1 ISZERO PUSH2 0x905 JUMPI DUP1 PUSH1 0x1F LT PUSH2 0x8DA JUMPI PUSH2 0x100 DUP1 DUP4 SLOAD DIV MUL DUP4 MSTORE SWAP2 PUSH1 0x20 ADD SWAP2 PUSH2 0x905 JUMP JUMPDEST DUP3 ADD SWAP2 SWAP1 PUSH1 0x0 MSTORE PUSH1 0x20 PUSH1 0x0 KECCAK256 SWAP1 JUMPDEST DUP2 SLOAD DUP2 MSTORE SWAP1 PUSH1 0x1 ADD SWAP1 PUSH1 0x20 ADD DUP1 DUP4 GT PUSH2 0x8E8 JUMPI DUP3 SWAP1 SUB PUSH1 0x1F AND DUP3 ADD SWAP2 JUMPDEST POP POP POP POP POP SWAP2 POP PUSH1 0xB PUSH1 0x0 DUP9 PUSH20 0xFFFFFFFFFFFFFFFFFFFFFFFFFFFFFFFFFFFFFFFF AND PUSH20 0xFFFFFFFFFFFFFFFFFFFFFFFFFFFFFFFFFFFFFFFF AND DUP2 MSTORE PUSH1 0x20 ADD SWAP1 DUP2 MSTORE PUSH1 0x20 ADD PUSH1 0x0 KECCAK256 DUP7 PUSH1 0x40 MLOAD PUSH2 0x959 SWAP2 SWAP1 PUSH2 0x2039 JUMP JUMPDEST SWAP1 DUP2 MSTORE PUSH1 0x20 ADD PUSH1 0x40 MLOAD DUP1 SWAP2 SUB SWAP1 KECCAK256 PUSH1 0x4 ADD SLOAD SWAP1 POP SWAP3 SWAP6 POP SWAP3 SWAP6 SWAP1 SWAP4 POP JUMP JUMPDEST PUSH1 0x60 DUP1 PUSH1 0x9 PUSH1 0x0 DUP7 PUSH20 0xFFFFFFFFFFFFFFFFFFFFFFFFFFFFFFFFFFFFFFFF AND PUSH20 0xFFFFFFFFFFFFFFFFFFFFFFFFFFFFFFFFFFFFFFFF AND DUP2 MSTORE PUSH1 0x20 ADD SWAP1 DUP2 MSTORE PUSH1 0x20 ADD PUSH1 0x0 KECCAK256 PUSH1 0x0 DUP6 PUSH20 0xFFFFFFFFFFFFFFFFFFFFFFFFFFFFFFFFFFFFFFFF AND PUSH20 0xFFFFFFFFFFFFFFFFFFFFFFFFFFFFFFFFFFFFFFFF AND DUP2 MSTORE PUSH1 0x20 ADD SWAP1 DUP2 MSTORE PUSH1 0x20 ADD PUSH1 0x0 KECCAK256 DUP4 PUSH1 0x40 MLOAD PUSH2 0xA04 SWAP2 SWAP1 PUSH2 0x2039 JUMP JUMPDEST SWAP1 DUP2 MSTORE PUSH1 0x20 ADD PUSH1 0x40 MLOAD DUP1 SWAP2 SUB SWAP1 KECCAK256 PUSH1 0x0 ADD DUP1 SLOAD PUSH2 0xA20 SWAP1 PUSH2 0x207F JUMP JUMPDEST DUP1 PUSH1 0x1F ADD PUSH1 0x20 DUP1 SWAP2 DIV MUL PUSH1 0x20 ADD PUSH1 0x40 MLOAD SWAP1 DUP2 ADD PUSH1 0x40 MSTORE DUP1 SWAP3 SWAP2 SWAP1 DUP2 DUP2 MSTORE PUSH1 0x20 ADD DUP3 DUP1 SLOAD PUSH2 0xA4C SWAP1 PUSH2 0x207F JUMP JUMPDEST DUP1 ISZERO PUSH2 0xA99 JUMPI DUP1 PUSH1 0x1F LT PUSH2 0xA6E JUMPI PUSH2 0x100 DUP1 DUP4 SLOAD DIV MUL DUP4 MSTORE SWAP2 PUSH1 0x20 ADD SWAP2 PUSH2 0xA99 JUMP JUMPDEST DUP3 ADD SWAP2 SWAP1 PUSH1 0x0 MSTORE PUSH1 0x20 PUSH1 0x0 KECCAK256 SWAP1 JUMPDEST DUP2 SLOAD DUP2 MSTORE SWAP1 PUSH1 0x1 ADD SWAP1 PUSH1 0x20 ADD DUP1 DUP4 GT PUSH2 0xA7C JUMPI DUP3 SWAP1 SUB PUSH1 0x1F AND DUP3 ADD SWAP2 JUMPDEST POP POP POP POP POP SWAP2 POP PUSH1 0x9 PUSH1 0x0 DUP7 PUSH20 0xFFFFFFFFFFFFFFFFFFFFFFFFFFFFFFFFFFFFFFFF AND PUSH20 0xFFFFFFFFFFFFFFFFFFFFFFFFFFFFFFFFFFFFFFFF AND DUP2 MSTORE PUSH1 0x20 ADD SWAP1 DUP2 MSTORE PUSH1 0x20 ADD PUSH1 0x0 KECCAK256 PUSH1 0x0 DUP6 PUSH20 0xFFFFFFFFFFFFFFFFFFFFFFFFFFFFFFFFFFFFFFFF AND PUSH20 0xFFFFFFFFFFFFFFFFFFFFFFFFFFFFFFFFFFFFFFFF AND DUP2 MSTORE PUSH1 0x20 ADD SWAP1 DUP2 MSTORE PUSH1 0x20 ADD PUSH1 0x0 KECCAK256 DUP4 PUSH1 0x40 MLOAD PUSH2 0xB2A SWAP2 SWAP1 PUSH2 0x2039 JUMP JUMPDEST SWAP1 DUP2 MSTORE PUSH1 0x20 ADD PUSH1 0x40 MLOAD DUP1 SWAP2 SUB SWAP1 KECCAK256 PUSH1 0x1 ADD DUP1 SLOAD PUSH2 0xB46 SWAP1 PUSH2 0x207F JUMP JUMPDEST DUP1 PUSH1 0x1F ADD PUSH1 0x20 DUP1 SWAP2 DIV MUL PUSH1 0x20 ADD PUSH1 0x40 MLOAD SWAP1 DUP2 ADD PUSH1 0x40 MSTORE DUP1 SWAP3 SWAP2 SWAP1 DUP2 DUP2 MSTORE PUSH1 0x20 ADD DUP3 DUP1 SLOAD PUSH2 0xB72 SWAP1 PUSH2 0x207F JUMP JUMPDEST DUP1 ISZERO PUSH2 0xBBF JUMPI DUP1 PUSH1 0x1F LT PUSH2 0xB94 JUMPI PUSH2 0x100 DUP1 DUP4 SLOAD DIV MUL DUP4 MSTORE SWAP2 PUSH1 0x20 ADD SWAP2 PUSH2 0xBBF JUMP JUMPDEST DUP3 ADD SWAP2 SWAP1 PUSH1 0x0 MSTORE PUSH1 0x20 PUSH1 0x0 KECCAK256 SWAP1 JUMPDEST DUP2 SLOAD DUP2 MSTORE SWAP1 PUSH1 0x1 ADD SWAP1 PUSH1 0x20 ADD DUP1 DUP4 GT PUSH2 0xBA2 JUMPI DUP3 SWAP1 SUB PUSH1 0x1F AND DUP3 ADD SWAP2 JUMPDEST POP POP POP POP POP SWAP1 POP SWAP4 POP SWAP4 SWAP2 POP POP JUMP JUMPDEST PUSH1 0x1 PUSH1 0x2 PUSH1 0x0 DUP5 PUSH20 0xFFFFFFFFFFFFFFFFFFFFFFFFFFFFFFFFFFFFFFFF AND PUSH20 0xFFFFFFFFFFFFFFFFFFFFFFFFFFFFFFFFFFFFFFFF AND DUP2 MSTORE PUSH1 0x20 ADD SWAP1 DUP2 MSTORE PUSH1 0x20 ADD PUSH1 0x0 KECCAK256 PUSH1 0x0 PUSH2 0x100 EXP DUP2 SLOAD DUP2 PUSH1 0xFF MUL NOT AND SWAP1 DUP4 ISZERO ISZERO MUL OR SWAP1 SSTORE POP DUP1 PUSH1 0x6 PUSH1 0x0 DUP5 PUSH20 0xFFFFFFFFFFFFFFFFFFFFFFFFFFFFFFFFFFFFFFFF AND PUSH20 0xFFFFFFFFFFFFFFFFFFFFFFFFFFFFFFFFFFFFFFFF AND DUP2 MSTORE PUSH1 0x20 ADD SWAP1 DUP2 MSTORE PUSH1 0x20 ADD PUSH1 0x0 KECCAK256 SWAP1 DUP2 PUSH2 0xC72 SWAP2 SWAP1 PUSH2 0x226C JUMP JUMPDEST POP PUSH32 0x52D2250A74439A1966B3AF244C06FB46FE5CD15B66EF97CE37CD8A4FEDD7403A DUP3 DUP3 PUSH1 0x40 MLOAD PUSH2 0xCA4 SWAP3 SWAP2 SWAP1 PUSH2 0x243C JUMP JUMPDEST PUSH1 0x40 MLOAD DUP1 SWAP2 SUB SWAP1 LOG1 POP POP JUMP JUMPDEST PUSH1 0x1 DUP1 PUSH1 0x0 DUP5 PUSH20 0xFFFFFFFFFFFFFFFFFFFFFFFFFFFFFFFFFFFFFFFF AND PUSH20 0xFFFFFFFFFFFFFFFFFFFFFFFFFFFFFFFFFFFFFFFF AND DUP2 MSTORE PUSH1 0x20 ADD SWAP1 DUP2 MSTORE PUSH1 0x20 ADD PUSH1 0x0 KECCAK256 PUSH1 0x0 PUSH2 0x100 EXP DUP2 SLOAD DUP2 PUSH1 0xFF MUL NOT AND SWAP1 DUP4 ISZERO ISZERO MUL OR SWAP1 SSTORE POP DUP1 PUSH1 0x5 PUSH1 0x0 DUP5 PUSH20 0xFFFFFFFFFFFFFFFFFFFFFFFFFFFFFFFFFFFFFFFF AND PUSH20 0xFFFFFFFFFFFFFFFFFFFFFFFFFFFFFFFFFFFFFFFF AND DUP2 MSTORE PUSH1 0x20 ADD SWAP1 DUP2 MSTORE PUSH1 0x20 ADD PUSH1 0x0 KECCAK256 SWAP1 DUP2 PUSH2 0xD53 SWAP2 SWAP1 PUSH2 0x226C JUMP JUMPDEST POP PUSH32 0x5F61C0A0DB439E10DEB19E144239BC9962ED66941E65703C47BB12369F06F9B DUP3 DUP3 PUSH1 0x40 MLOAD PUSH2 0xD85 SWAP3 SWAP2 SWAP1 PUSH2 0x243C JUMP JUMPDEST PUSH1 0x40 MLOAD DUP1 SWAP2 SUB SWAP1 LOG1 POP POP JUMP JUMPDEST DUP4 PUSH1 0xB PUSH1 0x0 DUP12 PUSH20 0xFFFFFFFFFFFFFFFFFFFFFFFFFFFFFFFFFFFFFFFF AND PUSH20 0xFFFFFFFFFFFFFFFFFFFFFFFFFFFFFFFFFFFFFFFF AND DUP2 MSTORE PUSH1 0x20 ADD SWAP1 DUP2 MSTORE PUSH1 0x20 ADD PUSH1 0x0 KECCAK256 DUP3 PUSH1 0x40 MLOAD PUSH2 0xDDF SWAP2 SWAP1 PUSH2 0x2039 JUMP JUMPDEST SWAP1 DUP2 MSTORE PUSH1 0x20 ADD PUSH1 0x40 MLOAD DUP1 SWAP2 SUB SWAP1 KECCAK256 PUSH1 0x0 ADD SWAP1 DUP2 PUSH2 0xDFC SWAP2 SWAP1 PUSH2 0x226C JUMP JUMPDEST POP DUP6 PUSH1 0xB PUSH1 0x0 DUP12 PUSH20 0xFFFFFFFFFFFFFFFFFFFFFFFFFFFFFFFFFFFFFFFF AND PUSH20 0xFFFFFFFFFFFFFFFFFFFFFFFFFFFFFFFFFFFFFFFF AND DUP2 MSTORE PUSH1 0x20 ADD SWAP1 DUP2 MSTORE PUSH1 0x20 ADD PUSH1 0x0 KECCAK256 DUP3 PUSH1 0x40 MLOAD PUSH2 0xE4B SWAP2 SWAP1 PUSH2 0x2039 JUMP JUMPDEST SWAP1 DUP2 MSTORE PUSH1 0x20 ADD PUSH1 0x40 MLOAD DUP1 SWAP2 SUB SWAP1 KECCAK256 PUSH1 0x2 ADD SWAP1 DUP2 PUSH2 0xE68 SWAP2 SWAP1 PUSH2 0x226C JUMP JUMPDEST POP DUP5 PUSH1 0xB PUSH1 0x0 DUP12 PUSH20 0xFFFFFFFFFFFFFFFFFFFFFFFFFFFFFFFFFFFFFFFF AND PUSH20 0xFFFFFFFFFFFFFFFFFFFFFFFFFFFFFFFFFFFFFFFF AND DUP2 MSTORE PUSH1 0x20 ADD SWAP1 DUP2 MSTORE PUSH1 0x20 ADD PUSH1 0x0 KECCAK256 DUP3 PUSH1 0x40 MLOAD PUSH2 0xEB7 SWAP2 SWAP1 PUSH2 0x2039 JUMP JUMPDEST SWAP1 DUP2 MSTORE PUSH1 0x20 ADD PUSH1 0x40 MLOAD DUP1 SWAP2 SUB SWAP1 KECCAK256 PUSH1 0x1 ADD SWAP1 DUP2 PUSH2 0xED4 SWAP2 SWAP1 PUSH2 0x226C JUMP JUMPDEST POP DUP3 PUSH1 0xB PUSH1 0x0 DUP12 PUSH20 0xFFFFFFFFFFFFFFFFFFFFFFFFFFFFFFFFFFFFFFFF AND PUSH20 0xFFFFFFFFFFFFFFFFFFFFFFFFFFFFFFFFFFFFFFFF AND DUP2 MSTORE PUSH1 0x20 ADD SWAP1 DUP2 MSTORE PUSH1 0x20 ADD PUSH1 0x0 KECCAK256 DUP3 PUSH1 0x40 MLOAD PUSH2 0xF23 SWAP2 SWAP1 PUSH2 0x2039 JUMP JUMPDEST SWAP1 DUP2 MSTORE PUSH1 0x20 ADD PUSH1 0x40 MLOAD DUP1 SWAP2 SUB SWAP1 KECCAK256 PUSH1 0x3 ADD SWAP1 DUP2 PUSH2 0xF40 SWAP2 SWAP1 PUSH2 0x226C JUMP JUMPDEST POP DUP2 PUSH1 0xB PUSH1 0x0 DUP12 PUSH20 0xFFFFFFFFFFFFFFFFFFFFFFFFFFFFFFFFFFFFFFFF AND PUSH20 0xFFFFFFFFFFFFFFFFFFFFFFFFFFFFFFFFFFFFFFFF AND DUP2 MSTORE PUSH1 0x20 ADD SWAP1 DUP2 MSTORE PUSH1 0x20 ADD PUSH1 0x0 KECCAK256 DUP3 PUSH1 0x40 MLOAD PUSH2 0xF8F SWAP2 SWAP1 PUSH2 0x2039 JUMP JUMPDEST SWAP1 DUP2 MSTORE PUSH1 0x20 ADD PUSH1 0x40 MLOAD DUP1 SWAP2 SUB SWAP1 KECCAK256 PUSH1 0x4 ADD DUP2 SWAP1 SSTORE POP PUSH1 0x9 PUSH1 0x0 DUP10 PUSH20 0xFFFFFFFFFFFFFFFFFFFFFFFFFFFFFFFFFFFFFFFF AND PUSH20 0xFFFFFFFFFFFFFFFFFFFFFFFFFFFFFFFFFFFFFFFF AND DUP2 MSTORE PUSH1 0x20 ADD SWAP1 DUP2 MSTORE PUSH1 0x20 ADD PUSH1 0x0 KECCAK256 PUSH1 0x0 DUP9 PUSH20 0xFFFFFFFFFFFFFFFFFFFFFFFFFFFFFFFFFFFFFFFF AND PUSH20 0xFFFFFFFFFFFFFFFFFFFFFFFFFFFFFFFFFFFFFFFF AND DUP2 MSTORE PUSH1 0x20 ADD SWAP1 DUP2 MSTORE PUSH1 0x20 ADD PUSH1 0x0 KECCAK256 PUSH1 0xA DUP3 PUSH1 0x40 MLOAD PUSH2 0x1030 SWAP2 SWAP1 PUSH2 0x2039 JUMP JUMPDEST SWAP1 DUP2 MSTORE PUSH1 0x20 ADD PUSH1 0x40 MLOAD DUP1 SWAP2 SUB SWAP1 KECCAK256 PUSH1 0x40 MLOAD PUSH2 0x104B SWAP2 SWAP1 PUSH2 0x24EF JUMP JUMPDEST SWAP1 DUP2 MSTORE PUSH1 0x20 ADD PUSH1 0x40 MLOAD DUP1 SWAP2 SUB SWAP1 KECCAK256 PUSH1 0xB PUSH1 0x0 DUP12 PUSH20 0xFFFFFFFFFFFFFFFFFFFFFFFFFFFFFFFFFFFFFFFF AND PUSH20 0xFFFFFFFFFFFFFFFFFFFFFFFFFFFFFFFFFFFFFFFF AND DUP2 MSTORE PUSH1 0x20 ADD SWAP1 DUP2 MSTORE PUSH1 0x20 ADD PUSH1 0x0 KECCAK256 DUP3 PUSH1 0x40 MLOAD PUSH2 0x10A6 SWAP2 SWAP1 PUSH2 0x2039 JUMP JUMPDEST SWAP1 DUP2 MSTORE PUSH1 0x20 ADD PUSH1 0x40 MLOAD DUP1 SWAP2 SUB SWAP1 KECCAK256 PUSH1 0x5 ADD PUSH1 0x0 DUP3 ADD DUP2 PUSH1 0x0 ADD SWAP1 DUP2 PUSH2 0x10CB SWAP2 SWAP1 PUSH2 0x2354 JUMP JUMPDEST POP PUSH1 0x1 DUP3 ADD DUP2 PUSH1 0x1 ADD SWAP1 DUP2 PUSH2 0x10E0 SWAP2 SWAP1 PUSH2 0x2354 JUMP JUMPDEST POP PUSH1 0x2 DUP3 ADD DUP2 PUSH1 0x2 ADD PUSH1 0x0 DUP3 ADD PUSH1 0x0 SWAP1 SLOAD SWAP1 PUSH2 0x100 EXP SWAP1 DIV PUSH20 0xFFFFFFFFFFFFFFFFFFFFFFFFFFFFFFFFFFFFFFFF AND DUP2 PUSH1 0x0 ADD PUSH1 0x0 PUSH2 0x100 EXP DUP2 SLOAD DUP2 PUSH20 0xFFFFFFFFFFFFFFFFFFFFFFFFFFFFFFFFFFFFFFFF MUL NOT AND SWAP1 DUP4 PUSH20 0xFFFFFFFFFFFFFFFFFFFFFFFFFFFFFFFFFFFFFFFF AND MUL OR SWAP1 SSTORE POP PUSH1 0x1 DUP3 ADD SLOAD DUP2 PUSH1 0x1 ADD SSTORE PUSH1 0x2 DUP3 ADD SLOAD DUP2 PUSH1 0x2 ADD SSTORE PUSH1 0x3 DUP3 ADD SLOAD DUP2 PUSH1 0x3 ADD SSTORE PUSH1 0x4 DUP3 ADD DUP2 PUSH1 0x4 ADD SWAP1 DUP2 PUSH2 0x1182 SWAP2 SWAP1 PUSH2 0x2354 JUMP JUMPDEST POP POP POP SWAP1 POP POP POP POP POP POP POP POP POP POP POP JUMP JUMPDEST PUSH1 0x60 PUSH1 0x0 DUP1 PUSH1 0x0 DUP1 PUSH1 0x8 PUSH1 0x0 DUP9 PUSH20 0xFFFFFFFFFFFFFFFFFFFFFFFFFFFFFFFFFFFFFFFF AND PUSH20 0xFFFFFFFFFFFFFFFFFFFFFFFFFFFFFFFFFFFFFFFF AND DUP2 MSTORE PUSH1 0x20 ADD SWAP1 DUP2 MSTORE PUSH1 0x20 ADD PUSH1 0x0 KECCAK256 DUP7 PUSH1 0x40 MLOAD PUSH2 0x11E8 SWAP2 SWAP1 PUSH2 0x2039 JUMP JUMPDEST SWAP1 DUP2 MSTORE PUSH1 0x20 ADD PUSH1 0x40 MLOAD DUP1 SWAP2 SUB SWAP1 KECCAK256 PUSH1 0x4 ADD DUP1 SLOAD PUSH2 0x1204 SWAP1 PUSH2 0x207F JUMP JUMPDEST DUP1 PUSH1 0x1F ADD PUSH1 0x20 DUP1 SWAP2 DIV MUL PUSH1 0x20 ADD PUSH1 0x40 MLOAD SWAP1 DUP2 ADD PUSH1 0x40 MSTORE DUP1 SWAP3 SWAP2 SWAP1 DUP2 DUP2 MSTORE PUSH1 0x20 ADD DUP3 DUP1 SLOAD PUSH2 0x1230 SWAP1 PUSH2 0x207F JUMP JUMPDEST DUP1 ISZERO PUSH2 0x127D JUMPI DUP1 PUSH1 0x1F LT PUSH2 0x1252 JUMPI PUSH2 0x100 DUP1 DUP4 SLOAD DIV MUL DUP4 MSTORE SWAP2 PUSH1 0x20 ADD SWAP2 PUSH2 0x127D JUMP JUMPDEST DUP3 ADD SWAP2 SWAP1 PUSH1 0x0 MSTORE PUSH1 0x20 PUSH1 0x0 KECCAK256 SWAP1 JUMPDEST DUP2 SLOAD DUP2 MSTORE SWAP1 PUSH1 0x1 ADD SWAP1 PUSH1 0x20 ADD DUP1 DUP4 GT PUSH2 0x1260 JUMPI DUP3 SWAP1 SUB PUSH1 0x1F AND DUP3 ADD SWAP2 JUMPDEST POP POP POP POP POP SWAP5 POP PUSH1 0x8 PUSH1 0x0 DUP9 PUSH20 0xFFFFFFFFFFFFFFFFFFFFFFFFFFFFFFFFFFFFFFFF AND PUSH20 0xFFFFFFFFFFFFFFFFFFFFFFFFFFFFFFFFFFFFFFFF AND DUP2 MSTORE PUSH1 0x20 ADD SWAP1 DUP2 MSTORE PUSH1 0x20 ADD PUSH1 0x0 KECCAK256 DUP7 PUSH1 0x40 MLOAD PUSH2 0x12D1 SWAP2 SWAP1 PUSH2 0x2039 JUMP JUMPDEST SWAP1 DUP2 MSTORE PUSH1 0x20 ADD PUSH1 0x40 MLOAD DUP1 SWAP2 SUB SWAP1 KECCAK256 PUSH1 0x0 ADD PUSH1 0x0 SWAP1 SLOAD SWAP1 PUSH2 0x100 EXP SWAP1 DIV PUSH20 0xFFFFFFFFFFFFFFFFFFFFFFFFFFFFFFFFFFFFFFFF AND SWAP4 POP PUSH1 0x8 PUSH1 0x0 DUP9 PUSH20 0xFFFFFFFFFFFFFFFFFFFFFFFFFFFFFFFFFFFFFFFF AND PUSH20 0xFFFFFFFFFFFFFFFFFFFFFFFFFFFFFFFFFFFFFFFF AND DUP2 MSTORE PUSH1 0x20 ADD SWAP1 DUP2 MSTORE PUSH1 0x20 ADD PUSH1 0x0 KECCAK256 DUP7 PUSH1 0x40 MLOAD PUSH2 0x1352 SWAP2 SWAP1 PUSH2 0x2039 JUMP JUMPDEST SWAP1 DUP2 MSTORE PUSH1 0x20 ADD PUSH1 0x40 MLOAD DUP1 SWAP2 SUB SWAP1 KECCAK256 PUSH1 0x2 ADD SLOAD SWAP3 POP PUSH1 0x8 PUSH1 0x0 DUP9 PUSH20 0xFFFFFFFFFFFFFFFFFFFFFFFFFFFFFFFFFFFFFFFF AND PUSH20 0xFFFFFFFFFFFFFFFFFFFFFFFFFFFFFFFFFFFFFFFF AND DUP2 MSTORE PUSH1 0x20 ADD SWAP1 DUP2 MSTORE PUSH1 0x20 ADD PUSH1 0x0 KECCAK256 DUP7 PUSH1 0x40 MLOAD PUSH2 0x13B3 SWAP2 SWAP1 PUSH2 0x2039 JUMP JUMPDEST SWAP1 DUP2 MSTORE PUSH1 0x20 ADD PUSH1 0x40 MLOAD DUP1 SWAP2 SUB SWAP1 KECCAK256 PUSH1 0x3 ADD SLOAD SWAP2 POP PUSH1 0x8 PUSH1 0x0 DUP9 PUSH20 0xFFFFFFFFFFFFFFFFFFFFFFFFFFFFFFFFFFFFFFFF AND PUSH20 0xFFFFFFFFFFFFFFFFFFFFFFFFFFFFFFFFFFFFFFFF AND DUP2 MSTORE PUSH1 0x20 ADD SWAP1 DUP2 MSTORE PUSH1 0x20 ADD PUSH1 0x0 KECCAK256 DUP7 PUSH1 0x40 MLOAD PUSH2 0x1414 SWAP2 SWAP1 PUSH2 0x2039 JUMP JUMPDEST SWAP1 DUP2 MSTORE PUSH1 0x20 ADD PUSH1 0x40 MLOAD DUP1 SWAP2 SUB SWAP1 KECCAK256 PUSH1 0x1 ADD SLOAD SWAP1 POP SWAP3 SWAP6 POP SWAP3 SWAP6 SWAP1 SWAP4 POP JUMP JUMPDEST PUSH1 0x1 PUSH1 0x0 DUP1 DUP5 PUSH20 0xFFFFFFFFFFFFFFFFFFFFFFFFFFFFFFFFFFFFFFFF AND PUSH20 0xFFFFFFFFFFFFFFFFFFFFFFFFFFFFFFFFFFFFFFFF AND DUP2 MSTORE PUSH1 0x20 ADD SWAP1 DUP2 MSTORE PUSH1 0x20 ADD PUSH1 0x0 KECCAK256 PUSH1 0x0 PUSH2 0x100 EXP DUP2 SLOAD DUP2 PUSH1 0xFF MUL NOT AND SWAP1 DUP4 ISZERO ISZERO MUL OR SWAP1 SSTORE POP DUP1 PUSH1 0x4 PUSH1 0x0 DUP5 PUSH20 0xFFFFFFFFFFFFFFFFFFFFFFFFFFFFFFFFFFFFFFFF AND PUSH20 0xFFFFFFFFFFFFFFFFFFFFFFFFFFFFFFFFFFFFFFFF AND DUP2 MSTORE PUSH1 0x20 ADD SWAP1 DUP2 MSTORE PUSH1 0x20 ADD PUSH1 0x0 KECCAK256 SWAP1 DUP2 PUSH2 0x14D5 SWAP2 SWAP1 PUSH2 0x226C JUMP JUMPDEST POP PUSH32 0xCD5007C1F083BAEC1024FA63F0D6728FB0E85E5EB620E0DEF97C4282CF32FF99 DUP3 DUP3 PUSH1 0x40 MLOAD PUSH2 0x1507 SWAP3 SWAP2 SWAP1 PUSH2 0x243C JUMP JUMPDEST PUSH1 0x40 MLOAD DUP1 SWAP2 SUB SWAP1 LOG1 POP POP JUMP JUMPDEST DUP6 PUSH1 0x8 PUSH1 0x0 DUP10 PUSH20 0xFFFFFFFFFFFFFFFFFFFFFFFFFFFFFFFFFFFFFFFF AND PUSH20 0xFFFFFFFFFFFFFFFFFFFFFFFFFFFFFFFFFFFFFFFF AND DUP2 MSTORE PUSH1 0x20 ADD SWAP1 DUP2 MSTORE PUSH1 0x20 ADD PUSH1 0x0 KECCAK256 DUP7 PUSH1 0x40 MLOAD PUSH2 0x1561 SWAP2 SWAP1 PUSH2 0x2039 JUMP JUMPDEST SWAP1 DUP2 MSTORE PUSH1 0x20 ADD PUSH1 0x40 MLOAD DUP1 SWAP2 SUB SWAP1 KECCAK256 PUSH1 0x0 ADD PUSH1 0x0 PUSH2 0x100 EXP DUP2 SLOAD DUP2 PUSH20 0xFFFFFFFFFFFFFFFFFFFFFFFFFFFFFFFFFFFFFFFF MUL NOT AND SWAP1 DUP4 PUSH20 0xFFFFFFFFFFFFFFFFFFFFFFFFFFFFFFFFFFFFFFFF AND MUL OR SWAP1 SSTORE POP DUP4 PUSH1 0x8 PUSH1 0x0 DUP10 PUSH20 0xFFFFFFFFFFFFFFFFFFFFFFFFFFFFFFFFFFFFFFFF AND PUSH20 0xFFFFFFFFFFFFFFFFFFFFFFFFFFFFFFFFFFFFFFFF AND DUP2 MSTORE PUSH1 0x20 ADD SWAP1 DUP2 MSTORE PUSH1 0x20 ADD PUSH1 0x0 KECCAK256 DUP7 PUSH1 0x40 MLOAD PUSH2 0x15FE SWAP2 SWAP1 PUSH2 0x2039 JUMP JUMPDEST SWAP1 DUP2 MSTORE PUSH1 0x20 ADD PUSH1 0x40 MLOAD DUP1 SWAP2 SUB SWAP1 KECCAK256 PUSH1 0x4 ADD SWAP1 DUP2 PUSH2 0x161B SWAP2 SWAP1 PUSH2 0x226C JUMP JUMPDEST POP DUP3 PUSH1 0x8 PUSH1 0x0 DUP10 PUSH20 0xFFFFFFFFFFFFFFFFFFFFFFFFFFFFFFFFFFFFFFFF AND PUSH20 0xFFFFFFFFFFFFFFFFFFFFFFFFFFFFFFFFFFFFFFFF AND DUP2 MSTORE PUSH1 0x20 ADD SWAP1 DUP2 MSTORE PUSH1 0x20 ADD PUSH1 0x0 KECCAK256 DUP7 PUSH1 0x40 MLOAD PUSH2 0x166A SWAP2 SWAP1 PUSH2 0x2039 JUMP JUMPDEST SWAP1 DUP2 MSTORE PUSH1 0x20 ADD PUSH1 0x40 MLOAD DUP1 SWAP2 SUB SWAP1 KECCAK256 PUSH1 0x2 ADD DUP2 SWAP1 SSTORE POP DUP1 PUSH1 0x8 PUSH1 0x0 DUP10 PUSH20 0xFFFFFFFFFFFFFFFFFFFFFFFFFFFFFFFFFFFFFFFF AND PUSH20 0xFFFFFFFFFFFFFFFFFFFFFFFFFFFFFFFFFFFFFFFF AND DUP2 MSTORE PUSH1 0x20 ADD SWAP1 DUP2 MSTORE PUSH1 0x20 ADD PUSH1 0x0 KECCAK256 DUP7 PUSH1 0x40 MLOAD PUSH2 0x16CD SWAP2 SWAP1 PUSH2 0x2039 JUMP JUMPDEST SWAP1 DUP2 MSTORE PUSH1 0x20 ADD PUSH1 0x40 MLOAD DUP1 SWAP2 SUB SWAP1 KECCAK256 PUSH1 0x3 ADD DUP2 SWAP1 SSTORE POP DUP2 PUSH1 0x8 PUSH1 0x0 DUP10 PUSH20 0xFFFFFFFFFFFFFFFFFFFFFFFFFFFFFFFFFFFFFFFF AND PUSH20 0xFFFFFFFFFFFFFFFFFFFFFFFFFFFFFFFFFFFFFFFF AND DUP2 MSTORE PUSH1 0x20 ADD SWAP1 DUP2 MSTORE PUSH1 0x20 ADD PUSH1 0x0 KECCAK256 DUP7 PUSH1 0x40 MLOAD PUSH2 0x1730 SWAP2 SWAP1 PUSH2 0x2039 JUMP JUMPDEST SWAP1 DUP2 MSTORE PUSH1 0x20 ADD PUSH1 0x40 MLOAD DUP1 SWAP2 SUB SWAP1 KECCAK256 PUSH1 0x1 ADD DUP2 SWAP1 SSTORE POP POP POP POP POP POP POP POP JUMP JUMPDEST PUSH1 0x1 PUSH1 0x3 PUSH1 0x0 DUP5 PUSH20 0xFFFFFFFFFFFFFFFFFFFFFFFFFFFFFFFFFFFFFFFF AND PUSH20 0xFFFFFFFFFFFFFFFFFFFFFFFFFFFFFFFFFFFFFFFF AND DUP2 MSTORE PUSH1 0x20 ADD SWAP1 DUP2 MSTORE PUSH1 0x20 ADD PUSH1 0x0 KECCAK256 PUSH1 0x0 PUSH2 0x100 EXP DUP2 SLOAD DUP2 PUSH1 0xFF MUL NOT AND SWAP1 DUP4 ISZERO ISZERO MUL OR SWAP1 SSTORE POP DUP1 PUSH1 0x7 PUSH1 0x0 DUP5 PUSH20 0xFFFFFFFFFFFFFFFFFFFFFFFFFFFFFFFFFFFFFFFF AND PUSH20 0xFFFFFFFFFFFFFFFFFFFFFFFFFFFFFFFFFFFFFFFF AND DUP2 MSTORE PUSH1 0x20 ADD SWAP1 DUP2 MSTORE PUSH1 0x20 ADD PUSH1 0x0 KECCAK256 SWAP1 DUP2 PUSH2 0x17F2 SWAP2 SWAP1 PUSH2 0x226C JUMP JUMPDEST POP PUSH32 0xBB1D92B487A3AD94EBD0D3F8005AC38869D7B8218DFA1B3AEF46FADDFD3A2FAD DUP3 DUP3 PUSH1 0x40 MLOAD PUSH2 0x1824 SWAP3 SWAP2 SWAP1 PUSH2 0x243C JUMP JUMPDEST PUSH1 0x40 MLOAD DUP1 SWAP2 SUB SWAP1 LOG1 POP POP JUMP JUMPDEST PUSH1 0x0 PUSH1 0x40 MLOAD SWAP1 POP SWAP1 JUMP JUMPDEST PUSH1 0x0 DUP1 REVERT JUMPDEST PUSH1 0x0 DUP1 REVERT JUMPDEST PUSH1 0x0 DUP1 REVERT JUMPDEST PUSH1 0x0 DUP1 REVERT JUMPDEST PUSH1 0x0 PUSH1 0x1F NOT PUSH1 0x1F DUP4 ADD AND SWAP1 POP SWAP2 SWAP1 POP JUMP JUMPDEST PUSH32 0x4E487B7100000000000000000000000000000000000000000000000000000000 PUSH1 0x0 MSTORE PUSH1 0x41 PUSH1 0x4 MSTORE PUSH1 0x24 PUSH1 0x0 REVERT JUMPDEST PUSH2 0x1897 DUP3 PUSH2 0x184E JUMP JUMPDEST DUP2 ADD DUP2 DUP2 LT PUSH8 0xFFFFFFFFFFFFFFFF DUP3 GT OR ISZERO PUSH2 0x18B6 JUMPI PUSH2 0x18B5 PUSH2 0x185F JUMP JUMPDEST JUMPDEST DUP1 PUSH1 0x40 MSTORE POP POP POP JUMP JUMPDEST PUSH1 0x0 PUSH2 0x18C9 PUSH2 0x1830 JUMP JUMPDEST SWAP1 POP PUSH2 0x18D5 DUP3 DUP3 PUSH2 0x188E JUMP JUMPDEST SWAP2 SWAP1 POP JUMP JUMPDEST PUSH1 0x0 PUSH8 0xFFFFFFFFFFFFFFFF DUP3 GT ISZERO PUSH2 0x18F5 JUMPI PUSH2 0x18F4 PUSH2 0x185F JUMP JUMPDEST JUMPDEST PUSH2 0x18FE DUP3 PUSH2 0x184E JUMP JUMPDEST SWAP1 POP PUSH1 0x20 DUP2 ADD SWAP1 POP SWAP2 SWAP1 POP JUMP JUMPDEST DUP3 DUP2 DUP4 CALLDATACOPY PUSH1 0x0 DUP4 DUP4 ADD MSTORE POP POP POP JUMP JUMPDEST PUSH1 0x0 PUSH2 0x192D PUSH2 0x1928 DUP5 PUSH2 0x18DA JUMP JUMPDEST PUSH2 0x18BF JUMP JUMPDEST SWAP1 POP DUP3 DUP2 MSTORE PUSH1 0x20 DUP2 ADD DUP5 DUP5 DUP5 ADD GT ISZERO PUSH2 0x1949 JUMPI PUSH2 0x1948 PUSH2 0x1849 JUMP JUMPDEST JUMPDEST PUSH2 0x1954 DUP5 DUP3 DUP6 PUSH2 0x190B JUMP JUMPDEST POP SWAP4 SWAP3 POP POP POP JUMP JUMPDEST PUSH1 0x0 DUP3 PUSH1 0x1F DUP4 ADD SLT PUSH2 0x1971 JUMPI PUSH2 0x1970 PUSH2 0x1844 JUMP JUMPDEST JUMPDEST DUP2 CALLDATALOAD PUSH2 0x1981 DUP5 DUP3 PUSH1 0x20 DUP7 ADD PUSH2 0x191A JUMP JUMPDEST SWAP2 POP POP SWAP3 SWAP2 POP POP JUMP JUMPDEST PUSH1 0x0 DUP1 PUSH1 0x40 DUP4 DUP6 SUB SLT ISZERO PUSH2 0x19A1 JUMPI PUSH2 0x19A0 PUSH2 0x183A JUMP JUMPDEST JUMPDEST PUSH1 0x0 DUP4 ADD CALLDATALOAD PUSH8 0xFFFFFFFFFFFFFFFF DUP2 GT ISZERO PUSH2 0x19BF JUMPI PUSH2 0x19BE PUSH2 0x183F JUMP JUMPDEST JUMPDEST PUSH2 0x19CB DUP6 DUP3 DUP7 ADD PUSH2 0x195C JUMP JUMPDEST SWAP3 POP POP PUSH1 0x20 DUP4 ADD CALLDATALOAD PUSH8 0xFFFFFFFFFFFFFFFF DUP2 GT ISZERO PUSH2 0x19EC JUMPI PUSH2 0x19EB PUSH2 0x183F JUMP JUMPDEST JUMPDEST PUSH2 0x19F8 DUP6 DUP3 DUP7 ADD PUSH2 0x195C JUMP JUMPDEST SWAP2 POP POP SWAP3 POP SWAP3 SWAP1 POP JUMP JUMPDEST PUSH1 0x0 PUSH20 0xFFFFFFFFFFFFFFFFFFFFFFFFFFFFFFFFFFFFFFFF DUP3 AND SWAP1 POP SWAP2 SWAP1 POP JUMP JUMPDEST PUSH1 0x0 PUSH2 0x1A2D DUP3 PUSH2 0x1A02 JUMP JUMPDEST SWAP1 POP SWAP2 SWAP1 POP JUMP JUMPDEST PUSH2 0x1A3D DUP2 PUSH2 0x1A22 JUMP JUMPDEST DUP2 EQ PUSH2 0x1A48 JUMPI PUSH1 0x0 DUP1 REVERT JUMPDEST POP JUMP JUMPDEST PUSH1 0x0 DUP2 CALLDATALOAD SWAP1 POP PUSH2 0x1A5A DUP2 PUSH2 0x1A34 JUMP JUMPDEST SWAP3 SWAP2 POP POP JUMP JUMPDEST PUSH1 0x0 DUP1 PUSH1 0x0 DUP1 PUSH1 0x0 PUSH1 0xA0 DUP7 DUP9 SUB SLT ISZERO PUSH2 0x1A7C JUMPI PUSH2 0x1A7B PUSH2 0x183A JUMP JUMPDEST JUMPDEST PUSH1 0x0 PUSH2 0x1A8A DUP9 DUP3 DUP10 ADD PUSH2 0x1A4B JUMP JUMPDEST SWAP6 POP POP PUSH1 0x20 PUSH2 0x1A9B DUP9 DUP3 DUP10 ADD PUSH2 0x1A4B JUMP JUMPDEST SWAP5 POP POP PUSH1 0x40 DUP7 ADD CALLDATALOAD PUSH8 0xFFFFFFFFFFFFFFFF DUP2 GT ISZERO PUSH2 0x1ABC JUMPI PUSH2 0x1ABB PUSH2 0x183F JUMP JUMPDEST JUMPDEST PUSH2 0x1AC8 DUP9 DUP3 DUP10 ADD PUSH2 0x195C JUMP JUMPDEST SWAP4 POP POP PUSH1 0x60 DUP7 ADD CALLDATALOAD PUSH8 0xFFFFFFFFFFFFFFFF DUP2 GT ISZERO PUSH2 0x1AE9 JUMPI PUSH2 0x1AE8 PUSH2 0x183F JUMP JUMPDEST JUMPDEST PUSH2 0x1AF5 DUP9 DUP3 DUP10 ADD PUSH2 0x195C JUMP JUMPDEST SWAP3 POP POP PUSH1 0x80 DUP7 ADD CALLDATALOAD PUSH8 0xFFFFFFFFFFFFFFFF DUP2 GT ISZERO PUSH2 0x1B16 JUMPI PUSH2 0x1B15 PUSH2 0x183F JUMP JUMPDEST JUMPDEST PUSH2 0x1B22 DUP9 DUP3 DUP10 ADD PUSH2 0x195C JUMP JUMPDEST SWAP2 POP POP SWAP3 SWAP6 POP SWAP3 SWAP6 SWAP1 SWAP4 POP JUMP JUMPDEST PUSH1 0x0 DUP1 PUSH1 0x40 DUP4 DUP6 SUB SLT ISZERO PUSH2 0x1B46 JUMPI PUSH2 0x1B45 PUSH2 0x183A JUMP JUMPDEST JUMPDEST PUSH1 0x0 PUSH2 0x1B54 DUP6 DUP3 DUP7 ADD PUSH2 0x1A4B JUMP JUMPDEST SWAP3 POP POP PUSH1 0x20 DUP4 ADD CALLDATALOAD PUSH8 0xFFFFFFFFFFFFFFFF DUP2 GT ISZERO PUSH2 0x1B75 JUMPI PUSH2 0x1B74 PUSH2 0x183F JUMP JUMPDEST JUMPDEST PUSH2 0x1B81 DUP6 DUP3 DUP7 ADD PUSH2 0x195C JUMP JUMPDEST SWAP2 POP POP SWAP3 POP SWAP3 SWAP1 POP JUMP JUMPDEST PUSH1 0x0 DUP2 MLOAD SWAP1 POP SWAP2 SWAP1 POP JUMP JUMPDEST PUSH1 0x0 DUP3 DUP3 MSTORE PUSH1 0x20 DUP3 ADD SWAP1 POP SWAP3 SWAP2 POP POP JUMP JUMPDEST PUSH1 0x0 JUMPDEST DUP4 DUP2 LT ISZERO PUSH2 0x1BC5 JUMPI DUP1 DUP3 ADD MLOAD DUP2 DUP5 ADD MSTORE PUSH1 0x20 DUP2 ADD SWAP1 POP PUSH2 0x1BAA JUMP JUMPDEST PUSH1 0x0 DUP5 DUP5 ADD MSTORE POP POP POP POP JUMP JUMPDEST PUSH1 0x0 PUSH2 0x1BDC DUP3 PUSH2 0x1B8B JUMP JUMPDEST PUSH2 0x1BE6 DUP2 DUP6 PUSH2 0x1B96 JUMP JUMPDEST SWAP4 POP PUSH2 0x1BF6 DUP2 DUP6 PUSH1 0x20 DUP7 ADD PUSH2 0x1BA7 JUMP JUMPDEST PUSH2 0x1BFF DUP2 PUSH2 0x184E JUMP JUMPDEST DUP5 ADD SWAP2 POP POP SWAP3 SWAP2 POP POP JUMP JUMPDEST PUSH1 0x0 DUP2 SWAP1 POP SWAP2 SWAP1 POP JUMP JUMPDEST PUSH2 0x1C1D DUP2 PUSH2 0x1C0A JUMP JUMPDEST DUP3 MSTORE POP POP JUMP JUMPDEST PUSH1 0x0 PUSH1 0xA0 DUP3 ADD SWAP1 POP DUP2 DUP2 SUB PUSH1 0x0 DUP4 ADD MSTORE PUSH2 0x1C3D DUP2 DUP9 PUSH2 0x1BD1 JUMP JUMPDEST SWAP1 POP DUP2 DUP2 SUB PUSH1 0x20 DUP4 ADD MSTORE PUSH2 0x1C51 DUP2 DUP8 PUSH2 0x1BD1 JUMP JUMPDEST SWAP1 POP DUP2 DUP2 SUB PUSH1 0x40 DUP4 ADD MSTORE PUSH2 0x1C65 DUP2 DUP7 PUSH2 0x1BD1 JUMP JUMPDEST SWAP1 POP DUP2 DUP2 SUB PUSH1 0x60 DUP4 ADD MSTORE PUSH2 0x1C79 DUP2 DUP6 PUSH2 0x1BD1 JUMP JUMPDEST SWAP1 POP PUSH2 0x1C88 PUSH1 0x80 DUP4 ADD DUP5 PUSH2 0x1C14 JUMP JUMPDEST SWAP7 SWAP6 POP POP POP POP POP POP JUMP JUMPDEST PUSH1 0x0 DUP1 PUSH1 0x0 PUSH1 0x60 DUP5 DUP7 SUB SLT ISZERO PUSH2 0x1CAB JUMPI PUSH2 0x1CAA PUSH2 0x183A JUMP JUMPDEST JUMPDEST PUSH1 0x0 PUSH2 0x1CB9 DUP7 DUP3 DUP8 ADD PUSH2 0x1A4B JUMP JUMPDEST SWAP4 POP POP PUSH1 0x20 PUSH2 0x1CCA DUP7 DUP3 DUP8 ADD PUSH2 0x1A4B JUMP JUMPDEST SWAP3 POP POP PUSH1 0x40 DUP5 ADD CALLDATALOAD PUSH8 0xFFFFFFFFFFFFFFFF DUP2 GT ISZERO PUSH2 0x1CEB JUMPI PUSH2 0x1CEA PUSH2 0x183F JUMP JUMPDEST JUMPDEST PUSH2 0x1CF7 DUP7 DUP3 DUP8 ADD PUSH2 0x195C JUMP JUMPDEST SWAP2 POP POP SWAP3 POP SWAP3 POP SWAP3 JUMP JUMPDEST PUSH1 0x0 PUSH1 0x40 DUP3 ADD SWAP1 POP DUP2 DUP2 SUB PUSH1 0x0 DUP4 ADD MSTORE PUSH2 0x1D1B DUP2 DUP6 PUSH2 0x1BD1 JUMP JUMPDEST SWAP1 POP DUP2 DUP2 SUB PUSH1 0x20 DUP4 ADD MSTORE PUSH2 0x1D2F DUP2 DUP5 PUSH2 0x1BD1 JUMP JUMPDEST SWAP1 POP SWAP4 SWAP3 POP POP POP JUMP JUMPDEST PUSH2 0x1D41 DUP2 PUSH2 0x1C0A JUMP JUMPDEST DUP2 EQ PUSH2 0x1D4C JUMPI PUSH1 0x0 DUP1 REVERT JUMPDEST POP JUMP JUMPDEST PUSH1 0x0 DUP2 CALLDATALOAD SWAP1 POP PUSH2 0x1D5E DUP2 PUSH2 0x1D38 JUMP JUMPDEST SWAP3 SWAP2 POP POP JUMP JUMPDEST PUSH1 0x0 DUP1 PUSH1 0x0 DUP1 PUSH1 0x0 DUP1 PUSH1 0x0 DUP1 PUSH1 0x0 PUSH2 0x120 DUP11 DUP13 SUB SLT ISZERO PUSH2 0x1D87 JUMPI PUSH2 0x1D86 PUSH2 0x183A JUMP JUMPDEST JUMPDEST PUSH1 0x0 PUSH2 0x1D95 DUP13 DUP3 DUP14 ADD PUSH2 0x1A4B JUMP JUMPDEST SWAP10 POP POP PUSH1 0x20 PUSH2 0x1DA6 DUP13 DUP3 DUP14 ADD PUSH2 0x1A4B JUMP JUMPDEST SWAP9 POP POP PUSH1 0x40 PUSH2 0x1DB7 DUP13 DUP3 DUP14 ADD PUSH2 0x1A4B JUMP JUMPDEST SWAP8 POP POP PUSH1 0x60 DUP11 ADD CALLDATALOAD PUSH8 0xFFFFFFFFFFFFFFFF DUP2 GT ISZERO PUSH2 0x1DD8 JUMPI PUSH2 0x1DD7 PUSH2 0x183F JUMP JUMPDEST JUMPDEST PUSH2 0x1DE4 DUP13 DUP3 DUP14 ADD PUSH2 0x195C JUMP JUMPDEST SWAP7 POP POP PUSH1 0x80 DUP11 ADD CALLDATALOAD PUSH8 0xFFFFFFFFFFFFFFFF DUP2 GT ISZERO PUSH2 0x1E05 JUMPI PUSH2 0x1E04 PUSH2 0x183F JUMP JUMPDEST JUMPDEST PUSH2 0x1E11 DUP13 DUP3 DUP14 ADD PUSH2 0x195C JUMP JUMPDEST SWAP6 POP POP PUSH1 0xA0 DUP11 ADD CALLDATALOAD PUSH8 0xFFFFFFFFFFFFFFFF DUP2 GT ISZERO PUSH2 0x1E32 JUMPI PUSH2 0x1E31 PUSH2 0x183F JUMP JUMPDEST JUMPDEST PUSH2 0x1E3E DUP13 DUP3 DUP14 ADD PUSH2 0x195C JUMP JUMPDEST SWAP5 POP POP PUSH1 0xC0 DUP11 ADD CALLDATALOAD PUSH8 0xFFFFFFFFFFFFFFFF DUP2 GT ISZERO PUSH2 0x1E5F JUMPI PUSH2 0x1E5E PUSH2 0x183F JUMP JUMPDEST JUMPDEST PUSH2 0x1E6B DUP13 DUP3 DUP14 ADD PUSH2 0x195C JUMP JUMPDEST SWAP4 POP POP PUSH1 0xE0 PUSH2 0x1E7C DUP13 DUP3 DUP14 ADD PUSH2 0x1D4F JUMP JUMPDEST SWAP3 POP POP PUSH2 0x100 DUP11 ADD CALLDATALOAD PUSH8 0xFFFFFFFFFFFFFFFF DUP2 GT ISZERO PUSH2 0x1E9E JUMPI PUSH2 0x1E9D PUSH2 0x183F JUMP JUMPDEST JUMPDEST PUSH2 0x1EAA DUP13 DUP3 DUP14 ADD PUSH2 0x195C JUMP JUMPDEST SWAP2 POP POP SWAP3 SWAP6 SWAP9 POP SWAP3 SWAP6 SWAP9 POP SWAP3 SWAP6 SWAP9 JUMP JUMPDEST PUSH2 0x1EC3 DUP2 PUSH2 0x1A22 JUMP JUMPDEST DUP3 MSTORE POP POP JUMP JUMPDEST PUSH1 0x0 PUSH1 0xA0 DUP3 ADD SWAP1 POP DUP2 DUP2 SUB PUSH1 0x0 DUP4 ADD MSTORE PUSH2 0x1EE3 DUP2 DUP9 PUSH2 0x1BD1 JUMP JUMPDEST SWAP1 POP PUSH2 0x1EF2 PUSH1 0x20 DUP4 ADD DUP8 PUSH2 0x1EBA JUMP JUMPDEST PUSH2 0x1EFF PUSH1 0x40 DUP4 ADD DUP7 PUSH2 0x1C14 JUMP JUMPDEST PUSH2 0x1F0C PUSH1 0x60 DUP4 ADD DUP6 PUSH2 0x1C14 JUMP JUMPDEST PUSH2 0x1F19 PUSH1 0x80 DUP4 ADD DUP5 PUSH2 0x1C14 JUMP JUMPDEST SWAP7 SWAP6 POP POP POP POP POP POP JUMP JUMPDEST PUSH1 0x0 DUP1 PUSH1 0x0 DUP1 PUSH1 0x0 DUP1 PUSH1 0x0 PUSH1 0xE0 DUP9 DUP11 SUB SLT ISZERO PUSH2 0x1F42 JUMPI PUSH2 0x1F41 PUSH2 0x183A JUMP JUMPDEST JUMPDEST PUSH1 0x0 PUSH2 0x1F50 DUP11 DUP3 DUP12 ADD PUSH2 0x1A4B JUMP JUMPDEST SWAP8 POP POP PUSH1 0x20 PUSH2 0x1F61 DUP11 DUP3 DUP12 ADD PUSH2 0x1A4B JUMP JUMPDEST SWAP7 POP POP PUSH1 0x40 DUP9 ADD CALLDATALOAD PUSH8 0xFFFFFFFFFFFFFFFF DUP2 GT ISZERO PUSH2 0x1F82 JUMPI PUSH2 0x1F81 PUSH2 0x183F JUMP JUMPDEST JUMPDEST PUSH2 0x1F8E DUP11 DUP3 DUP12 ADD PUSH2 0x195C JUMP JUMPDEST SWAP6 POP POP PUSH1 0x60 DUP9 ADD CALLDATALOAD PUSH8 0xFFFFFFFFFFFFFFFF DUP2 GT ISZERO PUSH2 0x1FAF JUMPI PUSH2 0x1FAE PUSH2 0x183F JUMP JUMPDEST JUMPDEST PUSH2 0x1FBB DUP11 DUP3 DUP12 ADD PUSH2 0x195C JUMP JUMPDEST SWAP5 POP POP PUSH1 0x80 PUSH2 0x1FCC DUP11 DUP3 DUP12 ADD PUSH2 0x1D4F JUMP JUMPDEST SWAP4 POP POP PUSH1 0xA0 PUSH2 0x1FDD DUP11 DUP3 DUP12 ADD PUSH2 0x1D4F JUMP JUMPDEST SWAP3 POP POP PUSH1 0xC0 PUSH2 0x1FEE DUP11 DUP3 DUP12 ADD PUSH2 0x1D4F JUMP JUMPDEST SWAP2 POP POP SWAP3 SWAP6 SWAP9 SWAP2 SWAP5 SWAP8 POP SWAP3 SWAP6 POP JUMP JUMPDEST PUSH1 0x0 DUP2 SWAP1 POP SWAP3 SWAP2 POP POP JUMP JUMPDEST PUSH1 0x0 PUSH2 0x2013 DUP3 PUSH2 0x1B8B JUMP JUMPDEST PUSH2 0x201D DUP2 DUP6 PUSH2 0x1FFD JUMP JUMPDEST SWAP4 POP PUSH2 0x202D DUP2 DUP6 PUSH1 0x20 DUP7 ADD PUSH2 0x1BA7 JUMP JUMPDEST DUP1 DUP5 ADD SWAP2 POP POP SWAP3 SWAP2 POP POP JUMP JUMPDEST PUSH1 0x0 PUSH2 0x2045 DUP3 DUP5 PUSH2 0x2008 JUMP JUMPDEST SWAP2 POP DUP2 SWAP1 POP SWAP3 SWAP2 POP POP JUMP JUMPDEST PUSH32 0x4E487B7100000000000000000000000000000000000000000000000000000000 PUSH1 0x0 MSTORE PUSH1 0x22 PUSH1 0x4 MSTORE PUSH1 0x24 PUSH1 0x0 REVERT JUMPDEST PUSH1 0x0 PUSH1 0x2 DUP3 DIV SWAP1 POP PUSH1 0x1 DUP3 AND DUP1 PUSH2 0x2097 JUMPI PUSH1 0x7F DUP3 AND SWAP2 POP JUMPDEST PUSH1 0x20 DUP3 LT DUP2 SUB PUSH2 0x20AA JUMPI PUSH2 0x20A9 PUSH2 0x2050 JUMP JUMPDEST JUMPDEST POP SWAP2 SWAP1 POP JUMP JUMPDEST PUSH1 0x0 DUP2 SWAP1 POP DUP2 PUSH1 0x0 MSTORE PUSH1 0x20 PUSH1 0x0 KECCAK256 SWAP1 POP SWAP2 SWAP1 POP JUMP JUMPDEST PUSH1 0x0 PUSH1 0x20 PUSH1 0x1F DUP4 ADD DIV SWAP1 POP SWAP2 SWAP1 POP JUMP JUMPDEST PUSH1 0x0 DUP2 PUSH1 0x2 EXP DUP4 MUL SWAP1 POP SWAP3 SWAP2 POP POP JUMP JUMPDEST PUSH1 0x0 PUSH1 0x8 DUP4 MUL PUSH2 0x2115 PUSH32 0xFFFFFFFFFFFFFFFFFFFFFFFFFFFFFFFFFFFFFFFFFFFFFFFFFFFFFFFFFFFFFFFF DUP3 PUSH2 0x20D5 JUMP JUMPDEST PUSH2 0x211F DUP7 DUP4 PUSH2 0x20D5 JUMP JUMPDEST SWAP6 POP DUP1 NOT DUP5 AND SWAP4 POP DUP1 DUP7 AND DUP5 OR SWAP3 POP POP POP SWAP4 SWAP3 POP POP POP JUMP JUMPDEST PUSH1 0x0 DUP2 SWAP1 POP SWAP2 SWAP1 POP JUMP JUMPDEST PUSH1 0x0 DUP2 SWAP1 POP SWAP2 SWAP1 POP JUMP JUMPDEST PUSH1 0x0 PUSH2 0x2166 PUSH2 0x2161 PUSH2 0x215C DUP5 PUSH2 0x2137 JUMP JUMPDEST PUSH2 0x2141 JUMP JUMPDEST PUSH2 0x2137 JUMP JUMPDEST SWAP1 POP SWAP2 SWAP1 POP JUMP JUMPDEST PUSH1 0x0 DUP2 SWAP1 POP SWAP2 SWAP1 POP JUMP JUMPDEST PUSH2 0x2180 DUP4 PUSH2 0x214B JUMP JUMPDEST PUSH2 0x2194 PUSH2 0x218C DUP3 PUSH2 0x216D JUMP JUMPDEST DUP5 DUP5 SLOAD PUSH2 0x20E5 JUMP JUMPDEST DUP3 SSTORE POP POP POP POP JUMP JUMPDEST PUSH1 0x0 SWAP1 JUMP JUMPDEST PUSH2 0x21A9 PUSH2 0x219C JUMP JUMPDEST PUSH2 0x21B4 DUP2 DUP5 DUP5 PUSH2 0x2177 JUMP JUMPDEST POP POP POP JUMP JUMPDEST JUMPDEST DUP2 DUP2 LT ISZERO PUSH2 0x21D8 JUMPI PUSH2 0x21CD PUSH1 0x0 DUP3 PUSH2 0x21A1 JUMP JUMPDEST PUSH1 0x1 DUP2 ADD SWAP1 POP PUSH2 0x21BA JUMP JUMPDEST POP POP JUMP JUMPDEST PUSH1 0x1F DUP3 GT ISZERO PUSH2 0x221D JUMPI PUSH2 0x21EE DUP2 PUSH2 0x20B0 JUMP JUMPDEST PUSH2 0x21F7 DUP5 PUSH2 0x20C5 JUMP JUMPDEST DUP2 ADD PUSH1 0x20 DUP6 LT ISZERO PUSH2 0x2206 JUMPI DUP2 SWAP1 POP JUMPDEST PUSH2 0x221A PUSH2 0x2212 DUP6 PUSH2 0x20C5 JUMP JUMPDEST DUP4 ADD DUP3 PUSH2 0x21B9 JUMP JUMPDEST POP POP JUMPDEST POP POP POP JUMP JUMPDEST PUSH1 0x0 DUP2 PUSH1 0x2 EXP DUP4 DIV SWAP1 POP SWAP3 SWAP2 POP POP JUMP JUMPDEST PUSH1 0x0 PUSH2 0x2243 PUSH1 0x0 NOT DUP5 PUSH1 0x8 MUL PUSH2 0x2222 JUMP JUMPDEST NOT DUP1 DUP4 AND SWAP2 POP POP SWAP3 SWAP2 POP POP JUMP JUMPDEST PUSH1 0x0 PUSH2 0x225C DUP4 DUP4 PUSH2 0x2232 JUMP JUMPDEST SWAP2 POP DUP3 PUSH1 0x2 MUL DUP3 OR SWAP1 POP SWAP3 SWAP2 POP POP JUMP JUMPDEST PUSH2 0x2275 DUP3 PUSH2 0x1B8B JUMP JUMPDEST PUSH8 0xFFFFFFFFFFFFFFFF DUP2 GT ISZERO PUSH2 0x228E JUMPI PUSH2 0x228D PUSH2 0x185F JUMP JUMPDEST JUMPDEST PUSH2 0x2298 DUP3 SLOAD PUSH2 0x207F JUMP JUMPDEST PUSH2 0x22A3 DUP3 DUP3 DUP6 PUSH2 0x21DC JUMP JUMPDEST PUSH1 0x0 PUSH1 0x20 SWAP1 POP PUSH1 0x1F DUP4 GT PUSH1 0x1 DUP2 EQ PUSH2 0x22D6 JUMPI PUSH1 0x0 DUP5 ISZERO PUSH2 0x22C4 JUMPI DUP3 DUP8 ADD MLOAD SWAP1 POP JUMPDEST PUSH2 0x22CE DUP6 DUP3 PUSH2 0x2250 JUMP JUMPDEST DUP7 SSTORE POP PUSH2 0x2336 JUMP JUMPDEST PUSH1 0x1F NOT DUP5 AND PUSH2 0x22E4 DUP7 PUSH2 0x20B0 JUMP JUMPDEST PUSH1 0x0 JUMPDEST DUP3 DUP2 LT ISZERO PUSH2 0x230C JUMPI DUP5 DUP10 ADD MLOAD DUP3 SSTORE PUSH1 0x1 DUP3 ADD SWAP2 POP PUSH1 0x20 DUP6 ADD SWAP5 POP PUSH1 0x20 DUP2 ADD SWAP1 POP PUSH2 0x22E7 JUMP JUMPDEST DUP7 DUP4 LT ISZERO PUSH2 0x2329 JUMPI DUP5 DUP10 ADD MLOAD PUSH2 0x2325 PUSH1 0x1F DUP10 AND DUP3 PUSH2 0x2232 JUMP JUMPDEST DUP4 SSTORE POP JUMPDEST PUSH1 0x1 PUSH1 0x2 DUP9 MUL ADD DUP9 SSTORE POP POP POP JUMPDEST POP POP POP POP POP POP JUMP JUMPDEST PUSH1 0x0 DUP2 SLOAD SWAP1 POP PUSH2 0x234D DUP2 PUSH2 0x207F JUMP JUMPDEST SWAP1 POP SWAP2 SWAP1 POP JUMP JUMPDEST DUP2 DUP2 SUB PUSH2 0x2362 JUMPI POP POP PUSH2 0x243A JUMP JUMPDEST PUSH2 0x236B DUP3 PUSH2 0x233E JUMP JUMPDEST PUSH8 0xFFFFFFFFFFFFFFFF DUP2 GT ISZERO PUSH2 0x2384 JUMPI PUSH2 0x2383 PUSH2 0x185F JUMP JUMPDEST JUMPDEST PUSH2 0x238E DUP3 SLOAD PUSH2 0x207F JUMP JUMPDEST PUSH2 0x2399 DUP3 DUP3 DUP6 PUSH2 0x21DC JUMP JUMPDEST PUSH1 0x0 PUSH1 0x1F DUP4 GT PUSH1 0x1 DUP2 EQ PUSH2 0x23C8 JUMPI PUSH1 0x0 DUP5 ISZERO PUSH2 0x23B6 JUMPI DUP3 DUP8 ADD SLOAD SWAP1 POP JUMPDEST PUSH2 0x23C0 DUP6 DUP3 PUSH2 0x2250 JUMP JUMPDEST DUP7 SSTORE POP PUSH2 0x2433 JUMP JUMPDEST PUSH1 0x1F NOT DUP5 AND PUSH2 0x23D6 DUP8 PUSH2 0x20B0 JUMP JUMPDEST SWAP7 POP PUSH2 0x23E1 DUP7 PUSH2 0x20B0 JUMP JUMPDEST PUSH1 0x0 JUMPDEST DUP3 DUP2 LT ISZERO PUSH2 0x2409 JUMPI DUP5 DUP10 ADD SLOAD DUP3 SSTORE PUSH1 0x1 DUP3 ADD SWAP2 POP PUSH1 0x1 DUP6 ADD SWAP5 POP PUSH1 0x20 DUP2 ADD SWAP1 POP PUSH2 0x23E4 JUMP JUMPDEST DUP7 DUP4 LT ISZERO PUSH2 0x2426 JUMPI DUP5 DUP10 ADD SLOAD PUSH2 0x2422 PUSH1 0x1F DUP10 AND DUP3 PUSH2 0x2232 JUMP JUMPDEST DUP4 SSTORE POP JUMPDEST PUSH1 0x1 PUSH1 0x2 DUP9 MUL ADD DUP9 SSTORE POP POP POP JUMPDEST POP POP POP POP POP POP JUMPDEST JUMP JUMPDEST PUSH1 0x0 PUSH1 0x40 DUP3 ADD SWAP1 POP PUSH2 0x2451 PUSH1 0x0 DUP4 ADD DUP6 PUSH2 0x1EBA JUMP JUMPDEST DUP2 DUP2 SUB PUSH1 0x20 DUP4 ADD MSTORE PUSH2 0x2463 DUP2 DUP5 PUSH2 0x1BD1 JUMP JUMPDEST SWAP1 POP SWAP4 SWAP3 POP POP POP JUMP JUMPDEST PUSH1 0x0 DUP2 SLOAD PUSH2 0x2479 DUP2 PUSH2 0x207F JUMP JUMPDEST PUSH2 0x2483 DUP2 DUP7 PUSH2 0x1FFD JUMP JUMPDEST SWAP5 POP PUSH1 0x1 DUP3 AND PUSH1 0x0 DUP2 EQ PUSH2 0x249E JUMPI PUSH1 0x1 DUP2 EQ PUSH2 0x24B3 JUMPI PUSH2 0x24E6 JUMP JUMPDEST PUSH1 0xFF NOT DUP4 AND DUP7 MSTORE DUP2 ISZERO ISZERO DUP3 MUL DUP7 ADD SWAP4 POP PUSH2 0x24E6 JUMP JUMPDEST PUSH2 0x24BC DUP6 PUSH2 0x20B0 JUMP JUMPDEST PUSH1 0x0 JUMPDEST DUP4 DUP2 LT ISZERO PUSH2 0x24DE JUMPI DUP2 SLOAD DUP2 DUP10 ADD MSTORE PUSH1 0x1 DUP3 ADD SWAP2 POP PUSH1 0x20 DUP2 ADD SWAP1 POP PUSH2 0x24BF JUMP JUMPDEST DUP4 DUP9 ADD SWAP6 POP POP POP JUMPDEST POP POP POP SWAP3 SWAP2 POP POP JUMP JUMPDEST PUSH1 0x0 PUSH2 0x24FB DUP3 DUP5 PUSH2 0x246C JUMP JUMPDEST SWAP2 POP DUP2 SWAP1 POP SWAP3 SWAP2 POP POP JUMP INVALID LOG2 PUSH5 0x6970667358 0x22 SLT KECCAK256 0xA8 CREATE2 BASEFEE BYTE MSTORE8 SWAP4 0xD1 DIFFICULTY MSTORE CALLDATALOAD 0xBE SLT PUSH24 0xAA87303298A082FB3690A7AC280D8A45DA81F664736F6C63 NUMBER STOP ADDMOD AND STOP CALLER "
		},
		"gasEstimates": {
			"creation": {
				"codeDepositCost": "1906400",
				"executionCost": "2012",
				"totalCost": "1908412"
			},
			"external": {
				"BatchtoLot(string,string)": "infinite",
				"addFarmer(address,string)": "infinite",
				"addInspector(address,string)": "infinite",
				"addProcessor(address,string)": "infinite",
				"addProcessorReport(address,address,string,string,string)": "infinite",
				"addQualityReport(address,address,string,string,int256,int256,int256)": "infinite",
				"addRetailer(address,string)": "infinite",
				"addRetailerReport(address,address,address,string,string,string,string,int256,string)": "infinite",
				"getProcessorReport(address,address,string)": "infinite",
				"getQualityReport(address,string)": "infinite",
				"getRetailerReport(address,string)": "infinite"
			}
		},
		"methodIdentifiers": {
			"BatchtoLot(string,string)": "10bdc518",
			"addFarmer(address,string)": "89671bf0",
			"addInspector(address,string)": "e1277058",
			"addProcessor(address,string)": "78e5099b",
			"addProcessorReport(address,address,string,string,string)": "296c3ad1",
			"addQualityReport(address,address,string,string,int256,int256,int256)": "a64ad3ff",
			"addRetailer(address,string)": "75c6da23",
			"addRetailerReport(address,address,address,string,string,string,string,int256,string)": "84730f7a",
			"getProcessorReport(address,address,string)": "5b5100ff",
			"getQualityReport(address,string)": "864a80b4",
			"getRetailerReport(address,string)": "37225024"
		}
	},
	"abi": [
		{
			"anonymous": false,
			"inputs": [
				{
					"indexed": false,
					"internalType": "address",
					"name": "farmerAddress",
					"type": "address"
				},
				{
					"indexed": false,
					"internalType": "string",
					"name": "farmerKey",
					"type": "string"
				}
			],
			"name": "farmerAddition",
			"type": "event"
		},
		{
			"anonymous": false,
			"inputs": [
				{
					"indexed": false,
					"internalType": "address",
					"name": "inspectoAddress",
					"type": "address"
				},
				{
					"indexed": false,
					"internalType": "string",
					"name": "inspectoKey",
					"type": "string"
				}
			],
			"name": "inspectorAddition",
			"type": "event"
		},
		{
			"anonymous": false,
			"inputs": [
				{
					"indexed": false,
					"internalType": "address",
					"name": "processorAddress",
					"type": "address"
				},
				{
					"indexed": false,
					"internalType": "string",
					"name": "processorKey",
					"type": "string"
				}
			],
			"name": "processorAddition",
			"type": "event"
		},
		{
			"anonymous": false,
			"inputs": [
				{
					"indexed": false,
					"internalType": "address",
					"name": "retailerAddress",
					"type": "address"
				},
				{
					"indexed": false,
					"internalType": "string",
					"name": "retailerKey",
					"type": "string"
				}
			],
			"name": "retailerAddition",
			"type": "event"
		},
		{
			"inputs": [
				{
					"internalType": "string",
					"name": "_batchNumber",
					"type": "string"
				},
				{
					"internalType": "string",
					"name": "_lotNumber",
					"type": "string"
				}
			],
			"name": "BatchtoLot",
			"outputs": [],
			"stateMutability": "nonpayable",
			"type": "function"
		},
		{
			"inputs": [
				{
					"internalType": "address",
					"name": "_farmer",
					"type": "address"
				},
				{
					"internalType": "string",
					"name": "_farmerKey",
					"type": "string"
				}
			],
			"name": "addFarmer",
			"outputs": [],
			"stateMutability": "nonpayable",
			"type": "function"
		},
		{
			"inputs": [
				{
					"internalType": "address",
					"name": "_inspector",
					"type": "address"
				},
				{
					"internalType": "string",
					"name": "_inspectorKey",
					"type": "string"
				}
			],
			"name": "addInspector",
			"outputs": [],
			"stateMutability": "nonpayable",
			"type": "function"
		},
		{
			"inputs": [
				{
					"internalType": "address",
					"name": "_processor",
					"type": "address"
				},
				{
					"internalType": "string",
					"name": "_processorKey",
					"type": "string"
				}
			],
			"name": "addProcessor",
			"outputs": [],
			"stateMutability": "nonpayable",
			"type": "function"
		},
		{
			"inputs": [
				{
					"internalType": "address",
					"name": "_processor",
					"type": "address"
				},
				{
					"internalType": "address",
					"name": "_farmer",
					"type": "address"
				},
				{
					"internalType": "string",
					"name": "_lotNumber",
					"type": "string"
				},
				{
					"internalType": "string",
					"name": "_remarks",
					"type": "string"
				},
				{
					"internalType": "string",
					"name": "_receivedShipment",
					"type": "string"
				}
			],
			"name": "addProcessorReport",
			"outputs": [],
			"stateMutability": "nonpayable",
			"type": "function"
		},
		{
			"inputs": [
				{
					"internalType": "address",
					"name": "_farmer",
					"type": "address"
				},
				{
					"internalType": "address",
					"name": "_inspector",
					"type": "address"
				},
				{
					"internalType": "string",
					"name": "_lotNumber",
					"type": "string"
				},
				{
					"internalType": "string",
					"name": "_remarks",
					"type": "string"
				},
				{
					"internalType": "int256",
					"name": "_sampleSize",
					"type": "int256"
				},
				{
					"internalType": "int256",
					"name": "_quantity",
					"type": "int256"
				},
				{
					"internalType": "int256",
					"name": "_defective",
					"type": "int256"
				}
			],
			"name": "addQualityReport",
			"outputs": [],
			"stateMutability": "nonpayable",
			"type": "function"
		},
		{
			"inputs": [
				{
					"internalType": "address",
					"name": "_retailer",
					"type": "address"
				},
				{
					"internalType": "string",
					"name": "_retailerKey",
					"type": "string"
				}
			],
			"name": "addRetailer",
			"outputs": [],
			"stateMutability": "nonpayable",
			"type": "function"
		},
		{
			"inputs": [
				{
					"internalType": "address",
					"name": "_retailer",
					"type": "address"
				},
				{
					"internalType": "address",
					"name": "_processor",
					"type": "address"
				},
				{
					"internalType": "address",
					"name": "_farmer",
					"type": "address"
				},
				{
					"internalType": "string",
					"name": "_remarks",
					"type": "string"
				},
				{
					"internalType": "string",
					"name": "_rawMaterial",
					"type": "string"
				},
				{
					"internalType": "string",
					"name": "_productName",
					"type": "string"
				},
				{
					"internalType": "string",
					"name": "_manufacturedDate",
					"type": "string"
				},
				{
					"internalType": "int256",
					"name": "_quantity",
					"type": "int256"
				},
				{
					"internalType": "string",
					"name": "_batchNumber",
					"type": "string"
				}
			],
			"name": "addRetailerReport",
			"outputs": [],
			"stateMutability": "nonpayable",
			"type": "function"
		},
		{
			"inputs": [
				{
					"internalType": "address",
					"name": "_processor",
					"type": "address"
				},
				{
					"internalType": "address",
					"name": "_farmer",
					"type": "address"
				},
				{
					"internalType": "string",
					"name": "_lotNumber",
					"type": "string"
				}
			],
			"name": "getProcessorReport",
			"outputs": [
				{
					"internalType": "string",
					"name": "_remarks",
					"type": "string"
				},
				{
					"internalType": "string",
					"name": "_receivedShipment",
					"type": "string"
				}
			],
			"stateMutability": "view",
			"type": "function"
		},
		{
			"inputs": [
				{
					"internalType": "address",
					"name": "_farmer",
					"type": "address"
				},
				{
					"internalType": "string",
					"name": "_lotNumber",
					"type": "string"
				}
			],
			"name": "getQualityReport",
			"outputs": [
				{
					"internalType": "string",
					"name": "_remarks",
					"type": "string"
				},
				{
					"internalType": "address",
					"name": "_inspector",
					"type": "address"
				},
				{
					"internalType": "int256",
					"name": "_sampleSize",
					"type": "int256"
				},
				{
					"internalType": "int256",
					"name": "_defective",
					"type": "int256"
				},
				{
					"internalType": "int256",
					"name": "_quantity",
					"type": "int256"
				}
			],
			"stateMutability": "view",
			"type": "function"
		},
		{
			"inputs": [
				{
					"internalType": "address",
					"name": "_retailer",
					"type": "address"
				},
				{
					"internalType": "string",
					"name": "_batchNumber",
					"type": "string"
				}
			],
			"name": "getRetailerReport",
			"outputs": [
				{
					"internalType": "string",
					"name": "_productName",
					"type": "string"
				},
				{
					"internalType": "string",
					"name": "_remarks",
					"type": "string"
				},
				{
					"internalType": "string",
					"name": "_rawMaterial",
					"type": "string"
				},
				{
					"internalType": "string",
					"name": "_manufacturedDate",
					"type": "string"
				},
				{
					"internalType": "int256",
					"name": "_quantity",
					"type": "int256"
				}
			],
			"stateMutability": "view",
			"type": "function"
		}
	]
}